{
  "_format": "hh-sol-artifact-1",
  "contractName": "RevenueSharingPool",
  "sourceName": "contracts/RevenueSharingPool.sol",
  "abi": [
    {
      "inputs": [],
      "stateMutability": "nonpayable",
      "type": "constructor"
    },
    {
      "anonymous": false,
      "inputs": [
        {
          "indexed": false,
          "internalType": "uint256",
          "name": "_timestamp",
          "type": "uint256"
        },
        {
          "indexed": false,
          "internalType": "uint256",
          "name": "_tokens",
          "type": "uint256"
        }
      ],
      "name": "LogCheckpointToken",
      "type": "event"
    },
    {
      "anonymous": false,
      "inputs": [
        {
          "indexed": true,
          "internalType": "address",
          "name": "_recipient",
          "type": "address"
        },
        {
          "indexed": false,
          "internalType": "uint256",
          "name": "_amount",
          "type": "uint256"
        },
        {
          "indexed": false,
          "internalType": "uint256",
          "name": "_claimEpoch",
          "type": "uint256"
        },
        {
          "indexed": false,
          "internalType": "uint256",
          "name": "_maxEpoch",
          "type": "uint256"
        }
      ],
      "name": "LogClaimed",
      "type": "event"
    },
    {
      "anonymous": false,
      "inputs": [
        {
          "indexed": false,
          "internalType": "uint256",
          "name": "_amount",
          "type": "uint256"
        }
      ],
      "name": "LogFeed",
      "type": "event"
    },
    {
      "anonymous": false,
      "inputs": [],
      "name": "LogKilled",
      "type": "event"
    },
    {
      "anonymous": false,
      "inputs": [
        {
          "indexed": false,
          "internalType": "bool",
          "name": "_toggleFlag",
          "type": "bool"
        }
      ],
      "name": "LogSetCanCheckpointToken",
      "type": "event"
    },
    {
      "anonymous": false,
      "inputs": [
        {
          "indexed": true,
          "internalType": "address",
          "name": "_caller",
          "type": "address"
        },
        {
          "indexed": true,
          "internalType": "address",
          "name": "_address",
          "type": "address"
        },
        {
          "indexed": false,
          "internalType": "bool",
          "name": "_ok",
          "type": "bool"
        }
      ],
      "name": "LogSetWhitelistedCheckpointCallers",
      "type": "event"
    },
    {
      "anonymous": false,
      "inputs": [
        {
          "indexed": true,
          "internalType": "address",
          "name": "previousOwner",
          "type": "address"
        },
        {
          "indexed": true,
          "internalType": "address",
          "name": "newOwner",
          "type": "address"
        }
      ],
      "name": "OwnershipTransferred",
      "type": "event"
    },
    {
      "inputs": [],
      "name": "TOKEN_CHECKPOINT_DEADLINE",
      "outputs": [
        {
          "internalType": "uint256",
          "name": "",
          "type": "uint256"
        }
      ],
      "stateMutability": "view",
      "type": "function"
    },
    {
      "inputs": [],
      "name": "VCake",
      "outputs": [
        {
          "internalType": "address",
          "name": "",
          "type": "address"
        }
      ],
      "stateMutability": "view",
      "type": "function"
    },
    {
      "inputs": [],
      "name": "WEEK",
      "outputs": [
        {
          "internalType": "uint256",
          "name": "",
          "type": "uint256"
        }
      ],
      "stateMutability": "view",
      "type": "function"
    },
    {
      "inputs": [
        {
          "internalType": "address",
          "name": "_user",
          "type": "address"
        },
        {
          "internalType": "uint256",
          "name": "_timestamp",
          "type": "uint256"
        }
      ],
      "name": "balanceOfAt",
      "outputs": [
        {
          "internalType": "uint256",
          "name": "",
          "type": "uint256"
        }
      ],
      "stateMutability": "view",
      "type": "function"
    },
    {
      "inputs": [],
      "name": "canCheckpointToken",
      "outputs": [
        {
          "internalType": "bool",
          "name": "",
          "type": "bool"
        }
      ],
      "stateMutability": "view",
      "type": "function"
    },
    {
      "inputs": [],
      "name": "checkpointToken",
      "outputs": [],
      "stateMutability": "nonpayable",
      "type": "function"
    },
    {
      "inputs": [],
      "name": "checkpointTotalSupply",
      "outputs": [],
      "stateMutability": "nonpayable",
      "type": "function"
    },
    {
      "inputs": [
        {
          "internalType": "address",
          "name": "_user",
          "type": "address"
        }
      ],
      "name": "claim",
      "outputs": [
        {
          "internalType": "uint256",
          "name": "",
          "type": "uint256"
        }
      ],
      "stateMutability": "nonpayable",
      "type": "function"
    },
    {
      "inputs": [
        {
          "internalType": "address[]",
          "name": "_users",
          "type": "address[]"
        }
      ],
      "name": "claimMany",
      "outputs": [
        {
          "internalType": "bool",
          "name": "",
          "type": "bool"
        }
      ],
      "stateMutability": "nonpayable",
      "type": "function"
    },
    {
      "inputs": [],
      "name": "emergencyReturn",
      "outputs": [
        {
          "internalType": "address",
          "name": "",
          "type": "address"
        }
      ],
      "stateMutability": "view",
      "type": "function"
    },
    {
      "inputs": [
        {
          "internalType": "uint256",
          "name": "_amount",
          "type": "uint256"
        }
      ],
      "name": "feed",
      "outputs": [
        {
          "internalType": "bool",
          "name": "",
          "type": "bool"
        }
      ],
      "stateMutability": "nonpayable",
      "type": "function"
    },
    {
      "inputs": [
        {
          "internalType": "uint256",
          "name": "_timestamp",
          "type": "uint256"
        },
        {
          "internalType": "uint256",
          "name": "_amount",
          "type": "uint256"
        }
      ],
      "name": "injectReward",
      "outputs": [],
      "stateMutability": "nonpayable",
      "type": "function"
    },
    {
      "inputs": [],
      "name": "isKilled",
      "outputs": [
        {
          "internalType": "bool",
          "name": "",
          "type": "bool"
        }
      ],
      "stateMutability": "view",
      "type": "function"
    },
    {
      "inputs": [],
      "name": "kill",
      "outputs": [],
      "stateMutability": "nonpayable",
      "type": "function"
    },
    {
      "inputs": [],
      "name": "lastTokenBalance",
      "outputs": [
        {
          "internalType": "uint256",
          "name": "",
          "type": "uint256"
        }
      ],
      "stateMutability": "view",
      "type": "function"
    },
    {
      "inputs": [],
      "name": "lastTokenTimestamp",
      "outputs": [
        {
          "internalType": "uint256",
          "name": "",
          "type": "uint256"
        }
      ],
      "stateMutability": "view",
      "type": "function"
    },
    {
      "inputs": [],
      "name": "owner",
      "outputs": [
        {
          "internalType": "address",
          "name": "",
          "type": "address"
        }
      ],
      "stateMutability": "view",
      "type": "function"
    },
    {
      "inputs": [],
      "name": "renounceOwnership",
      "outputs": [],
      "stateMutability": "nonpayable",
      "type": "function"
    },
    {
      "inputs": [],
      "name": "rewardToken",
      "outputs": [
        {
          "internalType": "contract IERC20",
          "name": "",
          "type": "address"
        }
      ],
      "stateMutability": "view",
      "type": "function"
    },
    {
      "inputs": [
        {
          "internalType": "bool",
          "name": "_newCanCheckpointToken",
          "type": "bool"
        }
      ],
      "name": "setCanCheckpointToken",
      "outputs": [],
      "stateMutability": "nonpayable",
      "type": "function"
    },
    {
      "inputs": [
        {
          "internalType": "address[]",
          "name": "_callers",
          "type": "address[]"
        },
        {
          "internalType": "bool",
          "name": "_ok",
          "type": "bool"
        }
      ],
      "name": "setWhitelistedCheckpointCallers",
      "outputs": [],
      "stateMutability": "nonpayable",
      "type": "function"
    },
    {
      "inputs": [],
      "name": "startWeekCursor",
      "outputs": [
        {
          "internalType": "uint256",
          "name": "",
          "type": "uint256"
        }
      ],
      "stateMutability": "view",
      "type": "function"
    },
    {
      "inputs": [
        {
          "internalType": "uint256",
          "name": "",
          "type": "uint256"
        }
      ],
      "name": "tokensPerWeek",
      "outputs": [
        {
          "internalType": "uint256",
          "name": "",
          "type": "uint256"
        }
      ],
      "stateMutability": "view",
      "type": "function"
    },
    {
      "inputs": [
        {
          "internalType": "uint256",
          "name": "",
          "type": "uint256"
        }
      ],
      "name": "totalSupplyAt",
      "outputs": [
        {
          "internalType": "uint256",
          "name": "",
          "type": "uint256"
        }
      ],
      "stateMutability": "view",
      "type": "function"
    },
    {
      "inputs": [
        {
          "internalType": "address",
          "name": "newOwner",
          "type": "address"
        }
      ],
      "name": "transferOwnership",
      "outputs": [],
      "stateMutability": "nonpayable",
      "type": "function"
    },
    {
      "inputs": [
        {
          "internalType": "address",
          "name": "",
          "type": "address"
        }
      ],
      "name": "userEpochOf",
      "outputs": [
        {
          "internalType": "uint256",
          "name": "",
          "type": "uint256"
        }
      ],
      "stateMutability": "view",
      "type": "function"
    },
    {
      "inputs": [],
      "name": "weekCursor",
      "outputs": [
        {
          "internalType": "uint256",
          "name": "",
          "type": "uint256"
        }
      ],
      "stateMutability": "view",
      "type": "function"
    },
    {
      "inputs": [
        {
          "internalType": "address",
          "name": "",
          "type": "address"
        }
      ],
      "name": "weekCursorOf",
      "outputs": [
        {
          "internalType": "uint256",
          "name": "",
          "type": "uint256"
        }
      ],
      "stateMutability": "view",
      "type": "function"
    },
    {
      "inputs": [
        {
          "internalType": "address",
          "name": "",
          "type": "address"
        }
      ],
      "name": "whitelistedCheckpointCallers",
      "outputs": [
        {
          "internalType": "bool",
          "name": "",
          "type": "bool"
        }
      ],
      "stateMutability": "view",
      "type": "function"
    }
  ],
  "bytecode": "0x60806040523480156200001157600080fd5b506200001d3362000124565b600180819055506000806000806000336001600160a01b031663890357306040518163ffffffff1660e01b815260040160a060405180830381865afa1580156200006b573d6000803e3d6000fd5b505050506040513d601f19601f82011682018060405250810190620000919190620001b5565b945094509450945094506000620000ae856200017460201b60201c565b600281905560068190556003819055600980546001600160a01b038088166001600160a01b031992831617909255600880548a84169216919091179055600c8054918616620100000262010000600160b01b03199092169190911790559050620001188262000124565b5050505050506200026d565b600080546001600160a01b038381166001600160a01b0319831681178455604051919092169283917f8be0079c531659141344cd1fd0a4f28419497f9722a3daafe3b4186f6b6457e09190a35050565b600062093a806200018681846200021c565b6200019291906200023f565b92915050565b80516001600160a01b0381168114620001b057600080fd5b919050565b600080600080600060a08688031215620001ce57600080fd5b620001d98662000198565b945060208601519350620001f06040870162000198565b9250620002006060870162000198565b9150620002106080870162000198565b90509295509295909350565b6000826200023a57634e487b7160e01b600052601260045260246000fd5b500490565b60008160001904831182151516156200026857634e487b7160e01b600052601160045260246000fd5b500290565b612ce4806200027d6000396000f3fe608060405234801561001057600080fd5b50600436106101cf5760003560e01c80638147b0dd11610104578063a2ab2a46116100a2578063f2fde38b11610071578063f2fde38b14610404578063f4359ce514610417578063f59dfdfb14610421578063f7c618c11461043457600080fd5b8063a2ab2a46146103e0578063a5420e98146103e9578063bee5dc32146103f3578063e1ebb9f0146103fb57600080fd5b8063899519be116100de578063899519be146103705780638da5cb5b146103905780638fe8a101146103ae578063981b24d0146103c057600080fd5b80638147b0dd14610331578063862a9f2f1461035457806386f17a361461035d57600080fd5b806341c0e1b51161017157806361ac407d1161014b57806361ac407d146102ed578063715018a6146102f6578063786479cd146102fe5780637e686e011461031e57600080fd5b806341c0e1b5146102ac5780634ee2cd7e146102b45780635a4b8c1d146102c757600080fd5b80631fe063bd116101ad5780631fe063bd1461022c5780632d19b9821461024c578063326a940714610291578063375871611461029957600080fd5b8063097cd232146101d45780630cc672e4146101e95780631e83409a1461020b575b600080fd5b6101e76101e2366004612716565b610454565b005b600c546101f69060ff1681565b60405190151581526020015b60405180910390f35b61021e610219366004612761565b61053a565b604051908152602001610202565b61021e61023a366004612761565b60046020526000908152604090205481565b60085461026c9073ffffffffffffffffffffffffffffffffffffffff1681565b60405173ffffffffffffffffffffffffffffffffffffffff9091168152602001610202565b6101e76106c0565b6101e76102a736600461278a565b610740565b6101e7610826565b61021e6102c23660046127a7565b6109be565b600c5461026c9062010000900473ffffffffffffffffffffffffffffffffffffffff1681565b61021e60025481565b6101e7610b80565b61021e61030c366004612761565b60056020526000908152604090205481565b6101f661032c36600461281d565b610c0d565b6101f661033f366004612761565b600d6020526000908152604090205460ff1681565b61021e600a5481565b6101e761036b36600461285f565b610f28565b61021e61037e3660046128b6565b60076020526000908152604090205481565b60005473ffffffffffffffffffffffffffffffffffffffff1661026c565b600c546101f690610100900460ff1681565b61021e6103ce3660046128b6565b600b6020526000908152604090205481565b61021e60035481565b61021e6201518081565b6101e76110da565b61021e60065481565b6101e7610412366004612761565b611216565b61021e62093a8081565b6101f661042f3660046128b6565b611346565b60095461026c9073ffffffffffffffffffffffffffffffffffffffff1681565b60005473ffffffffffffffffffffffffffffffffffffffff1633146104da576040517f08c379a000000000000000000000000000000000000000000000000000000000815260206004820181905260248201527f4f776e61626c653a2063616c6c6572206973206e6f7420746865206f776e657260448201526064015b60405180910390fd5b6009546104ff9073ffffffffffffffffffffffffffffffffffffffff163330846114bc565b80600a600082825461051191906128fe565b909155508190506007600061052585611598565b81526020810191909152604001600020555050565b6000600260015414156105a9576040517f08c379a000000000000000000000000000000000000000000000000000000000815260206004820152601f60248201527f5265656e7472616e637947756172643a207265656e7472616e742063616c6c0060448201526064016104d1565b6002600155600c54610100900460ff1615610620576040517f08c379a000000000000000000000000000000000000000000000000000000000815260206004820152600660248201527f6b696c6c6564000000000000000000000000000000000000000000000000000060448201526064016104d1565b6003544210610631576106316115b2565b600654600c5460ff168015610651575061064e62015180826128fe565b42115b156106615761065e6117af565b50425b61066a81611598565b9050600061067884836119fd565b905080156106b55780600a5461068e9190612916565b600a556009546106b59073ffffffffffffffffffffffffffffffffffffffff168583611efb565b600180559392505050565b6002600154141561072d576040517f08c379a000000000000000000000000000000000000000000000000000000000815260206004820152601f60248201527f5265656e7472616e637947756172643a207265656e7472616e742063616c6c0060448201526064016104d1565b600260015561073a6115b2565b60018055565b60005473ffffffffffffffffffffffffffffffffffffffff1633146107c1576040517f08c379a000000000000000000000000000000000000000000000000000000000815260206004820181905260248201527f4f776e61626c653a2063616c6c6572206973206e6f7420746865206f776e657260448201526064016104d1565b600c80547fffffffffffffffffffffffffffffffffffffffffffffffffffffffffffffff00168215159081179091556040519081527ff1fe457b8a983acb8e891ebd18d654492f091f47738497137f2718583d4a49759060200160405180910390a150565b60005473ffffffffffffffffffffffffffffffffffffffff1633146108a7576040517f08c379a000000000000000000000000000000000000000000000000000000000815260206004820181905260248201527f4f776e61626c653a2063616c6c6572206973206e6f7420746865206f776e657260448201526064016104d1565b600c80547fffffffffffffffffffffffffffffffffffffffffffffffffffffffffffff00ff1661010017908190556009546040517f70a082310000000000000000000000000000000000000000000000000000000081523060048201526109939273ffffffffffffffffffffffffffffffffffffffff6201000090910481169216906370a0823190602401602060405180830381865afa15801561094f573d6000803e3d6000fd5b505050506040513d601f19601f82011682018060405250810190610973919061292d565b60095473ffffffffffffffffffffffffffffffffffffffff169190611efb565b6040517f34156ff445c4c60d77a4e0f638ebec01c6f63ceff72508882103e8127e11cad590600090a1565b6008546040517f81fc83bb00000000000000000000000000000000000000000000000000000000815273ffffffffffffffffffffffffffffffffffffffff848116600483015260009283929116906381fc83bb90602401602060405180830381865afa158015610a32573d6000803e3d6000fd5b505050506040513d601f19601f82011682018060405250810190610a56919061292d565b905080610a67576000915050610b7a565b6000610a74858584611f56565b6008546040517f34d901a400000000000000000000000000000000000000000000000000000000815273ffffffffffffffffffffffffffffffffffffffff888116600483015260248201849052929350600092909116906334d901a490604401608060405180830381865afa158015610af1573d6000803e3d6000fd5b505050506040513d601f19601f82011682018060405250810190610b159190612958565b90506000610b31826040015187610b2c9190612916565b61207a565b8260200151610b4091906129f1565b8251610b4c9190612aa7565b9050600081600f0b1215610b67576000945050505050610b7a565b610b7381600f0b61214c565b9450505050505b92915050565b60005473ffffffffffffffffffffffffffffffffffffffff163314610c01576040517f08c379a000000000000000000000000000000000000000000000000000000000815260206004820181905260248201527f4f776e61626c653a2063616c6c6572206973206e6f7420746865206f776e657260448201526064016104d1565b610c0b60006121b8565b565b600060026001541415610c7c576040517f08c379a000000000000000000000000000000000000000000000000000000000815260206004820152601f60248201527f5265656e7472616e637947756172643a207265656e7472616e742063616c6c0060448201526064016104d1565b6002600155600c54610100900460ff1615610cf3576040517f08c379a000000000000000000000000000000000000000000000000000000000815260206004820152600660248201527f6b696c6c6564000000000000000000000000000000000000000000000000000060448201526064016104d1565b6014821115610d5e576040517f08c379a000000000000000000000000000000000000000000000000000000000815260206004820152600e60248201527f216f76657220323020757365727300000000000000000000000000000000000060448201526064016104d1565b6003544210610d6f57610d6f6115b2565b600654600c5460ff168015610d8f5750610d8c62015180826128fe565b42115b15610d9f57610d9c6117af565b50425b610da881611598565b90506000805b84811015610f01576000868683818110610dca57610dca612b18565b9050602002016020810190610ddf9190612761565b73ffffffffffffffffffffffffffffffffffffffff161415610e5d576040517f08c379a000000000000000000000000000000000000000000000000000000000815260206004820152600860248201527f626164207573657200000000000000000000000000000000000000000000000060448201526064016104d1565b6000610e8f878784818110610e7457610e74612b18565b9050602002016020810190610e899190612761565b856119fd565b90508015610eee57610ee1878784818110610eac57610eac612b18565b9050602002016020810190610ec19190612761565b60095473ffffffffffffffffffffffffffffffffffffffff169083611efb565b610eeb81846128fe565b92505b5080610ef981612b47565b915050610dae565b508015610f1a5780600a54610f169190612916565b600a555b505060018080559392505050565b60005473ffffffffffffffffffffffffffffffffffffffff163314610fa9576040517f08c379a000000000000000000000000000000000000000000000000000000000815260206004820181905260248201527f4f776e61626c653a2063616c6c6572206973206e6f7420746865206f776e657260448201526064016104d1565b60005b828110156110d45781600d6000868685818110610fcb57610fcb612b18565b9050602002016020810190610fe09190612761565b73ffffffffffffffffffffffffffffffffffffffff168152602081019190915260400160002080547fffffffffffffffffffffffffffffffffffffffffffffffffffffffffffffff001691151591909117905583838281811061104557611045612b18565b905060200201602081019061105a9190612761565b73ffffffffffffffffffffffffffffffffffffffff163373ffffffffffffffffffffffffffffffffffffffff167f296409edb0e117b01125cbcf74a4c4f0b65d1533d230c4db68010d87bfbbcb20846040516110ba911515815260200190565b60405180910390a3806110cc81612b47565b915050610fac565b50505050565b60026001541415611147576040517f08c379a000000000000000000000000000000000000000000000000000000000815260206004820152601f60248201527f5265656e7472616e637947756172643a207265656e7472616e742063616c6c0060448201526064016104d1565b600260015560005473ffffffffffffffffffffffffffffffffffffffff163314806111815750336000908152600d602052604090205460ff165b806111a85750600c5460ff1680156111a85750620151806006546111a591906128fe565b42115b61120e576040517f08c379a000000000000000000000000000000000000000000000000000000000815260206004820152600660248201527f21616c6c6f77000000000000000000000000000000000000000000000000000060448201526064016104d1565b61073a6117af565b60005473ffffffffffffffffffffffffffffffffffffffff163314611297576040517f08c379a000000000000000000000000000000000000000000000000000000000815260206004820181905260248201527f4f776e61626c653a2063616c6c6572206973206e6f7420746865206f776e657260448201526064016104d1565b73ffffffffffffffffffffffffffffffffffffffff811661133a576040517f08c379a000000000000000000000000000000000000000000000000000000000815260206004820152602660248201527f4f776e61626c653a206e6577206f776e657220697320746865207a65726f206160448201527f646472657373000000000000000000000000000000000000000000000000000060648201526084016104d1565b611343816121b8565b50565b6000600260015414156113b5576040517f08c379a000000000000000000000000000000000000000000000000000000000815260206004820152601f60248201527f5265656e7472616e637947756172643a207265656e7472616e742063616c6c0060448201526064016104d1565b6002600155600c54610100900460ff161561142c576040517f08c379a000000000000000000000000000000000000000000000000000000000815260206004820152600660248201527f6b696c6c6564000000000000000000000000000000000000000000000000000060448201526064016104d1565b6009546114519073ffffffffffffffffffffffffffffffffffffffff163330856114bc565b600c5460ff16801561147257506201518060065461146f91906128fe565b42115b1561147f5761147f6117af565b6040518281527f793ef3f1fc06875d507b76400395f0c7cb5985dfa668fb04175b2f754cff238d9060200160405180910390a15050600180805590565b60405173ffffffffffffffffffffffffffffffffffffffff808516602483015283166044820152606481018290526110d49085907f23b872dd00000000000000000000000000000000000000000000000000000000906084015b604080517fffffffffffffffffffffffffffffffffffffffffffffffffffffffffffffffe08184030181529190526020810180517bffffffffffffffffffffffffffffffffffffffffffffffffffffffff167fffffffff000000000000000000000000000000000000000000000000000000009093169290921790915261222d565b600062093a806115a88184612b80565b610b7a9190612bbb565b60035460006115c042611598565b9050600860009054906101000a900473ffffffffffffffffffffffffffffffffffffffff1673ffffffffffffffffffffffffffffffffffffffff1663c2c4c5c16040518163ffffffff1660e01b8152600401600060405180830381600087803b15801561162c57600080fd5b505af1158015611640573d6000803e3d6000fd5b5050505060005b60348110156117a8578183111561165d576117a8565b600061166884612339565b6008546040517f8ad4c4470000000000000000000000000000000000000000000000000000000081526004810183905291925060009173ffffffffffffffffffffffffffffffffffffffff90911690638ad4c44790602401608060405180830381865afa1580156116dd573d6000803e3d6000fd5b505050506040513d601f19601f820116820180604052508101906117019190612958565b90506000816040015186111561172757611724826040015187610b2c9190612916565b90505b600081836020015161173991906129f1565b83516117459190612aa7565b9050600081600f0b1215611767576000878152600b6020526040812055611783565b61177381600f0b61214c565b6000888152600b60205260409020555b5050505061179462093a80846128fe565b9250806117a081612b47565b915050611647565b5050600355565b6009546040517f70a0823100000000000000000000000000000000000000000000000000000000815230600482015260009173ffffffffffffffffffffffffffffffffffffffff16906370a0823190602401602060405180830381865afa15801561181e573d6000803e3d6000fd5b505050506040513d601f19601f82011682018060405250810190611842919061292d565b90506000600a54826118549190612916565b600a839055600654909150600061186b8242612916565b9050600061187883611598565b4260065590506000805b60348110156119bb5761189862093a80846128fe565b91508142101561191a57831580156118af57508442145b156118e2576000838152600760205260409020546118ce9087906128fe565b6000848152600760205260409020556119bb565b836118ed8642612916565b6118f79088612bbb565b6119019190612b80565b6000848152600760205260409020546118ce91906128fe565b8315801561192757508482145b1561195a576000838152600760205260409020546119469087906128fe565b6000848152600760205260409020556119a2565b836119658684612916565b61196f9088612bbb565b6119799190612b80565b60008481526007602052604090205461199291906128fe565b6000848152600760205260409020555b81945081925080806119b390612b47565b915050611882565b5060408051428152602081018790527f5f35cdf2d7ef662d66f57c6493498f63de6ac64b3221da30edb54f343fc196ec910160405180910390a1505050505050565b6008546040517f81fc83bb00000000000000000000000000000000000000000000000000000000815273ffffffffffffffffffffffffffffffffffffffff848116600483015260009283928392839216906381fc83bb90602401602060405180830381865afa158015611a74573d6000803e3d6000fd5b505050506040513d601f19601f82011682018060405250810190611a98919061292d565b60025490915081611ab0576000945050505050610b7a565b73ffffffffffffffffffffffffffffffffffffffff871660009081526004602052604090205480611aed57611ae6888385611f56565b9450611b16565b73ffffffffffffffffffffffffffffffffffffffff881660009081526005602052604090205494505b84611b2057600194505b6008546040517f34d901a400000000000000000000000000000000000000000000000000000000815273ffffffffffffffffffffffffffffffffffffffff8a811660048301526024820188905260009216906334d901a490604401608060405180830381865afa158015611b98573d6000803e3d6000fd5b505050506040513d601f19601f82011682018060405250810190611bbc9190612958565b905081611bfe5762093a8080600162093a808460400151611bdd91906128fe565b611be79190612916565b611bf19190612b80565b611bfb9190612bbb565b91505b878210611c145760009650505050505050610b7a565b82821015611c20578291505b6040805160808101825260008082526020820181905291810182905260608101829052905b6034811015611e6057898410611c5a57611e60565b82604001518410158015611c6e5750858811155b15611d9557611c7e8860016128fe565b975060405180608001604052808460000151600f0b81526020018460200151600f0b8152602001846040015181526020018460600151815250915085881115611cf35760405180608001604052806000600f0b81526020016000600f0b81526020016000815260200160008152509250611e4e565b6008546040517f34d901a400000000000000000000000000000000000000000000000000000000815273ffffffffffffffffffffffffffffffffffffffff8d81166004830152602482018b9052909116906334d901a490604401608060405180830381865afa158015611d6a573d6000803e3d6000fd5b505050506040513d601f19601f82011682018060405250810190611d8e9190612958565b9250611e4e565b6000611daa836040015186610b2c9190612916565b90506000611ddf611dd7856020015184611dc491906129f1565b8651611dd09190612aa7565b60006124ea565b600f0b61214c565b905080158015611dee5750878a115b15611dfa575050611e60565b8015611e3c576000868152600b6020908152604080832054600790925290912054611e259083612bbb565b611e2f9190612b80565b611e39908a6128fe565b98505b611e4962093a80876128fe565b955050505b80611e5881612b47565b915050611c45565b50611e7585611e7060018a612916565b612507565b73ffffffffffffffffffffffffffffffffffffffff8b166000818152600560209081526040808320859055600482529182902087905581518a8152908101849052908101889052919850907fea919eaf7a28ab483f798b086744ed74dc4f00c9cb7f0feb0310922fce07c8949060600160405180910390a2509398975050505050505050565b60405173ffffffffffffffffffffffffffffffffffffffff8316602482015260448101829052611f519084907fa9059cbb0000000000000000000000000000000000000000000000000000000090606401611516565b505050565b60008082815b608081101561206d57818310611f715761206d565b60006002611f7f84866128fe565b611f8a9060016128fe565b611f949190612b80565b6008546040517f34d901a400000000000000000000000000000000000000000000000000000000815273ffffffffffffffffffffffffffffffffffffffff8b8116600483015260248201849052929350600092909116906334d901a490604401608060405180830381865afa158015612011573d6000803e3d6000fd5b505050506040513d601f19601f820116820180604052508101906120359190612958565b90508781604001511161204a57819450612058565b612055600183612916565b93505b5050808061206590612b47565b915050611f5c565b50909150505b9392505050565b60007fffffffffffffffffffffffffffffffff8000000000000000000000000000000082128015906120bc57506f7fffffffffffffffffffffffffffffff8213155b612148576040517f08c379a000000000000000000000000000000000000000000000000000000000815260206004820152602760248201527f53616665436173743a2076616c756520646f65736e27742066697420696e203160448201527f323820626974730000000000000000000000000000000000000000000000000060648201526084016104d1565b5090565b600080821215612148576040517f08c379a000000000000000000000000000000000000000000000000000000000815260206004820181905260248201527f53616665436173743a2076616c7565206d75737420626520706f73697469766560448201526064016104d1565b6000805473ffffffffffffffffffffffffffffffffffffffff8381167fffffffffffffffffffffffff0000000000000000000000000000000000000000831681178455604051919092169283917f8be0079c531659141344cd1fd0a4f28419497f9722a3daafe3b4186f6b6457e09190a35050565b600061228f826040518060400160405280602081526020017f5361666545524332303a206c6f772d6c6576656c2063616c6c206661696c65648152508573ffffffffffffffffffffffffffffffffffffffff166125169092919063ffffffff16565b805190915015611f5157808060200190518101906122ad9190612bf8565b611f51576040517f08c379a000000000000000000000000000000000000000000000000000000000815260206004820152602a60248201527f5361666545524332303a204552433230206f7065726174696f6e20646964206e60448201527f6f7420737563636565640000000000000000000000000000000000000000000060648201526084016104d1565b600080600090506000600860009054906101000a900473ffffffffffffffffffffffffffffffffffffffff1673ffffffffffffffffffffffffffffffffffffffff1663900cf0cf6040518163ffffffff1660e01b8152600401602060405180830381865afa1580156123af573d6000803e3d6000fd5b505050506040513d601f19601f820116820180604052508101906123d3919061292d565b905060005b60808110156124e1578183106123ed576124e1565b600060026123fb84866128fe565b6124069060016128fe565b6124109190612b80565b6008546040517f8ad4c4470000000000000000000000000000000000000000000000000000000081526004810183905291925060009173ffffffffffffffffffffffffffffffffffffffff90911690638ad4c44790602401608060405180830381865afa158015612485573d6000803e3d6000fd5b505050506040513d601f19601f820116820180604052508101906124a99190612958565b9050868160400151116124be578194506124cc565b6124c9600183612916565b93505b505080806124d990612b47565b9150506123d8565b50909392505050565b600081600f0b83600f0b12156125005781612073565b5090919050565b60008183106125005781612073565b6060612525848460008561252d565b949350505050565b6060824710156125bf576040517f08c379a000000000000000000000000000000000000000000000000000000000815260206004820152602660248201527f416464726573733a20696e73756666696369656e742062616c616e636520666f60448201527f722063616c6c000000000000000000000000000000000000000000000000000060648201526084016104d1565b73ffffffffffffffffffffffffffffffffffffffff85163b61263d576040517f08c379a000000000000000000000000000000000000000000000000000000000815260206004820152601d60248201527f416464726573733a2063616c6c20746f206e6f6e2d636f6e747261637400000060448201526064016104d1565b6000808673ffffffffffffffffffffffffffffffffffffffff1685876040516126669190612c41565b60006040518083038185875af1925050503d80600081146126a3576040519150601f19603f3d011682016040523d82523d6000602084013e6126a8565b606091505b50915091506126b88282866126c3565b979650505050505050565b606083156126d2575081612073565b8251156126e25782518084602001fd5b816040517f08c379a00000000000000000000000000000000000000000000000000000000081526004016104d19190612c5d565b6000806040838503121561272957600080fd5b50508035926020909101359150565b803573ffffffffffffffffffffffffffffffffffffffff8116811461275c57600080fd5b919050565b60006020828403121561277357600080fd5b61207382612738565b801515811461134357600080fd5b60006020828403121561279c57600080fd5b81356120738161277c565b600080604083850312156127ba57600080fd5b6127c383612738565b946020939093013593505050565b60008083601f8401126127e357600080fd5b50813567ffffffffffffffff8111156127fb57600080fd5b6020830191508360208260051b850101111561281657600080fd5b9250929050565b6000806020838503121561283057600080fd5b823567ffffffffffffffff81111561284757600080fd5b612853858286016127d1565b90969095509350505050565b60008060006040848603121561287457600080fd5b833567ffffffffffffffff81111561288b57600080fd5b612897868287016127d1565b90945092505060208401356128ab8161277c565b809150509250925092565b6000602082840312156128c857600080fd5b5035919050565b7f4e487b7100000000000000000000000000000000000000000000000000000000600052601160045260246000fd5b60008219821115612911576129116128cf565b500190565b600082821015612928576129286128cf565b500390565b60006020828403121561293f57600080fd5b5051919050565b8051600f81900b811461275c57600080fd5b60006080828403121561296a57600080fd5b6040516080810181811067ffffffffffffffff821117156129b4577f4e487b7100000000000000000000000000000000000000000000000000000000600052604160045260246000fd5b6040526129c083612946565b81526129ce60208401612946565b602082015260408301516040820152606083015160608201528091505092915050565b600081600f0b83600f0b6f7fffffffffffffffffffffffffffffff600082136000841383830485118282161615612a2a57612a2a6128cf565b7fffffffffffffffffffffffffffffffff800000000000000000000000000000006000851286820586128184161615612a6557612a656128cf565b60008712925085820587128484161615612a8157612a816128cf565b85850587128184161615612a9757612a976128cf565b5050509290910295945050505050565b600081600f0b83600f0b60008112817fffffffffffffffffffffffffffffffff8000000000000000000000000000000001831281151615612aea57612aea6128cf565b816f7fffffffffffffffffffffffffffffff018313811615612b0e57612b0e6128cf565b5090039392505050565b7f4e487b7100000000000000000000000000000000000000000000000000000000600052603260045260246000fd5b60007fffffffffffffffffffffffffffffffffffffffffffffffffffffffffffffffff821415612b7957612b796128cf565b5060010190565b600082612bb6577f4e487b7100000000000000000000000000000000000000000000000000000000600052601260045260246000fd5b500490565b6000817fffffffffffffffffffffffffffffffffffffffffffffffffffffffffffffffff0483118215151615612bf357612bf36128cf565b500290565b600060208284031215612c0a57600080fd5b81516120738161277c565b60005b83811015612c30578181015183820152602001612c18565b838111156110d45750506000910152565b60008251612c53818460208701612c15565b9190910192915050565b6020815260008251806020840152612c7c816040850160208701612c15565b601f017fffffffffffffffffffffffffffffffffffffffffffffffffffffffffffffffe016919091016040019291505056fea264697066735822122060c7ccf8d09c7e86724382bdc4bd5baf8a6b4b8b11a9674dbe6962a514345f8c64736f6c634300080a0033",
  "linkReferences": {},
  "deployedLinkReferences": {}
}