{
  "_format": "hh-sol-artifact-1",
  "contractName": "VCake",
  "sourceName": "contracts/VCake.sol",
  "abi": [
    {
      "inputs": [
        {
          "internalType": "contract ICakePool",
          "name": "_cakePool",
          "type": "address"
        },
        {
          "internalType": "contract IMasterChefV2",
          "name": "_masterchefV2",
          "type": "address"
        },
        {
          "internalType": "uint256",
          "name": "_pid",
          "type": "uint256"
        }
      ],
      "stateMutability": "nonpayable",
      "type": "constructor"
    },
    {
      "anonymous": false,
      "inputs": [
        {
          "indexed": false,
          "internalType": "uint256",
          "name": "maxLock",
          "type": "uint256"
        }
      ],
      "name": "NewMaxLock",
      "type": "event"
    },
    {
      "anonymous": false,
      "inputs": [
        {
          "indexed": true,
          "internalType": "address",
          "name": "previousOwner",
          "type": "address"
        },
        {
          "indexed": true,
          "internalType": "address",
          "name": "newOwner",
          "type": "address"
        }
      ],
      "name": "OwnershipTransferred",
      "type": "event"
    },
    {
      "anonymous": false,
      "inputs": [
        {
          "indexed": true,
          "internalType": "address",
          "name": "_user",
          "type": "address"
        }
      ],
      "name": "RemoveUserInitialization",
      "type": "event"
    },
    {
      "anonymous": false,
      "inputs": [
        {
          "indexed": true,
          "internalType": "address",
          "name": "user",
          "type": "address"
        },
        {
          "indexed": false,
          "internalType": "uint256",
          "name": "lockedAmount",
          "type": "uint256"
        }
      ],
      "name": "Sync",
      "type": "event"
    },
    {
      "inputs": [],
      "name": "CakePool",
      "outputs": [
        {
          "internalType": "contract ICakePool",
          "name": "",
          "type": "address"
        }
      ],
      "stateMutability": "view",
      "type": "function"
    },
    {
      "inputs": [],
      "name": "CakePoolPID",
      "outputs": [
        {
          "internalType": "uint256",
          "name": "",
          "type": "uint256"
        }
      ],
      "stateMutability": "view",
      "type": "function"
    },
    {
      "inputs": [],
      "name": "DURATION_FACTOR_OVERDUE",
      "outputs": [
        {
          "internalType": "uint256",
          "name": "",
          "type": "uint256"
        }
      ],
      "stateMutability": "view",
      "type": "function"
    },
    {
      "inputs": [],
      "name": "MAX_LOCK",
      "outputs": [
        {
          "internalType": "uint256",
          "name": "",
          "type": "uint256"
        }
      ],
      "stateMutability": "view",
      "type": "function"
    },
    {
      "inputs": [],
      "name": "MULTIPLIER",
      "outputs": [
        {
          "internalType": "uint256",
          "name": "",
          "type": "uint256"
        }
      ],
      "stateMutability": "view",
      "type": "function"
    },
    {
      "inputs": [],
      "name": "MasterchefV2",
      "outputs": [
        {
          "internalType": "contract IMasterChefV2",
          "name": "",
          "type": "address"
        }
      ],
      "stateMutability": "view",
      "type": "function"
    },
    {
      "inputs": [],
      "name": "PRECISION_FACTOR",
      "outputs": [
        {
          "internalType": "uint256",
          "name": "",
          "type": "uint256"
        }
      ],
      "stateMutability": "view",
      "type": "function"
    },
    {
      "inputs": [],
      "name": "UNLOCK_FREE_DURATION",
      "outputs": [
        {
          "internalType": "uint256",
          "name": "",
          "type": "uint256"
        }
      ],
      "stateMutability": "view",
      "type": "function"
    },
    {
      "inputs": [],
      "name": "WEEK",
      "outputs": [
        {
          "internalType": "uint256",
          "name": "",
          "type": "uint256"
        }
      ],
      "stateMutability": "view",
      "type": "function"
    },
    {
      "inputs": [
        {
          "internalType": "address",
          "name": "_user",
          "type": "address"
        }
      ],
      "name": "balanceOf",
      "outputs": [
        {
          "internalType": "uint256",
          "name": "",
          "type": "uint256"
        }
      ],
      "stateMutability": "view",
      "type": "function"
    },
    {
      "inputs": [
        {
          "internalType": "address",
          "name": "_user",
          "type": "address"
        },
        {
          "internalType": "uint256",
          "name": "_blockNumber",
          "type": "uint256"
        }
      ],
      "name": "balanceOfAt",
      "outputs": [
        {
          "internalType": "uint256",
          "name": "",
          "type": "uint256"
        }
      ],
      "stateMutability": "view",
      "type": "function"
    },
    {
      "inputs": [],
      "name": "checkpoint",
      "outputs": [],
      "stateMutability": "nonpayable",
      "type": "function"
    },
    {
      "inputs": [],
      "name": "decimals",
      "outputs": [
        {
          "internalType": "uint8",
          "name": "",
          "type": "uint8"
        }
      ],
      "stateMutability": "view",
      "type": "function"
    },
    {
      "inputs": [
        {
          "internalType": "address",
          "name": "_user",
          "type": "address"
        },
        {
          "internalType": "uint256",
          "name": "_amount",
          "type": "uint256"
        },
        {
          "internalType": "uint256",
          "name": "_lockDuration",
          "type": "uint256"
        }
      ],
      "name": "deposit",
      "outputs": [],
      "stateMutability": "nonpayable",
      "type": "function"
    },
    {
      "inputs": [],
      "name": "epoch",
      "outputs": [
        {
          "internalType": "uint256",
          "name": "",
          "type": "uint256"
        }
      ],
      "stateMutability": "view",
      "type": "function"
    },
    {
      "inputs": [
        {
          "internalType": "address",
          "name": "",
          "type": "address"
        }
      ],
      "name": "initialization",
      "outputs": [
        {
          "internalType": "bool",
          "name": "",
          "type": "bool"
        }
      ],
      "stateMutability": "view",
      "type": "function"
    },
    {
      "inputs": [],
      "name": "name",
      "outputs": [
        {
          "internalType": "string",
          "name": "",
          "type": "string"
        }
      ],
      "stateMutability": "view",
      "type": "function"
    },
    {
      "inputs": [],
      "name": "owner",
      "outputs": [
        {
          "internalType": "address",
          "name": "",
          "type": "address"
        }
      ],
      "stateMutability": "view",
      "type": "function"
    },
    {
      "inputs": [
        {
          "internalType": "uint256",
          "name": "",
          "type": "uint256"
        }
      ],
      "name": "pointHistory",
      "outputs": [
        {
          "internalType": "int128",
          "name": "bias",
          "type": "int128"
        },
        {
          "internalType": "int128",
          "name": "slope",
          "type": "int128"
        },
        {
          "internalType": "uint256",
          "name": "timestamp",
          "type": "uint256"
        },
        {
          "internalType": "uint256",
          "name": "blockNumber",
          "type": "uint256"
        }
      ],
      "stateMutability": "view",
      "type": "function"
    },
    {
      "inputs": [
        {
          "internalType": "address[]",
          "name": "_users",
          "type": "address[]"
        }
      ],
      "name": "removeUserInitialization",
      "outputs": [],
      "stateMutability": "nonpayable",
      "type": "function"
    },
    {
      "inputs": [],
      "name": "renounceOwnership",
      "outputs": [],
      "stateMutability": "nonpayable",
      "type": "function"
    },
    {
      "inputs": [
        {
          "internalType": "uint256",
          "name": "_maxLock",
          "type": "uint256"
        }
      ],
      "name": "setMaxLock",
      "outputs": [],
      "stateMutability": "nonpayable",
      "type": "function"
    },
    {
      "inputs": [
        {
          "internalType": "uint256",
          "name": "",
          "type": "uint256"
        }
      ],
      "name": "slopeChanges",
      "outputs": [
        {
          "internalType": "int128",
          "name": "",
          "type": "int128"
        }
      ],
      "stateMutability": "view",
      "type": "function"
    },
    {
      "inputs": [],
      "name": "symbol",
      "outputs": [
        {
          "internalType": "string",
          "name": "",
          "type": "string"
        }
      ],
      "stateMutability": "view",
      "type": "function"
    },
    {
      "inputs": [],
      "name": "syncFromCakePool",
      "outputs": [],
      "stateMutability": "nonpayable",
      "type": "function"
    },
    {
      "inputs": [],
      "name": "totalSupply",
      "outputs": [
        {
          "internalType": "uint256",
          "name": "",
          "type": "uint256"
        }
      ],
      "stateMutability": "view",
      "type": "function"
    },
    {
      "inputs": [
        {
          "internalType": "uint256",
          "name": "_blockNumber",
          "type": "uint256"
        }
      ],
      "name": "totalSupplyAt",
      "outputs": [
        {
          "internalType": "uint256",
          "name": "",
          "type": "uint256"
        }
      ],
      "stateMutability": "view",
      "type": "function"
    },
    {
      "inputs": [
        {
          "internalType": "address",
          "name": "newOwner",
          "type": "address"
        }
      ],
      "name": "transferOwnership",
      "outputs": [],
      "stateMutability": "nonpayable",
      "type": "function"
    },
    {
      "inputs": [
        {
          "internalType": "address",
          "name": "",
          "type": "address"
        }
      ],
      "name": "userPointEpoch",
      "outputs": [
        {
          "internalType": "uint256",
          "name": "",
          "type": "uint256"
        }
      ],
      "stateMutability": "view",
      "type": "function"
    },
    {
      "inputs": [
        {
          "internalType": "address",
          "name": "",
          "type": "address"
        },
        {
          "internalType": "uint256",
          "name": "",
          "type": "uint256"
        }
      ],
      "name": "userPointHistory",
      "outputs": [
        {
          "internalType": "int128",
          "name": "bias",
          "type": "int128"
        },
        {
          "internalType": "int128",
          "name": "slope",
          "type": "int128"
        },
        {
          "internalType": "uint256",
          "name": "timestamp",
          "type": "uint256"
        },
        {
          "internalType": "uint256",
          "name": "blockNumber",
          "type": "uint256"
        }
      ],
      "stateMutability": "view",
      "type": "function"
    },
    {
      "inputs": [
        {
          "internalType": "address",
          "name": "",
          "type": "address"
        }
      ],
      "name": "userPrevLockedAmount",
      "outputs": [
        {
          "internalType": "uint256",
          "name": "",
          "type": "uint256"
        }
      ],
      "stateMutability": "view",
      "type": "function"
    },
    {
      "inputs": [
        {
          "internalType": "address",
          "name": "_user",
          "type": "address"
        }
      ],
      "name": "withdraw",
      "outputs": [],
      "stateMutability": "nonpayable",
      "type": "function"
    }
  ],
  "bytecode": "0x60e060405262093a8060015562ed4e006002556301e133806003553480156200002757600080fd5b5060405162003876380380620038768339810160408190526200004a91620002b5565b6200005533620001a6565b6001600160a01b03808416608090815290831660a05260c0829052604080519182018152600080835260208084018281524285850190815243606087019081526005805460018101825595819052965192516001600160801b03908116600160801b0293169290921760039094027f036b6384b5eca791c62761152d0c79bb0604c104a5fb6f4eb0703f3154bb3db0810194909455517f036b6384b5eca791c62761152d0c79bb0604c104a5fb6f4eb0703f3154bb3db1840155517f036b6384b5eca791c62761152d0c79bb0604c104a5fb6f4eb0703f3154bb3db290920191909155600d805460ff191660121790558151808301909252828252645643616b6560d81b91019081526200016d91600b9190620001f6565b50604080518082019091526005808252645643616b6560d81b60209092019182526200019c91600c91620001f6565b505050506200033a565b600080546001600160a01b038381166001600160a01b0319831681178455604051919092169283917f8be0079c531659141344cd1fd0a4f28419497f9722a3daafe3b4186f6b6457e09190a35050565b8280546200020490620002fd565b90600052602060002090601f01602090048101928262000228576000855562000273565b82601f106200024357805160ff191683800117855562000273565b8280016001018555821562000273579182015b828111156200027357825182559160200191906001019062000256565b506200028192915062000285565b5090565b5b8082111562000281576000815560010162000286565b6001600160a01b0381168114620002b257600080fd5b50565b600080600060608486031215620002cb57600080fd5b8351620002d8816200029c565b6020850151909350620002eb816200029c565b80925050604084015190509250925092565b600181811c908216806200031257607f821691505b602082108114156200033457634e487b7160e01b600052602260045260246000fd5b50919050565b60805160a05160c05161349c620003da6000396000818161046201526109b40152600081816102310152610a1a01526000818161040e0152818161059c015281816106e5015281816107d601528181610869015281816108fa015281816109ef01528181610b6101528181610c3b01528181610de701528181610eac01528181610f44015281816115bb015281816116ba0152611a34015261349c6000f3fe608060405234801561001057600080fd5b50600436106101f05760003560e01c80638da5cb5b1161010f578063bfdbd03b116100a2578063cd15b2a511610071578063cd15b2a514610490578063f2fde38b146104a3578063f4359ce5146104b6578063f52a36f7146104c057600080fd5b8063bfdbd03b14610442578063c2c4c5c114610455578063c589dbe21461045d578063ccd34cd51461048457600080fd5b8063981b24d0116100de578063981b24d0146103f6578063aa94ab5914610409578063aaada5da14610430578063acaf88cd1461043957600080fd5b80638da5cb5b14610394578063900cf0cf146103b257806390b4b79c146103bb57806395d89b41146103ee57600080fd5b80634ee2cd7e11610187578063715018a611610156578063715018a614610351578063787e52db1461035957806381fc83bb146103615780638ad4c4471461038157600080fd5b80634ee2cd7e1461030f57806351cff8d91461032257806365a5d5f01461033557806370a082311461033e57600080fd5b806318160ddd116101c357806318160ddd1461028d578063313ce5671461029557806334d901a4146102b45780633c0be328146102ef57600080fd5b8063059f8b16146101f557806306fdde0314610217578063071aed2b1461022c5780630efe6a8b14610278575b600080fd5b610204670de0b6b3a764000081565b6040519081526020015b60405180910390f35b61021f6104f6565b60405161020e9190612e64565b6102537f000000000000000000000000000000000000000000000000000000000000000081565b60405173ffffffffffffffffffffffffffffffffffffffff909116815260200161020e565b61028b610286366004612f00565b610584565b005b6102046111a7565b600d546102a29060ff1681565b60405160ff909116815260200161020e565b6102c76102c2366004612f33565b611224565b60408051600f95860b81529390940b602084015292820152606081019190915260800161020e565b6102046102fd366004612f5d565b600a6020526000908152604090205481565b61020461031d366004612f33565b611281565b61028b610330366004612f5d565b6115a3565b61020460035481565b61020461034c366004612f5d565b6117aa565b61028b6118c3565b61028b611950565b61020461036f366004612f5d565b60076020526000908152604090205481565b6102c761038f366004612f7f565b611b6a565b60005473ffffffffffffffffffffffffffffffffffffffff16610253565b61020460045481565b6103de6103c9366004612f5d565b60096020526000908152604090205460ff1681565b604051901515815260200161020e565b61021f611bbb565b610204610404366004612f7f565b611bc8565b6102537f000000000000000000000000000000000000000000000000000000000000000081565b61020460015481565b61020460025481565b61028b610450366004612f98565b611e04565b61028b611f8b565b6102047f000000000000000000000000000000000000000000000000000000000000000081565b61020464e8d4a5100081565b61028b61049e366004612f7f565b611fac565b61028b6104b1366004612f5d565b612068565b61020462093a8081565b6104e36104ce366004612f7f565b600860205260009081526040902054600f0b81565b604051600f9190910b815260200161020e565b600b80546105039061300d565b80601f016020809104026020016040519081016040528092919081815260200182805461052f9061300d565b801561057c5780601f106105515761010080835404028352916020019161057c565b820191906000526020600020905b81548152906001019060200180831161055f57829003601f168201915b505050505081565b3373ffffffffffffffffffffffffffffffffffffffff7f00000000000000000000000000000000000000000000000000000000000000001614610628576040517f08c379a000000000000000000000000000000000000000000000000000000000815260206004820152600d60248201527f4e6f742063616b6520706f6f6c0000000000000000000000000000000000000060448201526064015b60405180910390fd5b73ffffffffffffffffffffffffffffffffffffffff831660009081526009602052604090205460ff16156111a2576106a0604051806101000160405280600081526020016000815260200160008152602001600081526020016000815260200160001515815260200160008152602001600081525090565b6040517f1959a00200000000000000000000000000000000000000000000000000000000815273ffffffffffffffffffffffffffffffffffffffff85811660048301527f00000000000000000000000000000000000000000000000000000000000000001690631959a0029060240161012060405180830381865afa15801561072d573d6000803e3d6000fd5b505050506040513d601f19601f820116820180604052508101906107519190613071565b60c08a0152151560a089015260808801526060870152604080870191909152602080870193909352938552508251808401845273ffffffffffffffffffffffffffffffffffffffff88166000908152600a909252928120549092915081906107b890612195565b600f0b81526020016107cd8460600151612267565b815250905060007f000000000000000000000000000000000000000000000000000000000000000073ffffffffffffffffffffffffffffffffffffffff16633a98ef396040518163ffffffff1660e01b8152600401602060405180830381865afa15801561083f573d6000803e3d6000fd5b505050506040513d601f19601f8201168201806040525081019061086391906130e1565b905060007f000000000000000000000000000000000000000000000000000000000000000073ffffffffffffffffffffffffffffffffffffffff1663e73008bc6040518163ffffffff1660e01b8152600401602060405180830381865afa1580156108d2573d6000803e3d6000fd5b505050506040513d601f19601f820116820180604052508101906108f691906130e1565b90507f000000000000000000000000000000000000000000000000000000000000000073ffffffffffffffffffffffffffffffffffffffff166348a0d7546040518163ffffffff1660e01b8152600401602060405180830381865afa158015610963573d6000803e3d6000fd5b505050506040513d601f19601f8201168201806040525081019061098791906130e1565b60e08501526040517f1175a1dd0000000000000000000000000000000000000000000000000000000081527f0000000000000000000000000000000000000000000000000000000000000000600482015273ffffffffffffffffffffffffffffffffffffffff7f0000000000000000000000000000000000000000000000000000000000000000811660248301526000917f000000000000000000000000000000000000000000000000000000000000000090911690631175a1dd90604401602060405180830381865afa158015610a63573d6000803e3d6000fd5b505050506040513d601f19601f82011682018060405250810190610a8791906130e1565b90508015610aa557808560e001818151610aa19190613129565b9052505b84511561106d578460a0015115610da25760008560800151848760000151858960e00151610ad39190613129565b610add9190613141565b610ae791906131ad565b610af191906131c1565b9050856080015183610b0391906131c1565b600060808801528651909350610b1990856131c1565b6040517f668679ba00000000000000000000000000000000000000000000000000000000815273ffffffffffffffffffffffffffffffffffffffff8b811660048301529195507f00000000000000000000000000000000000000000000000000000000000000009091169063668679ba90602401602060405180830381865afa158015610baa573d6000803e3d6000fd5b505050506040513d601f19601f82011682018060405250810190610bce91906131d8565b158015610beb5750426001548760600151610be99190613129565b105b15610d225760008660c0015182610c0291906131c1565b90506000600154886060015142610c1991906131c1565b610c2391906131c1565b9050600254811115610c3457506002545b60006002547f000000000000000000000000000000000000000000000000000000000000000073ffffffffffffffffffffffffffffffffffffffff1663a5834e066040518163ffffffff1660e01b8152600401602060405180830381865afa158015610ca4573d6000803e3d6000fd5b505050506040513d601f19601f82011682018060405250810190610cc891906130e1565b610cd29084613141565b610cdc91906131ad565b9050600064e8d4a51000610cf08386613141565b610cfa91906131ad565b9050808a60e001818151610d0e91906131c1565b905250610d1b81866131c1565b9450505050505b60008415610d605781848860e00151610d3b9190613129565b610d4591906131c1565b610d4f8684613141565b610d5991906131ad565b9050610d63565b50805b808752610d708186613129565b94504287606001511015610d9b57600060a08801819052604088018190526060880181905260c08801525b505061106d565b6040517f3fec4e3200000000000000000000000000000000000000000000000000000000815273ffffffffffffffffffffffffffffffffffffffff89811660048301527f00000000000000000000000000000000000000000000000000000000000000001690633fec4e3290602401602060405180830381865afa158015610e2e573d6000803e3d6000fd5b505050506040513d601f19601f82011682018060405250810190610e5291906131d8565b61106d57600083838760e00151610e699190613129565b8751610e759190613141565b610e7f91906131ad565b8651909150610e8e90856131c1565b6000808852602088015191955090610ea690836131c1565b905060007f000000000000000000000000000000000000000000000000000000000000000073ffffffffffffffffffffffffffffffffffffffff1663877887826040518163ffffffff1660e01b8152600401602060405180830381865afa158015610f15573d6000803e3d6000fd5b505050506040513d601f19601f82011682018060405250810190610f3991906130e1565b90508a3b15610fd4577f000000000000000000000000000000000000000000000000000000000000000073ffffffffffffffffffffffffffffffffffffffff16633eb788746040518163ffffffff1660e01b8152600401602060405180830381865afa158015610fad573d6000803e3d6000fd5b505050506040513d601f19601f82011682018060405250810190610fd191906130e1565b90505b6000612710610fe38385613141565b610fed91906131ad565b9050801561101757808960e00181815161100791906131c1565b90525061101481856131c1565b93505b600087156110555784878b60e001516110309190613129565b61103a91906131c1565b6110448987613141565b61104e91906131ad565b9050611058565b50835b808a526110658189613129565b975050505050505b85156110ba57428560600151101561109c574260408601819052611092908790613129565b60608601526110b2565b85856060018181516110ae9190613129565b9052505b600160a08601525b8451158015906110cb57508460a001515b1561110c57428560400151141561110c57828560000151838760e001516110f29190613129565b6110fc9190613141565b61110691906131ad565b60c08601525b84604001518560600151111561113257868560c00181815161112e9190613129565b9052505b6000604051806040016040528061114c8860c00151612195565b600f0b81526020016111618860600151612267565b905260c087015173ffffffffffffffffffffffffffffffffffffffff8b166000908152600a6020526040902055905061119b898683612281565b5050505050505b505050565b600061121f6005600454815481106111c1576111c16131f3565b60009182526020918290206040805160808101825260039093029091018054600f81810b8552700100000000000000000000000000000000909104900b93830193909352600183015490820152600290910154606082015242612b0f565b905090565b6006602052816000526040600020818154811061124057600080fd5b6000918252602090912060039091020180546001820154600290920154600f82810b955070010000000000000000000000000000000090920490910b925084565b6000438211156112ed576040517f08c379a000000000000000000000000000000000000000000000000000000000815260206004820152601060248201527f626164205f626c6f636b4e756d62657200000000000000000000000000000000604482015260640161061f565b60006112f98484612c07565b90508061130a57600091505061159d565b73ffffffffffffffffffffffffffffffffffffffff84166000908152600660205260408120805483908110611341576113416131f3565b600091825260208083206040805160808101825260039094029091018054600f81810b8652700100000000000000000000000000000000909104900b92840192909252600182015490830152600201546060820152600454909250906113a78683612cef565b90506000600582815481106113be576113be6131f3565b600091825260208083206040805160808101825260039094029091018054600f81810b8652700100000000000000000000000000000000909104900b92840192909252600182015490830152600201546060820152915080848410156114c6576000600561142d866001613129565b8154811061143d5761143d6131f3565b60009182526020918290206040805160808101825260039093029091018054600f81810b8552700100000000000000000000000000000000909104900b9383019390935260018301549082015260029091015460608083018290528601519192506114a891906131c1565b9250836040015181604001516114be91906131c1565b9150506114ea565b60608301516114d590436131c1565b91508260400151426114e791906131c1565b90505b60408301518215611527578284606001518b61150691906131c1565b6115109084613141565b61151a91906131ad565b6115249082613129565b90505b61153f87604001518261153a91906131c1565b612195565b876020015161154e9190613222565b8751889061155d9083906132d8565b600f90810b90915288516000910b121590506115845760009850505050505050505061159d565b865161159290600f0b612d83565b985050505050505050505b92915050565b3373ffffffffffffffffffffffffffffffffffffffff7f00000000000000000000000000000000000000000000000000000000000000001614611642576040517f08c379a000000000000000000000000000000000000000000000000000000000815260206004820152600d60248201527f4e6f742063616b6520706f6f6c00000000000000000000000000000000000000604482015260640161061f565b73ffffffffffffffffffffffffffffffffffffffff811660009081526009602052604090205460ff16156117a7576040517f1959a00200000000000000000000000000000000000000000000000000000000815273ffffffffffffffffffffffffffffffffffffffff828116600483015260009182917f00000000000000000000000000000000000000000000000000000000000000001690631959a0029060240161012060405180830381865afa158015611702573d6000803e3d6000fd5b505050506040513d601f19601f820116820180604052508101906117269190613071565b98505050965050505050506000604051806040016040528061174784612195565b600f0b815260200161175885612267565b90526040805180820182526000808252602080830182905273ffffffffffffffffffffffffffffffffffffffff89168252600a9052918220919091559091506117a2858383612281565b505050505b50565b73ffffffffffffffffffffffffffffffffffffffff8116600090815260076020526040812054806117de5750600092915050565b73ffffffffffffffffffffffffffffffffffffffff83166000908152600660205260408120805483908110611815576118156131f3565b60009182526020918290206040805160808101825260039093029091018054600f81810b8552700100000000000000000000000000000000909104900b9383019390935260018301549082018190526002909201546060820152915061187f9061153a90426131c1565b816020015161188e9190613222565b815161189a91906132d8565b600f0b808252600013156118ad57600081525b80516118bb90600f0b612d83565b949350505050565b60005473ffffffffffffffffffffffffffffffffffffffff163314611944576040517f08c379a000000000000000000000000000000000000000000000000000000000815260206004820181905260248201527f4f776e61626c653a2063616c6c6572206973206e6f7420746865206f776e6572604482015260640161061f565b61194e6000612def565b565b3360009081526009602052604090205460ff16156119ca576040517f08c379a000000000000000000000000000000000000000000000000000000000815260206004820152601360248201527f416c726561647920696e697469616c697a656400000000000000000000000000604482015260640161061f565b3360008181526009602052604080822080547fffffffffffffffffffffffffffffffffffffffffffffffffffffffffffffff00166001179055517f1959a00200000000000000000000000000000000000000000000000000000000815260048101929092529081907f000000000000000000000000000000000000000000000000000000000000000073ffffffffffffffffffffffffffffffffffffffff1690631959a0029060240161012060405180830381865afa158015611a91573d6000803e3d6000fd5b505050506040513d601f19601f82011682018060405250810190611ab59190613071565b9850505096505050505050600081118015611acf57504282115b15611b3157336000908152600a6020908152604080832084905580518082018252838152918201839052805180820190915290919080611b0e85612195565b600f0b8152602001611b1f86612267565b90529050611b2e338383612281565b50505b60405181815233907f99869d968ca3581a661f31abb3a6aa70ccec5cdc49855eab174cf9e00a2462db9060200160405180910390a25050565b60058181548110611b7a57600080fd5b6000918252602090912060039091020180546001820154600290920154600f82810b945070010000000000000000000000000000000090920490910b919084565b600c80546105039061300d565b600043821115611c34576040517f08c379a000000000000000000000000000000000000000000000000000000000815260206004820152601060248201527f626164205f626c6f636b4e756d62657200000000000000000000000000000000604482015260640161061f565b6004546000611c438483612cef565b9050600060058281548110611c5a57611c5a6131f3565b600091825260208083206040805160808101825260039094029091018054600f81810b8652700100000000000000000000000000000000909104900b92840192909252600182015490830152600201546060820152915083831015611d925760006005611cc8856001613129565b81548110611cd857611cd86131f3565b60009182526020918290206040805160808101825260039093029091018054600f81810b8552700100000000000000000000000000000000909104900b93830193909352600183015490820152600290910154606080830182905285015191925014611d8c5782606001518160600151611d5291906131c1565b83604001518260400151611d6691906131c1565b6060850151611d75908a6131c1565b611d7f9190613141565b611d8991906131ad565b91505b50611de1565b43826060015114611de1576060820151611dac90436131c1565b6040830151611dbb90426131c1565b6060840151611dca90896131c1565b611dd49190613141565b611dde91906131ad565b90505b611dfa82828460400151611df59190613129565b612b0f565b9695505050505050565b60005473ffffffffffffffffffffffffffffffffffffffff163314611e85576040517f08c379a000000000000000000000000000000000000000000000000000000000815260206004820181905260248201527f4f776e61626c653a2063616c6c6572206973206e6f7420746865206f776e6572604482015260640161061f565b60005b818110156111a257600060096000858585818110611ea857611ea86131f3565b9050602002016020810190611ebd9190612f5d565b73ffffffffffffffffffffffffffffffffffffffff168152602081019190915260400160002080547fffffffffffffffffffffffffffffffffffffffffffffffffffffffffffffff0016911515919091179055828282818110611f2257611f226131f3565b9050602002016020810190611f379190612f5d565b73ffffffffffffffffffffffffffffffffffffffff167f94b46c743a5c10eae50d592c030e1c00931c13b51332eb14561b144dc32d8f7060405160405180910390a280611f8381613349565b915050611e88565b604080518082019091526000808252602082018190526117a7908280612281565b60005473ffffffffffffffffffffffffffffffffffffffff16331461202d576040517f08c379a000000000000000000000000000000000000000000000000000000000815260206004820181905260248201527f4f776e61626c653a2063616c6c6572206973206e6f7420746865206f776e6572604482015260640161061f565b60038190556040518181527f4f43394587b9c1f0936e683b916a561ce2c09c61f697b53d9e73df8346f6246b9060200160405180910390a150565b60005473ffffffffffffffffffffffffffffffffffffffff1633146120e9576040517f08c379a000000000000000000000000000000000000000000000000000000000815260206004820181905260248201527f4f776e61626c653a2063616c6c6572206973206e6f7420746865206f776e6572604482015260640161061f565b73ffffffffffffffffffffffffffffffffffffffff811661218c576040517f08c379a000000000000000000000000000000000000000000000000000000000815260206004820152602660248201527f4f776e61626c653a206e6577206f776e657220697320746865207a65726f206160448201527f6464726573730000000000000000000000000000000000000000000000000000606482015260840161061f565b6117a781612def565b60007fffffffffffffffffffffffffffffffff8000000000000000000000000000000082128015906121d757506f7fffffffffffffffffffffffffffffff8213155b612263576040517f08c379a000000000000000000000000000000000000000000000000000000000815260206004820152602760248201527f53616665436173743a2076616c756520646f65736e27742066697420696e203160448201527f3238206269747300000000000000000000000000000000000000000000000000606482015260840161061f565b5090565b600062093a8061227781846131ad565b61159d9190613141565b60408051608080820183526000808352602080840182905283850182905260608085018390528551938401865282845290830182905293820181905292810183905260045491929091819073ffffffffffffffffffffffffffffffffffffffff88161561256c57428760200151118015612302575060008760000151600f0b135b1561235157612312600354612195565b875161231e9190613382565b600f0b60208087019190915287015161233c9061153a9042906131c1565b856020015161234b9190613222565b600f0b85525b42866020015111801561236b575060008660000151600f0b135b156123ba5761237b600354612195565b86516123879190613382565b600f0b6020808601919091528601516123a59061153a9042906131c1565b84602001516123b49190613222565b600f0b84525b73ffffffffffffffffffffffffffffffffffffffff88166000908152600760205260409020548061246e5773ffffffffffffffffffffffffffffffffffffffff89166000908152600660209081526040808320805460018181018355918552938390208a51938b01516fffffffffffffffffffffffffffffffff9081167001000000000000000000000000000000000294169390931760039094029092019283558801519082015560608701516002909101555b612479816001613129565b73ffffffffffffffffffffffffffffffffffffffff8a16600081815260076020908152604080832094909455428985019081524360608b01908152938352600682528483208054600181810183559185528385208c518d8601516fffffffffffffffffffffffffffffffff9081167001000000000000000000000000000000000291161760039092020190815591519082015592516002909301929092558a820151815260088252919091205490880151600f9190910b94501561256a5787602001518760200151141561254f5783925061256a565b602080880151600090815260089091526040902054600f0b92505b505b60408051608081018252600080825260208201524291810191909152436060820152811561260257600582815481106125a7576125a76131f3565b60009182526020918290206040805160808101825260039093029091018054600f81810b8552700100000000000000000000000000000000909104900b93830193909352600183015490820152600290910154606082015290505b60408082018051825160808101845260008082526020820181905283519482019490945260608086015190820152915190929042111561267957604084015161264b90426131c1565b606085015161265a90436131c1565b61266c90670de0b6b3a7640000613141565b61267691906131ad565b90505b600061268484612267565b905060005b60ff8110156128805761269f62093a8083613129565b91506000428311156126b3574292506126c7565b50600082815260086020526040902054600f0b5b60006126d661153a88866131c1565b88602001516126e59190613222565b88519091506126f59082906132d8565b600f0b8852602088015161270a9083906133f6565b600f90810b60208a015288516000910b121561272557600088525b60008860200151600f0b121561273d57600060208901525b60408089018590528601519396508693670de0b6b3a76400009061276190866131c1565b61276b9087613141565b61277591906131ad565b86606001516127849190613129565b6060890152612794896001613129565b9850428414156127ab575050436060870152612880565b60058054600181018255600091909152885160208a01516fffffffffffffffffffffffffffffffff9081167001000000000000000000000000000000000291161760039091027f036b6384b5eca791c62761152d0c79bb0604c104a5fb6f4eb0703f3154bb3db081019190915560408901517f036b6384b5eca791c62761152d0c79bb0604c104a5fb6f4eb0703f3154bb3db182015560608901517f036b6384b5eca791c62761152d0c79bb0604c104a5fb6f4eb0703f3154bb3db2909101555050808061287890613349565b915050612689565b50600486905573ffffffffffffffffffffffffffffffffffffffff8d161561291a578960200151896020015186602001516128bb91906133f6565b6128c591906132d8565b600f0b60208601528951895186516128dd91906133f6565b6128e791906132d8565b600f90810b865260208601516000910b121561290557600060208601525b60008560000151600f0b121561291a57600085525b60058054600181018255600091909152855160208701516fffffffffffffffffffffffffffffffff9081167001000000000000000000000000000000000291161760039091027f036b6384b5eca791c62761152d0c79bb0604c104a5fb6f4eb0703f3154bb3db081019190915560408601517f036b6384b5eca791c62761152d0c79bb0604c104a5fb6f4eb0703f3154bb3db182015560608601517f036b6384b5eca791c62761152d0c79bb0604c104a5fb6f4eb0703f3154bb3db29091015573ffffffffffffffffffffffffffffffffffffffff8d1615612b0057428c602001511115612a845760208a0151612a1190896133f6565b97508b602001518b602001511415612a35576020890151612a3290896132d8565b97505b60208c810151600090815260089091526040902080547fffffffffffffffffffffffffffffffff00000000000000000000000000000000166fffffffffffffffffffffffffffffffff8a161790555b428b602001511115612b00578b602001518b602001511115612b00576020890151612aaf90886132d8565b60208c810151600090815260089091526040902080547fffffffffffffffffffffffffffffffff00000000000000000000000000000000166fffffffffffffffffffffffffffffffff831617905596505b50505050505050505050505050565b6000808390506000612b248560400151612267565b905060005b60ff811015612bda57612b3f62093a8083613129565b9150600085831115612b5357859250612b67565b50600082815260086020526040902054600f0b5b612b7a84604001518461153a91906131c1565b8460200151612b899190613222565b8451612b9591906132d8565b600f0b845282861415612ba85750612bda565b808460200151612bb891906133f6565b600f0b6020850152506040830182905280612bd281613349565b915050612b29565b5060008260000151600f0b1215612bf057600082525b8151612bfe90600f0b612d83565b95945050505050565b73ffffffffffffffffffffffffffffffffffffffff82166000908152600760205260408120548190815b6080811015612ce557818310612c4657612ce5565b60006002612c548486613129565b612c5f906001613129565b612c6991906131ad565b73ffffffffffffffffffffffffffffffffffffffff881660009081526006602052604090208054919250879183908110612ca557612ca56131f3565b90600052602060002090600302016002015411612cc457809350612cd2565b612ccf6001826131c1565b92505b5080612cdd81613349565b915050612c31565b5090949350505050565b60008082815b6080811015612ce557818310612d0a57612ce5565b60006002612d188486613129565b612d23906001613129565b612d2d91906131ad565b90508660058281548110612d4357612d436131f3565b90600052602060002090600302016002015411612d6257809350612d70565b612d6d6001826131c1565b92505b5080612d7b81613349565b915050612cf5565b600080821215612263576040517f08c379a000000000000000000000000000000000000000000000000000000000815260206004820181905260248201527f53616665436173743a2076616c7565206d75737420626520706f736974697665604482015260640161061f565b6000805473ffffffffffffffffffffffffffffffffffffffff8381167fffffffffffffffffffffffff0000000000000000000000000000000000000000831681178455604051919092169283917f8be0079c531659141344cd1fd0a4f28419497f9722a3daafe3b4186f6b6457e09190a35050565b600060208083528351808285015260005b81811015612e9157858101830151858201604001528201612e75565b81811115612ea3576000604083870101525b50601f017fffffffffffffffffffffffffffffffffffffffffffffffffffffffffffffffe016929092016040019392505050565b803573ffffffffffffffffffffffffffffffffffffffff81168114612efb57600080fd5b919050565b600080600060608486031215612f1557600080fd5b612f1e84612ed7565b95602085013595506040909401359392505050565b60008060408385031215612f4657600080fd5b612f4f83612ed7565b946020939093013593505050565b600060208284031215612f6f57600080fd5b612f7882612ed7565b9392505050565b600060208284031215612f9157600080fd5b5035919050565b60008060208385031215612fab57600080fd5b823567ffffffffffffffff80821115612fc357600080fd5b818501915085601f830112612fd757600080fd5b813581811115612fe657600080fd5b8660208260051b8501011115612ffb57600080fd5b60209290920196919550909350505050565b600181811c9082168061302157607f821691505b6020821081141561305b577f4e487b7100000000000000000000000000000000000000000000000000000000600052602260045260246000fd5b50919050565b80518015158114612efb57600080fd5b60008060008060008060008060006101208a8c03121561309057600080fd5b8951985060208a0151975060408a0151965060608a0151955060808a0151945060a08a0151935060c08a015192506130ca60e08b01613061565b91506101008a015190509295985092959850929598565b6000602082840312156130f357600080fd5b5051919050565b7f4e487b7100000000000000000000000000000000000000000000000000000000600052601160045260246000fd5b6000821982111561313c5761313c6130fa565b500190565b6000817fffffffffffffffffffffffffffffffffffffffffffffffffffffffffffffffff0483118215151615613179576131796130fa565b500290565b7f4e487b7100000000000000000000000000000000000000000000000000000000600052601260045260246000fd5b6000826131bc576131bc61317e565b500490565b6000828210156131d3576131d36130fa565b500390565b6000602082840312156131ea57600080fd5b612f7882613061565b7f4e487b7100000000000000000000000000000000000000000000000000000000600052603260045260246000fd5b600081600f0b83600f0b6f7fffffffffffffffffffffffffffffff60008213600084138383048511828216161561325b5761325b6130fa565b7fffffffffffffffffffffffffffffffff800000000000000000000000000000006000851286820586128184161615613296576132966130fa565b600087129250858205871284841616156132b2576132b26130fa565b858505871281841616156132c8576132c86130fa565b5050509290910295945050505050565b600081600f0b83600f0b60008112817fffffffffffffffffffffffffffffffff800000000000000000000000000000000183128115161561331b5761331b6130fa565b816f7fffffffffffffffffffffffffffffff01831381161561333f5761333f6130fa565b5090039392505050565b60007fffffffffffffffffffffffffffffffffffffffffffffffffffffffffffffffff82141561337b5761337b6130fa565b5060010190565b600081600f0b83600f0b806133995761339961317e565b7fffffffffffffffffffffffffffffffffffffffffffffffffffffffffffffffff81147fffffffffffffffffffffffffffffffff80000000000000000000000000000000831416156133ed576133ed6130fa565b90059392505050565b600081600f0b83600f0b60008212826f7fffffffffffffffffffffffffffffff03821381151615613429576134296130fa565b827fffffffffffffffffffffffffffffffff8000000000000000000000000000000003821281161561345d5761345d6130fa565b5001939250505056fea2646970667358221220699a703b6846330c847c90e443461c4695a871e4040b95c3f101c275c0adca8e64736f6c634300080a0033",
  "linkReferences": {},
  "deployedLinkReferences": {}
}