{
  "_format": "hh-sol-artifact-1",
  "contractName": "VCakeTest",
  "sourceName": "contracts/test/VCakeTest.sol",
  "abi": [
    {
      "inputs": [
        {
          "internalType": "contract ICakePool",
          "name": "_cakePool",
          "type": "address"
        },
        {
          "internalType": "contract IMasterChefV2",
          "name": "_masterchefV2",
          "type": "address"
        },
        {
          "internalType": "uint256",
          "name": "_pid",
          "type": "uint256"
        }
      ],
      "stateMutability": "nonpayable",
      "type": "constructor"
    },
    {
      "anonymous": false,
      "inputs": [
        {
          "indexed": true,
          "internalType": "address",
          "name": "user",
          "type": "address"
        },
        {
          "indexed": false,
          "internalType": "uint256",
          "name": "lockedAmount",
          "type": "uint256"
        }
      ],
      "name": "Sync",
      "type": "event"
    },
    {
      "inputs": [],
      "name": "CakePool",
      "outputs": [
        {
          "internalType": "contract ICakePool",
          "name": "",
          "type": "address"
        }
      ],
      "stateMutability": "view",
      "type": "function"
    },
    {
      "inputs": [],
      "name": "CakePoolPID",
      "outputs": [
        {
          "internalType": "uint256",
          "name": "",
          "type": "uint256"
        }
      ],
      "stateMutability": "view",
      "type": "function"
    },
    {
      "inputs": [],
      "name": "DURATION_FACTOR_OVERDUE",
      "outputs": [
        {
          "internalType": "uint256",
          "name": "",
          "type": "uint256"
        }
      ],
      "stateMutability": "view",
      "type": "function"
    },
    {
      "inputs": [],
      "name": "MULTIPLIER",
      "outputs": [
        {
          "internalType": "uint256",
          "name": "",
          "type": "uint256"
        }
      ],
      "stateMutability": "view",
      "type": "function"
    },
    {
      "inputs": [],
      "name": "MasterchefV2",
      "outputs": [
        {
          "internalType": "contract IMasterChefV2",
          "name": "",
          "type": "address"
        }
      ],
      "stateMutability": "view",
      "type": "function"
    },
    {
      "inputs": [],
      "name": "PRECISION_FACTOR",
      "outputs": [
        {
          "internalType": "uint256",
          "name": "",
          "type": "uint256"
        }
      ],
      "stateMutability": "view",
      "type": "function"
    },
    {
      "inputs": [],
      "name": "UNLOCK_FREE_DURATION",
      "outputs": [
        {
          "internalType": "uint256",
          "name": "",
          "type": "uint256"
        }
      ],
      "stateMutability": "view",
      "type": "function"
    },
    {
      "inputs": [],
      "name": "WEEK",
      "outputs": [
        {
          "internalType": "uint256",
          "name": "",
          "type": "uint256"
        }
      ],
      "stateMutability": "view",
      "type": "function"
    },
    {
      "inputs": [
        {
          "internalType": "address",
          "name": "_user",
          "type": "address"
        }
      ],
      "name": "balanceOf",
      "outputs": [
        {
          "internalType": "uint256",
          "name": "",
          "type": "uint256"
        }
      ],
      "stateMutability": "view",
      "type": "function"
    },
    {
      "inputs": [
        {
          "internalType": "address",
          "name": "_user",
          "type": "address"
        },
        {
          "internalType": "uint256",
          "name": "_blockNumber",
          "type": "uint256"
        }
      ],
      "name": "balanceOfAt",
      "outputs": [
        {
          "internalType": "uint256",
          "name": "",
          "type": "uint256"
        }
      ],
      "stateMutability": "view",
      "type": "function"
    },
    {
      "inputs": [],
      "name": "checkpoint",
      "outputs": [],
      "stateMutability": "nonpayable",
      "type": "function"
    },
    {
      "inputs": [],
      "name": "decimals",
      "outputs": [
        {
          "internalType": "uint8",
          "name": "",
          "type": "uint8"
        }
      ],
      "stateMutability": "view",
      "type": "function"
    },
    {
      "inputs": [
        {
          "internalType": "address",
          "name": "_user",
          "type": "address"
        },
        {
          "internalType": "uint256",
          "name": "_amount",
          "type": "uint256"
        },
        {
          "internalType": "uint256",
          "name": "_lockDuration",
          "type": "uint256"
        }
      ],
      "name": "deposit",
      "outputs": [],
      "stateMutability": "nonpayable",
      "type": "function"
    },
    {
      "inputs": [],
      "name": "epoch",
      "outputs": [
        {
          "internalType": "uint256",
          "name": "",
          "type": "uint256"
        }
      ],
      "stateMutability": "view",
      "type": "function"
    },
    {
      "inputs": [
        {
          "internalType": "address",
          "name": "",
          "type": "address"
        }
      ],
      "name": "initialization",
      "outputs": [
        {
          "internalType": "bool",
          "name": "",
          "type": "bool"
        }
      ],
      "stateMutability": "view",
      "type": "function"
    },
    {
      "inputs": [
        {
          "internalType": "address",
          "name": "",
          "type": "address"
        }
      ],
      "name": "locks",
      "outputs": [
        {
          "internalType": "int128",
          "name": "amount",
          "type": "int128"
        },
        {
          "internalType": "uint256",
          "name": "end",
          "type": "uint256"
        }
      ],
      "stateMutability": "view",
      "type": "function"
    },
    {
      "inputs": [],
      "name": "name",
      "outputs": [
        {
          "internalType": "string",
          "name": "",
          "type": "string"
        }
      ],
      "stateMutability": "view",
      "type": "function"
    },
    {
      "inputs": [
        {
          "internalType": "uint256",
          "name": "",
          "type": "uint256"
        }
      ],
      "name": "pointHistory",
      "outputs": [
        {
          "internalType": "int128",
          "name": "bias",
          "type": "int128"
        },
        {
          "internalType": "int128",
          "name": "slope",
          "type": "int128"
        },
        {
          "internalType": "uint256",
          "name": "timestamp",
          "type": "uint256"
        },
        {
          "internalType": "uint256",
          "name": "blockNumber",
          "type": "uint256"
        }
      ],
      "stateMutability": "view",
      "type": "function"
    },
    {
      "inputs": [
        {
          "internalType": "address",
          "name": "",
          "type": "address"
        }
      ],
      "name": "prevLocks",
      "outputs": [
        {
          "internalType": "int128",
          "name": "amount",
          "type": "int128"
        },
        {
          "internalType": "uint256",
          "name": "end",
          "type": "uint256"
        }
      ],
      "stateMutability": "view",
      "type": "function"
    },
    {
      "inputs": [
        {
          "internalType": "uint256",
          "name": "",
          "type": "uint256"
        }
      ],
      "name": "slopeChanges",
      "outputs": [
        {
          "internalType": "int128",
          "name": "",
          "type": "int128"
        }
      ],
      "stateMutability": "view",
      "type": "function"
    },
    {
      "inputs": [],
      "name": "symbol",
      "outputs": [
        {
          "internalType": "string",
          "name": "",
          "type": "string"
        }
      ],
      "stateMutability": "view",
      "type": "function"
    },
    {
      "inputs": [],
      "name": "syncFromCakePool",
      "outputs": [],
      "stateMutability": "nonpayable",
      "type": "function"
    },
    {
      "inputs": [],
      "name": "totalSupply",
      "outputs": [
        {
          "internalType": "uint256",
          "name": "",
          "type": "uint256"
        }
      ],
      "stateMutability": "view",
      "type": "function"
    },
    {
      "inputs": [
        {
          "internalType": "uint256",
          "name": "_blockNumber",
          "type": "uint256"
        }
      ],
      "name": "totalSupplyAt",
      "outputs": [
        {
          "internalType": "uint256",
          "name": "",
          "type": "uint256"
        }
      ],
      "stateMutability": "view",
      "type": "function"
    },
    {
      "inputs": [
        {
          "internalType": "address",
          "name": "",
          "type": "address"
        }
      ],
      "name": "userPointEpoch",
      "outputs": [
        {
          "internalType": "uint256",
          "name": "",
          "type": "uint256"
        }
      ],
      "stateMutability": "view",
      "type": "function"
    },
    {
      "inputs": [
        {
          "internalType": "address",
          "name": "",
          "type": "address"
        },
        {
          "internalType": "uint256",
          "name": "",
          "type": "uint256"
        }
      ],
      "name": "userPointHistory",
      "outputs": [
        {
          "internalType": "int128",
          "name": "bias",
          "type": "int128"
        },
        {
          "internalType": "int128",
          "name": "slope",
          "type": "int128"
        },
        {
          "internalType": "uint256",
          "name": "timestamp",
          "type": "uint256"
        },
        {
          "internalType": "uint256",
          "name": "blockNumber",
          "type": "uint256"
        }
      ],
      "stateMutability": "view",
      "type": "function"
    },
    {
      "inputs": [
        {
          "internalType": "address",
          "name": "",
          "type": "address"
        }
      ],
      "name": "userPrevLockedAmount",
      "outputs": [
        {
          "internalType": "uint256",
          "name": "",
          "type": "uint256"
        }
      ],
      "stateMutability": "view",
      "type": "function"
    },
    {
      "inputs": [
        {
          "internalType": "address",
          "name": "_user",
          "type": "address"
        }
      ],
      "name": "withdraw",
      "outputs": [],
      "stateMutability": "nonpayable",
      "type": "function"
    }
  ],
  "bytecode": "0x60e060405262093a8060005562ed4e006001553480156200001f57600080fd5b506040516200399338038062003993833981016040819052620000429162000252565b6001600160a01b03808416608090815290831660a05260c0829052604080519182018152600080835260208084018281524285850190815243606087019081526005805460018101825595819052965192516001600160801b03908116600160801b0293169290921760039094027f036b6384b5eca791c62761152d0c79bb0604c104a5fb6f4eb0703f3154bb3db0810194909455517f036b6384b5eca791c62761152d0c79bb0604c104a5fb6f4eb0703f3154bb3db1840155517f036b6384b5eca791c62761152d0c79bb0604c104a5fb6f4eb0703f3154bb3db290920191909155600d805460ff191660121790558151808301909252828252645643616b6560d81b91019081526200015a91600b919062000193565b50604080518082019091526005808252645643616b6560d81b60209092019182526200018991600c9162000193565b50505050620002d7565b828054620001a1906200029a565b90600052602060002090601f016020900481019282620001c5576000855562000210565b82601f10620001e057805160ff191683800117855562000210565b8280016001018555821562000210579182015b8281111562000210578251825591602001919060010190620001f3565b506200021e92915062000222565b5090565b5b808211156200021e576000815560010162000223565b6001600160a01b03811681146200024f57600080fd5b50565b6000806000606084860312156200026857600080fd5b8351620002758162000239565b6020850151909350620002888162000239565b80925050604084015190509250925092565b600181811c90821680620002af57607f821691505b60208210811415620002d157634e487b7160e01b600052602260045260246000fd5b50919050565b60805160a05160c0516136156200037e6000396000818161046a0152610a620152600081816102050152610ac80152600081816104290152818161057e015281816106c70152818161088401528181610917015281816109a801528181610a9d01528181610c0f01528181610ce801528181610ed301528181610f9801528181611030015281816117560152818161185501528181611bde015261243001526136156000f3fe608060405234801561001057600080fd5b50600436106101c45760003560e01c806381fc83bb116100f9578063aaada5da11610097578063c589dbe211610071578063c589dbe214610465578063ccd34cd51461048c578063f4359ce514610498578063f52a36f7146104a257600080fd5b8063aaada5da1461044b578063acaf88cd14610454578063c2c4c5c11461045d57600080fd5b806390b4b79c116100d357806390b4b79c146103d657806395d89b4114610409578063981b24d014610411578063aa94ab591461042457600080fd5b806381fc83bb1461039a5780638ad4c447146103ba578063900cf0cf146103cd57600080fd5b80633c0be3281161016657806351cff8d91161014057806351cff8d91461033e5780635de9a1371461035157806370a082311461037f578063787e52db1461039257600080fd5b80633c0be328146102c35780633c3c81ab146102e35780634ee2cd7e1461032b57600080fd5b80630efe6a8b116101a25780630efe6a8b1461024c57806318160ddd14610261578063313ce5671461026957806334d901a41461028857600080fd5b8063059f8b16146101c957806306fdde03146101eb578063071aed2b14610200575b600080fd5b6101d8670de0b6b3a764000081565b6040519081526020015b60405180910390f35b6101f36104d8565b6040516101e2919061306b565b6102277f000000000000000000000000000000000000000000000000000000000000000081565b60405173ffffffffffffffffffffffffffffffffffffffff90911681526020016101e2565b61025f61025a3660046130ae565b610566565b005b6101d8611342565b600d546102769060ff1681565b60405160ff90911681526020016101e2565b61029b6102963660046130e1565b6113bf565b60408051600f95860b81529390940b60208401529282015260608101919091526080016101e2565b6101d86102d136600461310b565b600a6020526000908152604090205481565b6103116102f136600461310b565b60036020526000908152604090208054600190910154600f9190910b9082565b60408051600f9390930b83526020830191909152016101e2565b6101d86103393660046130e1565b61141c565b61025f61034c36600461310b565b61173e565b61031161035f36600461310b565b60026020526000908152604090208054600190910154600f9190910b9082565b6101d861038d36600461310b565b6119e1565b61025f611afa565b6101d86103a836600461310b565b60076020526000908152604090205481565b61029b6103c8366004613126565b611db7565b6101d860045481565b6103f96103e436600461310b565b60096020526000908152604090205460ff1681565b60405190151581526020016101e2565b6101f3611e08565b6101d861041f366004613126565b611e15565b6102277f000000000000000000000000000000000000000000000000000000000000000081565b6101d860005481565b6101d860015481565b61025f612051565b6101d87f000000000000000000000000000000000000000000000000000000000000000081565b6101d864e8d4a5100081565b6101d862093a8081565b6104c56104b0366004613126565b600860205260009081526040902054600f0b81565b604051600f9190910b81526020016101e2565b600b80546104e59061313f565b80601f01602080910402602001604051908101604052809291908181526020018280546105119061313f565b801561055e5780601f106105335761010080835404028352916020019161055e565b820191906000526020600020905b81548152906001019060200180831161054157829003601f168201915b505050505081565b3373ffffffffffffffffffffffffffffffffffffffff7f0000000000000000000000000000000000000000000000000000000000000000161461060a576040517f08c379a000000000000000000000000000000000000000000000000000000000815260206004820152600d60248201527f4e6f742063616b6520706f6f6c0000000000000000000000000000000000000060448201526064015b60405180910390fd5b73ffffffffffffffffffffffffffffffffffffffff831660009081526009602052604090205460ff161561133d57610682604051806101000160405280600081526020016000815260200160008152602001600081526020016000815260200160001515815260200160008152602001600081525090565b6040517f1959a00200000000000000000000000000000000000000000000000000000000815273ffffffffffffffffffffffffffffffffffffffff85811660048301527f00000000000000000000000000000000000000000000000000000000000000001690631959a0029060240161012060405180830381865afa15801561070f573d6000803e3d6000fd5b505050506040513d601f19601f8201168201806040525081019061073391906131a3565b60c08a0152151560a089015260808801526060870152604080870191909152602080870193909352938552508251808401845273ffffffffffffffffffffffffffffffffffffffff88166000908152600a9092529281205490929150819061079a90612072565b600f0b81526020016107af8460600151612144565b81525090506107f26040518060400160405280600b81526020017f6465706f736974206c6f6700000000000000000000000000000000000000000081525061215e565b6107fd8585856121ed565b6108806040518060400160405280600a81526020017f707265764c6f636b656400000000000000000000000000000000000000000000815250600a60008873ffffffffffffffffffffffffffffffffffffffff1673ffffffffffffffffffffffffffffffffffffffff16815260200190815260200160002054846060015161229c565b60007f000000000000000000000000000000000000000000000000000000000000000073ffffffffffffffffffffffffffffffffffffffff16633a98ef396040518163ffffffff1660e01b8152600401602060405180830381865afa1580156108ed573d6000803e3d6000fd5b505050506040513d601f19601f820116820180604052508101906109119190613213565b905060007f000000000000000000000000000000000000000000000000000000000000000073ffffffffffffffffffffffffffffffffffffffff1663e73008bc6040518163ffffffff1660e01b8152600401602060405180830381865afa158015610980573d6000803e3d6000fd5b505050506040513d601f19601f820116820180604052508101906109a49190613213565b90507f000000000000000000000000000000000000000000000000000000000000000073ffffffffffffffffffffffffffffffffffffffff166348a0d7546040518163ffffffff1660e01b8152600401602060405180830381865afa158015610a11573d6000803e3d6000fd5b505050506040513d601f19601f82011682018060405250810190610a359190613213565b60e08501526040517f1175a1dd0000000000000000000000000000000000000000000000000000000081527f0000000000000000000000000000000000000000000000000000000000000000600482015273ffffffffffffffffffffffffffffffffffffffff7f0000000000000000000000000000000000000000000000000000000000000000811660248301526000917f000000000000000000000000000000000000000000000000000000000000000090911690631175a1dd90604401602060405180830381865afa158015610b11573d6000803e3d6000fd5b505050506040513d601f19601f82011682018060405250810190610b359190613213565b90508015610b5357808560e001818151610b4f919061325b565b9052505b845115611159578460a0015115610e8e5760008560800151848760000151858960e00151610b81919061325b565b610b8b9190613273565b610b9591906132df565b610b9f91906132f3565b9050856080015183610bb191906132f3565b600060808801528651909350610bc790856132f3565b6040517f668679ba00000000000000000000000000000000000000000000000000000000815273ffffffffffffffffffffffffffffffffffffffff8b811660048301529195507f00000000000000000000000000000000000000000000000000000000000000009091169063668679ba90602401602060405180830381865afa158015610c58573d6000803e3d6000fd5b505050506040513d601f19601f82011682018060405250810190610c7c919061330a565b158015610c995750426000548760600151610c97919061325b565b105b15610e0e5760008660c0015182610cb091906132f3565b905060008054886060015142610cc691906132f3565b610cd091906132f3565b9050600154811115610ce157506001545b60006001547f000000000000000000000000000000000000000000000000000000000000000073ffffffffffffffffffffffffffffffffffffffff1663a5834e066040518163ffffffff1660e01b8152600401602060405180830381865afa158015610d51573d6000803e3d6000fd5b505050506040513d601f19601f82011682018060405250810190610d759190613213565b610d7f9084613273565b610d8991906132df565b9050600064e8d4a51000610d9d8386613273565b610da791906132df565b9050808a60e001818151610dbb91906132f3565b905250610dc881866132f3565b9450610e096040518060400160405280601281526020017f436861726765206f7665726475652066656500000000000000000000000000008152508261232f565b505050505b60008415610e4c5781848860e00151610e27919061325b565b610e3191906132f3565b610e3b8684613273565b610e4591906132df565b9050610e4f565b50805b808752610e5c818661325b565b94504287606001511015610e8757600060a08801819052604088018190526060880181905260c08801525b5050611159565b6040517f3fec4e3200000000000000000000000000000000000000000000000000000000815273ffffffffffffffffffffffffffffffffffffffff89811660048301527f00000000000000000000000000000000000000000000000000000000000000001690633fec4e3290602401602060405180830381865afa158015610f1a573d6000803e3d6000fd5b505050506040513d601f19601f82011682018060405250810190610f3e919061330a565b61115957600083838760e00151610f55919061325b565b8751610f619190613273565b610f6b91906132df565b8651909150610f7a90856132f3565b6000808852602088015191955090610f9290836132f3565b905060007f000000000000000000000000000000000000000000000000000000000000000073ffffffffffffffffffffffffffffffffffffffff1663877887826040518163ffffffff1660e01b8152600401602060405180830381865afa158015611001573d6000803e3d6000fd5b505050506040513d601f19601f820116820180604052508101906110259190613213565b90508a3b156110c0577f000000000000000000000000000000000000000000000000000000000000000073ffffffffffffffffffffffffffffffffffffffff16633eb788746040518163ffffffff1660e01b8152600401602060405180830381865afa158015611099573d6000803e3d6000fd5b505050506040513d601f19601f820116820180604052508101906110bd9190613213565b90505b60006127106110cf8385613273565b6110d991906132df565b9050801561110357808960e0018181516110f391906132f3565b90525061110081856132f3565b93505b600087156111415784878b60e0015161111c919061325b565b61112691906132f3565b6111308987613273565b61113a91906132df565b9050611144565b50835b808a52611151818961325b565b975050505050505b85156111a657428560600151101561118857426040860181905261117e90879061325b565b606086015261119e565b858560600181815161119a919061325b565b9052505b600160a08601525b8451600090158015906111ba57508560a001515b156111ff57838660000151848860e001516111d5919061325b565b6111df9190613273565b6111e991906132df565b905042866040015114156111ff5760c086018190525b85604001518660600151111561122557878660c001818151611221919061325b565b9052505b6000604051806040016040528061123f8960c00151612072565b600f0b81526020016112548960600151612144565b905260c088015173ffffffffffffffffffffffffffffffffffffffff8c166000818152600a6020908152604080832094909455835180850185528b51600f90810b82528c83015182840190815285855260038452868520925183546fffffffffffffffffffffffffffffffff9182167fffffffffffffffffffffffffffffffff00000000000000000000000000000000918216178555915160019485015587518089018952895190930b83528489015183860190815296865260029094529590932092518354921691909416178155905191015590506113358a87836123c4565b505050505050505b505050565b60006113ba60056004548154811061135c5761135c613325565b60009182526020918290206040805160808101825260039093029091018054600f81810b8552700100000000000000000000000000000000909104900b93830193909352600183015490820152600290910154606082015242612cff565b905090565b600660205281600052604060002081815481106113db57600080fd5b6000918252602090912060039091020180546001820154600290920154600f82810b955070010000000000000000000000000000000090920490910b925084565b600043821115611488576040517f08c379a000000000000000000000000000000000000000000000000000000000815260206004820152601060248201527f626164205f626c6f636b4e756d626572000000000000000000000000000000006044820152606401610601565b60006114948484612df7565b9050806114a5576000915050611738565b73ffffffffffffffffffffffffffffffffffffffff841660009081526006602052604081208054839081106114dc576114dc613325565b600091825260208083206040805160808101825260039094029091018054600f81810b8652700100000000000000000000000000000000909104900b92840192909252600182015490830152600201546060820152600454909250906115428683612edf565b905060006005828154811061155957611559613325565b600091825260208083206040805160808101825260039094029091018054600f81810b8652700100000000000000000000000000000000909104900b928401929092526001820154908301526002015460608201529150808484101561166157600060056115c886600161325b565b815481106115d8576115d8613325565b60009182526020918290206040805160808101825260039093029091018054600f81810b8552700100000000000000000000000000000000909104900b93830193909352600183015490820152600290910154606080830182905286015191925061164391906132f3565b92508360400151816040015161165991906132f3565b915050611685565b606083015161167090436132f3565b915082604001514261168291906132f3565b90505b604083015182156116c2578284606001518b6116a191906132f3565b6116ab9084613273565b6116b591906132df565b6116bf908261325b565b90505b6116da8760400151826116d591906132f3565b612072565b87602001516116e99190613354565b875188906116f890839061340a565b600f90810b90915288516000910b1215905061171f57600098505050505050505050611738565b865161172d90600f0b612f73565b985050505050505050505b92915050565b3373ffffffffffffffffffffffffffffffffffffffff7f000000000000000000000000000000000000000000000000000000000000000016146117dd576040517f08c379a000000000000000000000000000000000000000000000000000000000815260206004820152600d60248201527f4e6f742063616b6520706f6f6c000000000000000000000000000000000000006044820152606401610601565b73ffffffffffffffffffffffffffffffffffffffff811660009081526009602052604090205460ff16156119de576040517f1959a00200000000000000000000000000000000000000000000000000000000815273ffffffffffffffffffffffffffffffffffffffff828116600483015260009182917f00000000000000000000000000000000000000000000000000000000000000001690631959a0029060240161012060405180830381865afa15801561189d573d6000803e3d6000fd5b505050506040513d601f19601f820116820180604052508101906118c191906131a3565b9850505096505050505050600060405180604001604052806118e284612072565b600f0b81526020016118f385612144565b905260408051808201825260008082526020808301828152845180860186528651600f90810b82528784015182850190815273ffffffffffffffffffffffffffffffffffffffff8d1680875260038652888720935184547fffffffffffffffffffffffffffffffff000000000000000000000000000000009081166fffffffffffffffffffffffffffffffff92831617865592516001958601558951808b018b52895190940b845294518387019081529087526002865288872092518354909216919094161781559151910155600a9052918220919091559091506119d98583836123c4565b505050505b50565b73ffffffffffffffffffffffffffffffffffffffff811660009081526007602052604081205480611a155750600092915050565b73ffffffffffffffffffffffffffffffffffffffff83166000908152600660205260408120805483908110611a4c57611a4c613325565b60009182526020918290206040805160808101825260039093029091018054600f81810b8552700100000000000000000000000000000000909104900b93830193909352600183015490820181905260029092015460608201529150611ab6906116d590426132f3565b8160200151611ac59190613354565b8151611ad1919061340a565b600f0b80825260001315611ae457600081525b8051611af290600f0b612f73565b949350505050565b3360009081526009602052604090205460ff1615611b74576040517f08c379a000000000000000000000000000000000000000000000000000000000815260206004820152601360248201527f416c726561647920696e697469616c697a6564000000000000000000000000006044820152606401610601565b3360008181526009602052604080822080547fffffffffffffffffffffffffffffffffffffffffffffffffffffffffffffff00166001179055517f1959a00200000000000000000000000000000000000000000000000000000000815260048101929092529081907f000000000000000000000000000000000000000000000000000000000000000073ffffffffffffffffffffffffffffffffffffffff1690631959a0029060240161012060405180830381865afa158015611c3b573d6000803e3d6000fd5b505050506040513d601f19601f82011682018060405250810190611c5f91906131a3565b98505050965050505050506000811115611d7e57336000908152600a6020908152604080832084905580518082018252838152918201839052805180820190915290919080611cad85612072565b600f0b8152602001611cbe86612144565b9052336000818152600a602090815260408083208890558051808201825283815280830184815285855260038452828520915182546fffffffffffffffffffffffffffffffff9182167fffffffffffffffffffffffffffffffff000000000000000000000000000000009182161784559151600193840155835180850185528851600f0b81528589015181870190815288885260029096529390952092518354951694169390931781559051910155909150611d7b9083836123c4565b50505b60405181815233907f99869d968ca3581a661f31abb3a6aa70ccec5cdc49855eab174cf9e00a2462db9060200160405180910390a25050565b60058181548110611dc757600080fd5b6000918252602090912060039091020180546001820154600290920154600f82810b945070010000000000000000000000000000000090920490910b919084565b600c80546104e59061313f565b600043821115611e81576040517f08c379a000000000000000000000000000000000000000000000000000000000815260206004820152601060248201527f626164205f626c6f636b4e756d626572000000000000000000000000000000006044820152606401610601565b6004546000611e908483612edf565b9050600060058281548110611ea757611ea7613325565b600091825260208083206040805160808101825260039094029091018054600f81810b8652700100000000000000000000000000000000909104900b92840192909252600182015490830152600201546060820152915083831015611fdf5760006005611f1585600161325b565b81548110611f2557611f25613325565b60009182526020918290206040805160808101825260039093029091018054600f81810b8552700100000000000000000000000000000000909104900b93830193909352600183015490820152600290910154606080830182905285015191925014611fd95782606001518160600151611f9f91906132f3565b83604001518260400151611fb391906132f3565b6060850151611fc2908a6132f3565b611fcc9190613273565b611fd691906132df565b91505b5061202e565b4382606001511461202e576060820151611ff990436132f3565b604083015161200890426132f3565b606084015161201790896132f3565b6120219190613273565b61202b91906132df565b90505b61204782828460400151612042919061325b565b612cff565b9695505050505050565b604080518082019091526000808252602082018190526119de9082806123c4565b60007fffffffffffffffffffffffffffffffff8000000000000000000000000000000082128015906120b457506f7fffffffffffffffffffffffffffffff8213155b612140576040517f08c379a000000000000000000000000000000000000000000000000000000000815260206004820152602760248201527f53616665436173743a2076616c756520646f65736e27742066697420696e203160448201527f32382062697473000000000000000000000000000000000000000000000000006064820152608401610601565b5090565b600062093a8061215481846132df565b6117389190613273565b6119de81604051602401612172919061306b565b604080517fffffffffffffffffffffffffffffffffffffffffffffffffffffffffffffffe08184030181529190526020810180517bffffffffffffffffffffffffffffffffffffffffffffffffffffffff167f41304fac00000000000000000000000000000000000000000000000000000000179052612fdf565b60405173ffffffffffffffffffffffffffffffffffffffff84166024820152604481018390526064810182905261133d90608401604080517fffffffffffffffffffffffffffffffffffffffffffffffffffffffffffffffe08184030181529190526020810180517bffffffffffffffffffffffffffffffffffffffffffffffffffffffff167f8786135e00000000000000000000000000000000000000000000000000000000179052612fdf565b61133d8383836040516024016122b49392919061347b565b604080517fffffffffffffffffffffffffffffffffffffffffffffffffffffffffffffffe08184030181529190526020810180517bffffffffffffffffffffffffffffffffffffffffffffffffffffffff167f969cdd0300000000000000000000000000000000000000000000000000000000179052612fdf565b6123c082826040516024016123459291906134a0565b604080517fffffffffffffffffffffffffffffffffffffffffffffffffffffffffffffffe08184030181529190526020810180517bffffffffffffffffffffffffffffffffffffffffffffffffffffffff167f9710a9d000000000000000000000000000000000000000000000000000000000179052612fdf565b5050565b600060405180608001604052806000600f0b81526020016000600f0b81526020016000815260200160008152509050600060405180608001604052806000600f0b81526020016000600f0b815260200160008152602001600081525090506000806000600454905060007f000000000000000000000000000000000000000000000000000000000000000073ffffffffffffffffffffffffffffffffffffffff16634f1bfc9e6040518163ffffffff1660e01b8152600401602060405180830381865afa158015612499573d6000803e3d6000fd5b505050506040513d601f19601f820116820180604052508101906124bd9190613213565b905073ffffffffffffffffffffffffffffffffffffffff89161561275b574288602001511180156124f5575060008860000151600f0b135b156125425761250381612072565b885161250f91906134c2565b600f0b60208088019190915288015161252d906116d59042906132f3565b866020015161253c9190613354565b600f0b86525b42876020015111801561255c575060008760000151600f0b135b156125a95761256a81612072565b875161257691906134c2565b600f0b602080870191909152870151612594906116d59042906132f3565b85602001516125a39190613354565b600f0b85525b73ffffffffffffffffffffffffffffffffffffffff89166000908152600760205260409020548061265d5773ffffffffffffffffffffffffffffffffffffffff8a166000908152600660209081526040808320805460018181018355918552938390208b51938c01516fffffffffffffffffffffffffffffffff9081167001000000000000000000000000000000000294169390931760039094029092019283558901519082015560608801516002909101555b61266881600161325b565b73ffffffffffffffffffffffffffffffffffffffff8b16600081815260076020908152604080832094909455428a85019081524360608c01908152938352600682528483208054600181810183559185528385208d518e8601516fffffffffffffffffffffffffffffffff9081167001000000000000000000000000000000000291161760039092020190815591519082015592516002909301929092558b820151815260088252919091205490890151600f9190910b9550156127595788602001518860200151141561273e57849350612759565b602080890151600090815260089091526040902054600f0b93505b505b6040805160808101825260008082526020820152429181019190915243606082015282156127f1576005838154811061279657612796613325565b60009182526020918290206040805160808101825260039093029091018054600f81810b8552700100000000000000000000000000000000909104900b93830193909352600183015490820152600290910154606082015290505b60408082018051825160808101845260008082526020820181905283519482019490945260608086015190820152915190929042111561286857604084015161283a90426132f3565b606085015161284990436132f3565b61285b90670de0b6b3a7640000613273565b61286591906132df565b90505b600061287384612144565b905060005b60ff811015612a6f5761288e62093a808361325b565b91506000428311156128a2574292506128b6565b50600082815260086020526040902054600f0b5b60006128c56116d588866132f3565b88602001516128d49190613354565b88519091506128e490829061340a565b600f0b885260208801516128f9908390613536565b600f90810b60208a015288516000910b121561291457600088525b60008860200151600f0b121561292c57600060208901525b60408089018590528601519396508693670de0b6b3a76400009061295090866132f3565b61295a9087613273565b61296491906132df565b8660600151612973919061325b565b60608901526129838a600161325b565b99504284141561299a575050436060870152612a6f565b60058054600181018255600091909152885160208a01516fffffffffffffffffffffffffffffffff9081167001000000000000000000000000000000000291161760039091027f036b6384b5eca791c62761152d0c79bb0604c104a5fb6f4eb0703f3154bb3db081019190915560408901517f036b6384b5eca791c62761152d0c79bb0604c104a5fb6f4eb0703f3154bb3db182015560608901517f036b6384b5eca791c62761152d0c79bb0604c104a5fb6f4eb0703f3154bb3db29091015550508080612a67906135a6565b915050612878565b50600487905573ffffffffffffffffffffffffffffffffffffffff8e1615612b09578a602001518a602001518660200151612aaa9190613536565b612ab4919061340a565b600f0b60208601528a518a518651612acc9190613536565b612ad6919061340a565b600f90810b865260208601516000910b1215612af457600060208601525b60008560000151600f0b1215612b0957600085525b60058054600181018255600091909152855160208701516fffffffffffffffffffffffffffffffff9081167001000000000000000000000000000000000291161760039091027f036b6384b5eca791c62761152d0c79bb0604c104a5fb6f4eb0703f3154bb3db081019190915560408601517f036b6384b5eca791c62761152d0c79bb0604c104a5fb6f4eb0703f3154bb3db182015560608601517f036b6384b5eca791c62761152d0c79bb0604c104a5fb6f4eb0703f3154bb3db29091015573ffffffffffffffffffffffffffffffffffffffff8e1615612cef57428d602001511115612c735760208b0151612c00908a613536565b98508c602001518c602001511415612c245760208a0151612c21908a61340a565b98505b60208d810151600090815260089091526040902080547fffffffffffffffffffffffffffffffff00000000000000000000000000000000166fffffffffffffffffffffffffffffffff8b161790555b428c602001511115612cef578c602001518c602001511115612cef5760208a0151612c9e908961340a565b60208d810151600090815260089091526040902080547fffffffffffffffffffffffffffffffff00000000000000000000000000000000166fffffffffffffffffffffffffffffffff831617905597505b5050505050505050505050505050565b6000808390506000612d148560400151612144565b905060005b60ff811015612dca57612d2f62093a808361325b565b9150600085831115612d4357859250612d57565b50600082815260086020526040902054600f0b5b612d6a8460400151846116d591906132f3565b8460200151612d799190613354565b8451612d85919061340a565b600f0b845282861415612d985750612dca565b808460200151612da89190613536565b600f0b6020850152506040830182905280612dc2816135a6565b915050612d19565b5060008260000151600f0b1215612de057600082525b8151612dee90600f0b612f73565b95945050505050565b73ffffffffffffffffffffffffffffffffffffffff82166000908152600760205260408120548190815b6080811015612ed557818310612e3657612ed5565b60006002612e44848661325b565b612e4f90600161325b565b612e5991906132df565b73ffffffffffffffffffffffffffffffffffffffff881660009081526006602052604090208054919250879183908110612e9557612e95613325565b90600052602060002090600302016002015411612eb457809350612ec2565b612ebf6001826132f3565b92505b5080612ecd816135a6565b915050612e21565b5090949350505050565b60008082815b6080811015612ed557818310612efa57612ed5565b60006002612f08848661325b565b612f1390600161325b565b612f1d91906132df565b90508660058281548110612f3357612f33613325565b90600052602060002090600302016002015411612f5257809350612f60565b612f5d6001826132f3565b92505b5080612f6b816135a6565b915050612ee5565b600080821215612140576040517f08c379a000000000000000000000000000000000000000000000000000000000815260206004820181905260248201527f53616665436173743a2076616c7565206d75737420626520706f7369746976656044820152606401610601565b80516a636f6e736f6c652e6c6f67602083016000808483855afa5050505050565b6000815180845260005b818110156130265760208185018101518683018201520161300a565b81811115613038576000602083870101525b50601f017fffffffffffffffffffffffffffffffffffffffffffffffffffffffffffffffe0169290920160200192915050565b60208152600061307e6020830184613000565b9392505050565b803573ffffffffffffffffffffffffffffffffffffffff811681146130a957600080fd5b919050565b6000806000606084860312156130c357600080fd5b6130cc84613085565b95602085013595506040909401359392505050565b600080604083850312156130f457600080fd5b6130fd83613085565b946020939093013593505050565b60006020828403121561311d57600080fd5b61307e82613085565b60006020828403121561313857600080fd5b5035919050565b600181811c9082168061315357607f821691505b6020821081141561318d577f4e487b7100000000000000000000000000000000000000000000000000000000600052602260045260246000fd5b50919050565b805180151581146130a957600080fd5b60008060008060008060008060006101208a8c0312156131c257600080fd5b8951985060208a0151975060408a0151965060608a0151955060808a0151945060a08a0151935060c08a015192506131fc60e08b01613193565b91506101008a015190509295985092959850929598565b60006020828403121561322557600080fd5b5051919050565b7f4e487b7100000000000000000000000000000000000000000000000000000000600052601160045260246000fd5b6000821982111561326e5761326e61322c565b500190565b6000817fffffffffffffffffffffffffffffffffffffffffffffffffffffffffffffffff04831182151516156132ab576132ab61322c565b500290565b7f4e487b7100000000000000000000000000000000000000000000000000000000600052601260045260246000fd5b6000826132ee576132ee6132b0565b500490565b6000828210156133055761330561322c565b500390565b60006020828403121561331c57600080fd5b61307e82613193565b7f4e487b7100000000000000000000000000000000000000000000000000000000600052603260045260246000fd5b600081600f0b83600f0b6f7fffffffffffffffffffffffffffffff60008213600084138383048511828216161561338d5761338d61322c565b7fffffffffffffffffffffffffffffffff8000000000000000000000000000000060008512868205861281841616156133c8576133c861322c565b600087129250858205871284841616156133e4576133e461322c565b858505871281841616156133fa576133fa61322c565b5050509290910295945050505050565b600081600f0b83600f0b60008112817fffffffffffffffffffffffffffffffff800000000000000000000000000000000183128115161561344d5761344d61322c565b816f7fffffffffffffffffffffffffffffff0183138116156134715761347161322c565b5090039392505050565b60608152600061348e6060830186613000565b60208301949094525060400152919050565b6040815260006134b36040830185613000565b90508260208301529392505050565b600081600f0b83600f0b806134d9576134d96132b0565b7fffffffffffffffffffffffffffffffffffffffffffffffffffffffffffffffff81147fffffffffffffffffffffffffffffffff800000000000000000000000000000008314161561352d5761352d61322c565b90059392505050565b600081600f0b83600f0b60008212826f7fffffffffffffffffffffffffffffff038213811516156135695761356961322c565b827fffffffffffffffffffffffffffffffff8000000000000000000000000000000003821281161561359d5761359d61322c565b50019392505050565b60007fffffffffffffffffffffffffffffffffffffffffffffffffffffffffffffffff8214156135d8576135d861322c565b506001019056fea2646970667358221220650717928ecaa7a30844ff2b713806e52e1620e77a11d6f4c89ca4a8d9e65e6c64736f6c634300080a0033",
  "linkReferences": {},
  "deployedLinkReferences": {}
}