{
  "_format": "hh-sol-artifact-1",
  "contractName": "Delegator",
  "sourceName": "contracts/test/Delegator.sol",
  "abi": [
    {
      "inputs": [
        {
          "internalType": "contract IVECake",
          "name": "_VECake",
          "type": "address"
        },
        {
          "internalType": "contract IERC20",
          "name": "_token",
          "type": "address"
        }
      ],
      "stateMutability": "nonpayable",
      "type": "constructor"
    },
    {
      "anonymous": false,
      "inputs": [
        {
          "indexed": true,
          "internalType": "address",
          "name": "owner",
          "type": "address"
        },
        {
          "indexed": true,
          "internalType": "address",
          "name": "spender",
          "type": "address"
        },
        {
          "indexed": false,
          "internalType": "uint256",
          "name": "value",
          "type": "uint256"
        }
      ],
      "name": "Approval",
      "type": "event"
    },
    {
      "anonymous": false,
      "inputs": [
        {
          "indexed": true,
          "internalType": "address",
          "name": "from",
          "type": "address"
        },
        {
          "indexed": true,
          "internalType": "address",
          "name": "to",
          "type": "address"
        },
        {
          "indexed": false,
          "internalType": "uint256",
          "name": "value",
          "type": "uint256"
        }
      ],
      "name": "Transfer",
      "type": "event"
    },
    {
      "inputs": [],
      "name": "VECake",
      "outputs": [
        {
          "internalType": "contract IVECake",
          "name": "",
          "type": "address"
        }
      ],
      "stateMutability": "view",
      "type": "function"
    },
    {
      "inputs": [
        {
          "internalType": "address",
          "name": "owner",
          "type": "address"
        },
        {
          "internalType": "address",
          "name": "spender",
          "type": "address"
        }
      ],
      "name": "allowance",
      "outputs": [
        {
          "internalType": "uint256",
          "name": "",
          "type": "uint256"
        }
      ],
      "stateMutability": "view",
      "type": "function"
    },
    {
      "inputs": [
        {
          "internalType": "address",
          "name": "spender",
          "type": "address"
        },
        {
          "internalType": "uint256",
          "name": "amount",
          "type": "uint256"
        }
      ],
      "name": "approve",
      "outputs": [
        {
          "internalType": "bool",
          "name": "",
          "type": "bool"
        }
      ],
      "stateMutability": "nonpayable",
      "type": "function"
    },
    {
      "inputs": [
        {
          "internalType": "address",
          "name": "account",
          "type": "address"
        }
      ],
      "name": "balanceOf",
      "outputs": [
        {
          "internalType": "uint256",
          "name": "",
          "type": "uint256"
        }
      ],
      "stateMutability": "view",
      "type": "function"
    },
    {
      "inputs": [
        {
          "internalType": "uint256",
          "name": "_amount",
          "type": "uint256"
        },
        {
          "internalType": "uint256",
          "name": "_unlockTime",
          "type": "uint256"
        }
      ],
      "name": "createLock",
      "outputs": [],
      "stateMutability": "nonpayable",
      "type": "function"
    },
    {
      "inputs": [],
      "name": "decimals",
      "outputs": [
        {
          "internalType": "uint8",
          "name": "",
          "type": "uint8"
        }
      ],
      "stateMutability": "view",
      "type": "function"
    },
    {
      "inputs": [
        {
          "internalType": "address",
          "name": "spender",
          "type": "address"
        },
        {
          "internalType": "uint256",
          "name": "subtractedValue",
          "type": "uint256"
        }
      ],
      "name": "decreaseAllowance",
      "outputs": [
        {
          "internalType": "bool",
          "name": "",
          "type": "bool"
        }
      ],
      "stateMutability": "nonpayable",
      "type": "function"
    },
    {
      "inputs": [
        {
          "internalType": "address",
          "name": "user",
          "type": "address"
        },
        {
          "internalType": "uint256",
          "name": "amount",
          "type": "uint256"
        },
        {
          "internalType": "uint256",
          "name": "lockEndTime",
          "type": "uint256"
        }
      ],
      "name": "delegate",
      "outputs": [],
      "stateMutability": "nonpayable",
      "type": "function"
    },
    {
      "inputs": [
        {
          "internalType": "address",
          "name": "_to",
          "type": "address"
        },
        {
          "internalType": "uint256",
          "name": "_amount",
          "type": "uint256"
        }
      ],
      "name": "earlyWithdraw",
      "outputs": [],
      "stateMutability": "nonpayable",
      "type": "function"
    },
    {
      "inputs": [
        {
          "internalType": "address",
          "name": "spender",
          "type": "address"
        },
        {
          "internalType": "uint256",
          "name": "addedValue",
          "type": "uint256"
        }
      ],
      "name": "increaseAllowance",
      "outputs": [
        {
          "internalType": "bool",
          "name": "",
          "type": "bool"
        }
      ],
      "stateMutability": "nonpayable",
      "type": "function"
    },
    {
      "inputs": [
        {
          "internalType": "uint256",
          "name": "_amount",
          "type": "uint256"
        }
      ],
      "name": "increaseLockAmount",
      "outputs": [],
      "stateMutability": "nonpayable",
      "type": "function"
    },
    {
      "inputs": [
        {
          "internalType": "uint256",
          "name": "_newUnlockTime",
          "type": "uint256"
        }
      ],
      "name": "increaseUnlockTime",
      "outputs": [],
      "stateMutability": "nonpayable",
      "type": "function"
    },
    {
      "inputs": [],
      "name": "name",
      "outputs": [
        {
          "internalType": "string",
          "name": "",
          "type": "string"
        }
      ],
      "stateMutability": "view",
      "type": "function"
    },
    {
      "inputs": [],
      "name": "symbol",
      "outputs": [
        {
          "internalType": "string",
          "name": "",
          "type": "string"
        }
      ],
      "stateMutability": "view",
      "type": "function"
    },
    {
      "inputs": [],
      "name": "token",
      "outputs": [
        {
          "internalType": "contract IERC20",
          "name": "",
          "type": "address"
        }
      ],
      "stateMutability": "view",
      "type": "function"
    },
    {
      "inputs": [],
      "name": "totalSupply",
      "outputs": [
        {
          "internalType": "uint256",
          "name": "",
          "type": "uint256"
        }
      ],
      "stateMutability": "view",
      "type": "function"
    },
    {
      "inputs": [
        {
          "internalType": "address",
          "name": "to",
          "type": "address"
        },
        {
          "internalType": "uint256",
          "name": "amount",
          "type": "uint256"
        }
      ],
      "name": "transfer",
      "outputs": [
        {
          "internalType": "bool",
          "name": "",
          "type": "bool"
        }
      ],
      "stateMutability": "nonpayable",
      "type": "function"
    },
    {
      "inputs": [
        {
          "internalType": "address",
          "name": "from",
          "type": "address"
        },
        {
          "internalType": "address",
          "name": "to",
          "type": "address"
        },
        {
          "internalType": "uint256",
          "name": "amount",
          "type": "uint256"
        }
      ],
      "name": "transferFrom",
      "outputs": [
        {
          "internalType": "bool",
          "name": "",
          "type": "bool"
        }
      ],
      "stateMutability": "nonpayable",
      "type": "function"
    },
    {
      "inputs": [
        {
          "internalType": "address",
          "name": "_to",
          "type": "address"
        }
      ],
      "name": "withdrawAll",
      "outputs": [],
      "stateMutability": "nonpayable",
      "type": "function"
    }
  ],
  "bytecode": "0x60c06040523480156200001157600080fd5b5060405162001e8838038062001e88833981016040819052620000349162000574565b6040518060400160405280601681526020017f564543616b652044656c656761746f7220546f6b656e000000000000000000008152506040518060400160405280600381526020016215911560ea1b81525081600390805190602001906200009e929190620004b5565b508051620000b4906004906020840190620004b5565b5050506001600160a01b0382811660a05281166080819052620000e79083600019620000ef602090811b620008ce17901c565b5050620006b4565b8015806200016d5750604051636eb1769f60e11b81523060048201526001600160a01b03838116602483015284169063dd62ed3e90604401602060405180830381865afa15801562000145573d6000803e3d6000fd5b505050506040513d601f19601f820116820180604052508101906200016b9190620005b3565b155b620001e55760405162461bcd60e51b815260206004820152603660248201527f5361666545524332303a20617070726f76652066726f6d206e6f6e2d7a65726f60448201527f20746f206e6f6e2d7a65726f20616c6c6f77616e63650000000000000000000060648201526084015b60405180910390fd5b604080516001600160a01b038416602482015260448082018490528251808303909101815260649091019091526020810180516001600160e01b0390811663095ea7b360e01b179091526200023d9185916200024216565b505050565b60006200029e826040518060400160405280602081526020017f5361666545524332303a206c6f772d6c6576656c2063616c6c206661696c6564815250856001600160a01b03166200032060201b62000ace179092919060201c565b8051909150156200023d5780806020019051810190620002bf9190620005cd565b6200023d5760405162461bcd60e51b815260206004820152602a60248201527f5361666545524332303a204552433230206f7065726174696f6e20646964206e6044820152691bdd081cdd58d8d9595960b21b6064820152608401620001dc565b60606200033184846000856200033b565b90505b9392505050565b6060824710156200039e5760405162461bcd60e51b815260206004820152602660248201527f416464726573733a20696e73756666696369656e742062616c616e636520666f6044820152651c8818d85b1b60d21b6064820152608401620001dc565b6001600160a01b0385163b620003f75760405162461bcd60e51b815260206004820152601d60248201527f416464726573733a2063616c6c20746f206e6f6e2d636f6e74726163740000006044820152606401620001dc565b600080866001600160a01b0316858760405162000415919062000624565b60006040518083038185875af1925050503d806000811462000454576040519150601f19603f3d011682016040523d82523d6000602084013e62000459565b606091505b5090925090506200046c82828662000477565b979650505050505050565b606083156200048857508162000334565b825115620004995782518084602001fd5b8160405162461bcd60e51b8152600401620001dc919062000642565b828054620004c39062000677565b90600052602060002090601f016020900481019282620004e7576000855562000532565b82601f106200050257805160ff191683800117855562000532565b8280016001018555821562000532579182015b828111156200053257825182559160200191906001019062000515565b506200054092915062000544565b5090565b5b8082111562000540576000815560010162000545565b6001600160a01b03811681146200057157600080fd5b50565b600080604083850312156200058857600080fd5b825162000595816200055b565b6020840151909250620005a8816200055b565b809150509250929050565b600060208284031215620005c657600080fd5b5051919050565b600060208284031215620005e057600080fd5b815180151581146200033457600080fd5b60005b838110156200060e578181015183820152602001620005f4565b838111156200061e576000848401525b50505050565b6000825162000638818460208701620005f1565b9190910192915050565b602081526000825180602084015262000663816040850160208701620005f1565b601f01601f19169190910160400192915050565b600181811c908216806200068c57607f821691505b60208210811415620006ae57634e487b7160e01b600052602260045260246000fd5b50919050565b60805160a05161177d6200070b6000396000818161020b0152818161050b015281816105cc0152818161065c01528181610816015261089f01526000818161034d015281816104b401526107b8015261177d6000f3fe608060405234801561001057600080fd5b50600436106101515760003560e01c80636574deb7116100cd578063a9059cbb11610081578063dd62ed3e11610066578063dd62ed3e146102ef578063fa09e63014610335578063fc0c546a1461034857600080fd5b8063a9059cbb146102c9578063b52c05fe146102dc57600080fd5b80637c616fe6116100b25780637c616fe61461029b57806395d89b41146102ae578063a457c2d7146102b657600080fd5b80636574deb71461025257806370a082311461026557600080fd5b806323b872dd11610124578063395093511161010957806339509351146101e0578063403f4447146101f357806362534e791461020657600080fd5b806323b872dd146101be578063313ce567146101d157600080fd5b80630185921e1461015657806306fdde031461016b578063095ea7b31461018957806318160ddd146101ac575b600080fd5b6101696101643660046114be565b61036f565b005b61017361037e565b604051610180919061151d565b60405180910390f35b61019c61019736600461156e565b610410565b6040519015158152602001610180565b6002545b604051908152602001610180565b61019c6101cc366004611598565b610428565b60405160128152602001610180565b61019c6101ee36600461156e565b61044e565b6101696102013660046115d4565b61049a565b61022d7f000000000000000000000000000000000000000000000000000000000000000081565b60405173ffffffffffffffffffffffffffffffffffffffff9091168152602001610180565b61016961026036600461156e565b610580565b6101b06102733660046115ed565b73ffffffffffffffffffffffffffffffffffffffff1660009081526020819052604090205490565b6101696102a93660046115d4565b61062d565b6101736106a0565b61019c6102c436600461156e565b6106af565b61019c6102d736600461156e565b610790565b6101696102ea366004611608565b61079e565b6101b06102fd36600461162a565b73ffffffffffffffffffffffffffffffffffffffff918216600090815260016020908152604080832093909416825291909152205490565b6101696103433660046115ed565b61085a565b61022d7f000000000000000000000000000000000000000000000000000000000000000081565b6103798383610ae5565b505050565b60606003805461038d9061165d565b80601f01602080910402602001604051908101604052809291908181526020018280546103b99061165d565b80156104065780601f106103db57610100808354040283529160200191610406565b820191906000526020600020905b8154815290600101906020018083116103e957829003601f168201915b5050505050905090565b60003361041e818585610c05565b5060019392505050565b600033610436858285610db8565b610441858585610e8f565b60019150505b9392505050565b33600081815260016020908152604080832073ffffffffffffffffffffffffffffffffffffffff8716845290915281205490919061041e90829086906104959087906116b1565b610c05565b6104dc73ffffffffffffffffffffffffffffffffffffffff7f000000000000000000000000000000000000000000000000000000000000000016333084611142565b6040517f403f4447000000000000000000000000000000000000000000000000000000008152600481018290527f000000000000000000000000000000000000000000000000000000000000000073ffffffffffffffffffffffffffffffffffffffff169063403f4447906024015b600060405180830381600087803b15801561056557600080fd5b505af1158015610579573d6000803e3d6000fd5b5050505050565b6040517f6574deb700000000000000000000000000000000000000000000000000000000815273ffffffffffffffffffffffffffffffffffffffff8381166004830152602482018390527f00000000000000000000000000000000000000000000000000000000000000001690636574deb7906044015b600060405180830381600087803b15801561061157600080fd5b505af1158015610625573d6000803e3d6000fd5b505050505050565b6040517f7c616fe6000000000000000000000000000000000000000000000000000000008152600481018290527f000000000000000000000000000000000000000000000000000000000000000073ffffffffffffffffffffffffffffffffffffffff1690637c616fe69060240161054b565b60606004805461038d9061165d565b33600081815260016020908152604080832073ffffffffffffffffffffffffffffffffffffffff8716845290915281205490919083811015610778576040517f08c379a000000000000000000000000000000000000000000000000000000000815260206004820152602560248201527f45524332303a2064656372656173656420616c6c6f77616e63652062656c6f7760448201527f207a65726f00000000000000000000000000000000000000000000000000000060648201526084015b60405180910390fd5b6107858286868403610c05565b506001949350505050565b60003361041e818585610e8f565b6107e073ffffffffffffffffffffffffffffffffffffffff7f000000000000000000000000000000000000000000000000000000000000000016333085611142565b6040517fb52c05fe00000000000000000000000000000000000000000000000000000000815260048101839052602481018290527f000000000000000000000000000000000000000000000000000000000000000073ffffffffffffffffffffffffffffffffffffffff169063b52c05fe906044016105f7565b6040517ffa09e63000000000000000000000000000000000000000000000000000000000815273ffffffffffffffffffffffffffffffffffffffff82811660048301527f0000000000000000000000000000000000000000000000000000000000000000169063fa09e6309060240161054b565b80158061096e57506040517fdd62ed3e00000000000000000000000000000000000000000000000000000000815230600482015273ffffffffffffffffffffffffffffffffffffffff838116602483015284169063dd62ed3e90604401602060405180830381865afa158015610948573d6000803e3d6000fd5b505050506040513d601f19601f8201168201806040525081019061096c91906116f0565b155b6109fa576040517f08c379a000000000000000000000000000000000000000000000000000000000815260206004820152603660248201527f5361666545524332303a20617070726f76652066726f6d206e6f6e2d7a65726f60448201527f20746f206e6f6e2d7a65726f20616c6c6f77616e636500000000000000000000606482015260840161076f565b60405173ffffffffffffffffffffffffffffffffffffffff83166024820152604481018290526103799084907f095ea7b300000000000000000000000000000000000000000000000000000000906064015b604080517fffffffffffffffffffffffffffffffffffffffffffffffffffffffffffffffe08184030181529190526020810180517bffffffffffffffffffffffffffffffffffffffffffffffffffffffff167fffffffff00000000000000000000000000000000000000000000000000000000909316929092179091526111a0565b6060610add84846000856112ac565b949350505050565b73ffffffffffffffffffffffffffffffffffffffff8216610b62576040517f08c379a000000000000000000000000000000000000000000000000000000000815260206004820152601f60248201527f45524332303a206d696e7420746f20746865207a65726f206164647265737300604482015260640161076f565b8060026000828254610b7491906116b1565b909155505073ffffffffffffffffffffffffffffffffffffffff821660009081526020819052604081208054839290610bae9084906116b1565b909155505060405181815273ffffffffffffffffffffffffffffffffffffffff8316906000907fddf252ad1be2c89b69c2b068fc378daa952ba7f163c4a11628f55a4df523b3ef9060200160405180910390a35050565b73ffffffffffffffffffffffffffffffffffffffff8316610ca7576040517f08c379a0000000000000000000000000000000000000000000000000000000008152602060048201526024808201527f45524332303a20617070726f76652066726f6d20746865207a65726f2061646460448201527f7265737300000000000000000000000000000000000000000000000000000000606482015260840161076f565b73ffffffffffffffffffffffffffffffffffffffff8216610d4a576040517f08c379a000000000000000000000000000000000000000000000000000000000815260206004820152602260248201527f45524332303a20617070726f766520746f20746865207a65726f20616464726560448201527f7373000000000000000000000000000000000000000000000000000000000000606482015260840161076f565b73ffffffffffffffffffffffffffffffffffffffff83811660008181526001602090815260408083209487168084529482529182902085905590518481527f8c5be1e5ebec7d5bd14f71427d1e84f3dd0314c0f7b2291e5b200ac8c7c3b925910160405180910390a3505050565b73ffffffffffffffffffffffffffffffffffffffff8381166000908152600160209081526040808320938616835292905220547fffffffffffffffffffffffffffffffffffffffffffffffffffffffffffffffff8114610e895781811015610e7c576040517f08c379a000000000000000000000000000000000000000000000000000000000815260206004820152601d60248201527f45524332303a20696e73756666696369656e7420616c6c6f77616e6365000000604482015260640161076f565b610e898484848403610c05565b50505050565b73ffffffffffffffffffffffffffffffffffffffff8316610f32576040517f08c379a000000000000000000000000000000000000000000000000000000000815260206004820152602560248201527f45524332303a207472616e736665722066726f6d20746865207a65726f20616460448201527f6472657373000000000000000000000000000000000000000000000000000000606482015260840161076f565b73ffffffffffffffffffffffffffffffffffffffff8216610fd5576040517f08c379a000000000000000000000000000000000000000000000000000000000815260206004820152602360248201527f45524332303a207472616e7366657220746f20746865207a65726f206164647260448201527f6573730000000000000000000000000000000000000000000000000000000000606482015260840161076f565b73ffffffffffffffffffffffffffffffffffffffff83166000908152602081905260409020548181101561108b576040517f08c379a000000000000000000000000000000000000000000000000000000000815260206004820152602660248201527f45524332303a207472616e7366657220616d6f756e742065786365656473206260448201527f616c616e63650000000000000000000000000000000000000000000000000000606482015260840161076f565b73ffffffffffffffffffffffffffffffffffffffff8085166000908152602081905260408082208585039055918516815290812080548492906110cf9084906116b1565b925050819055508273ffffffffffffffffffffffffffffffffffffffff168473ffffffffffffffffffffffffffffffffffffffff167fddf252ad1be2c89b69c2b068fc378daa952ba7f163c4a11628f55a4df523b3ef8460405161113591815260200190565b60405180910390a3610e89565b60405173ffffffffffffffffffffffffffffffffffffffff80851660248301528316604482015260648101829052610e899085907f23b872dd0000000000000000000000000000000000000000000000000000000090608401610a4c565b6000611202826040518060400160405280602081526020017f5361666545524332303a206c6f772d6c6576656c2063616c6c206661696c65648152508573ffffffffffffffffffffffffffffffffffffffff16610ace9092919063ffffffff16565b80519091501561037957808060200190518101906112209190611709565b610379576040517f08c379a000000000000000000000000000000000000000000000000000000000815260206004820152602a60248201527f5361666545524332303a204552433230206f7065726174696f6e20646964206e60448201527f6f74207375636365656400000000000000000000000000000000000000000000606482015260840161076f565b60608247101561133e576040517f08c379a000000000000000000000000000000000000000000000000000000000815260206004820152602660248201527f416464726573733a20696e73756666696369656e742062616c616e636520666f60448201527f722063616c6c0000000000000000000000000000000000000000000000000000606482015260840161076f565b73ffffffffffffffffffffffffffffffffffffffff85163b6113bc576040517f08c379a000000000000000000000000000000000000000000000000000000000815260206004820152601d60248201527f416464726573733a2063616c6c20746f206e6f6e2d636f6e7472616374000000604482015260640161076f565b6000808673ffffffffffffffffffffffffffffffffffffffff1685876040516113e5919061172b565b60006040518083038185875af1925050503d8060008114611422576040519150601f19603f3d011682016040523d82523d6000602084013e611427565b606091505b5091509150611437828286611442565b979650505050505050565b60608315611451575081610447565b8251156114615782518084602001fd5b816040517f08c379a000000000000000000000000000000000000000000000000000000000815260040161076f919061151d565b803573ffffffffffffffffffffffffffffffffffffffff811681146114b957600080fd5b919050565b6000806000606084860312156114d357600080fd5b6114dc84611495565b95602085013595506040909401359392505050565b60005b8381101561150c5781810151838201526020016114f4565b83811115610e895750506000910152565b602081526000825180602084015261153c8160408501602087016114f1565b601f017fffffffffffffffffffffffffffffffffffffffffffffffffffffffffffffffe0169190910160400192915050565b6000806040838503121561158157600080fd5b61158a83611495565b946020939093013593505050565b6000806000606084860312156115ad57600080fd5b6115b684611495565b92506115c460208501611495565b9150604084013590509250925092565b6000602082840312156115e657600080fd5b5035919050565b6000602082840312156115ff57600080fd5b61044782611495565b6000806040838503121561161b57600080fd5b50508035926020909101359150565b6000806040838503121561163d57600080fd5b61164683611495565b915061165460208401611495565b90509250929050565b600181811c9082168061167157607f821691505b602082108114156116ab577f4e487b7100000000000000000000000000000000000000000000000000000000600052602260045260246000fd5b50919050565b600082198211156116eb577f4e487b7100000000000000000000000000000000000000000000000000000000600052601160045260246000fd5b500190565b60006020828403121561170257600080fd5b5051919050565b60006020828403121561171b57600080fd5b8151801515811461044757600080fd5b6000825161173d8184602087016114f1565b919091019291505056fea264697066735822122087a61186292c35309c4a3d203ffea1e36c68ad38b3620849ae2eba766506c7fb64736f6c634300080a0033",
  "linkReferences": {},
  "deployedLinkReferences": {}
}