{
  "_format": "hh-sol-artifact-1",
  "contractName": "ProxyForCakePool",
  "sourceName": "contracts/ProxyForCakePool.sol",
  "abi": [
    {
      "inputs": [],
      "stateMutability": "nonpayable",
      "type": "constructor"
    },
    {
      "inputs": [],
      "name": "VECake",
      "outputs": [
        {
          "internalType": "contract IVECake",
          "name": "",
          "type": "address"
        }
      ],
      "stateMutability": "view",
      "type": "function"
    },
    {
      "inputs": [],
      "name": "cakePoolUser",
      "outputs": [
        {
          "internalType": "address",
          "name": "",
          "type": "address"
        }
      ],
      "stateMutability": "view",
      "type": "function"
    },
    {
      "inputs": [
        {
          "internalType": "uint256",
          "name": "_amount",
          "type": "uint256"
        },
        {
          "internalType": "uint256",
          "name": "_unlockTime",
          "type": "uint256"
        }
      ],
      "name": "createLockForProxy",
      "outputs": [],
      "stateMutability": "nonpayable",
      "type": "function"
    },
    {
      "inputs": [],
      "name": "withdrawAll",
      "outputs": [],
      "stateMutability": "nonpayable",
      "type": "function"
    }
  ],
  "bytecode": "0x60c060405234801561001057600080fd5b50600080336001600160a01b031663890357306040518163ffffffff1660e01b81526004016040805180830381865afa158015610051573d6000803e3d6000fd5b505050506040513d601f19601f8201168201806040525081019061007591906100ab565b6001600160a01b039182166080521660a052506100de9050565b80516001600160a01b03811681146100a657600080fd5b919050565b600080604083850312156100be57600080fd5b6100c78361008f565b91506100d56020840161008f565b90509250929050565b60805160a0516103cc61011c6000396000605601526000818160bb0152818160fd015281816101bf0152818161024c015261030101526103cc6000f3fe608060405234801561001057600080fd5b506004361061004c5760003560e01c806305a1192b14610051578063399f3a4f146100a157806362534e79146100b6578063853828b6146100dd575b600080fd5b6100787f000000000000000000000000000000000000000000000000000000000000000081565b60405173ffffffffffffffffffffffffffffffffffffffff909116815260200160405180910390f35b6100b46100af366004610374565b6100e5565b005b6100787f000000000000000000000000000000000000000000000000000000000000000081565b6100b4610234565b3373ffffffffffffffffffffffffffffffffffffffff7f00000000000000000000000000000000000000000000000000000000000000001614610189576040517f08c379a000000000000000000000000000000000000000000000000000000000815260206004820152600a60248201527f4e6f7420564543616b650000000000000000000000000000000000000000000060448201526064015b60405180910390fd5b6040517f399f3a4f00000000000000000000000000000000000000000000000000000000815260048101839052602481018290527f000000000000000000000000000000000000000000000000000000000000000073ffffffffffffffffffffffffffffffffffffffff169063399f3a4f90604401600060405180830381600087803b15801561021857600080fd5b505af115801561022c573d6000803e3d6000fd5b505050505050565b3373ffffffffffffffffffffffffffffffffffffffff7f000000000000000000000000000000000000000000000000000000000000000016146102d3576040517f08c379a000000000000000000000000000000000000000000000000000000000815260206004820152600a60248201527f4e6f7420564543616b65000000000000000000000000000000000000000000006044820152606401610180565b6040517ffa09e6300000000000000000000000000000000000000000000000000000000081523060048201527f000000000000000000000000000000000000000000000000000000000000000073ffffffffffffffffffffffffffffffffffffffff169063fa09e63090602401600060405180830381600087803b15801561035a57600080fd5b505af115801561036e573d6000803e3d6000fd5b50505050565b6000806040838503121561038757600080fd5b5050803592602090910135915056fea2646970667358221220fbd5c3b66fa31e2dd892f2cfaab222d59b7eb7b2a072322c974dccec82bbddde64736f6c634300080a0033",
  "linkReferences": {},
  "deployedLinkReferences": {}
}