{
  "_format": "hh-sol-artifact-1",
  "contractName": "VECakeTest",
  "sourceName": "contracts/test/VECakeTest.sol",
  "abi": [
    {
      "inputs": [
        {
          "internalType": "contract ICakePool",
          "name": "_cakePool",
          "type": "address"
        },
        {
          "internalType": "contract IERC20",
          "name": "_token",
          "type": "address"
        },
        {
          "internalType": "contract IProxyForCakePoolFactory",
          "name": "_ProxyForCakePoolFactory",
          "type": "address"
        }
      ],
      "stateMutability": "nonpayable",
      "type": "constructor"
    },
    {
      "anonymous": false,
      "inputs": [
        {
          "indexed": true,
          "internalType": "address",
          "name": "user",
          "type": "address"
        },
        {
          "indexed": true,
          "internalType": "address",
          "name": "delegator",
          "type": "address"
        },
        {
          "indexed": false,
          "internalType": "uint256",
          "name": "amount",
          "type": "uint256"
        },
        {
          "indexed": false,
          "internalType": "uint256",
          "name": "endTime",
          "type": "uint256"
        }
      ],
      "name": "DelegateFromCakePool",
      "type": "event"
    },
    {
      "anonymous": false,
      "inputs": [
        {
          "indexed": true,
          "internalType": "address",
          "name": "locker",
          "type": "address"
        },
        {
          "indexed": false,
          "internalType": "uint256",
          "name": "value",
          "type": "uint256"
        },
        {
          "indexed": true,
          "internalType": "uint256",
          "name": "lockTime",
          "type": "uint256"
        },
        {
          "indexed": false,
          "internalType": "uint256",
          "name": "lockType",
          "type": "uint256"
        },
        {
          "indexed": false,
          "internalType": "uint256",
          "name": "timestamp",
          "type": "uint256"
        }
      ],
      "name": "Deposit",
      "type": "event"
    },
    {
      "anonymous": false,
      "inputs": [
        {
          "indexed": true,
          "internalType": "address",
          "name": "locker",
          "type": "address"
        },
        {
          "indexed": true,
          "internalType": "address",
          "name": "to",
          "type": "address"
        },
        {
          "indexed": false,
          "internalType": "uint256",
          "name": "value",
          "type": "uint256"
        },
        {
          "indexed": false,
          "internalType": "uint256",
          "name": "penalty",
          "type": "uint256"
        },
        {
          "indexed": false,
          "internalType": "uint256",
          "name": "timestamp",
          "type": "uint256"
        }
      ],
      "name": "EarlyWithdraw",
      "type": "event"
    },
    {
      "anonymous": false,
      "inputs": [
        {
          "indexed": true,
          "internalType": "address",
          "name": "user",
          "type": "address"
        },
        {
          "indexed": false,
          "internalType": "uint256",
          "name": "amount",
          "type": "uint256"
        }
      ],
      "name": "EmergencyWithdraw",
      "type": "event"
    },
    {
      "anonymous": false,
      "inputs": [
        {
          "indexed": true,
          "internalType": "address",
          "name": "user",
          "type": "address"
        },
        {
          "indexed": true,
          "internalType": "address",
          "name": "delegator",
          "type": "address"
        },
        {
          "indexed": false,
          "internalType": "uint256",
          "name": "amount",
          "type": "uint256"
        }
      ],
      "name": "InjectToDelegator",
      "type": "event"
    },
    {
      "anonymous": false,
      "inputs": [
        {
          "indexed": true,
          "internalType": "address",
          "name": "user",
          "type": "address"
        },
        {
          "indexed": true,
          "internalType": "address",
          "name": "proxy",
          "type": "address"
        },
        {
          "indexed": false,
          "internalType": "uint256",
          "name": "amount",
          "type": "uint256"
        },
        {
          "indexed": false,
          "internalType": "uint256",
          "name": "endTime",
          "type": "uint256"
        }
      ],
      "name": "MigrateFromCakePool",
      "type": "event"
    },
    {
      "anonymous": false,
      "inputs": [
        {
          "indexed": true,
          "internalType": "address",
          "name": "user",
          "type": "address"
        },
        {
          "indexed": true,
          "internalType": "address",
          "name": "delegator",
          "type": "address"
        },
        {
          "indexed": false,
          "internalType": "uint256",
          "name": "amount",
          "type": "uint256"
        },
        {
          "indexed": false,
          "internalType": "uint256",
          "name": "endTime",
          "type": "uint256"
        }
      ],
      "name": "MigrationConvertToDelegation",
      "type": "event"
    },
    {
      "anonymous": false,
      "inputs": [
        {
          "indexed": true,
          "internalType": "address",
          "name": "farmBooster",
          "type": "address"
        }
      ],
      "name": "NewFarmBooster",
      "type": "event"
    },
    {
      "anonymous": false,
      "inputs": [
        {
          "indexed": true,
          "internalType": "address",
          "name": "previousOwner",
          "type": "address"
        },
        {
          "indexed": true,
          "internalType": "address",
          "name": "newOwner",
          "type": "address"
        }
      ],
      "name": "OwnershipTransferred",
      "type": "event"
    },
    {
      "anonymous": false,
      "inputs": [
        {
          "indexed": true,
          "internalType": "address",
          "name": "caller",
          "type": "address"
        },
        {
          "indexed": false,
          "internalType": "address",
          "name": "destination",
          "type": "address"
        },
        {
          "indexed": false,
          "internalType": "uint256",
          "name": "amount",
          "type": "uint256"
        }
      ],
      "name": "Redistribute",
      "type": "event"
    },
    {
      "anonymous": false,
      "inputs": [
        {
          "indexed": false,
          "internalType": "uint256",
          "name": "previousBreaker",
          "type": "uint256"
        },
        {
          "indexed": false,
          "internalType": "uint256",
          "name": "breaker",
          "type": "uint256"
        }
      ],
      "name": "SetBreaker",
      "type": "event"
    },
    {
      "anonymous": false,
      "inputs": [
        {
          "indexed": true,
          "internalType": "address",
          "name": "caller",
          "type": "address"
        },
        {
          "indexed": false,
          "internalType": "uint64",
          "name": "oldEarlyWithdrawFeeBps",
          "type": "uint64"
        },
        {
          "indexed": false,
          "internalType": "uint64",
          "name": "newEarlyWithdrawFeeBps",
          "type": "uint64"
        },
        {
          "indexed": false,
          "internalType": "uint64",
          "name": "oldRedistributeBps",
          "type": "uint64"
        },
        {
          "indexed": false,
          "internalType": "uint64",
          "name": "newRedistribiteBps",
          "type": "uint64"
        },
        {
          "indexed": false,
          "internalType": "address",
          "name": "oldTreasuryAddr",
          "type": "address"
        },
        {
          "indexed": false,
          "internalType": "address",
          "name": "newTreasuryAddr",
          "type": "address"
        },
        {
          "indexed": false,
          "internalType": "address",
          "name": "oldRedistributeAddr",
          "type": "address"
        },
        {
          "indexed": false,
          "internalType": "address",
          "name": "newRedistributeAddr",
          "type": "address"
        }
      ],
      "name": "SetEarlyWithdrawConfig",
      "type": "event"
    },
    {
      "anonymous": false,
      "inputs": [
        {
          "indexed": true,
          "internalType": "address",
          "name": "user",
          "type": "address"
        },
        {
          "indexed": false,
          "internalType": "bool",
          "name": "newValue",
          "type": "bool"
        }
      ],
      "name": "SetEarlyWithdrawSwitch",
      "type": "event"
    },
    {
      "anonymous": false,
      "inputs": [
        {
          "indexed": true,
          "internalType": "address",
          "name": "user",
          "type": "address"
        },
        {
          "indexed": false,
          "internalType": "bool",
          "name": "newValue",
          "type": "bool"
        }
      ],
      "name": "SetEmergencyWithdrawSwitch",
      "type": "event"
    },
    {
      "anonymous": false,
      "inputs": [
        {
          "indexed": true,
          "internalType": "address",
          "name": "user",
          "type": "address"
        },
        {
          "indexed": false,
          "internalType": "uint256",
          "name": "newValue",
          "type": "uint256"
        }
      ],
      "name": "SetLimitTimeOfConvert",
      "type": "event"
    },
    {
      "anonymous": false,
      "inputs": [
        {
          "indexed": true,
          "internalType": "address",
          "name": "owner",
          "type": "address"
        },
        {
          "indexed": true,
          "internalType": "address",
          "name": "user",
          "type": "address"
        },
        {
          "indexed": true,
          "internalType": "bool",
          "name": "newValue",
          "type": "bool"
        }
      ],
      "name": "SetNoPenaltyForEarlyWithdraw",
      "type": "event"
    },
    {
      "anonymous": false,
      "inputs": [
        {
          "indexed": true,
          "internalType": "address",
          "name": "caller",
          "type": "address"
        },
        {
          "indexed": true,
          "internalType": "address",
          "name": "addr",
          "type": "address"
        },
        {
          "indexed": false,
          "internalType": "bool",
          "name": "ok",
          "type": "bool"
        }
      ],
      "name": "SetWhitelistedCaller",
      "type": "event"
    },
    {
      "anonymous": false,
      "inputs": [
        {
          "indexed": true,
          "internalType": "address",
          "name": "caller",
          "type": "address"
        },
        {
          "indexed": true,
          "internalType": "address",
          "name": "addr",
          "type": "address"
        },
        {
          "indexed": false,
          "internalType": "bool",
          "name": "ok",
          "type": "bool"
        }
      ],
      "name": "SetWhitelistedRedistributors",
      "type": "event"
    },
    {
      "anonymous": false,
      "inputs": [
        {
          "indexed": false,
          "internalType": "uint256",
          "name": "previousSupply",
          "type": "uint256"
        },
        {
          "indexed": false,
          "internalType": "uint256",
          "name": "supply",
          "type": "uint256"
        }
      ],
      "name": "Supply",
      "type": "event"
    },
    {
      "anonymous": false,
      "inputs": [
        {
          "indexed": true,
          "internalType": "address",
          "name": "delegator",
          "type": "address"
        },
        {
          "indexed": false,
          "internalType": "bool",
          "name": "isDelegator",
          "type": "bool"
        },
        {
          "indexed": false,
          "internalType": "uint40",
          "name": "limitTimestampForEarlyWithdraw",
          "type": "uint40"
        }
      ],
      "name": "UpdateDelegator",
      "type": "event"
    },
    {
      "anonymous": false,
      "inputs": [
        {
          "indexed": true,
          "internalType": "address",
          "name": "locker",
          "type": "address"
        },
        {
          "indexed": true,
          "internalType": "address",
          "name": "to",
          "type": "address"
        },
        {
          "indexed": false,
          "internalType": "uint256",
          "name": "value",
          "type": "uint256"
        },
        {
          "indexed": false,
          "internalType": "uint256",
          "name": "timestamp",
          "type": "uint256"
        }
      ],
      "name": "WithdrawAll",
      "type": "event"
    },
    {
      "inputs": [],
      "name": "ACTION_CREATE_LOCK",
      "outputs": [
        {
          "internalType": "uint256",
          "name": "",
          "type": "uint256"
        }
      ],
      "stateMutability": "view",
      "type": "function"
    },
    {
      "inputs": [],
      "name": "ACTION_DEPOSIT_FOR",
      "outputs": [
        {
          "internalType": "uint256",
          "name": "",
          "type": "uint256"
        }
      ],
      "stateMutability": "view",
      "type": "function"
    },
    {
      "inputs": [],
      "name": "ACTION_INCREASE_LOCK_AMOUNT",
      "outputs": [
        {
          "internalType": "uint256",
          "name": "",
          "type": "uint256"
        }
      ],
      "stateMutability": "view",
      "type": "function"
    },
    {
      "inputs": [],
      "name": "ACTION_INCREASE_UNLOCK_TIME",
      "outputs": [
        {
          "internalType": "uint256",
          "name": "",
          "type": "uint256"
        }
      ],
      "stateMutability": "view",
      "type": "function"
    },
    {
      "inputs": [],
      "name": "CakePool",
      "outputs": [
        {
          "internalType": "contract ICakePool",
          "name": "",
          "type": "address"
        }
      ],
      "stateMutability": "view",
      "type": "function"
    },
    {
      "inputs": [],
      "name": "DELEGATION_FROM_CAKE_POOL_FLAG",
      "outputs": [
        {
          "internalType": "uint16",
          "name": "",
          "type": "uint16"
        }
      ],
      "stateMutability": "view",
      "type": "function"
    },
    {
      "inputs": [],
      "name": "DELEGATOR_FLAG",
      "outputs": [
        {
          "internalType": "uint8",
          "name": "",
          "type": "uint8"
        }
      ],
      "stateMutability": "view",
      "type": "function"
    },
    {
      "inputs": [],
      "name": "FarmBooster",
      "outputs": [
        {
          "internalType": "contract IFarmBooster",
          "name": "",
          "type": "address"
        }
      ],
      "stateMutability": "view",
      "type": "function"
    },
    {
      "inputs": [],
      "name": "MAX_LOCK",
      "outputs": [
        {
          "internalType": "uint256",
          "name": "",
          "type": "uint256"
        }
      ],
      "stateMutability": "view",
      "type": "function"
    },
    {
      "inputs": [],
      "name": "MIGRATION_FROM_CAKE_POOL_FLAG",
      "outputs": [
        {
          "internalType": "uint16",
          "name": "",
          "type": "uint16"
        }
      ],
      "stateMutability": "view",
      "type": "function"
    },
    {
      "inputs": [],
      "name": "MULTIPLIER",
      "outputs": [
        {
          "internalType": "uint256",
          "name": "",
          "type": "uint256"
        }
      ],
      "stateMutability": "view",
      "type": "function"
    },
    {
      "inputs": [],
      "name": "NOT_DELEGATOR_FLAG",
      "outputs": [
        {
          "internalType": "uint8",
          "name": "",
          "type": "uint8"
        }
      ],
      "stateMutability": "view",
      "type": "function"
    },
    {
      "inputs": [],
      "name": "NOT_WITHDRAW_FLAG",
      "outputs": [
        {
          "internalType": "uint16",
          "name": "",
          "type": "uint16"
        }
      ],
      "stateMutability": "view",
      "type": "function"
    },
    {
      "inputs": [],
      "name": "ProxyForCakePoolFactory",
      "outputs": [
        {
          "internalType": "contract IProxyForCakePoolFactory",
          "name": "",
          "type": "address"
        }
      ],
      "stateMutability": "view",
      "type": "function"
    },
    {
      "inputs": [],
      "name": "WEEK",
      "outputs": [
        {
          "internalType": "uint256",
          "name": "",
          "type": "uint256"
        }
      ],
      "stateMutability": "view",
      "type": "function"
    },
    {
      "inputs": [],
      "name": "WITHDREW_FLAG",
      "outputs": [
        {
          "internalType": "uint16",
          "name": "",
          "type": "uint16"
        }
      ],
      "stateMutability": "view",
      "type": "function"
    },
    {
      "inputs": [],
      "name": "accumRedistribute",
      "outputs": [
        {
          "internalType": "uint256",
          "name": "",
          "type": "uint256"
        }
      ],
      "stateMutability": "view",
      "type": "function"
    },
    {
      "inputs": [
        {
          "internalType": "address",
          "name": "_user",
          "type": "address"
        }
      ],
      "name": "balanceOf",
      "outputs": [
        {
          "internalType": "uint256",
          "name": "",
          "type": "uint256"
        }
      ],
      "stateMutability": "view",
      "type": "function"
    },
    {
      "inputs": [
        {
          "internalType": "address",
          "name": "_user",
          "type": "address"
        },
        {
          "internalType": "uint256",
          "name": "_blockNumber",
          "type": "uint256"
        }
      ],
      "name": "balanceOfAt",
      "outputs": [
        {
          "internalType": "uint256",
          "name": "",
          "type": "uint256"
        }
      ],
      "stateMutability": "view",
      "type": "function"
    },
    {
      "inputs": [
        {
          "internalType": "address",
          "name": "_user",
          "type": "address"
        },
        {
          "internalType": "uint256",
          "name": "_blockNumber",
          "type": "uint256"
        }
      ],
      "name": "balanceOfAtForProxy",
      "outputs": [
        {
          "internalType": "uint256",
          "name": "",
          "type": "uint256"
        }
      ],
      "stateMutability": "view",
      "type": "function"
    },
    {
      "inputs": [
        {
          "internalType": "address",
          "name": "_user",
          "type": "address"
        },
        {
          "internalType": "uint256",
          "name": "_timestamp",
          "type": "uint256"
        }
      ],
      "name": "balanceOfAtTime",
      "outputs": [
        {
          "internalType": "uint256",
          "name": "",
          "type": "uint256"
        }
      ],
      "stateMutability": "view",
      "type": "function"
    },
    {
      "inputs": [
        {
          "internalType": "address",
          "name": "_user",
          "type": "address"
        },
        {
          "internalType": "uint256",
          "name": "_blockNumber",
          "type": "uint256"
        }
      ],
      "name": "balanceOfAtUser",
      "outputs": [
        {
          "internalType": "uint256",
          "name": "",
          "type": "uint256"
        }
      ],
      "stateMutability": "view",
      "type": "function"
    },
    {
      "inputs": [
        {
          "internalType": "address",
          "name": "_user",
          "type": "address"
        }
      ],
      "name": "balanceOfForProxy",
      "outputs": [
        {
          "internalType": "uint256",
          "name": "",
          "type": "uint256"
        }
      ],
      "stateMutability": "view",
      "type": "function"
    },
    {
      "inputs": [
        {
          "internalType": "address",
          "name": "_user",
          "type": "address"
        }
      ],
      "name": "balanceOfUser",
      "outputs": [
        {
          "internalType": "uint256",
          "name": "",
          "type": "uint256"
        }
      ],
      "stateMutability": "view",
      "type": "function"
    },
    {
      "inputs": [],
      "name": "breaker",
      "outputs": [
        {
          "internalType": "uint256",
          "name": "",
          "type": "uint256"
        }
      ],
      "stateMutability": "view",
      "type": "function"
    },
    {
      "inputs": [],
      "name": "checkpoint",
      "outputs": [],
      "stateMutability": "nonpayable",
      "type": "function"
    },
    {
      "inputs": [
        {
          "internalType": "uint256",
          "name": "_amount",
          "type": "uint256"
        },
        {
          "internalType": "uint256",
          "name": "_unlockTime",
          "type": "uint256"
        }
      ],
      "name": "createLock",
      "outputs": [],
      "stateMutability": "nonpayable",
      "type": "function"
    },
    {
      "inputs": [
        {
          "internalType": "uint256",
          "name": "_amount",
          "type": "uint256"
        },
        {
          "internalType": "uint256",
          "name": "_unlockTime",
          "type": "uint256"
        }
      ],
      "name": "createLockForProxy",
      "outputs": [],
      "stateMutability": "nonpayable",
      "type": "function"
    },
    {
      "inputs": [],
      "name": "decimals",
      "outputs": [
        {
          "internalType": "uint8",
          "name": "",
          "type": "uint8"
        }
      ],
      "stateMutability": "view",
      "type": "function"
    },
    {
      "inputs": [
        {
          "internalType": "address",
          "name": "_delegator",
          "type": "address"
        }
      ],
      "name": "delegateFromCakePool",
      "outputs": [],
      "stateMutability": "nonpayable",
      "type": "function"
    },
    {
      "inputs": [
        {
          "internalType": "address",
          "name": "",
          "type": "address"
        }
      ],
      "name": "delegator",
      "outputs": [
        {
          "internalType": "uint104",
          "name": "delegatedCakeAmount",
          "type": "uint104"
        },
        {
          "internalType": "uint104",
          "name": "notInjectedCakeAmount",
          "type": "uint104"
        },
        {
          "internalType": "uint40",
          "name": "limitTimestampForEarlyWithdraw",
          "type": "uint40"
        },
        {
          "internalType": "uint8",
          "name": "isDelegator",
          "type": "uint8"
        }
      ],
      "stateMutability": "view",
      "type": "function"
    },
    {
      "inputs": [
        {
          "internalType": "address",
          "name": "_user",
          "type": "address"
        },
        {
          "internalType": "uint256",
          "name": "_amount",
          "type": "uint256"
        },
        {
          "internalType": "uint256",
          "name": "_lockDuration",
          "type": "uint256"
        }
      ],
      "name": "deposit",
      "outputs": [],
      "stateMutability": "nonpayable",
      "type": "function"
    },
    {
      "inputs": [
        {
          "internalType": "address",
          "name": "_for",
          "type": "address"
        },
        {
          "internalType": "uint256",
          "name": "_amount",
          "type": "uint256"
        }
      ],
      "name": "depositFor",
      "outputs": [],
      "stateMutability": "nonpayable",
      "type": "function"
    },
    {
      "inputs": [
        {
          "internalType": "address",
          "name": "_to",
          "type": "address"
        },
        {
          "internalType": "uint256",
          "name": "_amount",
          "type": "uint256"
        }
      ],
      "name": "earlyWithdraw",
      "outputs": [],
      "stateMutability": "nonpayable",
      "type": "function"
    },
    {
      "inputs": [],
      "name": "earlyWithdrawBpsPerWeek",
      "outputs": [
        {
          "internalType": "uint64",
          "name": "",
          "type": "uint64"
        }
      ],
      "stateMutability": "view",
      "type": "function"
    },
    {
      "inputs": [],
      "name": "earlyWithdrawSwitch",
      "outputs": [
        {
          "internalType": "bool",
          "name": "",
          "type": "bool"
        }
      ],
      "stateMutability": "view",
      "type": "function"
    },
    {
      "inputs": [],
      "name": "emergencyWithdraw",
      "outputs": [],
      "stateMutability": "nonpayable",
      "type": "function"
    },
    {
      "inputs": [],
      "name": "emergencyWithdrawSwitch",
      "outputs": [
        {
          "internalType": "bool",
          "name": "",
          "type": "bool"
        }
      ],
      "stateMutability": "view",
      "type": "function"
    },
    {
      "inputs": [],
      "name": "epoch",
      "outputs": [
        {
          "internalType": "uint256",
          "name": "",
          "type": "uint256"
        }
      ],
      "stateMutability": "view",
      "type": "function"
    },
    {
      "inputs": [
        {
          "internalType": "address",
          "name": "",
          "type": "address"
        }
      ],
      "name": "everEmergencyWithdraw",
      "outputs": [
        {
          "internalType": "bool",
          "name": "",
          "type": "bool"
        }
      ],
      "stateMutability": "view",
      "type": "function"
    },
    {
      "inputs": [
        {
          "internalType": "address",
          "name": "_user",
          "type": "address"
        }
      ],
      "name": "getUserInfo",
      "outputs": [
        {
          "internalType": "int128",
          "name": "amount",
          "type": "int128"
        },
        {
          "internalType": "uint256",
          "name": "end",
          "type": "uint256"
        },
        {
          "internalType": "address",
          "name": "cakePoolProxy",
          "type": "address"
        },
        {
          "internalType": "uint128",
          "name": "cakeAmount",
          "type": "uint128"
        },
        {
          "internalType": "uint48",
          "name": "lockEndTime",
          "type": "uint48"
        },
        {
          "internalType": "uint48",
          "name": "migrationTime",
          "type": "uint48"
        },
        {
          "internalType": "uint16",
          "name": "cakePoolType",
          "type": "uint16"
        },
        {
          "internalType": "uint16",
          "name": "withdrawFlag",
          "type": "uint16"
        }
      ],
      "stateMutability": "view",
      "type": "function"
    },
    {
      "inputs": [
        {
          "internalType": "uint256",
          "name": "_amount",
          "type": "uint256"
        }
      ],
      "name": "increaseLockAmount",
      "outputs": [],
      "stateMutability": "nonpayable",
      "type": "function"
    },
    {
      "inputs": [
        {
          "internalType": "uint256",
          "name": "_newUnlockTime",
          "type": "uint256"
        }
      ],
      "name": "increaseUnlockTime",
      "outputs": [],
      "stateMutability": "nonpayable",
      "type": "function"
    },
    {
      "inputs": [],
      "name": "initialization",
      "outputs": [
        {
          "internalType": "bool",
          "name": "",
          "type": "bool"
        }
      ],
      "stateMutability": "view",
      "type": "function"
    },
    {
      "inputs": [],
      "name": "initializeCakePoolMigration",
      "outputs": [],
      "stateMutability": "nonpayable",
      "type": "function"
    },
    {
      "inputs": [
        {
          "internalType": "address",
          "name": "_delegator",
          "type": "address"
        },
        {
          "internalType": "uint256",
          "name": "_amount",
          "type": "uint256"
        }
      ],
      "name": "injectToDelegator",
      "outputs": [],
      "stateMutability": "nonpayable",
      "type": "function"
    },
    {
      "inputs": [
        {
          "internalType": "address",
          "name": "",
          "type": "address"
        }
      ],
      "name": "isCakePoolProxy",
      "outputs": [
        {
          "internalType": "bool",
          "name": "",
          "type": "bool"
        }
      ],
      "stateMutability": "view",
      "type": "function"
    },
    {
      "inputs": [],
      "name": "limitTimeOfConvert",
      "outputs": [
        {
          "internalType": "uint256",
          "name": "",
          "type": "uint256"
        }
      ],
      "stateMutability": "view",
      "type": "function"
    },
    {
      "inputs": [
        {
          "internalType": "address",
          "name": "",
          "type": "address"
        }
      ],
      "name": "locks",
      "outputs": [
        {
          "internalType": "int128",
          "name": "amount",
          "type": "int128"
        },
        {
          "internalType": "uint256",
          "name": "end",
          "type": "uint256"
        }
      ],
      "stateMutability": "view",
      "type": "function"
    },
    {
      "inputs": [],
      "name": "migrateFromCakePool",
      "outputs": [],
      "stateMutability": "nonpayable",
      "type": "function"
    },
    {
      "inputs": [
        {
          "internalType": "address",
          "name": "_delegator",
          "type": "address"
        }
      ],
      "name": "migrationConvertToDelegation",
      "outputs": [],
      "stateMutability": "nonpayable",
      "type": "function"
    },
    {
      "inputs": [],
      "name": "name",
      "outputs": [
        {
          "internalType": "string",
          "name": "",
          "type": "string"
        }
      ],
      "stateMutability": "view",
      "type": "function"
    },
    {
      "inputs": [
        {
          "internalType": "address",
          "name": "",
          "type": "address"
        }
      ],
      "name": "noPenaltyForEarlyWithdraw",
      "outputs": [
        {
          "internalType": "bool",
          "name": "",
          "type": "bool"
        }
      ],
      "stateMutability": "view",
      "type": "function"
    },
    {
      "inputs": [],
      "name": "owner",
      "outputs": [
        {
          "internalType": "address",
          "name": "",
          "type": "address"
        }
      ],
      "stateMutability": "view",
      "type": "function"
    },
    {
      "inputs": [
        {
          "internalType": "uint256",
          "name": "",
          "type": "uint256"
        }
      ],
      "name": "pointHistory",
      "outputs": [
        {
          "internalType": "int128",
          "name": "bias",
          "type": "int128"
        },
        {
          "internalType": "int128",
          "name": "slope",
          "type": "int128"
        },
        {
          "internalType": "uint256",
          "name": "timestamp",
          "type": "uint256"
        },
        {
          "internalType": "uint256",
          "name": "blockNumber",
          "type": "uint256"
        }
      ],
      "stateMutability": "view",
      "type": "function"
    },
    {
      "inputs": [],
      "name": "redistribute",
      "outputs": [],
      "stateMutability": "nonpayable",
      "type": "function"
    },
    {
      "inputs": [],
      "name": "redistributeAddr",
      "outputs": [
        {
          "internalType": "address",
          "name": "",
          "type": "address"
        }
      ],
      "stateMutability": "view",
      "type": "function"
    },
    {
      "inputs": [],
      "name": "redistributeBps",
      "outputs": [
        {
          "internalType": "uint64",
          "name": "",
          "type": "uint64"
        }
      ],
      "stateMutability": "view",
      "type": "function"
    },
    {
      "inputs": [],
      "name": "renounceOwnership",
      "outputs": [],
      "stateMutability": "nonpayable",
      "type": "function"
    },
    {
      "inputs": [
        {
          "internalType": "uint256",
          "name": "_breaker",
          "type": "uint256"
        }
      ],
      "name": "setBreaker",
      "outputs": [],
      "stateMutability": "nonpayable",
      "type": "function"
    },
    {
      "inputs": [
        {
          "internalType": "uint64",
          "name": "_newEarlyWithdrawBpsPerWeek",
          "type": "uint64"
        },
        {
          "internalType": "uint64",
          "name": "_newRedistributeBps",
          "type": "uint64"
        },
        {
          "internalType": "address",
          "name": "_newTreasuryAddr",
          "type": "address"
        },
        {
          "internalType": "address",
          "name": "_newRedistributeAddr",
          "type": "address"
        }
      ],
      "name": "setEarlyWithdrawConfig",
      "outputs": [],
      "stateMutability": "nonpayable",
      "type": "function"
    },
    {
      "inputs": [
        {
          "internalType": "bool",
          "name": "_earlyWithdrawSwitch",
          "type": "bool"
        }
      ],
      "name": "setEarlyWithdrawSwitch",
      "outputs": [],
      "stateMutability": "nonpayable",
      "type": "function"
    },
    {
      "inputs": [
        {
          "internalType": "bool",
          "name": "_emergencyWithdrawSwitch",
          "type": "bool"
        }
      ],
      "name": "setEmergencyWithdrawSwitch",
      "outputs": [],
      "stateMutability": "nonpayable",
      "type": "function"
    },
    {
      "inputs": [
        {
          "internalType": "address",
          "name": "_farmBooster",
          "type": "address"
        }
      ],
      "name": "setFarmBooster",
      "outputs": [],
      "stateMutability": "nonpayable",
      "type": "function"
    },
    {
      "inputs": [
        {
          "internalType": "uint256",
          "name": "_limitTime",
          "type": "uint256"
        }
      ],
      "name": "setLimitTimeOfConvert",
      "outputs": [],
      "stateMutability": "nonpayable",
      "type": "function"
    },
    {
      "inputs": [
        {
          "internalType": "address",
          "name": "_user",
          "type": "address"
        },
        {
          "internalType": "bool",
          "name": "_status",
          "type": "bool"
        }
      ],
      "name": "setNoPenaltyForEarlyWithdraw",
      "outputs": [],
      "stateMutability": "nonpayable",
      "type": "function"
    },
    {
      "inputs": [
        {
          "internalType": "address[]",
          "name": "callers",
          "type": "address[]"
        },
        {
          "internalType": "bool",
          "name": "ok",
          "type": "bool"
        }
      ],
      "name": "setWhitelistedCallers",
      "outputs": [],
      "stateMutability": "nonpayable",
      "type": "function"
    },
    {
      "inputs": [
        {
          "internalType": "address[]",
          "name": "callers",
          "type": "address[]"
        },
        {
          "internalType": "bool",
          "name": "ok",
          "type": "bool"
        }
      ],
      "name": "setWhitelistedRedistributors",
      "outputs": [],
      "stateMutability": "nonpayable",
      "type": "function"
    },
    {
      "inputs": [
        {
          "internalType": "uint256",
          "name": "",
          "type": "uint256"
        }
      ],
      "name": "slopeChanges",
      "outputs": [
        {
          "internalType": "int128",
          "name": "",
          "type": "int128"
        }
      ],
      "stateMutability": "view",
      "type": "function"
    },
    {
      "inputs": [],
      "name": "supply",
      "outputs": [
        {
          "internalType": "uint256",
          "name": "",
          "type": "uint256"
        }
      ],
      "stateMutability": "view",
      "type": "function"
    },
    {
      "inputs": [],
      "name": "symbol",
      "outputs": [
        {
          "internalType": "string",
          "name": "",
          "type": "string"
        }
      ],
      "stateMutability": "view",
      "type": "function"
    },
    {
      "inputs": [],
      "name": "token",
      "outputs": [
        {
          "internalType": "contract IERC20",
          "name": "",
          "type": "address"
        }
      ],
      "stateMutability": "view",
      "type": "function"
    },
    {
      "inputs": [],
      "name": "totalSupply",
      "outputs": [
        {
          "internalType": "uint256",
          "name": "",
          "type": "uint256"
        }
      ],
      "stateMutability": "view",
      "type": "function"
    },
    {
      "inputs": [
        {
          "internalType": "uint256",
          "name": "_blockNumber",
          "type": "uint256"
        }
      ],
      "name": "totalSupplyAt",
      "outputs": [
        {
          "internalType": "uint256",
          "name": "",
          "type": "uint256"
        }
      ],
      "stateMutability": "view",
      "type": "function"
    },
    {
      "inputs": [
        {
          "internalType": "uint256",
          "name": "_timestamp",
          "type": "uint256"
        }
      ],
      "name": "totalSupplyAtTime",
      "outputs": [
        {
          "internalType": "uint256",
          "name": "",
          "type": "uint256"
        }
      ],
      "stateMutability": "view",
      "type": "function"
    },
    {
      "inputs": [
        {
          "internalType": "address",
          "name": "newOwner",
          "type": "address"
        }
      ],
      "name": "transferOwnership",
      "outputs": [],
      "stateMutability": "nonpayable",
      "type": "function"
    },
    {
      "inputs": [],
      "name": "treasuryAddr",
      "outputs": [
        {
          "internalType": "address",
          "name": "",
          "type": "address"
        }
      ],
      "stateMutability": "view",
      "type": "function"
    },
    {
      "inputs": [
        {
          "internalType": "address",
          "name": "_delegator",
          "type": "address"
        },
        {
          "internalType": "bool",
          "name": "_isDelegator",
          "type": "bool"
        },
        {
          "internalType": "uint40",
          "name": "_limitTimestampForEarlyWithdraw",
          "type": "uint40"
        }
      ],
      "name": "updateDelegator",
      "outputs": [],
      "stateMutability": "nonpayable",
      "type": "function"
    },
    {
      "inputs": [
        {
          "internalType": "address",
          "name": "",
          "type": "address"
        }
      ],
      "name": "userInfo",
      "outputs": [
        {
          "internalType": "address",
          "name": "cakePoolProxy",
          "type": "address"
        },
        {
          "internalType": "uint128",
          "name": "cakeAmount",
          "type": "uint128"
        },
        {
          "internalType": "uint48",
          "name": "lockEndTime",
          "type": "uint48"
        },
        {
          "internalType": "uint48",
          "name": "migrationTime",
          "type": "uint48"
        },
        {
          "internalType": "uint16",
          "name": "cakePoolType",
          "type": "uint16"
        },
        {
          "internalType": "uint16",
          "name": "withdrawFlag",
          "type": "uint16"
        }
      ],
      "stateMutability": "view",
      "type": "function"
    },
    {
      "inputs": [
        {
          "internalType": "address",
          "name": "",
          "type": "address"
        }
      ],
      "name": "userPointEpoch",
      "outputs": [
        {
          "internalType": "uint256",
          "name": "",
          "type": "uint256"
        }
      ],
      "stateMutability": "view",
      "type": "function"
    },
    {
      "inputs": [
        {
          "internalType": "address",
          "name": "",
          "type": "address"
        },
        {
          "internalType": "uint256",
          "name": "",
          "type": "uint256"
        }
      ],
      "name": "userPointHistory",
      "outputs": [
        {
          "internalType": "int128",
          "name": "bias",
          "type": "int128"
        },
        {
          "internalType": "int128",
          "name": "slope",
          "type": "int128"
        },
        {
          "internalType": "uint256",
          "name": "timestamp",
          "type": "uint256"
        },
        {
          "internalType": "uint256",
          "name": "blockNumber",
          "type": "uint256"
        }
      ],
      "stateMutability": "view",
      "type": "function"
    },
    {
      "inputs": [
        {
          "internalType": "address",
          "name": "",
          "type": "address"
        }
      ],
      "name": "whitelistedCallers",
      "outputs": [
        {
          "internalType": "bool",
          "name": "",
          "type": "bool"
        }
      ],
      "stateMutability": "view",
      "type": "function"
    },
    {
      "inputs": [
        {
          "internalType": "address",
          "name": "",
          "type": "address"
        }
      ],
      "name": "whitelistedRedistributors",
      "outputs": [
        {
          "internalType": "bool",
          "name": "",
          "type": "bool"
        }
      ],
      "stateMutability": "view",
      "type": "function"
    },
    {
      "inputs": [
        {
          "internalType": "address",
          "name": "_user",
          "type": "address"
        }
      ],
      "name": "withdraw",
      "outputs": [],
      "stateMutability": "nonpayable",
      "type": "function"
    },
    {
      "inputs": [
        {
          "internalType": "address",
          "name": "_to",
          "type": "address"
        }
      ],
      "name": "withdrawAll",
      "outputs": [],
      "stateMutability": "nonpayable",
      "type": "function"
    }
  ],
  "bytecode": "0x60e0604052621275006004553480156200001857600080fd5b5060405162006380380380620063808339810160408190526200003b91620002b8565b6200004633620001a9565b60018080556001600160a01b0380851660a052838116608090815290831660c05260408051918201815260008083526020838101828152428585019081524360608701908152600d80549889018155909452945190516001600160801b03908116600160801b0291161760039095027fd7b6990105719101dabeb77144f2a3385c8033acd3af97e9423a695e81ad1eb581019590955592517fd7b6990105719101dabeb77144f2a3385c8033acd3af97e9423a695e81ad1eb6850155517fd7b6990105719101dabeb77144f2a3385c8033acd3af97e9423a695e81ad1eb7909301929092556014805460ff19166012908117909155825180840190935280835271566f74652d657363726f7765642043616b6560701b929091019182526200016f9181620001f9565b5060408051808201909152600680825265766543616b6560d01b60209092019182526200019f91601391620001f9565b5050505062000349565b600080546001600160a01b038381166001600160a01b0319831681178455604051919092169283917f8be0079c531659141344cd1fd0a4f28419497f9722a3daafe3b4186f6b6457e09190a35050565b82805462000207906200030c565b90600052602060002090601f0160209004810192826200022b576000855562000276565b82601f106200024657805160ff191683800117855562000276565b8280016001018555821562000276579182015b828111156200027657825182559160200191906001019062000259565b506200028492915062000288565b5090565b5b8082111562000284576000815560010162000289565b6001600160a01b0381168114620002b557600080fd5b50565b600080600060608486031215620002ce57600080fd5b8351620002db816200029f565b6020850151909350620002ee816200029f565b604085015190925062000301816200029f565b809150509250925092565b600181811c908216806200032157607f821691505b602082108114156200034357634e487b7160e01b600052602260045260246000fd5b50919050565b60805160a05160c051615f97620003e960003960008181610a3201526120a9015260008181610ae90152818161139501528181611c6c01528181611e5701528181611f7d01528181611ff301528181612e9601528181612fb401528181613032015261338a015260008181610c9301528181610dd10152818161261701528181613a4101528181613d0101528181613e1601526141e60152615f976000f3fe608060405234801561001057600080fd5b50600436106103d65760003560e01c8063705096c711610208578063705096c71461099657806370a08231146109a9578063715018a6146109bc57806375cd6c67146109c45780637c5acb25146109d75780637c616fe6146109fa57806381fc83bb14610a0d578063827e8e0c14610a2d5780638ad4c44714610a545780638da5cb5b14610a675780638e90053014610a6f578063900cf0cf14610a7757806395d89b4114610a80578063981b24d014610a885780639c490f191461042b5780639d4b4ba114610a9b578063a621440414610aae578063a63dce7114610ab6578063a7ccf1e014610abe578063a88a885514610ad1578063aa94ab5914610ae4578063b52c05fe14610b0b578063b6bbbcd114610b1e578063b6e45a4e14610b38578063c0dd84bd14610b45578063c12ebb5f14610b68578063c172085e14610b7b578063c1d1192914610b8f578063c2c4c5c114610b98578063cfee396f14610ba0578063d2dcd93314610bb4578063d4eda63f14610bc7578063d73f98a314610bea578063db2e21bc14610bfd578063ec5570d014610c05578063f2c7a81b14610c18578063f2fde38b14610c20578063f4359ce514610c33578063f52a36f714610c3d578063fa09e63014610c73578063fb489a7b14610c86578063fc0c546a14610c8e578063ffc97ce914610cb557600080fd5b8062b79fd4146103db57806302641632146103f6578063047fc9aa146103fe578063052b726f14610407578063059f8b161461041c57806306a4da7e1461042b57806306fdde031461044657806308154df01461045b57806308c3dea7146104635780630a6373b31461046c5780630efe6a8b1461047f5780630f41e0d21461049257806312c470e91461049b57806312cae7af146104ae57806318160ddd146104c157806319577c6e146104c95780631959a002146104dc5780631bb8c61d1461059d5780632ea1fe7a146105b05780632f4f21e2146105c35780633037408d146105d657806330d9a62a146105e9578063313ce5671461060957806334d901a41461062857806336a5839114610663578063399f3a4f146106935780633d5c78bd146106a6578063403f4447146106b95780634ee2cd7e146106cc57806351cff8d9146106df578063539e5082146106f257806355ed0a781461077c57806358fca6a514610784578063598085ae1461078c5780635de9a1371461079f5780635e8bb48e146107e75780636386c1c71461081a5780636574deb71461094d5780636582a8c01461096057806365a5d5f01461097357806365f9008a1461097b57806367e7a7cb1461098e575b600080fd5b6103e3600081565b6040519081526020015b60405180910390f35b6103e3600381565b6103e360025481565b61041a61041536600461556e565b610cd8565b005b6103e3670de0b6b3a764000081565b610433600181565b60405161ffff90911681526020016103ed565b61044e610e4e565b6040516103ed91906155c6565b610433600081565b6103e360155481565b61041a61047a3660046155f9565b610edc565b61041a61048d366004615616565b61138a565b6103e360115481565b6103e36104a936600461556e565b61146a565b6103e36104bc3660046155f9565b611536565b6103e3611542565b61041a6104d7366004615659565b6115b2565b61054b6104ea3660046155f9565b600860205260009081526040902080546001909101546001600160a01b03909116906001600160801b0381169065ffffffffffff600160801b8204811691600160b01b81049091169061ffff600160e01b8204811691600160f01b90041686565b604080516001600160a01b0390971687526001600160801b03909516602087015265ffffffffffff938416948601949094529116606084015261ffff90811660808401521660a082015260c0016103ed565b61041a6105ab366004615692565b611638565b61041a6105be366004615717565b61174d565b61041a6105d136600461556e565b6117c6565b6103e36105e436600461556e565b611903565b6016546105fc906001600160a01b031681565b6040516103ed9190615734565b6014546106169060ff1681565b60405160ff90911681526020016103ed565b61063b61063636600461556e565b611916565b60408051600f95860b81529390940b60208401529282015260608101919091526080016103ed565b60145461067b9061010090046001600160401b031681565b6040516001600160401b0390911681526020016103ed565b61041a6106a1366004615748565b611966565b61041a6106b436600461576a565b6119bd565b61041a6106c736600461576a565b611a79565b6103e36106da36600461556e565b611b87565b61041a6106ed3660046155f9565b611c61565b6107426107003660046155f9565b6009602052600090815260409020546001600160681b0380821691600160681b810490911690600160d01b810464ffffffffff1690600160f81b900460ff1684565b604080516001600160681b03958616815294909316602085015264ffffffffff9091169183019190915260ff1660608201526080016103ed565b61041a611dff565b610433600281565b61041a61079a366004615717565b61226a565b6107cd6107ad3660046155f9565b60076020526000908152604090208054600190910154600f9190910b9082565b60408051600f9390930b83526020830191909152016103ed565b61080a6107f53660046155f9565b600b6020526000908152604090205460ff1681565b60405190151581526020016103ed565b6108e86108283660046155f9565b6001600160a01b039081166000818152600760209081526040808320815180830183528154600f0b81526001918201548185019081529585526008845293829020825160c08101845281549097168088529101546001600160801b03811693870184905265ffffffffffff600160801b82048116938801849052600160b01b8204166060880181905261ffff600160e01b8304811660808a01819052600160f01b9093041660a09098018890529451955195979596919593949293909190565b60408051600f9990990b895260208901979097526001600160a01b03909516958701959095526001600160801b03909216606086015265ffffffffffff90811660808601521660a084015261ffff91821660c08401521660e0820152610100016103ed565b61041a61095b36600461556e565b6122e8565b6017546105fc906001600160a01b031681565b6103e36126a7565b6003546105fc906001600160a01b031681565b6103e3600181565b61041a6109a436600461576a565b6126c4565b6103e36109b73660046155f9565b61272a565b61041a6127ec565b61041a6109d236600461579f565b612827565b61080a6109e53660046155f9565b60196020526000908152604090205460ff1681565b61041a610a0836600461576a565b6129f3565b6103e3610a1b3660046155f9565b600f6020526000908152604090205481565b6105fc7f000000000000000000000000000000000000000000000000000000000000000081565b61063b610a6236600461576a565b612ba0565b6105fc612be4565b610616600081565b6103e3600c5481565b61044e612bf3565b6103e3610a9636600461576a565b612c00565b61041a610aa93660046155f9565b612dfb565b61041a613307565b610616600181565b61041a610acc3660046155f9565b613466565b6103e3610adf3660046155f9565b61352e565b6105fc7f000000000000000000000000000000000000000000000000000000000000000081565b61041a610b19366004615748565b6135cc565b60145461067b90600160481b90046001600160401b031681565b60055461080a9060ff1681565b61080a610b533660046155f9565b600a6020526000908152604090205460ff1681565b61041a610b76366004615692565b613634565b60035461080a90600160a01b900460ff1681565b6103e360045481565b61041a613749565b60175461080a90600160a01b900460ff1681565b6103e3610bc236600461576a565b61376d565b61080a610bd53660046155f9565b60066020526000908152604090205460ff1681565b61041a610bf83660046157f7565b6137d8565b61041a6138b7565b6103e3610c1336600461556e565b613aad565b6103e3600281565b61041a610c2e3660046155f9565b613ab9565b6103e362093a8081565b610c60610c4b36600461576a565b601060205260009081526040902054600f0b81565b604051600f9190910b81526020016103ed565b61041a610c813660046155f9565b613b56565b61041a613d7f565b6105fc7f000000000000000000000000000000000000000000000000000000000000000081565b61080a610cc33660046155f9565b60186020526000908152604090205460ff1681565b33610ce1612be4565b6001600160a01b031614610d105760405162461bcd60e51b8152600401610d0790615841565b60405180910390fd5b6001600160a01b03821660009081526009602052604090208054600160f81b900460ff16600114610d535760405162461bcd60e51b8152600401610d0790615876565b8054600160681b90046001600160681b0316821115610d81578054600160681b90046001600160681b031691505b805482908290600d90610da5908490600160681b90046001600160681b03166158b1565b92506101000a8154816001600160681b0302191690836001600160681b03160217905550610e093330847f00000000000000000000000000000000000000000000000000000000000000006001600160a01b0316613e8d909392919063ffffffff16565b6040518281526001600160a01b0384169033907f7b85c81b5ab23faed50cf05b116ebb10456ca6320721e00b6513babed009b9e29060200160405180910390a3505050565b60128054610e5b906158d9565b80601f0160208091040260200160405190810160405280929190818152602001828054610e87906158d9565b8015610ed45780601f10610ea957610100808354040283529160200191610ed4565b820191906000526020600020905b815481529060010190602001808311610eb757829003601f168201915b505050505081565b60026001541415610eff5760405162461bcd60e51b8152600401610d079061590e565b600260019081556001600160a01b038216600090815260096020526040902080549091600160f81b90910460ff1614610f4a5760405162461bcd60e51b8152600401610d0790615876565b3360009081526008602052604081206001810154909190610f7990600160801b900465ffffffffffff16613ef8565b9050428111610fbe5760405162461bcd60e51b8152602060048201526011602482015270155cd95c881b1bd8dac8195e1c1a5c9959607a1b6044820152606401610d07565b600454610fcb9042615945565b6001830154600160b01b900465ffffffffffff1611610ffc5760405162461bcd60e51b8152600401610d079061595c565b600182810154600160e01b900461ffff16146110475760405162461bcd60e51b815260206004820152600a60248201526908481b5a59dc985d195960b21b6044820152606401610d07565b6001820154600160f01b900461ffff16156110975760405162461bcd60e51b815260206004820152601060248201526f416c726561647920776974686472617760801b6044820152606401610d07565b6001828101805461ffff60e01b1916600160e11b17905582546001600160a01b0316600090815260076020908152604080832081518083019092528054600f0b80835294015491810191909152916110ee90613f12565b8454909150611107906001600160a01b03168383613f68565b6040805180820182526001600160a01b0388166000818152600760208181529482208054600f90810b865293835290855260010154938301939093528151919291900b136111675760405162461bcd60e51b8152600401610d079061597e565b4281602001511161118a5760405162461bcd60e51b8152600401610d07906159ac565b6001808601546111ac9189916001600160801b03169060009085908290614128565b600185015486546001600160801b039091169087906000906111d89084906001600160681b03166159dc565b82546101009290920a6001600160681b03818102199093169183160217909155600187015488546001600160801b0390911692508891600d91611224918591600160681b9004166159dc565b82546101009290920a6001600160681b0381810219909316919092169190910217905550600185015460405162c2c90f60e11b81523360048201526001600160801b0382166024820152600160801b90910465ffffffffffff1660448201526001600160a01b03881690630185921e90606401600060405180830381600087803b1580156112b157600080fd5b505af11580156112c5573d6000803e3d6000fd5b5050505060018501546040516001600160a01b038916913391600080516020615f4283398151915291611312916001600160801b03821691600160801b900465ffffffffffff1690615a07565b60405180910390a360018501546040516001600160a01b0389169133917f4af697c81385693e6ee5d15ccb781170dc8241f81c4983bf87cdf268d2fca5f591611375916001600160801b03821691600160801b900465ffffffffffff1690615a07565b60405180910390a35050600180555050505050565b336001600160a01b037f000000000000000000000000000000000000000000000000000000000000000016146113d25760405162461bcd60e51b8152600401610d0790615a28565b6001600160a01b03808416600090815260086020908152604091829020825160c08101845281549094168452600101546001600160801b0381169184019190915265ffffffffffff600160801b8204811692840192909252600160b01b8104909116606083015261ffff600160e01b8204811660808401819052600160f01b9092041660a08301521561146457600080fd5b50505050565b60004382111561148c5760405162461bcd60e51b8152600401610d0790615a4d565b6001600160a01b03808416600090815260086020908152604091829020825160c08101845281549094168085526001909101546001600160801b0381169285019290925265ffffffffffff600160801b8304811693850193909352600160b01b8204909216606084015261ffff600160e01b820481166080850152600160f01b9091041660a08301521561152e5780516115269084614339565b915050611530565b505b92915050565b600061153082426145b5565b60006115ad600d600c548154811061155c5761155c615a77565b60009182526020918290206040805160808101825260039093029091018054600f81810b8552600160801b909104900b938301939093526001830154908201526002909101546060820152426146a9565b905090565b336115bb612be4565b6001600160a01b0316146115e15760405162461bcd60e51b8152600401610d0790615841565b6001600160a01b0382166000818152600b6020526040808220805460ff1916851515908117909155905190929133917f4f4d55f3b98fe4b3fbc9fb5e8ed05483cc8d794638edd690545eb5779e234a499190a45050565b33611641612be4565b6001600160a01b0316146116675760405162461bcd60e51b8152600401610d0790615841565b60005b8281101561146457816018600086868581811061168957611689615a77565b905060200201602081019061169e91906155f9565b6001600160a01b031681526020810191909152604001600020805460ff19169115159190911790558383828181106116d8576116d8615a77565b90506020020160208101906116ed91906155f9565b6001600160a01b0316336001600160a01b03167fdfad9b83c215ff1a36483cf1688e5aeae2ac60f1c3f62f5229641234748f13b784604051611733911515815260200190565b60405180910390a38061174581615a8d565b91505061166a565b33611756612be4565b6001600160a01b03161461177c5760405162461bcd60e51b8152600401610d0790615841565b6005805460ff191682151590811790915560405190815233907f539ba344188cde95583cd695fe9a73d66f53c83a48e3d66e5b42a12650d93ecc906020015b60405180910390a250565b600260015414156117e95760405162461bcd60e51b8152600401610d079061590e565b60026001556001600160a01b0382166000908152600a602052604090205460ff16156118495760405162461bcd60e51b815260206004820152600f60248201526e496e636f72726563742070726f787960881b6044820152606401610d07565b6040805180820182526001600160a01b0384166000818152600760208181529482208054600f0b85529290915283526001015491810191909152816118a05760405162461bcd60e51b8152600401610d0790615aa8565b60008160000151600f0b136118c75760405162461bcd60e51b8152600401610d0790615acd565b428160200151116118ea5760405162461bcd60e51b8152600401610d0790615af4565b6118fa8383600084600080614128565b50506001805550565b600061190f83836145b5565b9392505050565b600e602052816000526040600020818154811061193257600080fd5b6000918252602090912060039091020180546001820154600290920154600f82810b9550600160801b90920490910b925084565b336000908152600a602052604090205460ff166119af5760405162461bcd60e51b8152602060048201526007602482015266212070726f787960c81b6044820152606401610d07565b6119b98282614798565b5050565b336119c6612be4565b6001600160a01b0316146119ec5760405162461bcd60e51b8152600401610d0790615841565b8015806119f95750806001145b611a335760405162461bcd60e51b815260206004820152600b60248201526a4f6e6c792030206f72203160a81b6044820152606401610d07565b60118054908290556040517f5238fc635590cf5e76ed0f591df4d7f3021d20f58e6d3405390197dd72a575fe90611a6d9083908590615b1a565b60405180910390a15050565b3360009081526018602052604090205460ff16611aaf57333214611aaf5760405162461bcd60e51b8152600401610d0790615b28565b60026001541415611ad25760405162461bcd60e51b8152600401610d079061590e565b60026001908155604080518082018252336000818152600760208181529482208054600f0b8552929091528352909201549082015281611b245760405162461bcd60e51b8152600401610d0790615aa8565b60008160000151600f0b13611b4b5760405162461bcd60e51b8152600401610d0790615acd565b42816020015111611b6e5760405162461bcd60e51b8152600401610d0790615af4565b611b7f338360008460026000614128565b505060018055565b600043821115611ba95760405162461bcd60e51b8152600401610d0790615a4d565b6001600160a01b03808416600090815260086020908152604091829020825160c08101845281549094168085526001909101546001600160801b0381169285019290925265ffffffffffff600160801b8304811693850193909352600160b01b8204909216606084015261ffff600160e01b820481166080850152600160f01b9091041660a083015215611c57578051611c439084614339565b611c4d8585614339565b6115269190615b4d565b6115268484614339565b336001600160a01b037f00000000000000000000000000000000000000000000000000000000000000001614611ca95760405162461bcd60e51b8152600401610d0790615a28565b6001600160a01b03808216600090815260086020908152604091829020825160c08101845281549094168452600101546001600160801b0381169184019190915265ffffffffffff600160801b8204811692840192909252600160b01b8104909116606083015261ffff600160e01b8204811660808401819052600160f01b9092041660a083015260021415611d3e57600080fd5b80516001600160a01b031615801590611d5f5750608081015161ffff166001145b8015611d71575060a081015161ffff16155b156119b95780600001516001600160a01b031663853828b66040518163ffffffff1660e01b8152600401600060405180830381600087803b158015611db557600080fd5b505af1158015611dc9573d6000803e3d6000fd5b5050506001600160a01b038316600090815260086020526040902060010180546001600160f01b0316600160f01b179055505050565b60026001541415611e225760405162461bcd60e51b8152600401610d079061590e565b6002600155600354600160a01b900460ff16611e505760405162461bcd60e51b8152600401610d0790615b65565b60008060007f00000000000000000000000000000000000000000000000000000000000000006001600160a01b0316631959a002336040518263ffffffff1660e01b8152600401611ea19190615734565b61012060405180830381865afa158015611ebf573d6000803e3d6000fd5b505050506040513d601f19601f82011682018060405250810190611ee39190615b8c565b505096509650505050509250428211611f0e5760405162461bcd60e51b8152600401610d0790615af4565b3360009081526008602052604090206001810154600160e01b900461ffff1615611f4a5760405162461bcd60e51b8152600401610d0790615c00565b60018101805461ffff60e01b1916600160e01b17905560408051633a98ef3960e01b815290516000916001600160a01b037f00000000000000000000000000000000000000000000000000000000000000001691633a98ef39916004808201926020929091908290030181865afa158015611fc9573d6000803e3d6000fd5b505050506040513d601f19601f82011682018060405250810190611fed9190615c2a565b905060007f00000000000000000000000000000000000000000000000000000000000000006001600160a01b031663722713f76040518163ffffffff1660e01b8152600401602060405180830381865afa15801561204f573d6000803e3d6000fd5b505050506040513d601f19601f820116820180604052508101906120739190615c2a565b9050600060018584612085858b615c43565b61208f9190615c78565b6120999190615945565b6120a39190615945565b905060007f00000000000000000000000000000000000000000000000000000000000000006001600160a01b0316634c96a389336040518263ffffffff1660e01b81526004016120f39190615734565b6020604051808303816000875af1158015612112573d6000803e3d6000fd5b505050506040513d601f19601f820116820180604052508101906121369190615c8c565b6001600160a01b0381166000818152600a602052604090819020805460ff1916600190811790915588546001600160a01b031916831789558801805465ffffffffffff8c8116600160801b026001600160b01b03194292909216600160b01b02919091166001600160e01b0319909216919091176001600160801b038816171790555163399f3a4f60e01b81529192509063399f3a4f906121dd9085908b90600401615b1a565b600060405180830381600087803b1580156121f757600080fd5b505af115801561220b573d6000803e3d6000fd5b50505050806001600160a01b0316336001600160a01b03167f8519b84e949c6333da21ddea64e2c29ef66709e465ec9b0f24fb32eb2c003843848a604051612254929190615b1a565b60405180910390a3505060018055505050505050565b33612273612be4565b6001600160a01b0316146122995760405162461bcd60e51b8152600401610d0790615841565b60178054821515600160a01b0260ff60a01b1990911617905560405133907fdcc751463da04455ac459756e92d5ea118dd0dd631422cbf8353132417a52d9f906117bb90841515815260200190565b6002600154141561230b5760405162461bcd60e51b8152600401610d079061590e565b6002600155601754600160a01b900460ff166123395760405162461bcd60e51b8152600401610d0790615ca9565b6001600160a01b03821661234b573391505b3360009081526007602090815260409182902082518084019093528054600f0b83526001015490820152816123925760405162461bcd60e51b8152600401610d0790615aa8565b806020015142106123b55760405162461bcd60e51b8152600401610d079061595c565b601154156123d55760405162461bcd60e51b8152600401610d0790615ca9565b33600090815260096020908152604091829020825160808101845290546001600160681b038082168352600160681b82041692820192909252600160d01b820464ffffffffff1692810192909252600160f81b900460ff1660608201819052600114156125075742816040015164ffffffffff161061248d5760405162461bcd60e51b8152602060048201526014602482015273466f72626964206561726c79576974686472617760601b6044820152606401610d07565b600061249f8360000151600f0b613f12565b60208301519091506001600160681b03166124ba8583615945565b10156125055760405162461bcd60e51b815260206004820152601a60248201527911195b1959d85d1bdc8818985b185b98d948195e18d95959195960321b6044820152606401610d07565b505b6020820151612517338486613f68565b336000908152600b602052604081205460ff16158015612546575060145461010090046001600160401b031615155b1561264157600062093a804261255c8286615b4d565b6125669190615945565b6125709190615c78565b60145490915061271090879061259590849061010090046001600160401b0316615c43565b61259f9190615c43565b6125a99190615c78565b601454909250600090612710906125d090600160481b90046001600160401b031685615c43565b6125da9190615c78565b905080601560008282546125ee9190615b4d565b909155505060165461263e906001600160a01b031661260d8386615945565b6001600160a01b037f0000000000000000000000000000000000000000000000000000000000000000169190614938565b50505b61264f8661260d8388615945565b6040805186815260208101839052428183015290516001600160a01b0388169133917f08b526d7537cea7e5a629eb0495b5932c78911fd0bdeb02b822d69a6e25792549181900360600190a350506001805550505050565b60016126b762093a8060d1615c43565b6126c19190615945565b81565b336126cd612be4565b6001600160a01b0316146126f35760405162461bcd60e51b8152600401610d0790615841565b600481905560405181815233907fde15bb8e73a1f43abe6021a8ad5a5d79caf815a4d74e6dbd7d88cd57f06fdd89906020016117bb565b6001600160a01b038082166000908152600860209081526040808320815160c08101835281549095168086526001909101546001600160801b0381169386019390935265ffffffffffff600160801b8404811692860192909252600160b01b8304909116606085015261ffff600160e01b830481166080860152600160f01b90920490911660a0840152909190156127dc5780516127c890426145b5565b6127d284426145b5565b61190f9190615b4d565b61190f83426145b5565b50919050565b336127f5612be4565b6001600160a01b03161461281b5760405162461bcd60e51b8152600401610d0790615841565b6128256000614957565b565b33612830612be4565b6001600160a01b0316146128565760405162461bcd60e51b8152600401610d0790615841565b60c0846001600160401b0316111561289f5760405162461bcd60e51b815260206004820152600c60248201526b08ccaca40e8dede40d0d2ced60a31b6044820152606401610d07565b612710836001600160401b031611156128e95760405162461bcd60e51b815260206004820152600c60248201526b0c4e0e640e8dede40d0d2ced60a31b6044820152606401610d07565b601480546001600160401b03858116600160481b818102600160481b600160881b03198a8516610100818102928316610100600160881b031989161793909317909755601680546001600160a01b038b81166001600160a01b03198084168217909455601780548d8416958116861790915560408051888d048c16808252602082019e909e52610100600160481b0319909c1690961797909704909816938901849052606089019690965285166080880181905260a08801969096529290931660c0860181905260e08601929092529193909133917f3de6c016cd3debec574d13c9966e6c847e64ac424da0b1eb70d3c93b68ec0537910160405180910390a25050505050505050565b3360009081526018602052604090205460ff16612a2957333214612a295760405162461bcd60e51b8152600401610d0790615b28565b60026001541415612a4c5760405162461bcd60e51b8152600401610d079061590e565b60026001908155604080518082018252336000818152600760208181529482208054600f0b85529290915283529092015490820152612a8a82613ef8565b915060008160000151600f0b13612ab35760405162461bcd60e51b8152600401610d0790615acd565b42816020015111612ad65760405162461bcd60e51b8152600401610d0790615af4565b80602001518211612b225760405162461bcd60e51b815260206004820152601660248201527517db995dd55b9b1bd8dad51a5b59481d1bdbc81bdb1960521b6044820152606401610d07565b6001612b3262093a8060d1615c43565b612b3c9190615945565b612b469042615b4d565b821115612b8f5760405162461bcd60e51b81526020600482015260176024820152765f6e6577556e6c6f636b54696d6520746f6f206c6f6e6760481b6044820152606401610d07565b611b7f336000848460036000614128565b600d8181548110612bb057600080fd5b6000918252602090912060039091020180546001820154600290920154600f82810b9450600160801b90920490910b919084565b6000546001600160a01b031690565b60138054610e5b906158d9565b600043821115612c455760405162461bcd60e51b815260206004820152601060248201526f2130b2102fb13637b1b5a73ab6b132b960811b6044820152606401610d07565b600c546000612c5484836149a7565b90506000600d8281548110612c6b57612c6b615a77565b600091825260208083206040805160808101825260039094029091018054600f81810b8652600160801b909104900b92840192909252600182015490830152600201546060820152915083831015612d89576000600d612ccc856001615b4d565b81548110612cdc57612cdc615a77565b60009182526020918290206040805160808101825260039093029091018054600f81810b8552600160801b909104900b93830193909352600183015490820152600290910154606080830182905285015191925014612d835782606001518160600151612d499190615945565b83604001518260400151612d5d9190615945565b6060850151612d6c908a615945565b612d769190615c43565b612d809190615c78565b91505b50612dd8565b43826060015114612dd8576060820151612da39043615945565b6040830151612db29042615945565b6060840151612dc19089615945565b612dcb9190615c43565b612dd59190615c78565b90505b612df182828460400151612dec9190615b4d565b6146a9565b9695505050505050565b60026001541415612e1e5760405162461bcd60e51b8152600401610d079061590e565b6002600155600354600160a01b900460ff16612e4c5760405162461bcd60e51b8152600401610d0790615b65565b6001600160a01b03811660009081526009602052604090208054600160f81b900460ff16600114612e8f5760405162461bcd60e51b8152600401610d0790615876565b60008060007f00000000000000000000000000000000000000000000000000000000000000006001600160a01b0316631959a002336040518263ffffffff1660e01b8152600401612ee09190615734565b61012060405180830381865afa158015612efe573d6000803e3d6000fd5b505050506040513d601f19601f82011682018060405250810190612f229190615b8c565b505096509650505050509250428211612f4d5760405162461bcd60e51b8152600401610d0790615af4565b3360009081526008602052604090206001810154600160e01b900461ffff1615612f895760405162461bcd60e51b8152600401610d0790615c00565b60018101805461ffff60e01b1916600160e11b17905560408051633a98ef3960e01b815290516000917f00000000000000000000000000000000000000000000000000000000000000006001600160a01b031691633a98ef39916004808201926020929091908290030181865afa158015613008573d6000803e3d6000fd5b505050506040513d601f19601f8201168201806040525081019061302c9190615c2a565b905060007f00000000000000000000000000000000000000000000000000000000000000006001600160a01b031663722713f76040518163ffffffff1660e01b8152600401602060405180830381865afa15801561308e573d6000803e3d6000fd5b505050506040513d601f19601f820116820180604052508101906130b29190615c2a565b90506000600185846130c4858b615c43565b6130ce9190615c78565b6130d89190615945565b6130e29190615945565b600185810180546001600160b01b031916600160801b65ffffffffffff8b16026001600160801b031916176001600160801b0384161790556040805180820182526001600160a01b038d166000818152600760208181529482208054600f0b85529290915283529092015490820152909150816131715760405162461bcd60e51b8152600401610d0790615aa8565b60008160000151600f0b136131985760405162461bcd60e51b8152600401610d079061597e565b428160200151116131bb5760405162461bcd60e51b8152600401610d07906159ac565b6131cc8a8360008460006001614128565b885482908a906000906131e99084906001600160681b03166159dc565b92506101000a8154816001600160681b0302191690836001600160681b031602179055508189600001600d8282829054906101000a90046001600160681b031661323391906159dc565b82546001600160681b039182166101009390930a92830291909202199091161790555060405162c2c90f60e11b815233600482015260248101839052604481018890526001600160a01b038b1690630185921e90606401600060405180830381600087803b1580156132a457600080fd5b505af11580156132b8573d6000803e3d6000fd5b50505050896001600160a01b0316336001600160a01b0316600080516020615f42833981519152848a6040516132ef929190615b1a565b60405180910390a35050600180555050505050505050565b33613310612be4565b6001600160a01b0316146133365760405162461bcd60e51b8152600401610d0790615841565b600354600160a01b900460ff16156133865760405162461bcd60e51b8152602060048201526013602482015272105b1c9958591e481a5b9a5d1a585b1a5e9959606a1b6044820152606401610d07565b60007f00000000000000000000000000000000000000000000000000000000000000006001600160a01b0316632d19b9826040518163ffffffff1660e01b8152600401602060405180830381865afa1580156133e6573d6000803e3d6000fd5b505050506040513d601f19601f8201168201806040525081019061340a9190615c8c565b90506001600160a01b03811630146134505760405162461bcd60e51b8152602060048201526009602482015268426164205643616b6560b81b6044820152606401610d07565b506003805460ff60a01b1916600160a01b179055565b3361346f612be4565b6001600160a01b0316146134955760405162461bcd60e51b8152600401610d0790615841565b6001600160a01b0381166134e45760405162461bcd60e51b815260206004820152601660248201527543616e6e6f74206265207a65726f206164647265737360501b6044820152606401610d07565b600380546001600160a01b0319166001600160a01b0383169081179091556040517fd1879d19b7e07327f8e491d8c5e05a4048155b7ee8f97f61e2b2233ae0e3a88890600090a250565b6001600160a01b038082166000908152600860209081526040808320815160c08101835281549095168086526001909101546001600160801b0381169386019390935265ffffffffffff600160801b8404811692860192909252600160b01b8304909116606085015261ffff600160e01b830481166080860152600160f01b90920490911660a0840152909190156127e657805161190f90426145b5565b3360009081526018602052604090205460ff16613602573332146136025760405162461bcd60e51b8152600401610d0790615b28565b600260015414156136255760405162461bcd60e51b8152600401610d079061590e565b6002600155611b7f8282614798565b3361363d612be4565b6001600160a01b0316146136635760405162461bcd60e51b8152600401610d0790615841565b60005b8281101561146457816019600086868581811061368557613685615a77565b905060200201602081019061369a91906155f9565b6001600160a01b031681526020810191909152604001600020805460ff19169115159190911790558383828181106136d4576136d4615a77565b90506020020160208101906136e991906155f9565b6001600160a01b0316336001600160a01b03167f0c5e5180b1be108ebc3c1c5939cd6b59ca30067d07c5405f94304bf603c621428460405161372f911515815260200190565b60405180910390a38061374181615a8d565b915050613666565b6040805180820190915260008082526020820181905261376a908280614a45565b50565b6000611530600d600c548154811061378757613787615a77565b60009182526020918290206040805160808101825260039093029091018054600f81810b8552600160801b909104900b938301939093526001830154908201526002909101546060820152836146a9565b336137e1612be4565b6001600160a01b0316146138075760405162461bcd60e51b8152600401610d0790615841565b6001600160a01b03831660009081526009602052604090208261382b57600061382e565b60015b81546001600160d01b0316600160f81b60ff929092169190910264ffffffffff60d01b191617600160d01b64ffffffffff841690810291909117825560408051851515815260208101929092526001600160a01b038616917f3fd4b992bc54a5edaa3b29f337c4048b314667d454123fbd81b327aaeea7df67910160405180910390a250505050565b600260015414156138da5760405162461bcd60e51b8152600401610d079061590e565b600260015560055460ff1661392d5760405162461bcd60e51b8152602060048201526019602482015278466f7262696420656d657267656e637920776974686472617760381b6044820152606401610d07565b3360009081526006602052604090205460ff161561395d5760405162461bcd60e51b8152600401610d0790615cc9565b336000908152600660209081526040808320805460ff191660019081179091556007835281842082518084019093528054600f0b8084529101549282019290925291126139df5760405162461bcd60e51b815260206004820152601060248201526f139bc81b1bd8dad95908185b5bdd5b9d60821b6044820152606401610d07565b60006139f18260000151600f0b613f12565b33600090815260076020908152604080832080546001600160801b0319168155600101839055600e9091528120919250613a2b919061551b565b336000818152600f6020526040812055613a70907f00000000000000000000000000000000000000000000000000000000000000006001600160a01b03169083614938565b60405181815233907f5fafa99d0643513820be26656b45130b01e1c03062e1266bf36f88cbd3bd96959060200160405180910390a2505060018055565b600061190f8383614339565b33613ac2612be4565b6001600160a01b031614613ae85760405162461bcd60e51b8152600401610d0790615841565b6001600160a01b038116613b4d5760405162461bcd60e51b815260206004820152602660248201527f4f776e61626c653a206e6577206f776e657220697320746865207a65726f206160448201526564647265737360d01b6064820152608401610d07565b61376a81614957565b60026001541415613b795760405162461bcd60e51b8152600401610d079061590e565b600260015533600090815260096020908152604091829020825160808101845290546001600160681b038082168352600160681b820416928201839052600160d01b810464ffffffffff1693820193909352600160f81b90920460ff16606083015215613c345760405162461bcd60e51b8152602060048201526024808201527f496e73756666696369656e7420696e6a656374696f6e20666f722064656c656760448201526330ba37b960e11b6064820152608401610d07565b3360009081526007602090815260409182902082518084019093528054600f0b83526001015490820152601154613cac578060200151421015613cac5760405162461bcd60e51b815260206004820152601060248201526f131bd8dac81b9bdd08195e1c1a5c995960821b6044820152606401610d07565b6001600160a01b038316613cbe573392505b6000613cd08260000151600f0b613f12565b9050613cdd338383613f68565b336000908152600a602052604090205460ff16613d2857613d286001600160a01b037f0000000000000000000000000000000000000000000000000000000000000000168583614938565b836001600160a01b0316336001600160a01b03167f55e21b0674b8095feb63d5336fb7b5b004d267585bfbb58005e8126a8ad7bc548342604051613d6d929190615b1a565b60405180910390a35050600180555050565b3360009081526019602052604090205460ff16613dd45760405162461bcd60e51b81526020600482015260136024820152722120776c2072656469737472696275746f727360681b6044820152606401610d07565b60026001541415613df75760405162461bcd60e51b8152600401610d079061590e565b6002600155601580546000909155601754613e3f906001600160a01b037f00000000000000000000000000000000000000000000000000000000000000008116911683614938565b60175460405133917f73dad76107243dbd9d398020575b5e3ad26d50fe161c81088dc8592a394855b791613e7e916001600160a01b0316908590615cfc565b60405180910390a25060018055565b6040516001600160a01b03808516602483015283166044820152606481018290526114649085906323b872dd60e01b906084015b60408051601f198184030181529190526020810180516001600160e01b03166001600160e01b031990931692909217909152615187565b600062093a80613f088184615c78565b6115309190615c43565b600080821215613f645760405162461bcd60e51b815260206004820181905260248201527f53616665436173743a2076616c7565206d75737420626520706f7369746976656044820152606401610d07565b5090565b6000613f7a8360000151600f0b613f12565b905080821115613fbf5760405162461bcd60e51b815260206004820152601060248201526f416d6f756e7420746f6f206c6172676560801b6044820152606401610d07565b604080518082019091528351600f0b815260208085015190820152818314613feb578360200151613fee565b60005b60208501526140056140008484615945565b615259565b600f0b84526001600160a01b0385166000908152600760209081526040909120855181546001600160801b0319166001600160801b03909116178155908501516001909101556002546140588482615945565b600255614066868387614a45565b6003546001600160a01b0316156140f75760035482516020840151604051630f28a72960e31b81526001600160a01b038a81166004830152600f9390930b6024820152604481019190915260648101879052911690637945394890608401600060405180830381600087803b1580156140de57600080fd5b505af11580156140f2573d6000803e3d6000fd5b505050505b600080516020615f0283398151915281600254604051614118929190615b1a565b60405180910390a1505050505050565b6002546141358682615b4d565b600255604080518082019091528451600f0b81526020808601519082015261415c87615259565b81516141689190615d15565b600f0b8152851561417b57602081018690525b6001600160a01b0388166000908152600760209081526040909120825181546001600160801b0319166001600160801b03909116178155908201516001909101556141c7888683614a45565b86158015906141d4575082155b1561420e5761420e6001600160a01b037f00000000000000000000000000000000000000000000000000000000000000001633308a613e8d565b6003546001600160a01b0316156142b55760035485516020870151604051636e85ee4760e01b81526001600160a01b038c81166004830152602482018c9052604482018b9052600f9390930b6064820152608481019190915260a4810187905285151560c4820152911690636e85ee479060e401600060405180830381600087803b15801561429c57600080fd5b505af11580156142b0573d6000803e3d6000fd5b505050505b602080820151604080518a81529283018790524290830152906001600160a01b038a16907f7162984403f6c73c8639375d45a9187dfd04602231bd8e587c415718b5f7e5f99060600160405180910390a3600080516020615f0283398151915282600254604051614327929190615b1a565b60405180910390a15050505050505050565b60008061434684846152d6565b905080614357576000915050611530565b6001600160a01b0384166000908152600e6020526040812080548390811061438157614381615a77565b600091825260208083206040805160808101825260039094029091018054600f81810b8652600160801b909104900b92840192909252600182015490830152600201546060820152600c54909250906143da86836149a7565b90506000600d82815481106143f1576143f1615a77565b600091825260208083206040805160808101825260039094029091018054600f81810b8652600160801b909104900b92840192909252600182015490830152600201546060820152915080848410156144df576000600d614453866001615b4d565b8154811061446357614463615a77565b60009182526020918290206040805160808101825260039093029091018054600f81810b8552600160801b909104900b9383019390935260018301549082015260029091015460608083018290528601519192506144c19190615945565b9250836040015181604001516144d79190615945565b915050614503565b60608301516144ee9043615945565b91508260400151426145009190615945565b90505b60408301518215614540578284606001518b61451f9190615945565b6145299084615c43565b6145339190615c78565b61453d9082615b4d565b90505b6145538760400151826140009190615945565b87602001516145629190615d66565b87518890614571908390615dfa565b600f90810b90915288516000910b1215905061459857600098505050505050505050611530565b86516145a690600f0b613f12565b9b9a5050505050505050505050565b6001600160a01b0382166000908152600f6020526040812054806145dd576000915050611530565b6001600160a01b0384166000908152600e6020526040812080548390811061460757614607615a77565b60009182526020918290206040805160808101825260039093029091018054600f81810b8552600160801b909104900b93830193909352600183015490820181905260029092015460608201529150614664906140009086615945565b81602001516146739190615d66565b815161467f9190615dfa565b600f0b8082526000131561469257600081525b80516146a090600f0b613f12565b95945050505050565b60008083905060006146be8560400151613ef8565b905060005b60ff811015614774576146d962093a8083615b4d565b91506000858311156146ed57859250614701565b50600082815260106020526040902054600f0b5b6147148460400151846140009190615945565b84602001516147239190615d66565b845161472f9190615dfa565b600f0b8452828614156147425750614774565b8084602001516147529190615d15565b600f0b602085015250604083018290528061476c81615a8d565b9150506146c3565b5060008260000151600f0b121561478a57600082525b81516146a090600f0b613f12565b3360009081526006602052604090205460ff16156147c85760405162461bcd60e51b8152600401610d0790615cc9565b6147d181613ef8565b3360009081526007602090815260409182902082518084019093528054600f0b835260010154908201529091508261481b5760405162461bcd60e51b8152600401610d0790615aa8565b8051600f0b1561485e5760405162461bcd60e51b815260206004820152600e60248201526d105b1c9958591e481b1bd8dad95960921b6044820152606401610d07565b4282116148a35760405162461bcd60e51b815260206004820152601360248201527217dd5b9b1bd8dad51a5b59481d1bdbc81bdb19606a1b6044820152606401610d07565b60016148b362093a8060d1615c43565b6148bd9190615945565b6148c79042615b4d565b82111561490d5760405162461bcd60e51b81526020600482015260146024820152735f756e6c6f636b54696d6520746f6f206c6f6e6760601b6044820152606401610d07565b336000818152600a6020526040902054614933919085908590859060019060ff16614128565b505050565b6149338363a9059cbb60e01b8484604051602401613ec1929190615cfc565b600080546001600160a01b038381166001600160a01b0319831681178455604051919092169283917f8be0079c531659141344cd1fd0a4f28419497f9722a3daafe3b4186f6b6457e09190a35050565b60008082815b6080811015614a3b578183106149c257614a3b565b600060026149d08486615b4d565b6149db906001615b4d565b6149e59190615c78565b905086600d82815481106149fb576149fb615a77565b90600052602060002090600302016002015411614a1a57809350614a28565b614a25600182615945565b92505b5080614a3381615a8d565b9150506149ad565b5090949350505050565b604080516080808201835260008083526020808401829052838501829052606080850183905285519384018652828452908301829052938201819052928101839052600c549192909181906001600160a01b03881615614ce557428760200151118015614ab9575060008760000151600f0b135b15614b1a57614adb6001614ad162093a8060d1615c43565b6140009190615945565b8751614ae79190615e4a565b600f0b602080870191909152870151614b0590614000904290615945565b8560200151614b149190615d66565b600f0b85525b428660200151118015614b34575060008660000151600f0b135b15614b8b57614b4c6001614ad162093a8060d1615c43565b8651614b589190615e4a565b600f0b602080860191909152860151614b7690614000904290615945565b8460200151614b859190615d66565b600f0b84525b6001600160a01b0388166000908152600f602052604090205480614c0f576001600160a01b0389166000908152600e60209081526040808320805460018181018355918552938390208a51938b01516001600160801b03908116600160801b0294169390931760039094029092019283558801519082015560608701516002909101555b614c1a816001615b4d565b6001600160a01b038a166000818152600f6020818152604080842095909555428a86019081524360608c01908152948452600e82528584208054600181810183559186528386208d518e8601516001600160801b03908116600160801b0291161760039092020190815591519082015593516002909401939093558b8301518252601083529290205490890151910b945015614ce357876020015187602001511415614cc857839250614ce3565b602080880151600090815260109091526040902054600f0b92505b505b604080516080810182526000808252602082015242918101919091524360608201528115614d6e57600d8281548110614d2057614d20615a77565b60009182526020918290206040805160808101825260039093029091018054600f81810b8552600160801b909104900b93830193909352600183015490820152600290910154606082015290505b604080820180518251608081018452600080825260208201819052835194820194909452606080860151908201529151909290421115614de5576040840151614db79042615945565b6060850151614dc69043615945565b614dd890670de0b6b3a7640000615c43565b614de29190615c78565b90505b6000614df084613ef8565b905060005b60ff811015614fa057614e0b62093a8083615b4d565b9150600042831115614e1f57429250614e33565b50600082815260106020526040902054600f0b5b6000614e426140008886615945565b8860200151614e519190615d66565b8851909150614e61908290615dfa565b600f0b88526020880151614e76908390615d15565b600f90810b60208a015288516000910b1215614e9157600088525b60008860200151600f0b1215614ea957600060208901525b60408089018590528601519396508693670de0b6b3a764000090614ecd9086615945565b614ed79087615c43565b614ee19190615c78565b8660600151614ef09190615b4d565b6060890152614f00896001615b4d565b985042841415614f17575050436060870152614fa0565b600d8054600181018255600091909152885160208a01516001600160801b03908116600160801b029116176003909102600080516020615ec28339815191528101919091556040890151600080516020615f228339815191528201556060890151600080516020615ee28339815191529091015550508080614f9890615a8d565b915050614df5565b50600c8690556001600160a01b038d161561502d57896020015189602001518660200151614fce9190615d15565b614fd89190615dfa565b600f0b6020860152895189518651614ff09190615d15565b614ffa9190615dfa565b600f90810b865260208601516000910b121561501857600060208601525b60008560000151600f0b121561502d57600085525b600d8054600181018255600091909152855160208701516001600160801b03908116600160801b029116176003909102600080516020615ec28339815191528101919091556040860151600080516020615f228339815191528201556060860151600080516020615ee2833981519152909101556001600160a01b038d161561517857428c60200151111561511d5760208a01516150cb9089615d15565b97508b602001518b6020015114156150ef5760208901516150ec9089615dfa565b97505b60208c810151600090815260109091526040902080546001600160801b0319166001600160801b038a161790555b428b602001511115615178578b602001518b6020015111156151785760208901516151489088615dfa565b60208c810151600090815260109091526040902080546001600160801b0319166001600160801b03831617905596505b50505050505050505050505050565b60006151dc826040518060400160405280602081526020017f5361666545524332303a206c6f772d6c6576656c2063616c6c206661696c6564815250856001600160a01b031661539a9092919063ffffffff16565b80519091501561493357808060200190518101906151fa9190615e88565b6149335760405162461bcd60e51b815260206004820152602a60248201527f5361666545524332303a204552433230206f7065726174696f6e20646964206e6044820152691bdd081cdd58d8d9595960b21b6064820152608401610d07565b600060016001607f1b0319821280159061527a575060016001607f1b038213155b613f645760405162461bcd60e51b815260206004820152602760248201527f53616665436173743a2076616c756520646f65736e27742066697420696e20316044820152663238206269747360c81b6064820152608401610d07565b6001600160a01b0382166000908152600f60205260408120548190815b6080811015614a3b5781831061530857614a3b565b600060026153168486615b4d565b615321906001615b4d565b61532b9190615c78565b6001600160a01b0388166000908152600e60205260409020805491925087918390811061535a5761535a615a77565b9060005260206000209060030201600201541161537957809350615387565b615384600182615945565b92505b508061539281615a8d565b9150506152f3565b60606153a984846000856153b1565b949350505050565b6060824710156154125760405162461bcd60e51b815260206004820152602660248201527f416464726573733a20696e73756666696369656e742062616c616e636520666f6044820152651c8818d85b1b60d21b6064820152608401610d07565b6001600160a01b0385163b6154695760405162461bcd60e51b815260206004820152601d60248201527f416464726573733a2063616c6c20746f206e6f6e2d636f6e74726163740000006044820152606401610d07565b600080866001600160a01b031685876040516154859190615ea5565b60006040518083038185875af1925050503d80600081146154c2576040519150601f19603f3d011682016040523d82523d6000602084013e6154c7565b606091505b50915091506154d78282866154e2565b979650505050505050565b606083156154f157508161190f565b8251156155015782518084602001fd5b8160405162461bcd60e51b8152600401610d0791906155c6565b508054600082556003029060005260206000209081019061376a91905b80821115613f64576000808255600182018190556002820155600301615538565b6001600160a01b038116811461376a57600080fd5b6000806040838503121561558157600080fd5b823561558c81615559565b946020939093013593505050565b60005b838110156155b557818101518382015260200161559d565b838111156114645750506000910152565b60208152600082518060208401526155e581604085016020870161559a565b601f01601f19169190910160400192915050565b60006020828403121561560b57600080fd5b813561190f81615559565b60008060006060848603121561562b57600080fd5b833561563681615559565b95602085013595506040909401359392505050565b801515811461376a57600080fd5b6000806040838503121561566c57600080fd5b823561567781615559565b915060208301356156878161564b565b809150509250929050565b6000806000604084860312156156a757600080fd5b83356001600160401b03808211156156be57600080fd5b818601915086601f8301126156d257600080fd5b8135818111156156e157600080fd5b8760208260051b85010111156156f657600080fd5b6020928301955093505084013561570c8161564b565b809150509250925092565b60006020828403121561572957600080fd5b813561190f8161564b565b6001600160a01b0391909116815260200190565b6000806040838503121561575b57600080fd5b50508035926020909101359150565b60006020828403121561577c57600080fd5b5035919050565b80356001600160401b038116811461579a57600080fd5b919050565b600080600080608085870312156157b557600080fd5b6157be85615783565b93506157cc60208601615783565b925060408501356157dc81615559565b915060608501356157ec81615559565b939692955090935050565b60008060006060848603121561580c57600080fd5b833561581781615559565b925060208401356158278161564b565b9150604084013564ffffffffff8116811461570c57600080fd5b6020808252818101527f4f776e61626c653a2063616c6c6572206973206e6f7420746865206f776e6572604082015260600190565b6020808252600b908201526a10903232b632b3b0ba37b960a91b604082015260600190565b634e487b7160e01b600052601160045260246000fd5b60006001600160681b03838116908316818110156158d1576158d161589b565b039392505050565b600181811c908216806158ed57607f821691505b602082108114156127e657634e487b7160e01b600052602260045260246000fd5b6020808252601f908201527f5265656e7472616e637947756172643a207265656e7472616e742063616c6c00604082015260600190565b6000828210156159575761595761589b565b500390565b602080825260089082015267546f6f206c61746560c01b604082015260600190565b6020808252601490820152732737903637b1b59037b7103232b632b3b0ba37b960611b604082015260600190565b60208082526016908201527511195b1959d85d1bdc881b1bd8dac8195e1c1a5c995960521b604082015260600190565b60006001600160681b038281168482168083038211156159fe576159fe61589b565b01949350505050565b6001600160801b0392909216825265ffffffffffff16602082015260400190565b6020808252600b908201526a084818d85ad9481c1bdbdb60aa1b604082015260600190565b60208082526010908201526f3130b2102fb13637b1b5a73ab6b132b960811b604082015260600190565b634e487b7160e01b600052603260045260246000fd5b6000600019821415615aa157615aa161589b565b5060010190565b6020808252600b908201526a1098590817d85b5bdd5b9d60aa1b604082015260600190565b6020808252600d908201526c139bc81b1bd8dac8199bdd5b99609a1b604082015260600190565b6020808252600c908201526b131bd8dac8195e1c1a5c995960a21b604082015260600190565b918252602082015260400190565b6020808252600b908201526a0848195bd8481bdc881ddb60aa1b604082015260600190565b60008219821115615b6057615b6061589b565b500190565b6020808252600d908201526c08481a5b9a5d1a585b1a5e9959609a1b604082015260600190565b60008060008060008060008060006101208a8c031215615bab57600080fd5b8951985060208a0151975060408a0151965060608a0151955060808a0151945060a08a0151935060c08a0151925060e08a0151615be78161564b565b809250506101008a015190509295985092959850929598565b60208082526010908201526f105b1c9958591e481b5a59dc985d195960821b604082015260600190565b600060208284031215615c3c57600080fd5b5051919050565b6000816000190483118215151615615c5d57615c5d61589b565b500290565b634e487b7160e01b600052601260045260246000fd5b600082615c8757615c87615c62565b500490565b600060208284031215615c9e57600080fd5b815161190f81615559565b602080825260069082015265119bdc989a5960d21b604082015260600190565b602080825260199082015278416c726561647920656d657267656e6379576974686472617760381b604082015260600190565b6001600160a01b03929092168252602082015260400190565b6000600f82810b9084900b828212801560016001607f1b0384900383131615615d4057615d4061589b565b60016001607f1b03198390038212811615615d5d57615d5d61589b565b50019392505050565b6000600f82810b9084900b60016001607f1b0383821384841380821684840486111615615d9557615d9561589b565b60016001607f1b03196000851282811687830587121615615db857615db861589b565b60008712925085820587128484161615615dd457615dd461589b565b85850587128184161615615dea57615dea61589b565b5050509290910295945050505050565b6000600f82810b9084900b828112801560016001607f1b0319830184121615615e2557615e2561589b565b60016001607f1b0382018313811615615e4057615e4061589b565b5090039392505050565b600081600f0b83600f0b80615e6157615e61615c62565b60016001607f1b0319821460001982141615615e7f57615e7f61589b565b90059392505050565b600060208284031215615e9a57600080fd5b815161190f8161564b565b60008251615eb781846020870161559a565b919091019291505056fed7b6990105719101dabeb77144f2a3385c8033acd3af97e9423a695e81ad1eb5d7b6990105719101dabeb77144f2a3385c8033acd3af97e9423a695e81ad1eb75e2aa66efd74cce82b21852e317e5490d9ecc9e6bb953ae24d90851258cc2f5cd7b6990105719101dabeb77144f2a3385c8033acd3af97e9423a695e81ad1eb67a260b029728603ffc0679b0360160ac6e1daf21270ab94c6acdf3deabd0ef96a2646970667358221220b6025fd4a2599000652864fa5c24e4cef152b4de735d9e6b7ae5baeab385308264736f6c634300080a0033",
  "linkReferences": {},
  "deployedLinkReferences": {}
}