{
  "_format": "hh-sol-artifact-1",
  "contractName": "PancakeV3LmPoolDeployer",
  "sourceName": "contracts/PancakeV3LmPoolDeployer.sol",
  "abi": [
    {
      "inputs": [
        {
          "internalType": "address",
          "name": "_masterChef",
          "type": "address"
        }
      ],
      "stateMutability": "nonpayable",
      "type": "constructor"
    },
    {
      "anonymous": false,
      "inputs": [
        {
          "indexed": true,
          "internalType": "address",
          "name": "pool",
          "type": "address"
        },
        {
          "indexed": true,
          "internalType": "address",
          "name": "LMPool",
          "type": "address"
        }
      ],
      "name": "NewLMPool",
      "type": "event"
    },
    {
      "inputs": [
        {
          "internalType": "address",
          "name": "pool",
          "type": "address"
        }
      ],
      "name": "deploy",
      "outputs": [
        {
          "internalType": "address",
          "name": "lmPool",
          "type": "address"
        }
      ],
      "stateMutability": "nonpayable",
      "type": "function"
    },
    {
      "inputs": [],
      "name": "masterChef",
      "outputs": [
        {
          "internalType": "address",
          "name": "",
          "type": "address"
        }
      ],
      "stateMutability": "view",
      "type": "function"
    },
    {
      "inputs": [],
      "name": "parameters",
      "outputs": [
        {
          "internalType": "address",
          "name": "pool",
          "type": "address"
        },
        {
          "internalType": "address",
          "name": "masterChef",
          "type": "address"
        }
      ],
      "stateMutability": "view",
      "type": "function"
    }
  ],
  "bytecode": "0x60a060405234801561001057600080fd5b506040516122673803806122678339818101604052602081101561003357600080fd5b81019080805190602001909291905050508073ffffffffffffffffffffffffffffffffffffffff1660808173ffffffffffffffffffffffffffffffffffffffff1660601b815250505060805160601c6121ba6100ad6000398061013d528061022552806102f252806103f6528061061452506121ba6000f3fe608060405234801561001057600080fd5b50600436106100415760003560e01c80634c96a38914610046578063575a86b2146100b457806389035730146100e8575b600080fd5b6100886004803603602081101561005c57600080fd5b81019080803573ffffffffffffffffffffffffffffffffffffffff169060200190929190505050610139565b604051808273ffffffffffffffffffffffffffffffffffffffff16815260200191505060405180910390f35b6100bc610612565b604051808273ffffffffffffffffffffffffffffffffffffffff16815260200191505060405180910390f35b6100f0610636565b604051808373ffffffffffffffffffffffffffffffffffffffff1681526020018273ffffffffffffffffffffffffffffffffffffffff1681526020019250505060405180910390f35b60007f000000000000000000000000000000000000000000000000000000000000000073ffffffffffffffffffffffffffffffffffffffff163373ffffffffffffffffffffffffffffffffffffffff16146101fc576040517f08c379a00000000000000000000000000000000000000000000000000000000081526004018080602001828103825260068152602001807f4e6f74204d43000000000000000000000000000000000000000000000000000081525060200191505060405180910390fd5b60405180604001604052808373ffffffffffffffffffffffffffffffffffffffff1681526020017f000000000000000000000000000000000000000000000000000000000000000073ffffffffffffffffffffffffffffffffffffffff168152506000808201518160000160006101000a81548173ffffffffffffffffffffffffffffffffffffffff021916908373ffffffffffffffffffffffffffffffffffffffff16021790555060208201518160010160006101000a81548173ffffffffffffffffffffffffffffffffffffffff021916908373ffffffffffffffffffffffffffffffffffffffff160217905550905050817f000000000000000000000000000000000000000000000000000000000000000042604051602001808473ffffffffffffffffffffffffffffffffffffffff1681526020018373ffffffffffffffffffffffffffffffffffffffff16815260200182815260200193505050506040516020818303038152906040528051906020012060405161037e90610688565b8190604051809103906000f590508015801561039e573d6000803e3d6000fd5b5090506000806000820160006101000a81549073ffffffffffffffffffffffffffffffffffffffff02191690556001820160006101000a81549073ffffffffffffffffffffffffffffffffffffffff021916905550507f000000000000000000000000000000000000000000000000000000000000000073ffffffffffffffffffffffffffffffffffffffff1663b44a27226040518163ffffffff1660e01b815260040160206040518083038186803b15801561045a57600080fd5b505afa15801561046e573d6000803e3d6000fd5b505050506040513d602081101561048457600080fd5b810190808051906020019092919050505073ffffffffffffffffffffffffffffffffffffffff1663c45a01556040518163ffffffff1660e01b815260040160206040518083038186803b1580156104da57600080fd5b505afa1580156104ee573d6000803e3d6000fd5b505050506040513d602081101561050457600080fd5b810190808051906020019092919050505073ffffffffffffffffffffffffffffffffffffffff166311ff5e8d83836040518363ffffffff1660e01b8152600401808373ffffffffffffffffffffffffffffffffffffffff1681526020018273ffffffffffffffffffffffffffffffffffffffff16815260200192505050600060405180830381600087803b15801561059b57600080fd5b505af11580156105af573d6000803e3d6000fd5b505050508073ffffffffffffffffffffffffffffffffffffffff168273ffffffffffffffffffffffffffffffffffffffff167f5bb4bf299e7bf12fe2acd3682c1d418e9402cbdb22ec051921e516a90a048f2f60405160405180910390a3919050565b7f000000000000000000000000000000000000000000000000000000000000000081565b60008060000160009054906101000a900473ffffffffffffffffffffffffffffffffffffffff16908060010160009054906101000a900473ffffffffffffffffffffffffffffffffffffffff16905082565b611aef806106968339019056fe60c060405234801561001057600080fd5b506000803373ffffffffffffffffffffffffffffffffffffffff1663890357306040518163ffffffff1660e01b8152600401604080518083038186803b15801561005957600080fd5b505afa15801561006d573d6000803e3d6000fd5b505050506040513d604081101561008357600080fd5b810190808051906020019092919080519060200190929190505050915091508173ffffffffffffffffffffffffffffffffffffffff1660808173ffffffffffffffffffffffffffffffffffffffff1660601b815250508073ffffffffffffffffffffffffffffffffffffffff1660a08173ffffffffffffffffffffffffffffffffffffffff1660601b8152505042600260106101000a81548163ffffffff021916908363ffffffff160217905550505060805160601c60a05160601c6119666101896000398061050152806106285280610891528061094b52508061048852806104ac52806106645280610a0e5280610af55280610cf4528061100752506119666000f3fe608060405234801561001057600080fd5b50600436106100ea5760003560e01c8063702d75d21161008c578063c3487ff811610066578063c3487ff81461035d578063f8077fae1461038d578063f9461601146103b1578063fcad09fc14610403576100ea565b8063702d75d2146102835780638910faf1146102d5578063a498463314610320576100ea565b806337182c1b116100c857806337182c1b146101ab5780633d6aa5e114610213578063575a86b21461023157806357806ada14610265576100ea565b806306b712bf146100ef57806316f0115b14610143578063214a6fe214610177575b600080fd5b61012b6004803603604081101561010557600080fd5b81019080803560020b9060200190929190803560020b9060200190929190505050610457565b60405180821515815260200191505060405180910390f35b61014b610486565b604051808273ffffffffffffffffffffffffffffffffffffffff16815260200191505060405180910390f35b6101a96004803603602081101561018d57600080fd5b81019080803563ffffffff1690602001909291905050506104aa565b005b6101da600480360360208110156101c157600080fd5b81019080803560020b9060200190929190505050610833565b60405180846fffffffffffffffffffffffffffffffff16815260200183600f0b8152602001828152602001935050505060405180910390f35b61021b610886565b6040518082815260200191505060405180910390f35b61023961088f565b604051808273ffffffffffffffffffffffffffffffffffffffff16815260200191505060405180910390f35b61026d6108b3565b6040518082815260200191505060405180910390f35b6102bf6004803603604081101561029957600080fd5b81019080803560020b9060200190929190803560020b90602001909291905050506108b9565b6040518082815260200191505060405180910390f35b61031e600480360360608110156102eb57600080fd5b81019080803560020b9060200190929190803560020b90602001909291908035600f0b9060200190929190505050610949565b005b61035b6004803603604081101561033657600080fd5b81019080803560020b9060200190929190803515159060200190929190505050610cf2565b005b610365610e9a565b60405180826fffffffffffffffffffffffffffffffff16815260200191505060405180910390f35b610395610ebc565b604051808263ffffffff16815260200191505060405180910390f35b6103ed600480360360408110156103c757600080fd5b81019080803560020b9060200190929190803560020b9060200190929190505050610ed2565b6040518082815260200191505060405180910390f35b61043f6004803603604081101561041957600080fd5b81019080803560020b9060200190929190803560020b9060200190929190505050610ef7565b60405180821515815260200191505060405180910390f35b60036020528160005260406000206020528060005260406000206000915091509054906101000a900460ff1681565b7f000000000000000000000000000000000000000000000000000000000000000081565b7f000000000000000000000000000000000000000000000000000000000000000073ffffffffffffffffffffffffffffffffffffffff163373ffffffffffffffffffffffffffffffffffffffff16148061054f57507f000000000000000000000000000000000000000000000000000000000000000073ffffffffffffffffffffffffffffffffffffffff163373ffffffffffffffffffffffffffffffffffffffff16145b6105c1576040517f08c379a000000000000000000000000000000000000000000000000000000000815260040180806020018281038252600e8152602001807f4e6f7420706f6f6c206f72204d4300000000000000000000000000000000000081525060200191505060405180910390fd5b600260109054906101000a900463ffffffff1663ffffffff168163ffffffff16116105eb57610830565b6000600260009054906101000a90046fffffffffffffffffffffffffffffffff166fffffffffffffffffffffffffffffffff161461080e576000807f000000000000000000000000000000000000000000000000000000000000000073ffffffffffffffffffffffffffffffffffffffff1663a15ea89f7f00000000000000000000000000000000000000000000000000000000000000006040518263ffffffff1660e01b8152600401808273ffffffffffffffffffffffffffffffffffffffff168152602001915050604080518083038186803b1580156106cc57600080fd5b505afa1580156106e0573d6000803e3d6000fd5b505050506040513d60408110156106f657600080fd5b81019080805190602001909291908051906020019092919050505091509150600081905060008463ffffffff168263ffffffff16111561074c57600260109054906101000a900463ffffffff168503905061078b565b600260109054906101000a900463ffffffff1663ffffffff168263ffffffff16111561078a57600260109054906101000a900463ffffffff16820390505b5b60008163ffffffff1614610809576107fa8163ffffffff166107c48670010000000000000000000000000000000064e8d4a51000610f26565b600260009054906101000a90046fffffffffffffffffffffffffffffffff166fffffffffffffffffffffffffffffffff16610f26565b60008082825401925050819055505b505050505b80600260106101000a81548163ffffffff021916908363ffffffff1602179055505b50565b60016020528060005260406000206000915090508060000160009054906101000a90046fffffffffffffffffffffffffffffffff16908060000160109054906101000a9004600f0b908060010154905083565b64e8d4a5100081565b7f000000000000000000000000000000000000000000000000000000000000000081565b60005481565b60006108c58383611000565b5080915050600360008460020b60020b815260200190815260200160002060008360020b60020b815260200190815260200160002060009054906101000a900460ff161561094357600460008460020b60020b815260200190815260200160002060008360020b60020b815260200190815260200160002054810390505b92915050565b7f000000000000000000000000000000000000000000000000000000000000000073ffffffffffffffffffffffffffffffffffffffff163373ffffffffffffffffffffffffffffffffffffffff1614610a0a576040517f08c379a00000000000000000000000000000000000000000000000000000000081526004018080602001828103825260068152602001807f4e6f74204d43000000000000000000000000000000000000000000000000000081525060200191505060405180910390fd5b60007f000000000000000000000000000000000000000000000000000000000000000073ffffffffffffffffffffffffffffffffffffffff16633850c7bd6040518163ffffffff1660e01b815260040160e06040518083038186803b158015610a7257600080fd5b505afa158015610a86573d6000803e3d6000fd5b505050506040513d60e0811015610a9c57600080fd5b8101908080519060200190929190805190602001909291908051906020019092919080519060200190929190805190602001909291908051906020019092919080519060200190929190505050505050505091505060007f000000000000000000000000000000000000000000000000000000000000000073ffffffffffffffffffffffffffffffffffffffff166370cf754a6040518163ffffffff1660e01b815260040160206040518083038186803b158015610b5957600080fd5b505afa158015610b6d573d6000803e3d6000fd5b505050506040513d6020811015610b8357600080fd5b81019080805190602001909291905050509050600080549050600080600086600f0b14610bed57610bc9888688866000896001611289909695949392919063ffffffff16565b9150610bea878688866001896001611289909695949392919063ffffffff16565b90505b8760020b8560020b12158015610c0857508660020b8560020b125b15610c6e57610c35600260009054906101000a90046fffffffffffffffffffffffffffffffff16876114cf565b600260006101000a8154816fffffffffffffffffffffffffffffffff02191690836fffffffffffffffffffffffffffffffff1602179055505b600086600f0b1215610cb1578115610c9557610c9488600161162890919063ffffffff16565b5b8015610cb057610caf87600161162890919063ffffffff16565b5b5b600086600f0b128015610cc957508180610cc85750805b5b15610cdd57610cd88888611695565b610ce8565b610ce78888611761565b5b5050505050505050565b7f000000000000000000000000000000000000000000000000000000000000000073ffffffffffffffffffffffffffffffffffffffff163373ffffffffffffffffffffffffffffffffffffffff1614610db3576040517f08c379a00000000000000000000000000000000000000000000000000000000081526004018080602001828103825260088152602001807f4e6f7420706f6f6c00000000000000000000000000000000000000000000000081525060200191505060405180910390fd5b6000600160008460020b60020b815260200190815260200160002060000160009054906101000a90046fffffffffffffffffffffffffffffffff166fffffffffffffffffffffffffffffffff161415610e0b57610e96565b6000610e258360005460016118899092919063ffffffff16565b90508115610e34578060000390505b610e5c600260009054906101000a90046fffffffffffffffffffffffffffffffff16826114cf565b600260006101000a8154816fffffffffffffffffffffffffffffffff02191690836fffffffffffffffffffffffffffffffff160217905550505b5050565b600260009054906101000a90046fffffffffffffffffffffffffffffffff1681565b600260109054906101000a900463ffffffff1681565b6004602052816000526040600020602052806000526040600020600091509150505481565b60056020528160005260406000206020528060005260406000206000915091509054906101000a900460ff1681565b600080600080198587098587029250828110838203039150506000811415610f615760008411610f5557600080fd5b83820492505050610ff9565b808411610f6d57600080fd5b600084868809905082811182039150808303925060008586600003169050808604955080840493506001818260000304019050808302841793506000600287600302189050808702600203810290508087026002038102905080870260020381029050808702600203810290508087026002038102905080870260020381029050808502955050505050505b9392505050565b60008060007f000000000000000000000000000000000000000000000000000000000000000073ffffffffffffffffffffffffffffffffffffffff16633850c7bd6040518163ffffffff1660e01b815260040160e06040518083038186803b15801561106b57600080fd5b505afa15801561107f573d6000803e3d6000fd5b505050506040513d60e081101561109557600080fd5b810190808051906020019092919080519060200190929190805190602001909291908051906020019092919080519060200190929190805190602001909291908051906020019092919050505050505050509150506000600160008760020b60020b81526020019081526020016000206040518060600160405290816000820160009054906101000a90046fffffffffffffffffffffffffffffffff166fffffffffffffffffffffffffffffffff166fffffffffffffffffffffffffffffffff1681526020016000820160109054906101000a9004600f0b600f0b600f0b815260200160018201548152505090506000600160008760020b60020b81526020019081526020016000206040518060600160405290816000820160009054906101000a90046fffffffffffffffffffffffffffffffff166fffffffffffffffffffffffffffffffff166fffffffffffffffffffffffffffffffff1681526020016000820160109054906101000a9004600f0b600f0b600f0b8152602001600182015481525050905060008760020b8460020b126112375782604001519050611243565b82604001516000540390505b60008760020b8560020b121561125f578260400151905061126b565b82604001516000540390505b80826000540303965060005481830111955050505050509250929050565b6000808860008960020b60020b8152602001908152602001600020905060008160000160009054906101000a90046fffffffffffffffffffffffffffffffff16905060006112d782896114cf565b9050846fffffffffffffffffffffffffffffffff16816fffffffffffffffffffffffffffffffff161115611373576040517f08c379a00000000000000000000000000000000000000000000000000000000081526004018080602001828103825260028152602001807f4c4f00000000000000000000000000000000000000000000000000000000000081525060200191505060405180910390fd5b6000826fffffffffffffffffffffffffffffffff161415156000826fffffffffffffffffffffffffffffffff16141515141593506000826fffffffffffffffffffffffffffffffff1614156113da578860020b8a60020b136113d9578683600101819055505b5b808360000160006101000a8154816fffffffffffffffffffffffffffffffff02191690836fffffffffffffffffffffffffffffffff160217905550856114515761144c61144789600f0b8560000160109054906101000a9004600f0b600f0b6118d190919063ffffffff16565b6118f4565b611484565b61148361147e89600f0b8560000160109054906101000a9004600f0b600f0b61190d90919063ffffffff16565b6118f4565b5b8360000160106101000a8154816fffffffffffffffffffffffffffffffff0219169083600f0b6fffffffffffffffffffffffffffffffff160217905550505050979650505050505050565b60008082600f0b121561158257826fffffffffffffffffffffffffffffffff168260000384039150816fffffffffffffffffffffffffffffffff161061157d576040517f08c379a00000000000000000000000000000000000000000000000000000000081526004018080602001828103825260028152602001807f4c5300000000000000000000000000000000000000000000000000000000000081525060200191505060405180910390fd5b611622565b826fffffffffffffffffffffffffffffffff168284019150816fffffffffffffffffffffffffffffffff161015611621576040517f08c379a00000000000000000000000000000000000000000000000000000000081526004018080602001828103825260028152602001807f4c4100000000000000000000000000000000000000000000000000000000000081525060200191505060405180910390fd5b5b92915050565b8160008260020b60020b8152602001908152602001600020600080820160006101000a8154906fffffffffffffffffffffffffffffffff02191690556000820160106101000a8154906fffffffffffffffffffffffffffffffff0219169055600182016000905550505050565b6000600560008460020b60020b815260200190815260200160002060008360020b60020b815260200190815260200160002060006101000a81548160ff0219169083151502179055506000600360008460020b60020b815260200190815260200160002060008360020b60020b815260200190815260200160002060006101000a81548160ff0219169083151502179055506000600460008460020b60020b815260200190815260200160002060008360020b60020b8152602001908152602001600020819055505050565b600560008360020b60020b815260200190815260200160002060008260020b60020b815260200190815260200160002060009054906101000a900460ff16611885576001600560008460020b60020b815260200190815260200160002060008360020b60020b815260200190815260200160002060006101000a81548160ff0219169083151502179055506000806117f98484611000565b915091508015611882576001600360008660020b60020b815260200190815260200160002060008560020b60020b815260200190815260200160002060006101000a81548160ff02191690831515021790555081600460008660020b60020b815260200190815260200160002060008560020b60020b8152602001908152602001600020819055505b50505b5050565b6000808460008560020b60020b815260200190815260200160002090508060010154830381600101819055508060000160109054906101000a9004600f0b9150509392505050565b60008082121515158383850192508212151515146118ee57600080fd5b92915050565b60008182915081600f0b1461190857600080fd5b919050565b600080821215151583838503925082131515151461192a57600080fd5b9291505056fea264697066735822122027e8d9eb6b5bf40d22433e2d748d6bafc1bb4b5bc03f9b390c65b3ad09e6807364736f6c63430007060033a264697066735822122000d3593e26b31583ce3365dfffdaea89e9b6ee1c6980aa399170a5af6ff189d164736f6c63430007060033",
  "linkReferences": {},
  "deployedLinkReferences": {}
}