{
  "_format": "hh-sol-artifact-1",
  "contractName": "PancakeV3Factory",
  "sourceName": "contracts/PancakeV3Factory.sol",
  "abi": [
    {
      "inputs": [
        {
          "internalType": "address",
          "name": "_poolDeployer",
          "type": "address"
        }
      ],
      "stateMutability": "nonpayable",
      "type": "constructor"
    },
    {
      "anonymous": false,
      "inputs": [
        {
          "indexed": true,
          "internalType": "uint24",
          "name": "fee",
          "type": "uint24"
        },
        {
          "indexed": true,
          "internalType": "int24",
          "name": "tickSpacing",
          "type": "int24"
        }
      ],
      "name": "FeeAmountEnabled",
      "type": "event"
    },
    {
      "anonymous": false,
      "inputs": [
        {
          "indexed": true,
          "internalType": "uint24",
          "name": "fee",
          "type": "uint24"
        },
        {
          "indexed": false,
          "internalType": "bool",
          "name": "whitelistRequested",
          "type": "bool"
        },
        {
          "indexed": false,
          "internalType": "bool",
          "name": "enabled",
          "type": "bool"
        }
      ],
      "name": "FeeAmountExtraInfoUpdated",
      "type": "event"
    },
    {
      "anonymous": false,
      "inputs": [
        {
          "indexed": true,
          "internalType": "address",
          "name": "oldOwner",
          "type": "address"
        },
        {
          "indexed": true,
          "internalType": "address",
          "name": "newOwner",
          "type": "address"
        }
      ],
      "name": "OwnerChanged",
      "type": "event"
    },
    {
      "anonymous": false,
      "inputs": [
        {
          "indexed": true,
          "internalType": "address",
          "name": "token0",
          "type": "address"
        },
        {
          "indexed": true,
          "internalType": "address",
          "name": "token1",
          "type": "address"
        },
        {
          "indexed": true,
          "internalType": "uint24",
          "name": "fee",
          "type": "uint24"
        },
        {
          "indexed": false,
          "internalType": "int24",
          "name": "tickSpacing",
          "type": "int24"
        },
        {
          "indexed": false,
          "internalType": "address",
          "name": "pool",
          "type": "address"
        }
      ],
      "name": "PoolCreated",
      "type": "event"
    },
    {
      "anonymous": false,
      "inputs": [
        {
          "indexed": true,
          "internalType": "address",
          "name": "lmPoolDeployer",
          "type": "address"
        }
      ],
      "name": "SetLmPoolDeployer",
      "type": "event"
    },
    {
      "anonymous": false,
      "inputs": [
        {
          "indexed": true,
          "internalType": "address",
          "name": "user",
          "type": "address"
        },
        {
          "indexed": false,
          "internalType": "bool",
          "name": "verified",
          "type": "bool"
        }
      ],
      "name": "WhiteListAdded",
      "type": "event"
    },
    {
      "inputs": [
        {
          "internalType": "address",
          "name": "pool",
          "type": "address"
        },
        {
          "internalType": "address",
          "name": "recipient",
          "type": "address"
        },
        {
          "internalType": "uint128",
          "name": "amount0Requested",
          "type": "uint128"
        },
        {
          "internalType": "uint128",
          "name": "amount1Requested",
          "type": "uint128"
        }
      ],
      "name": "collectProtocol",
      "outputs": [
        {
          "internalType": "uint128",
          "name": "amount0",
          "type": "uint128"
        },
        {
          "internalType": "uint128",
          "name": "amount1",
          "type": "uint128"
        }
      ],
      "stateMutability": "nonpayable",
      "type": "function"
    },
    {
      "inputs": [
        {
          "internalType": "address",
          "name": "tokenA",
          "type": "address"
        },
        {
          "internalType": "address",
          "name": "tokenB",
          "type": "address"
        },
        {
          "internalType": "uint24",
          "name": "fee",
          "type": "uint24"
        }
      ],
      "name": "createPool",
      "outputs": [
        {
          "internalType": "address",
          "name": "pool",
          "type": "address"
        }
      ],
      "stateMutability": "nonpayable",
      "type": "function"
    },
    {
      "inputs": [
        {
          "internalType": "uint24",
          "name": "fee",
          "type": "uint24"
        },
        {
          "internalType": "int24",
          "name": "tickSpacing",
          "type": "int24"
        }
      ],
      "name": "enableFeeAmount",
      "outputs": [],
      "stateMutability": "nonpayable",
      "type": "function"
    },
    {
      "inputs": [
        {
          "internalType": "uint24",
          "name": "",
          "type": "uint24"
        }
      ],
      "name": "feeAmountTickSpacing",
      "outputs": [
        {
          "internalType": "int24",
          "name": "",
          "type": "int24"
        }
      ],
      "stateMutability": "view",
      "type": "function"
    },
    {
      "inputs": [
        {
          "internalType": "uint24",
          "name": "",
          "type": "uint24"
        }
      ],
      "name": "feeAmountTickSpacingExtraInfo",
      "outputs": [
        {
          "internalType": "bool",
          "name": "whitelistRequested",
          "type": "bool"
        },
        {
          "internalType": "bool",
          "name": "enabled",
          "type": "bool"
        }
      ],
      "stateMutability": "view",
      "type": "function"
    },
    {
      "inputs": [
        {
          "internalType": "address",
          "name": "",
          "type": "address"
        },
        {
          "internalType": "address",
          "name": "",
          "type": "address"
        },
        {
          "internalType": "uint24",
          "name": "",
          "type": "uint24"
        }
      ],
      "name": "getPool",
      "outputs": [
        {
          "internalType": "address",
          "name": "",
          "type": "address"
        }
      ],
      "stateMutability": "view",
      "type": "function"
    },
    {
      "inputs": [],
      "name": "lmPoolDeployer",
      "outputs": [
        {
          "internalType": "address",
          "name": "",
          "type": "address"
        }
      ],
      "stateMutability": "view",
      "type": "function"
    },
    {
      "inputs": [],
      "name": "owner",
      "outputs": [
        {
          "internalType": "address",
          "name": "",
          "type": "address"
        }
      ],
      "stateMutability": "view",
      "type": "function"
    },
    {
      "inputs": [],
      "name": "poolDeployer",
      "outputs": [
        {
          "internalType": "address",
          "name": "",
          "type": "address"
        }
      ],
      "stateMutability": "view",
      "type": "function"
    },
    {
      "inputs": [
        {
          "internalType": "uint24",
          "name": "fee",
          "type": "uint24"
        },
        {
          "internalType": "bool",
          "name": "whitelistRequested",
          "type": "bool"
        },
        {
          "internalType": "bool",
          "name": "enabled",
          "type": "bool"
        }
      ],
      "name": "setFeeAmountExtraInfo",
      "outputs": [],
      "stateMutability": "nonpayable",
      "type": "function"
    },
    {
      "inputs": [
        {
          "internalType": "address",
          "name": "pool",
          "type": "address"
        },
        {
          "internalType": "uint32",
          "name": "feeProtocol0",
          "type": "uint32"
        },
        {
          "internalType": "uint32",
          "name": "feeProtocol1",
          "type": "uint32"
        }
      ],
      "name": "setFeeProtocol",
      "outputs": [],
      "stateMutability": "nonpayable",
      "type": "function"
    },
    {
      "inputs": [
        {
          "internalType": "address",
          "name": "pool",
          "type": "address"
        },
        {
          "internalType": "address",
          "name": "lmPool",
          "type": "address"
        }
      ],
      "name": "setLmPool",
      "outputs": [],
      "stateMutability": "nonpayable",
      "type": "function"
    },
    {
      "inputs": [
        {
          "internalType": "address",
          "name": "_lmPoolDeployer",
          "type": "address"
        }
      ],
      "name": "setLmPoolDeployer",
      "outputs": [],
      "stateMutability": "nonpayable",
      "type": "function"
    },
    {
      "inputs": [
        {
          "internalType": "address",
          "name": "_owner",
          "type": "address"
        }
      ],
      "name": "setOwner",
      "outputs": [],
      "stateMutability": "nonpayable",
      "type": "function"
    },
    {
      "inputs": [
        {
          "internalType": "address",
          "name": "user",
          "type": "address"
        },
        {
          "internalType": "bool",
          "name": "verified",
          "type": "bool"
        }
      ],
      "name": "setWhiteListAddress",
      "outputs": [],
      "stateMutability": "nonpayable",
      "type": "function"
    }
  ],
  "bytecode": "0x60a060405234801561001057600080fd5b506040516118753803806118758339818101604052602081101561003357600080fd5b50516001600160601b0319606082901b16608052600080546001600160a01b0319163390811782556040519091907fb532073b38c83145e3e5135377a08bf9aab55bc0fd7c1179cd4fb995d2a5159c908290a37f1bd07f61ef326b4de236f5b68f225f46ff76ee2c375ae31a06da201c49c70c12805462ffffff19166001908117909155604080518082018252600080825260208281018581526064808452600390925292517f6b16ef514f22b74729cbea5cc7babfecbdc2309e530ca716643d11fe929eed2e8054945115156101000261ff001992151560ff199096169590951791909116939093179092559151909160008051602061183583398151915291a36040805160008152600160208201528151606492600080516020611855833981519152928290030190a27f344a86d038cc67650617710ee5afca4f5d1ed60d199ecd86852cac7a55b2d3e5805462ffffff1916600a9081179091556040805180820182526000808252600160208381019182526101f4808452600390915292517f5ed261ce397475c8f8ccd7526f550ae383248415591df3d1b32ee25c9ab0af2e8054925115156101000261ff001992151560ff1990941693909317919091169190911790559151909160008051602061183583398151915291a360408051600081526001602082015281516101f492600080516020611855833981519152928290030190a27f18ea07d45b61092cf379823b7e255753fc01638d9bcaaef647c0748469d0c8cb805462ffffff191660329081179091556040805180820182526000808252600160208381019182526109c4808452600390915292517f2cb06da9fad5bc9043c9933b28e89aaba34d84764c67113fa1d4256f6b23f7558054925115156101000261ff001992151560ff1990941693909317919091169190911790559151909160008051602061183583398151915291a360408051600081526001602082015281516109c492600080516020611855833981519152928290030190a27f1ca239af1d44623dfaa87ee0cbbbe4bbeb2112df36e66deedafd694350d045cd805462ffffff191660c8908117909155604080518082018252600080825260016020838101918252612710808452600390915292517fbed90d45c8c5fb2e8fcae0027c6e57da3d943cdb82d794c1080bce28e166f2118054925115156101000261ff001992151560ff1990941693909317919091169190911790559151909160008051602061183583398151915291a3604080516000815260016020820152815161271092600080516020611855833981519152928290030190a25060805160601c61141f610416600039806106f352806110db525061141f6000f3fe608060405234801561001057600080fd5b50600436106100f55760003560e01c80637e8435e6116100975780638da5cb5b116100665780638da5cb5b146103a55780638ff38e80146103ad578063a1671295146103df578063e4a86a9914610428576100f5565b80637e8435e6146102c357806380d6a7921461030a57806388e8006d1461033d5780638a7c195f1461037a576100f5565b806322afcccb116100d357806322afcccb146101dc5780633119049a1461021557806343db87da1461021d5780635e492ac8146102bb576100f5565b806311ff5e8d146100fa57806313af4035146101375780631698ee821461016a575b600080fd5b6101356004803603604081101561011057600080fd5b5073ffffffffffffffffffffffffffffffffffffffff81358116916020013516610463565b005b6101356004803603602081101561014d57600080fd5b503573ffffffffffffffffffffffffffffffffffffffff16610590565b6101b36004803603606081101561018057600080fd5b50803573ffffffffffffffffffffffffffffffffffffffff908116916020810135909116906040013562ffffff166106a3565b6040805173ffffffffffffffffffffffffffffffffffffffff9092168252519081900360200190f35b6101fe600480360360208110156101f257600080fd5b503562ffffff166106dc565b6040805160029290920b8252519081900360200190f35b6101b36106f1565b61027a6004803603608081101561023357600080fd5b5073ffffffffffffffffffffffffffffffffffffffff81358116916020810135909116906fffffffffffffffffffffffffffffffff60408201358116916060013516610715565b60405180836fffffffffffffffffffffffffffffffff168152602001826fffffffffffffffffffffffffffffffff1681526020019250505060405180910390f35b6101b361086b565b610135600480360360608110156102d957600080fd5b5073ffffffffffffffffffffffffffffffffffffffff8135169063ffffffff60208201358116916040013516610887565b6101356004803603602081101561032057600080fd5b503573ffffffffffffffffffffffffffffffffffffffff166109a5565b61035f6004803603602081101561035357600080fd5b503562ffffff16610a9a565b60408051921515835290151560208301528051918290030190f35b6101356004803603604081101561039057600080fd5b5062ffffff813516906020013560020b610ab8565b6101b3610cc3565b610135600480360360608110156103c357600080fd5b5062ffffff813516906020810135151590604001351515610cdf565b6101b3600480360360608110156103f557600080fd5b50803573ffffffffffffffffffffffffffffffffffffffff908116916020810135909116906040013562ffffff16610e50565b6101356004803603604081101561043e57600080fd5b5073ffffffffffffffffffffffffffffffffffffffff81351690602001351515611234565b60005473ffffffffffffffffffffffffffffffffffffffff163314806104a0575060055473ffffffffffffffffffffffffffffffffffffffff1633145b61050b57604080517f08c379a000000000000000000000000000000000000000000000000000000000815260206004820152601d60248201527f4e6f74206f776e6572206f72204c4d20706f6f6c206465706c6f796572000000604482015290519081900360640190fd5b8173ffffffffffffffffffffffffffffffffffffffff1663cc7e7fa2826040518263ffffffff1660e01b8152600401808273ffffffffffffffffffffffffffffffffffffffff168152602001915050600060405180830381600087803b15801561057457600080fd5b505af1158015610588573d6000803e3d6000fd5b505050505050565b60005473ffffffffffffffffffffffffffffffffffffffff16331461061657604080517f08c379a000000000000000000000000000000000000000000000000000000000815260206004820152600960248201527f4e6f74206f776e65720000000000000000000000000000000000000000000000604482015290519081900360640190fd5b6000805460405173ffffffffffffffffffffffffffffffffffffffff808516939216917fb532073b38c83145e3e5135377a08bf9aab55bc0fd7c1179cd4fb995d2a5159c91a3600080547fffffffffffffffffffffffff00000000000000000000000000000000000000001673ffffffffffffffffffffffffffffffffffffffff92909216919091179055565b600260209081526000938452604080852082529284528284209052825290205473ffffffffffffffffffffffffffffffffffffffff1681565b60016020526000908152604090205460020b81565b7f000000000000000000000000000000000000000000000000000000000000000081565b60008054819073ffffffffffffffffffffffffffffffffffffffff16331461079e57604080517f08c379a000000000000000000000000000000000000000000000000000000000815260206004820152600960248201527f4e6f74206f776e65720000000000000000000000000000000000000000000000604482015290519081900360640190fd5b604080517f85b6672900000000000000000000000000000000000000000000000000000000815273ffffffffffffffffffffffffffffffffffffffff87811660048301526fffffffffffffffffffffffffffffffff8088166024840152861660448301528251908916926385b6672992606480820193918290030181600087803b15801561082b57600080fd5b505af115801561083f573d6000803e3d6000fd5b505050506040513d604081101561085557600080fd5b5080516020909101519097909650945050505050565b60055473ffffffffffffffffffffffffffffffffffffffff1681565b60005473ffffffffffffffffffffffffffffffffffffffff16331461090d57604080517f08c379a000000000000000000000000000000000000000000000000000000000815260206004820152600960248201527f4e6f74206f776e65720000000000000000000000000000000000000000000000604482015290519081900360640190fd5b604080517fb0d0d21100000000000000000000000000000000000000000000000000000000815263ffffffff808516600483015283166024820152905173ffffffffffffffffffffffffffffffffffffffff85169163b0d0d21191604480830192600092919082900301818387803b15801561098857600080fd5b505af115801561099c573d6000803e3d6000fd5b50505050505050565b60005473ffffffffffffffffffffffffffffffffffffffff163314610a2b57604080517f08c379a000000000000000000000000000000000000000000000000000000000815260206004820152600960248201527f4e6f74206f776e65720000000000000000000000000000000000000000000000604482015290519081900360640190fd5b600580547fffffffffffffffffffffffff00000000000000000000000000000000000000001673ffffffffffffffffffffffffffffffffffffffff83169081179091556040517f4c912280cda47bed324de14f601d3f125a98254671772f3f1f491e50fa0ca40790600090a250565b60036020526000908152604090205460ff8082169161010090041682565b60005473ffffffffffffffffffffffffffffffffffffffff163314610b3e57604080517f08c379a000000000000000000000000000000000000000000000000000000000815260206004820152600960248201527f4e6f74206f776e65720000000000000000000000000000000000000000000000604482015290519081900360640190fd5b620f42408262ffffff1610610b5257600080fd5b60008160020b138015610b6957506140008160020b125b610b7257600080fd5b62ffffff8216600090815260016020526040902054600290810b900b15610b9857600080fd5b62ffffff828116600081815260016020818152604080842080547fffffffffffffffffffffffffffffffffffffffffffffffffffffffffff00000016600289900b9788161790558051808201825284815280830193845285855260039092528084209151825493517fffffffffffffffffffffffffffffffffffffffffffffffffffffffffffffff00909416901515177fffffffffffffffffffffffffffffffffffffffffffffffffffffffffffff00ff1661010093151593909302929092179055517fc66a3fdf07232cdd185febcc6579d408c241b47ae2f9907d84be655141eeaecc9190a3604080516000815260016020820152815162ffffff8516927fed85b616dbfbc54d0f1180a7bd0f6e3bb645b269b234e7a9edcc269ef1443d88928290030190a25050565b60005473ffffffffffffffffffffffffffffffffffffffff1681565b60005473ffffffffffffffffffffffffffffffffffffffff163314610d6557604080517f08c379a000000000000000000000000000000000000000000000000000000000815260206004820152600960248201527f4e6f74206f776e65720000000000000000000000000000000000000000000000604482015290519081900360640190fd5b62ffffff8316600090815260016020526040902054600290810b900b610d8a57600080fd5b604080518082018252831515808252831515602080840182815262ffffff89166000818152600384528790209551865492511515610100027fffffffffffffffffffffffffffffffffffffffffffffffffffffffffffff00ff9115157fffffffffffffffffffffffffffffffffffffffffffffffffffffffffffffff009094169390931716919091179094558451928352820152825191927fed85b616dbfbc54d0f1180a7bd0f6e3bb645b269b234e7a9edcc269ef1443d8892918290030190a2505050565b60008273ffffffffffffffffffffffffffffffffffffffff168473ffffffffffffffffffffffffffffffffffffffff161415610e8b57600080fd5b6000808473ffffffffffffffffffffffffffffffffffffffff168673ffffffffffffffffffffffffffffffffffffffff1610610ec8578486610ecb565b85855b909250905073ffffffffffffffffffffffffffffffffffffffff8216610ef057600080fd5b62ffffff8416600090815260016020908152604080832054600383529281902081518083019092525460ff8082161515835261010090910416151591810191909152600291820b9182900b15801590610f4a575080602001515b610fb557604080517f08c379a000000000000000000000000000000000000000000000000000000000815260206004820152601860248201527f666565206973206e6f7420617661696c61626c65207965740000000000000000604482015290519081900360640190fd5b805115611024573360009081526004602052604090205460ff16611024576040517f08c379a00000000000000000000000000000000000000000000000000000000081526004018080602001828103825260328152602001806113e16032913960400191505060405180910390fd5b73ffffffffffffffffffffffffffffffffffffffff84811660009081526002602090815260408083208785168452825280832062ffffff8b168452909152902054161561107057600080fd5b604080517ffad5359f00000000000000000000000000000000000000000000000000000000815230600482015273ffffffffffffffffffffffffffffffffffffffff8681166024830152858116604483015262ffffff89166064830152600285900b608483015291517f00000000000000000000000000000000000000000000000000000000000000009092169163fad5359f9160a4808201926020929091908290030181600087803b15801561112657600080fd5b505af115801561113a573d6000803e3d6000fd5b505050506040513d602081101561115057600080fd5b505173ffffffffffffffffffffffffffffffffffffffff80861660008181526002602081815260408084208a871680865290835281852062ffffff8f168087529084528286208054988a167fffffffffffffffffffffffff0000000000000000000000000000000000000000998a1681179091558287528585528387208888528552838720828852855295839020805490981686179097558151938a900b8452918301939093528251959a5093947f783cca1c0412dd0d695e784568c96da2e9c22ff989357a2e8b1d9b2b4e6b7118929181900390910190a4505050509392505050565b60005473ffffffffffffffffffffffffffffffffffffffff1633146112ba57604080517f08c379a000000000000000000000000000000000000000000000000000000000815260206004820152600960248201527f4e6f74206f776e65720000000000000000000000000000000000000000000000604482015290519081900360640190fd5b73ffffffffffffffffffffffffffffffffffffffff821660009081526004602052604090205460ff161515811515141561135557604080517f08c379a000000000000000000000000000000000000000000000000000000000815260206004820152601060248201527f7374617465206e6f74206368616e676500000000000000000000000000000000604482015290519081900360640190fd5b73ffffffffffffffffffffffffffffffffffffffff821660008181526004602090815260409182902080547fffffffffffffffffffffffffffffffffffffffffffffffffffffffffffffff0016851515908117909155825190815291517faec42ac7f1bb8651906ae6522f50a19429e124e8ea678ef59fd27750759288a29281900390910190a2505056fe757365722073686f756c6420626520696e20746865207768697465206c69737420666f722074686973206665652074696572a164736f6c6343000706000ac66a3fdf07232cdd185febcc6579d408c241b47ae2f9907d84be655141eeaecced85b616dbfbc54d0f1180a7bd0f6e3bb645b269b234e7a9edcc269ef1443d88",
  "linkReferences": {},
  "deployedLinkReferences": {}
}