{
  "_format": "hh-sol-artifact-1",
  "contractName": "VECake",
  "sourceName": "contracts/VECake.sol",
  "abi": [
    {
      "inputs": [
        {
          "internalType": "contract ICakePool",
          "name": "_cakePool",
          "type": "address"
        },
        {
          "internalType": "contract IERC20",
          "name": "_token",
          "type": "address"
        },
        {
          "internalType": "contract IProxyForCakePoolFactory",
          "name": "_ProxyForCakePoolFactory",
          "type": "address"
        }
      ],
      "stateMutability": "nonpayable",
      "type": "constructor"
    },
    {
      "anonymous": false,
      "inputs": [
        {
          "indexed": true,
          "internalType": "address",
          "name": "user",
          "type": "address"
        },
        {
          "indexed": true,
          "internalType": "address",
          "name": "delegator",
          "type": "address"
        },
        {
          "indexed": false,
          "internalType": "uint256",
          "name": "amount",
          "type": "uint256"
        },
        {
          "indexed": false,
          "internalType": "uint256",
          "name": "endTime",
          "type": "uint256"
        }
      ],
      "name": "DelegateFromCakePool",
      "type": "event"
    },
    {
      "anonymous": false,
      "inputs": [
        {
          "indexed": true,
          "internalType": "address",
          "name": "locker",
          "type": "address"
        },
        {
          "indexed": false,
          "internalType": "uint256",
          "name": "value",
          "type": "uint256"
        },
        {
          "indexed": true,
          "internalType": "uint256",
          "name": "lockTime",
          "type": "uint256"
        },
        {
          "indexed": false,
          "internalType": "uint256",
          "name": "lockType",
          "type": "uint256"
        },
        {
          "indexed": false,
          "internalType": "uint256",
          "name": "timestamp",
          "type": "uint256"
        }
      ],
      "name": "Deposit",
      "type": "event"
    },
    {
      "anonymous": false,
      "inputs": [
        {
          "indexed": true,
          "internalType": "address",
          "name": "locker",
          "type": "address"
        },
        {
          "indexed": true,
          "internalType": "address",
          "name": "to",
          "type": "address"
        },
        {
          "indexed": false,
          "internalType": "uint256",
          "name": "value",
          "type": "uint256"
        },
        {
          "indexed": false,
          "internalType": "uint256",
          "name": "penalty",
          "type": "uint256"
        },
        {
          "indexed": false,
          "internalType": "uint256",
          "name": "timestamp",
          "type": "uint256"
        }
      ],
      "name": "EarlyWithdraw",
      "type": "event"
    },
    {
      "anonymous": false,
      "inputs": [
        {
          "indexed": true,
          "internalType": "address",
          "name": "user",
          "type": "address"
        },
        {
          "indexed": false,
          "internalType": "uint256",
          "name": "amount",
          "type": "uint256"
        }
      ],
      "name": "EmergencyWithdraw",
      "type": "event"
    },
    {
      "anonymous": false,
      "inputs": [
        {
          "indexed": true,
          "internalType": "address",
          "name": "user",
          "type": "address"
        },
        {
          "indexed": true,
          "internalType": "address",
          "name": "delegator",
          "type": "address"
        },
        {
          "indexed": false,
          "internalType": "uint256",
          "name": "amount",
          "type": "uint256"
        }
      ],
      "name": "InjectToDelegator",
      "type": "event"
    },
    {
      "anonymous": false,
      "inputs": [
        {
          "indexed": true,
          "internalType": "address",
          "name": "user",
          "type": "address"
        },
        {
          "indexed": true,
          "internalType": "address",
          "name": "proxy",
          "type": "address"
        },
        {
          "indexed": false,
          "internalType": "uint256",
          "name": "amount",
          "type": "uint256"
        },
        {
          "indexed": false,
          "internalType": "uint256",
          "name": "endTime",
          "type": "uint256"
        }
      ],
      "name": "MigrateFromCakePool",
      "type": "event"
    },
    {
      "anonymous": false,
      "inputs": [
        {
          "indexed": true,
          "internalType": "address",
          "name": "user",
          "type": "address"
        },
        {
          "indexed": true,
          "internalType": "address",
          "name": "delegator",
          "type": "address"
        },
        {
          "indexed": false,
          "internalType": "uint256",
          "name": "amount",
          "type": "uint256"
        },
        {
          "indexed": false,
          "internalType": "uint256",
          "name": "endTime",
          "type": "uint256"
        }
      ],
      "name": "MigrationConvertToDelegation",
      "type": "event"
    },
    {
      "anonymous": false,
      "inputs": [
        {
          "indexed": true,
          "internalType": "address",
          "name": "farmBooster",
          "type": "address"
        }
      ],
      "name": "NewFarmBooster",
      "type": "event"
    },
    {
      "anonymous": false,
      "inputs": [
        {
          "indexed": true,
          "internalType": "address",
          "name": "previousOwner",
          "type": "address"
        },
        {
          "indexed": true,
          "internalType": "address",
          "name": "newOwner",
          "type": "address"
        }
      ],
      "name": "OwnershipTransferred",
      "type": "event"
    },
    {
      "anonymous": false,
      "inputs": [
        {
          "indexed": true,
          "internalType": "address",
          "name": "caller",
          "type": "address"
        },
        {
          "indexed": false,
          "internalType": "address",
          "name": "destination",
          "type": "address"
        },
        {
          "indexed": false,
          "internalType": "uint256",
          "name": "amount",
          "type": "uint256"
        }
      ],
      "name": "Redistribute",
      "type": "event"
    },
    {
      "anonymous": false,
      "inputs": [
        {
          "indexed": false,
          "internalType": "uint256",
          "name": "previousBreaker",
          "type": "uint256"
        },
        {
          "indexed": false,
          "internalType": "uint256",
          "name": "breaker",
          "type": "uint256"
        }
      ],
      "name": "SetBreaker",
      "type": "event"
    },
    {
      "anonymous": false,
      "inputs": [
        {
          "indexed": true,
          "internalType": "address",
          "name": "caller",
          "type": "address"
        },
        {
          "indexed": false,
          "internalType": "uint64",
          "name": "oldEarlyWithdrawFeeBps",
          "type": "uint64"
        },
        {
          "indexed": false,
          "internalType": "uint64",
          "name": "newEarlyWithdrawFeeBps",
          "type": "uint64"
        },
        {
          "indexed": false,
          "internalType": "uint64",
          "name": "oldRedistributeBps",
          "type": "uint64"
        },
        {
          "indexed": false,
          "internalType": "uint64",
          "name": "newRedistribiteBps",
          "type": "uint64"
        },
        {
          "indexed": false,
          "internalType": "address",
          "name": "oldTreasuryAddr",
          "type": "address"
        },
        {
          "indexed": false,
          "internalType": "address",
          "name": "newTreasuryAddr",
          "type": "address"
        },
        {
          "indexed": false,
          "internalType": "address",
          "name": "oldRedistributeAddr",
          "type": "address"
        },
        {
          "indexed": false,
          "internalType": "address",
          "name": "newRedistributeAddr",
          "type": "address"
        }
      ],
      "name": "SetEarlyWithdrawConfig",
      "type": "event"
    },
    {
      "anonymous": false,
      "inputs": [
        {
          "indexed": true,
          "internalType": "address",
          "name": "user",
          "type": "address"
        },
        {
          "indexed": false,
          "internalType": "bool",
          "name": "newValue",
          "type": "bool"
        }
      ],
      "name": "SetEarlyWithdrawSwitch",
      "type": "event"
    },
    {
      "anonymous": false,
      "inputs": [
        {
          "indexed": true,
          "internalType": "address",
          "name": "user",
          "type": "address"
        },
        {
          "indexed": false,
          "internalType": "bool",
          "name": "newValue",
          "type": "bool"
        }
      ],
      "name": "SetEmergencyWithdrawSwitch",
      "type": "event"
    },
    {
      "anonymous": false,
      "inputs": [
        {
          "indexed": true,
          "internalType": "address",
          "name": "user",
          "type": "address"
        },
        {
          "indexed": false,
          "internalType": "uint256",
          "name": "newValue",
          "type": "uint256"
        }
      ],
      "name": "SetLimitTimeOfConvert",
      "type": "event"
    },
    {
      "anonymous": false,
      "inputs": [
        {
          "indexed": true,
          "internalType": "address",
          "name": "owner",
          "type": "address"
        },
        {
          "indexed": true,
          "internalType": "address",
          "name": "user",
          "type": "address"
        },
        {
          "indexed": true,
          "internalType": "bool",
          "name": "newValue",
          "type": "bool"
        }
      ],
      "name": "SetNoPenaltyForEarlyWithdraw",
      "type": "event"
    },
    {
      "anonymous": false,
      "inputs": [
        {
          "indexed": true,
          "internalType": "address",
          "name": "caller",
          "type": "address"
        },
        {
          "indexed": true,
          "internalType": "address",
          "name": "addr",
          "type": "address"
        },
        {
          "indexed": false,
          "internalType": "bool",
          "name": "ok",
          "type": "bool"
        }
      ],
      "name": "SetWhitelistedCaller",
      "type": "event"
    },
    {
      "anonymous": false,
      "inputs": [
        {
          "indexed": true,
          "internalType": "address",
          "name": "caller",
          "type": "address"
        },
        {
          "indexed": true,
          "internalType": "address",
          "name": "addr",
          "type": "address"
        },
        {
          "indexed": false,
          "internalType": "bool",
          "name": "ok",
          "type": "bool"
        }
      ],
      "name": "SetWhitelistedRedistributors",
      "type": "event"
    },
    {
      "anonymous": false,
      "inputs": [
        {
          "indexed": false,
          "internalType": "uint256",
          "name": "previousSupply",
          "type": "uint256"
        },
        {
          "indexed": false,
          "internalType": "uint256",
          "name": "supply",
          "type": "uint256"
        }
      ],
      "name": "Supply",
      "type": "event"
    },
    {
      "anonymous": false,
      "inputs": [
        {
          "indexed": true,
          "internalType": "address",
          "name": "delegator",
          "type": "address"
        },
        {
          "indexed": false,
          "internalType": "bool",
          "name": "isDelegator",
          "type": "bool"
        },
        {
          "indexed": false,
          "internalType": "uint40",
          "name": "limitTimestampForEarlyWithdraw",
          "type": "uint40"
        }
      ],
      "name": "UpdateDelegator",
      "type": "event"
    },
    {
      "anonymous": false,
      "inputs": [
        {
          "indexed": true,
          "internalType": "address",
          "name": "locker",
          "type": "address"
        },
        {
          "indexed": true,
          "internalType": "address",
          "name": "to",
          "type": "address"
        },
        {
          "indexed": false,
          "internalType": "uint256",
          "name": "value",
          "type": "uint256"
        },
        {
          "indexed": false,
          "internalType": "uint256",
          "name": "timestamp",
          "type": "uint256"
        }
      ],
      "name": "WithdrawAll",
      "type": "event"
    },
    {
      "inputs": [],
      "name": "ACTION_CREATE_LOCK",
      "outputs": [
        {
          "internalType": "uint256",
          "name": "",
          "type": "uint256"
        }
      ],
      "stateMutability": "view",
      "type": "function"
    },
    {
      "inputs": [],
      "name": "ACTION_DEPOSIT_FOR",
      "outputs": [
        {
          "internalType": "uint256",
          "name": "",
          "type": "uint256"
        }
      ],
      "stateMutability": "view",
      "type": "function"
    },
    {
      "inputs": [],
      "name": "ACTION_INCREASE_LOCK_AMOUNT",
      "outputs": [
        {
          "internalType": "uint256",
          "name": "",
          "type": "uint256"
        }
      ],
      "stateMutability": "view",
      "type": "function"
    },
    {
      "inputs": [],
      "name": "ACTION_INCREASE_UNLOCK_TIME",
      "outputs": [
        {
          "internalType": "uint256",
          "name": "",
          "type": "uint256"
        }
      ],
      "stateMutability": "view",
      "type": "function"
    },
    {
      "inputs": [],
      "name": "CakePool",
      "outputs": [
        {
          "internalType": "contract ICakePool",
          "name": "",
          "type": "address"
        }
      ],
      "stateMutability": "view",
      "type": "function"
    },
    {
      "inputs": [],
      "name": "DELEGATION_FROM_CAKE_POOL_FLAG",
      "outputs": [
        {
          "internalType": "uint16",
          "name": "",
          "type": "uint16"
        }
      ],
      "stateMutability": "view",
      "type": "function"
    },
    {
      "inputs": [],
      "name": "DELEGATOR_FLAG",
      "outputs": [
        {
          "internalType": "uint8",
          "name": "",
          "type": "uint8"
        }
      ],
      "stateMutability": "view",
      "type": "function"
    },
    {
      "inputs": [],
      "name": "FarmBooster",
      "outputs": [
        {
          "internalType": "contract IFarmBooster",
          "name": "",
          "type": "address"
        }
      ],
      "stateMutability": "view",
      "type": "function"
    },
    {
      "inputs": [],
      "name": "MAX_LOCK",
      "outputs": [
        {
          "internalType": "uint256",
          "name": "",
          "type": "uint256"
        }
      ],
      "stateMutability": "view",
      "type": "function"
    },
    {
      "inputs": [],
      "name": "MIGRATION_FROM_CAKE_POOL_FLAG",
      "outputs": [
        {
          "internalType": "uint16",
          "name": "",
          "type": "uint16"
        }
      ],
      "stateMutability": "view",
      "type": "function"
    },
    {
      "inputs": [],
      "name": "MULTIPLIER",
      "outputs": [
        {
          "internalType": "uint256",
          "name": "",
          "type": "uint256"
        }
      ],
      "stateMutability": "view",
      "type": "function"
    },
    {
      "inputs": [],
      "name": "NOT_DELEGATOR_FLAG",
      "outputs": [
        {
          "internalType": "uint8",
          "name": "",
          "type": "uint8"
        }
      ],
      "stateMutability": "view",
      "type": "function"
    },
    {
      "inputs": [],
      "name": "NOT_WITHDRAW_FLAG",
      "outputs": [
        {
          "internalType": "uint16",
          "name": "",
          "type": "uint16"
        }
      ],
      "stateMutability": "view",
      "type": "function"
    },
    {
      "inputs": [],
      "name": "ProxyForCakePoolFactory",
      "outputs": [
        {
          "internalType": "contract IProxyForCakePoolFactory",
          "name": "",
          "type": "address"
        }
      ],
      "stateMutability": "view",
      "type": "function"
    },
    {
      "inputs": [],
      "name": "WEEK",
      "outputs": [
        {
          "internalType": "uint256",
          "name": "",
          "type": "uint256"
        }
      ],
      "stateMutability": "view",
      "type": "function"
    },
    {
      "inputs": [],
      "name": "WITHDREW_FLAG",
      "outputs": [
        {
          "internalType": "uint16",
          "name": "",
          "type": "uint16"
        }
      ],
      "stateMutability": "view",
      "type": "function"
    },
    {
      "inputs": [],
      "name": "accumRedistribute",
      "outputs": [
        {
          "internalType": "uint256",
          "name": "",
          "type": "uint256"
        }
      ],
      "stateMutability": "view",
      "type": "function"
    },
    {
      "inputs": [
        {
          "internalType": "address",
          "name": "_user",
          "type": "address"
        }
      ],
      "name": "balanceOf",
      "outputs": [
        {
          "internalType": "uint256",
          "name": "",
          "type": "uint256"
        }
      ],
      "stateMutability": "view",
      "type": "function"
    },
    {
      "inputs": [
        {
          "internalType": "address",
          "name": "_user",
          "type": "address"
        },
        {
          "internalType": "uint256",
          "name": "_blockNumber",
          "type": "uint256"
        }
      ],
      "name": "balanceOfAt",
      "outputs": [
        {
          "internalType": "uint256",
          "name": "",
          "type": "uint256"
        }
      ],
      "stateMutability": "view",
      "type": "function"
    },
    {
      "inputs": [
        {
          "internalType": "address",
          "name": "_user",
          "type": "address"
        },
        {
          "internalType": "uint256",
          "name": "_blockNumber",
          "type": "uint256"
        }
      ],
      "name": "balanceOfAtForProxy",
      "outputs": [
        {
          "internalType": "uint256",
          "name": "",
          "type": "uint256"
        }
      ],
      "stateMutability": "view",
      "type": "function"
    },
    {
      "inputs": [
        {
          "internalType": "address",
          "name": "_user",
          "type": "address"
        },
        {
          "internalType": "uint256",
          "name": "_blockNumber",
          "type": "uint256"
        }
      ],
      "name": "balanceOfAtUser",
      "outputs": [
        {
          "internalType": "uint256",
          "name": "",
          "type": "uint256"
        }
      ],
      "stateMutability": "view",
      "type": "function"
    },
    {
      "inputs": [
        {
          "internalType": "address",
          "name": "_user",
          "type": "address"
        }
      ],
      "name": "balanceOfForProxy",
      "outputs": [
        {
          "internalType": "uint256",
          "name": "",
          "type": "uint256"
        }
      ],
      "stateMutability": "view",
      "type": "function"
    },
    {
      "inputs": [
        {
          "internalType": "address",
          "name": "_user",
          "type": "address"
        }
      ],
      "name": "balanceOfUser",
      "outputs": [
        {
          "internalType": "uint256",
          "name": "",
          "type": "uint256"
        }
      ],
      "stateMutability": "view",
      "type": "function"
    },
    {
      "inputs": [],
      "name": "breaker",
      "outputs": [
        {
          "internalType": "uint256",
          "name": "",
          "type": "uint256"
        }
      ],
      "stateMutability": "view",
      "type": "function"
    },
    {
      "inputs": [],
      "name": "checkpoint",
      "outputs": [],
      "stateMutability": "nonpayable",
      "type": "function"
    },
    {
      "inputs": [
        {
          "internalType": "uint256",
          "name": "_amount",
          "type": "uint256"
        },
        {
          "internalType": "uint256",
          "name": "_unlockTime",
          "type": "uint256"
        }
      ],
      "name": "createLock",
      "outputs": [],
      "stateMutability": "nonpayable",
      "type": "function"
    },
    {
      "inputs": [
        {
          "internalType": "uint256",
          "name": "_amount",
          "type": "uint256"
        },
        {
          "internalType": "uint256",
          "name": "_unlockTime",
          "type": "uint256"
        }
      ],
      "name": "createLockForProxy",
      "outputs": [],
      "stateMutability": "nonpayable",
      "type": "function"
    },
    {
      "inputs": [],
      "name": "decimals",
      "outputs": [
        {
          "internalType": "uint8",
          "name": "",
          "type": "uint8"
        }
      ],
      "stateMutability": "view",
      "type": "function"
    },
    {
      "inputs": [
        {
          "internalType": "address",
          "name": "_delegator",
          "type": "address"
        }
      ],
      "name": "delegateFromCakePool",
      "outputs": [],
      "stateMutability": "nonpayable",
      "type": "function"
    },
    {
      "inputs": [
        {
          "internalType": "address",
          "name": "",
          "type": "address"
        }
      ],
      "name": "delegator",
      "outputs": [
        {
          "internalType": "uint104",
          "name": "delegatedCakeAmount",
          "type": "uint104"
        },
        {
          "internalType": "uint104",
          "name": "notInjectedCakeAmount",
          "type": "uint104"
        },
        {
          "internalType": "uint40",
          "name": "limitTimestampForEarlyWithdraw",
          "type": "uint40"
        },
        {
          "internalType": "uint8",
          "name": "isDelegator",
          "type": "uint8"
        }
      ],
      "stateMutability": "view",
      "type": "function"
    },
    {
      "inputs": [
        {
          "internalType": "address",
          "name": "_user",
          "type": "address"
        },
        {
          "internalType": "uint256",
          "name": "_amount",
          "type": "uint256"
        },
        {
          "internalType": "uint256",
          "name": "_lockDuration",
          "type": "uint256"
        }
      ],
      "name": "deposit",
      "outputs": [],
      "stateMutability": "nonpayable",
      "type": "function"
    },
    {
      "inputs": [
        {
          "internalType": "address",
          "name": "_for",
          "type": "address"
        },
        {
          "internalType": "uint256",
          "name": "_amount",
          "type": "uint256"
        }
      ],
      "name": "depositFor",
      "outputs": [],
      "stateMutability": "nonpayable",
      "type": "function"
    },
    {
      "inputs": [
        {
          "internalType": "address",
          "name": "_to",
          "type": "address"
        },
        {
          "internalType": "uint256",
          "name": "_amount",
          "type": "uint256"
        }
      ],
      "name": "earlyWithdraw",
      "outputs": [],
      "stateMutability": "nonpayable",
      "type": "function"
    },
    {
      "inputs": [],
      "name": "earlyWithdrawBpsPerWeek",
      "outputs": [
        {
          "internalType": "uint64",
          "name": "",
          "type": "uint64"
        }
      ],
      "stateMutability": "view",
      "type": "function"
    },
    {
      "inputs": [],
      "name": "earlyWithdrawSwitch",
      "outputs": [
        {
          "internalType": "bool",
          "name": "",
          "type": "bool"
        }
      ],
      "stateMutability": "view",
      "type": "function"
    },
    {
      "inputs": [],
      "name": "emergencyWithdraw",
      "outputs": [],
      "stateMutability": "nonpayable",
      "type": "function"
    },
    {
      "inputs": [],
      "name": "emergencyWithdrawSwitch",
      "outputs": [
        {
          "internalType": "bool",
          "name": "",
          "type": "bool"
        }
      ],
      "stateMutability": "view",
      "type": "function"
    },
    {
      "inputs": [],
      "name": "epoch",
      "outputs": [
        {
          "internalType": "uint256",
          "name": "",
          "type": "uint256"
        }
      ],
      "stateMutability": "view",
      "type": "function"
    },
    {
      "inputs": [
        {
          "internalType": "address",
          "name": "",
          "type": "address"
        }
      ],
      "name": "everEmergencyWithdraw",
      "outputs": [
        {
          "internalType": "bool",
          "name": "",
          "type": "bool"
        }
      ],
      "stateMutability": "view",
      "type": "function"
    },
    {
      "inputs": [
        {
          "internalType": "address",
          "name": "_user",
          "type": "address"
        }
      ],
      "name": "getUserInfo",
      "outputs": [
        {
          "internalType": "int128",
          "name": "amount",
          "type": "int128"
        },
        {
          "internalType": "uint256",
          "name": "end",
          "type": "uint256"
        },
        {
          "internalType": "address",
          "name": "cakePoolProxy",
          "type": "address"
        },
        {
          "internalType": "uint128",
          "name": "cakeAmount",
          "type": "uint128"
        },
        {
          "internalType": "uint48",
          "name": "lockEndTime",
          "type": "uint48"
        },
        {
          "internalType": "uint48",
          "name": "migrationTime",
          "type": "uint48"
        },
        {
          "internalType": "uint16",
          "name": "cakePoolType",
          "type": "uint16"
        },
        {
          "internalType": "uint16",
          "name": "withdrawFlag",
          "type": "uint16"
        }
      ],
      "stateMutability": "view",
      "type": "function"
    },
    {
      "inputs": [
        {
          "internalType": "uint256",
          "name": "_amount",
          "type": "uint256"
        }
      ],
      "name": "increaseLockAmount",
      "outputs": [],
      "stateMutability": "nonpayable",
      "type": "function"
    },
    {
      "inputs": [
        {
          "internalType": "uint256",
          "name": "_newUnlockTime",
          "type": "uint256"
        }
      ],
      "name": "increaseUnlockTime",
      "outputs": [],
      "stateMutability": "nonpayable",
      "type": "function"
    },
    {
      "inputs": [],
      "name": "initialization",
      "outputs": [
        {
          "internalType": "bool",
          "name": "",
          "type": "bool"
        }
      ],
      "stateMutability": "view",
      "type": "function"
    },
    {
      "inputs": [],
      "name": "initializeCakePoolMigration",
      "outputs": [],
      "stateMutability": "nonpayable",
      "type": "function"
    },
    {
      "inputs": [
        {
          "internalType": "address",
          "name": "_delegator",
          "type": "address"
        },
        {
          "internalType": "uint256",
          "name": "_amount",
          "type": "uint256"
        }
      ],
      "name": "injectToDelegator",
      "outputs": [],
      "stateMutability": "nonpayable",
      "type": "function"
    },
    {
      "inputs": [
        {
          "internalType": "address",
          "name": "",
          "type": "address"
        }
      ],
      "name": "isCakePoolProxy",
      "outputs": [
        {
          "internalType": "bool",
          "name": "",
          "type": "bool"
        }
      ],
      "stateMutability": "view",
      "type": "function"
    },
    {
      "inputs": [],
      "name": "limitTimeOfConvert",
      "outputs": [
        {
          "internalType": "uint256",
          "name": "",
          "type": "uint256"
        }
      ],
      "stateMutability": "view",
      "type": "function"
    },
    {
      "inputs": [
        {
          "internalType": "address",
          "name": "",
          "type": "address"
        }
      ],
      "name": "locks",
      "outputs": [
        {
          "internalType": "int128",
          "name": "amount",
          "type": "int128"
        },
        {
          "internalType": "uint256",
          "name": "end",
          "type": "uint256"
        }
      ],
      "stateMutability": "view",
      "type": "function"
    },
    {
      "inputs": [],
      "name": "migrateFromCakePool",
      "outputs": [],
      "stateMutability": "nonpayable",
      "type": "function"
    },
    {
      "inputs": [
        {
          "internalType": "address",
          "name": "_delegator",
          "type": "address"
        }
      ],
      "name": "migrationConvertToDelegation",
      "outputs": [],
      "stateMutability": "nonpayable",
      "type": "function"
    },
    {
      "inputs": [],
      "name": "name",
      "outputs": [
        {
          "internalType": "string",
          "name": "",
          "type": "string"
        }
      ],
      "stateMutability": "view",
      "type": "function"
    },
    {
      "inputs": [
        {
          "internalType": "address",
          "name": "",
          "type": "address"
        }
      ],
      "name": "noPenaltyForEarlyWithdraw",
      "outputs": [
        {
          "internalType": "bool",
          "name": "",
          "type": "bool"
        }
      ],
      "stateMutability": "view",
      "type": "function"
    },
    {
      "inputs": [],
      "name": "owner",
      "outputs": [
        {
          "internalType": "address",
          "name": "",
          "type": "address"
        }
      ],
      "stateMutability": "view",
      "type": "function"
    },
    {
      "inputs": [
        {
          "internalType": "uint256",
          "name": "",
          "type": "uint256"
        }
      ],
      "name": "pointHistory",
      "outputs": [
        {
          "internalType": "int128",
          "name": "bias",
          "type": "int128"
        },
        {
          "internalType": "int128",
          "name": "slope",
          "type": "int128"
        },
        {
          "internalType": "uint256",
          "name": "timestamp",
          "type": "uint256"
        },
        {
          "internalType": "uint256",
          "name": "blockNumber",
          "type": "uint256"
        }
      ],
      "stateMutability": "view",
      "type": "function"
    },
    {
      "inputs": [],
      "name": "redistribute",
      "outputs": [],
      "stateMutability": "nonpayable",
      "type": "function"
    },
    {
      "inputs": [],
      "name": "redistributeAddr",
      "outputs": [
        {
          "internalType": "address",
          "name": "",
          "type": "address"
        }
      ],
      "stateMutability": "view",
      "type": "function"
    },
    {
      "inputs": [],
      "name": "redistributeBps",
      "outputs": [
        {
          "internalType": "uint64",
          "name": "",
          "type": "uint64"
        }
      ],
      "stateMutability": "view",
      "type": "function"
    },
    {
      "inputs": [],
      "name": "renounceOwnership",
      "outputs": [],
      "stateMutability": "nonpayable",
      "type": "function"
    },
    {
      "inputs": [
        {
          "internalType": "uint256",
          "name": "_breaker",
          "type": "uint256"
        }
      ],
      "name": "setBreaker",
      "outputs": [],
      "stateMutability": "nonpayable",
      "type": "function"
    },
    {
      "inputs": [
        {
          "internalType": "uint64",
          "name": "_newEarlyWithdrawBpsPerWeek",
          "type": "uint64"
        },
        {
          "internalType": "uint64",
          "name": "_newRedistributeBps",
          "type": "uint64"
        },
        {
          "internalType": "address",
          "name": "_newTreasuryAddr",
          "type": "address"
        },
        {
          "internalType": "address",
          "name": "_newRedistributeAddr",
          "type": "address"
        }
      ],
      "name": "setEarlyWithdrawConfig",
      "outputs": [],
      "stateMutability": "nonpayable",
      "type": "function"
    },
    {
      "inputs": [
        {
          "internalType": "bool",
          "name": "_earlyWithdrawSwitch",
          "type": "bool"
        }
      ],
      "name": "setEarlyWithdrawSwitch",
      "outputs": [],
      "stateMutability": "nonpayable",
      "type": "function"
    },
    {
      "inputs": [
        {
          "internalType": "bool",
          "name": "_emergencyWithdrawSwitch",
          "type": "bool"
        }
      ],
      "name": "setEmergencyWithdrawSwitch",
      "outputs": [],
      "stateMutability": "nonpayable",
      "type": "function"
    },
    {
      "inputs": [
        {
          "internalType": "address",
          "name": "_farmBooster",
          "type": "address"
        }
      ],
      "name": "setFarmBooster",
      "outputs": [],
      "stateMutability": "nonpayable",
      "type": "function"
    },
    {
      "inputs": [
        {
          "internalType": "uint256",
          "name": "_limitTime",
          "type": "uint256"
        }
      ],
      "name": "setLimitTimeOfConvert",
      "outputs": [],
      "stateMutability": "nonpayable",
      "type": "function"
    },
    {
      "inputs": [
        {
          "internalType": "address",
          "name": "_user",
          "type": "address"
        },
        {
          "internalType": "bool",
          "name": "_status",
          "type": "bool"
        }
      ],
      "name": "setNoPenaltyForEarlyWithdraw",
      "outputs": [],
      "stateMutability": "nonpayable",
      "type": "function"
    },
    {
      "inputs": [
        {
          "internalType": "address[]",
          "name": "callers",
          "type": "address[]"
        },
        {
          "internalType": "bool",
          "name": "ok",
          "type": "bool"
        }
      ],
      "name": "setWhitelistedCallers",
      "outputs": [],
      "stateMutability": "nonpayable",
      "type": "function"
    },
    {
      "inputs": [
        {
          "internalType": "address[]",
          "name": "callers",
          "type": "address[]"
        },
        {
          "internalType": "bool",
          "name": "ok",
          "type": "bool"
        }
      ],
      "name": "setWhitelistedRedistributors",
      "outputs": [],
      "stateMutability": "nonpayable",
      "type": "function"
    },
    {
      "inputs": [
        {
          "internalType": "uint256",
          "name": "",
          "type": "uint256"
        }
      ],
      "name": "slopeChanges",
      "outputs": [
        {
          "internalType": "int128",
          "name": "",
          "type": "int128"
        }
      ],
      "stateMutability": "view",
      "type": "function"
    },
    {
      "inputs": [],
      "name": "supply",
      "outputs": [
        {
          "internalType": "uint256",
          "name": "",
          "type": "uint256"
        }
      ],
      "stateMutability": "view",
      "type": "function"
    },
    {
      "inputs": [],
      "name": "symbol",
      "outputs": [
        {
          "internalType": "string",
          "name": "",
          "type": "string"
        }
      ],
      "stateMutability": "view",
      "type": "function"
    },
    {
      "inputs": [],
      "name": "token",
      "outputs": [
        {
          "internalType": "contract IERC20",
          "name": "",
          "type": "address"
        }
      ],
      "stateMutability": "view",
      "type": "function"
    },
    {
      "inputs": [],
      "name": "totalSupply",
      "outputs": [
        {
          "internalType": "uint256",
          "name": "",
          "type": "uint256"
        }
      ],
      "stateMutability": "view",
      "type": "function"
    },
    {
      "inputs": [
        {
          "internalType": "uint256",
          "name": "_blockNumber",
          "type": "uint256"
        }
      ],
      "name": "totalSupplyAt",
      "outputs": [
        {
          "internalType": "uint256",
          "name": "",
          "type": "uint256"
        }
      ],
      "stateMutability": "view",
      "type": "function"
    },
    {
      "inputs": [
        {
          "internalType": "address",
          "name": "newOwner",
          "type": "address"
        }
      ],
      "name": "transferOwnership",
      "outputs": [],
      "stateMutability": "nonpayable",
      "type": "function"
    },
    {
      "inputs": [],
      "name": "treasuryAddr",
      "outputs": [
        {
          "internalType": "address",
          "name": "",
          "type": "address"
        }
      ],
      "stateMutability": "view",
      "type": "function"
    },
    {
      "inputs": [
        {
          "internalType": "address",
          "name": "_delegator",
          "type": "address"
        },
        {
          "internalType": "bool",
          "name": "_isDelegator",
          "type": "bool"
        },
        {
          "internalType": "uint40",
          "name": "_limitTimestampForEarlyWithdraw",
          "type": "uint40"
        }
      ],
      "name": "updateDelegator",
      "outputs": [],
      "stateMutability": "nonpayable",
      "type": "function"
    },
    {
      "inputs": [
        {
          "internalType": "address",
          "name": "",
          "type": "address"
        }
      ],
      "name": "userInfo",
      "outputs": [
        {
          "internalType": "address",
          "name": "cakePoolProxy",
          "type": "address"
        },
        {
          "internalType": "uint128",
          "name": "cakeAmount",
          "type": "uint128"
        },
        {
          "internalType": "uint48",
          "name": "lockEndTime",
          "type": "uint48"
        },
        {
          "internalType": "uint48",
          "name": "migrationTime",
          "type": "uint48"
        },
        {
          "internalType": "uint16",
          "name": "cakePoolType",
          "type": "uint16"
        },
        {
          "internalType": "uint16",
          "name": "withdrawFlag",
          "type": "uint16"
        }
      ],
      "stateMutability": "view",
      "type": "function"
    },
    {
      "inputs": [
        {
          "internalType": "address",
          "name": "",
          "type": "address"
        }
      ],
      "name": "userPointEpoch",
      "outputs": [
        {
          "internalType": "uint256",
          "name": "",
          "type": "uint256"
        }
      ],
      "stateMutability": "view",
      "type": "function"
    },
    {
      "inputs": [
        {
          "internalType": "address",
          "name": "",
          "type": "address"
        },
        {
          "internalType": "uint256",
          "name": "",
          "type": "uint256"
        }
      ],
      "name": "userPointHistory",
      "outputs": [
        {
          "internalType": "int128",
          "name": "bias",
          "type": "int128"
        },
        {
          "internalType": "int128",
          "name": "slope",
          "type": "int128"
        },
        {
          "internalType": "uint256",
          "name": "timestamp",
          "type": "uint256"
        },
        {
          "internalType": "uint256",
          "name": "blockNumber",
          "type": "uint256"
        }
      ],
      "stateMutability": "view",
      "type": "function"
    },
    {
      "inputs": [
        {
          "internalType": "address",
          "name": "",
          "type": "address"
        }
      ],
      "name": "whitelistedCallers",
      "outputs": [
        {
          "internalType": "bool",
          "name": "",
          "type": "bool"
        }
      ],
      "stateMutability": "view",
      "type": "function"
    },
    {
      "inputs": [
        {
          "internalType": "address",
          "name": "",
          "type": "address"
        }
      ],
      "name": "whitelistedRedistributors",
      "outputs": [
        {
          "internalType": "bool",
          "name": "",
          "type": "bool"
        }
      ],
      "stateMutability": "view",
      "type": "function"
    },
    {
      "inputs": [
        {
          "internalType": "address",
          "name": "_user",
          "type": "address"
        }
      ],
      "name": "withdraw",
      "outputs": [],
      "stateMutability": "nonpayable",
      "type": "function"
    },
    {
      "inputs": [
        {
          "internalType": "address",
          "name": "_to",
          "type": "address"
        }
      ],
      "name": "withdrawAll",
      "outputs": [],
      "stateMutability": "nonpayable",
      "type": "function"
    }
  ],
  "bytecode": "0x60e0604052621275006004553480156200001857600080fd5b5060405162006316380380620063168339810160408190526200003b91620002b8565b6200004633620001a9565b60018080556001600160a01b0380851660a052838116608090815290831660c05260408051918201815260008083526020838101828152428585019081524360608701908152600d80549889018155909452945190516001600160801b03908116600160801b0291161760039095027fd7b6990105719101dabeb77144f2a3385c8033acd3af97e9423a695e81ad1eb581019590955592517fd7b6990105719101dabeb77144f2a3385c8033acd3af97e9423a695e81ad1eb6850155517fd7b6990105719101dabeb77144f2a3385c8033acd3af97e9423a695e81ad1eb7909301929092556014805460ff19166012908117909155825180840190935280835271566f74652d657363726f7765642043616b6560701b929091019182526200016f9181620001f9565b5060408051808201909152600680825265766543616b6560d01b60209092019182526200019f91601391620001f9565b5050505062000349565b600080546001600160a01b038381166001600160a01b0319831681178455604051919092169283917f8be0079c531659141344cd1fd0a4f28419497f9722a3daafe3b4186f6b6457e09190a35050565b82805462000207906200030c565b90600052602060002090601f0160209004810192826200022b576000855562000276565b82601f106200024657805160ff191683800117855562000276565b8280016001018555821562000276579182015b828111156200027657825182559160200191906001019062000259565b506200028492915062000288565b5090565b5b8082111562000284576000815560010162000289565b6001600160a01b0381168114620002b557600080fd5b50565b600080600060608486031215620002ce57600080fd5b8351620002db816200029f565b6020850151909350620002ee816200029f565b604085015190925062000301816200029f565b809150509250925092565b600181811c908216806200032157607f821691505b602082108114156200034357634e487b7160e01b600052602260045260246000fd5b50919050565b60805160a05160c051615f2d620003e960003960008181610ae90152612148015260008181610ba00152818161144901528181611d0b01528181611ef60152818161201c0152818161209201528181612f3d0152818161305b015281816130d9015261343c015260008181610d3701528181610e75015281816126b801528181613a8701528181613d4701528181613e5401526142390152615f2d6000f3fe608060405234801561001057600080fd5b50600436106104a05760003560e01c8063705096c71161026d578063b52c05fe11610151578063d73f98a3116100ce578063f4359ce511610092578063f4359ce514610cd7578063f52a36f714610ce1578063fa09e63014610d17578063fb489a7b14610d2a578063fc0c546a14610d32578063ffc97ce914610d5957600080fd5b8063d73f98a314610c8e578063db2e21bc14610ca1578063ec5570d014610ca9578063f2c7a81b14610cbc578063f2fde38b14610cc457600080fd5b8063c172085e11610115578063c172085e14610c32578063c1d1192914610c46578063c2c4c5c114610c4f578063cfee396f14610c57578063d4eda63f14610c6b57600080fd5b8063b52c05fe14610bc2578063b6bbbcd114610bd5578063b6e45a4e14610bef578063c0dd84bd14610bfc578063c12ebb5f14610c1f57600080fd5b80638e900530116101ea5780639d4b4ba1116101ae5780639d4b4ba114610b52578063a621440414610b65578063a63dce7114610b6d578063a7ccf1e014610b75578063a88a885514610b88578063aa94ab5914610b9b57600080fd5b80638e90053014610b26578063900cf0cf14610b2e57806395d89b4114610b37578063981b24d014610b3f5780639c490f19146104f557600080fd5b80637c616fe6116102315780637c616fe614610ab157806381fc83bb14610ac4578063827e8e0c14610ae45780638ad4c44714610b0b5780638da5cb5b14610b1e57600080fd5b8063705096c714610a4d57806370a0823114610a60578063715018a614610a7357806375cd6c6714610a7b5780637c5acb2514610a8e57600080fd5b806330d9a62a1161039457806355ed0a78116103115780636386c1c7116102d55780636386c1c7146108d15780636574deb714610a045780636582a8c014610a1757806365a5d5f014610a2a57806365f9008a14610a3257806367e7a7cb14610a4557600080fd5b806355ed0a781461083357806358fca6a51461083b578063598085ae146108435780635de9a137146108565780635e8bb48e1461089e57600080fd5b80633d5c78bd116103585780633d5c78bd1461075d578063403f4447146107705780634ee2cd7e1461078357806351cff8d914610796578063539e5082146107a957600080fd5b806330d9a62a146106a0578063313ce567146106c057806334d901a4146106df57806336a583911461071a578063399f3a4f1461074a57600080fd5b80630efe6a8b1161042257806319577c6e116103e657806319577c6e146105935780631959a002146105a65780631bb8c61d146106675780632ea1fe7a1461067a5780632f4f21e21461068d57600080fd5b80630efe6a8b146105495780630f41e0d21461055c57806312c470e91461056557806312cae7af1461057857806318160ddd1461058b57600080fd5b806306a4da7e1161046957806306a4da7e146104f557806306fdde031461051057806308154df01461052557806308c3dea71461052d5780630a6373b31461053657600080fd5b8062b79fd4146104a557806302641632146104c0578063047fc9aa146104c8578063052b726f146104d1578063059f8b16146104e6575b600080fd5b6104ad600081565b6040519081526020015b60405180910390f35b6104ad600381565b6104ad60025481565b6104e46104df3660046155ec565b610d7c565b005b6104ad670de0b6b3a764000081565b6104fd600181565b60405161ffff90911681526020016104b7565b610518610ef2565b6040516104b79190615644565b6104fd600081565b6104ad60155481565b6104e4610544366004615677565b610f80565b6104e4610557366004615694565b61143e565b6104ad60115481565b6104ad6105733660046155ec565b61151e565b6104ad610586366004615677565b6115ea565b6104ad6115f5565b6104e46105a13660046156d7565b611665565b6106156105b4366004615677565b600860205260009081526040902080546001909101546001600160a01b03909116906001600160801b0381169065ffffffffffff600160801b8204811691600160b01b81049091169061ffff600160e01b8204811691600160f01b90041686565b604080516001600160a01b0390971687526001600160801b03909516602087015265ffffffffffff938416948601949094529116606084015261ffff90811660808401521660a082015260c0016104b7565b6104e4610675366004615710565b6116eb565b6104e4610688366004615795565b611800565b6104e461069b3660046155ec565b611879565b6016546106b3906001600160a01b031681565b6040516104b791906157b2565b6014546106cd9060ff1681565b60405160ff90911681526020016104b7565b6106f26106ed3660046155ec565b6119b6565b60408051600f95860b81529390940b60208401529282015260608101919091526080016104b7565b6014546107329061010090046001600160401b031681565b6040516001600160401b0390911681526020016104b7565b6104e46107583660046157c6565b611a06565b6104e461076b3660046157e8565b611a5d565b6104e461077e3660046157e8565b611b18565b6104ad6107913660046155ec565b611c26565b6104e46107a4366004615677565b611d00565b6107f96107b7366004615677565b6009602052600090815260409020546001600160681b0380821691600160681b810490911690600160d01b810464ffffffffff1690600160f81b900460ff1684565b604080516001600160681b03958616815294909316602085015264ffffffffff9091169183019190915260ff1660608201526080016104b7565b6104e4611e9e565b6104fd600281565b6104e4610851366004615795565b61230b565b610884610864366004615677565b60076020526000908152604090208054600190910154600f9190910b9082565b60408051600f9390930b83526020830191909152016104b7565b6108c16108ac366004615677565b600b6020526000908152604090205460ff1681565b60405190151581526020016104b7565b61099f6108df366004615677565b6001600160a01b039081166000818152600760209081526040808320815180830183528154600f0b81526001918201548185019081529585526008845293829020825160c08101845281549097168088529101546001600160801b03811693870184905265ffffffffffff600160801b82048116938801849052600160b01b8204166060880181905261ffff600160e01b8304811660808a01819052600160f01b9093041660a09098018890529451955195979596919593949293909190565b60408051600f9990990b895260208901979097526001600160a01b03909516958701959095526001600160801b03909216606086015265ffffffffffff90811660808601521660a084015261ffff91821660c08401521660e0820152610100016104b7565b6104e4610a123660046155ec565b612389565b6017546106b3906001600160a01b031681565b6104ad612748565b6003546106b3906001600160a01b031681565b6104ad600181565b6104e4610a5b3660046157e8565b612765565b6104ad610a6e366004615677565b6127cb565b6104e4612891565b6104e4610a8936600461581d565b6128cc565b6108c1610a9c366004615677565b60196020526000908152604090205460ff1681565b6104e4610abf3660046157e8565b612a9a565b6104ad610ad2366004615677565b600f6020526000908152604090205481565b6106b37f000000000000000000000000000000000000000000000000000000000000000081565b6106f2610b193660046157e8565b612c47565b6106b3612c8b565b6106cd600081565b6104ad600c5481565b610518612c9a565b6104ad610b4d3660046157e8565b612ca7565b6104e4610b60366004615677565b612ea2565b6104e46133b9565b6106cd600181565b6104e4610b83366004615677565b613518565b6104ad610b96366004615677565b6135e0565b6106b37f000000000000000000000000000000000000000000000000000000000000000081565b6104e4610bd03660046157c6565b61367d565b60145461073290600160481b90046001600160401b031681565b6005546108c19060ff1681565b6108c1610c0a366004615677565b600a6020526000908152604090205460ff1681565b6104e4610c2d366004615710565b6136e5565b6003546108c190600160a01b900460ff1681565b6104ad60045481565b6104e46137fa565b6017546108c190600160a01b900460ff1681565b6108c1610c79366004615677565b60066020526000908152604090205460ff1681565b6104e4610c9c366004615875565b61381e565b6104e46138fd565b6104ad610cb73660046155ec565b613af3565b6104ad600281565b6104e4610cd2366004615677565b613aff565b6104ad62093a8081565b610d04610cef3660046157e8565b601060205260009081526040902054600f0b81565b604051600f9190910b81526020016104b7565b6104e4610d25366004615677565b613b9c565b6104e4613dbd565b6106b37f000000000000000000000000000000000000000000000000000000000000000081565b6108c1610d67366004615677565b60186020526000908152604090205460ff1681565b33610d85612c8b565b6001600160a01b031614610db45760405162461bcd60e51b8152600401610dab906158bf565b60405180910390fd5b6001600160a01b03821660009081526009602052604090208054600160f81b900460ff16600114610df75760405162461bcd60e51b8152600401610dab906158f4565b8054600160681b90046001600160681b0316821115610e25578054600160681b90046001600160681b031691505b805482908290600d90610e49908490600160681b90046001600160681b031661592f565b92506101000a8154816001600160681b0302191690836001600160681b03160217905550610ead3330847f00000000000000000000000000000000000000000000000000000000000000006001600160a01b0316613ecc909392919063ffffffff16565b6040518281526001600160a01b0384169033907f7b85c81b5ab23faed50cf05b116ebb10456ca6320721e00b6513babed009b9e29060200160405180910390a3505050565b60128054610eff90615957565b80601f0160208091040260200160405190810160405280929190818152602001828054610f2b90615957565b8015610f785780601f10610f4d57610100808354040283529160200191610f78565b820191906000526020600020905b815481529060010190602001808311610f5b57829003601f168201915b505050505081565b60026001541415610fa35760405162461bcd60e51b8152600401610dab9061598c565b600260019081556001600160a01b038216600090815260096020526040902080549091600160f81b90910460ff1614610fee5760405162461bcd60e51b8152600401610dab906158f4565b336000908152600860205260408120600181015490919061101d90600160801b900465ffffffffffff16613f37565b90504281116110625760405162461bcd60e51b8152602060048201526011602482015270155cd95c881b1bd8dac8195e1c1a5c9959607a1b6044820152606401610dab565b60045461106f90426159c3565b6001830154600160b01b900465ffffffffffff16116110a05760405162461bcd60e51b8152600401610dab906159da565b600182810154600160e01b900461ffff16146110eb5760405162461bcd60e51b815260206004820152600a60248201526908481b5a59dc985d195960b21b6044820152606401610dab565b6001820154600160f01b900461ffff161561113b5760405162461bcd60e51b815260206004820152601060248201526f416c726561647920776974686472617760801b6044820152606401610dab565b6001828101805461ffff60e01b1916600160e11b17905582546001600160a01b0316600090815260076020908152604080832081518083019092528054600f0b808352940154918101919091529161119290613f51565b84549091506111ab906001600160a01b03168383613fa7565b6040805180820182526001600160a01b0388166000818152600760208181529482208054600f90810b865293835290855260010154938301939093528151919291900b1361120b5760405162461bcd60e51b8152600401610dab906159fc565b4281602001511161122e5760405162461bcd60e51b8152600401610dab90615a2a565b6001808601546112509189916001600160801b0316906000908590829061417b565b600185015486546001600160801b0390911690879060009061127c9084906001600160681b0316615a5a565b82546101009290920a6001600160681b03818102199093169183160217909155600187015488546001600160801b0390911692508891600d916112c8918591600160681b900416615a5a565b82546101009290920a6001600160681b0381810219909316919092169190910217905550600185015460405162c2c90f60e11b81523360048201526001600160801b0382166024820152600160801b90910465ffffffffffff1660448201526001600160a01b03881690630185921e90606401600060405180830381600087803b15801561135557600080fd5b505af1158015611369573d6000803e3d6000fd5b505050506001850154604080516001600160801b0383168152600160801b90920465ffffffffffff1660208301526001600160a01b0389169133917f7a260b029728603ffc0679b0360160ac6e1daf21270ab94c6acdf3deabd0ef96910160405180910390a36001850154604080516001600160801b0383168152600160801b90920465ffffffffffff1660208301526001600160a01b0389169133917f4af697c81385693e6ee5d15ccb781170dc8241f81c4983bf87cdf268d2fca5f5910160405180910390a35050600180555050505050565b336001600160a01b037f000000000000000000000000000000000000000000000000000000000000000016146114865760405162461bcd60e51b8152600401610dab90615a85565b6001600160a01b03808416600090815260086020908152604091829020825160c08101845281549094168452600101546001600160801b0381169184019190915265ffffffffffff600160801b8204811692840192909252600160b01b8104909116606083015261ffff600160e01b8204811660808401819052600160f01b9092041660a08301521561151857600080fd5b50505050565b6000438211156115405760405162461bcd60e51b8152600401610dab90615aaa565b6001600160a01b03808416600090815260086020908152604091829020825160c08101845281549094168085526001909101546001600160801b0381169285019290925265ffffffffffff600160801b8304811693850193909352600160b01b8204909216606084015261ffff600160e01b820481166080850152600160f01b9091041660a0830152156115e25780516115da90846143a0565b9150506115e4565b505b92915050565b60006115e48261461c565b6000611660600d600c548154811061160f5761160f615ad4565b60009182526020918290206040805160808101825260039093029091018054600f81810b8552600160801b909104900b9383019390935260018301549082015260029091015460608201524261470e565b905090565b3361166e612c8b565b6001600160a01b0316146116945760405162461bcd60e51b8152600401610dab906158bf565b6001600160a01b0382166000818152600b6020526040808220805460ff1916851515908117909155905190929133917f4f4d55f3b98fe4b3fbc9fb5e8ed05483cc8d794638edd690545eb5779e234a499190a45050565b336116f4612c8b565b6001600160a01b03161461171a5760405162461bcd60e51b8152600401610dab906158bf565b60005b8281101561151857816018600086868581811061173c5761173c615ad4565b90506020020160208101906117519190615677565b6001600160a01b031681526020810191909152604001600020805460ff191691151591909117905583838281811061178b5761178b615ad4565b90506020020160208101906117a09190615677565b6001600160a01b0316336001600160a01b03167fdfad9b83c215ff1a36483cf1688e5aeae2ac60f1c3f62f5229641234748f13b7846040516117e6911515815260200190565b60405180910390a3806117f881615aea565b91505061171d565b33611809612c8b565b6001600160a01b03161461182f5760405162461bcd60e51b8152600401610dab906158bf565b6005805460ff191682151590811790915560405190815233907f539ba344188cde95583cd695fe9a73d66f53c83a48e3d66e5b42a12650d93ecc906020015b60405180910390a250565b6002600154141561189c5760405162461bcd60e51b8152600401610dab9061598c565b60026001556001600160a01b0382166000908152600a602052604090205460ff16156118fc5760405162461bcd60e51b815260206004820152600f60248201526e496e636f72726563742070726f787960881b6044820152606401610dab565b6040805180820182526001600160a01b0384166000818152600760208181529482208054600f0b85529290915283526001015491810191909152816119535760405162461bcd60e51b8152600401610dab90615b05565b60008160000151600f0b1361197a5760405162461bcd60e51b8152600401610dab90615b2a565b4281602001511161199d5760405162461bcd60e51b8152600401610dab90615b51565b6119ad838360008460008061417b565b50506001805550565b600e60205281600052604060002081815481106119d257600080fd5b6000918252602090912060039091020180546001820154600290920154600f82810b9550600160801b90920490910b925084565b336000908152600a602052604090205460ff16611a4f5760405162461bcd60e51b8152602060048201526007602482015266212070726f787960c81b6044820152606401610dab565b611a598282614806565b5050565b33611a66612c8b565b6001600160a01b031614611a8c5760405162461bcd60e51b8152600401610dab906158bf565b801580611a995750806001145b611ad35760405162461bcd60e51b815260206004820152600b60248201526a4f6e6c792030206f72203160a81b6044820152606401610dab565b601180549082905560408051828152602081018490527f5238fc635590cf5e76ed0f591df4d7f3021d20f58e6d3405390197dd72a575fe910160405180910390a15050565b3360009081526018602052604090205460ff16611b4e57333214611b4e5760405162461bcd60e51b8152600401610dab90615b77565b60026001541415611b715760405162461bcd60e51b8152600401610dab9061598c565b60026001908155604080518082018252336000818152600760208181529482208054600f0b8552929091528352909201549082015281611bc35760405162461bcd60e51b8152600401610dab90615b05565b60008160000151600f0b13611bea5760405162461bcd60e51b8152600401610dab90615b2a565b42816020015111611c0d5760405162461bcd60e51b8152600401610dab90615b51565b611c1e33836000846002600061417b565b505060018055565b600043821115611c485760405162461bcd60e51b8152600401610dab90615aaa565b6001600160a01b03808416600090815260086020908152604091829020825160c08101845281549094168085526001909101546001600160801b0381169285019290925265ffffffffffff600160801b8304811693850193909352600160b01b8204909216606084015261ffff600160e01b820481166080850152600160f01b9091041660a083015215611cf6578051611ce290846143a0565b611cec85856143a0565b6115da9190615b9c565b6115da84846143a0565b336001600160a01b037f00000000000000000000000000000000000000000000000000000000000000001614611d485760405162461bcd60e51b8152600401610dab90615a85565b6001600160a01b03808216600090815260086020908152604091829020825160c08101845281549094168452600101546001600160801b0381169184019190915265ffffffffffff600160801b8204811692840192909252600160b01b8104909116606083015261ffff600160e01b8204811660808401819052600160f01b9092041660a083015260021415611ddd57600080fd5b80516001600160a01b031615801590611dfe5750608081015161ffff166001145b8015611e10575060a081015161ffff16155b15611a595780600001516001600160a01b031663853828b66040518163ffffffff1660e01b8152600401600060405180830381600087803b158015611e5457600080fd5b505af1158015611e68573d6000803e3d6000fd5b5050506001600160a01b038316600090815260086020526040902060010180546001600160f01b0316600160f01b179055505050565b60026001541415611ec15760405162461bcd60e51b8152600401610dab9061598c565b6002600155600354600160a01b900460ff16611eef5760405162461bcd60e51b8152600401610dab90615bb4565b60008060007f00000000000000000000000000000000000000000000000000000000000000006001600160a01b0316631959a002336040518263ffffffff1660e01b8152600401611f4091906157b2565b61012060405180830381865afa158015611f5e573d6000803e3d6000fd5b505050506040513d601f19601f82011682018060405250810190611f829190615bdb565b505096509650505050509250428211611fad5760405162461bcd60e51b8152600401610dab90615b51565b3360009081526008602052604090206001810154600160e01b900461ffff1615611fe95760405162461bcd60e51b8152600401610dab90615c4f565b60018101805461ffff60e01b1916600160e01b17905560408051633a98ef3960e01b815290516000916001600160a01b037f00000000000000000000000000000000000000000000000000000000000000001691633a98ef39916004808201926020929091908290030181865afa158015612068573d6000803e3d6000fd5b505050506040513d601f19601f8201168201806040525081019061208c9190615c79565b905060007f00000000000000000000000000000000000000000000000000000000000000006001600160a01b031663722713f76040518163ffffffff1660e01b8152600401602060405180830381865afa1580156120ee573d6000803e3d6000fd5b505050506040513d601f19601f820116820180604052508101906121129190615c79565b9050600060018584612124858b615c92565b61212e9190615cc7565b61213891906159c3565b61214291906159c3565b905060007f00000000000000000000000000000000000000000000000000000000000000006001600160a01b0316634c96a389336040518263ffffffff1660e01b815260040161219291906157b2565b6020604051808303816000875af11580156121b1573d6000803e3d6000fd5b505050506040513d601f19601f820116820180604052508101906121d59190615cdb565b6001600160a01b0381166000818152600a602052604090819020805460ff1916600190811790915588546001600160a01b031916831789558801805465ffffffffffff8c8116600160801b026001600160b01b03194292909216600160b01b02919091166001600160e01b0319909216919091176001600160801b038816171790555163399f3a4f60e01b81529192509063399f3a4f906122859085908b90600401918252602082015260400190565b600060405180830381600087803b15801561229f57600080fd5b505af11580156122b3573d6000803e3d6000fd5b505060408051858152602081018b90526001600160a01b03851693503392507f8519b84e949c6333da21ddea64e2c29ef66709e465ec9b0f24fb32eb2c003843910160405180910390a3505060018055505050505050565b33612314612c8b565b6001600160a01b03161461233a5760405162461bcd60e51b8152600401610dab906158bf565b60178054821515600160a01b0260ff60a01b1990911617905560405133907fdcc751463da04455ac459756e92d5ea118dd0dd631422cbf8353132417a52d9f9061186e90841515815260200190565b600260015414156123ac5760405162461bcd60e51b8152600401610dab9061598c565b6002600155601754600160a01b900460ff166123da5760405162461bcd60e51b8152600401610dab90615cf8565b6001600160a01b0382166123ec573391505b3360009081526007602090815260409182902082518084019093528054600f0b83526001015490820152816124335760405162461bcd60e51b8152600401610dab90615b05565b806020015142106124565760405162461bcd60e51b8152600401610dab906159da565b601154156124765760405162461bcd60e51b8152600401610dab90615cf8565b33600090815260096020908152604091829020825160808101845290546001600160681b038082168352600160681b82041692820192909252600160d01b820464ffffffffff1692810192909252600160f81b900460ff1660608201819052600114156125a85742816040015164ffffffffff161061252e5760405162461bcd60e51b8152602060048201526014602482015273466f72626964206561726c79576974686472617760601b6044820152606401610dab565b60006125408360000151600f0b613f51565b60208301519091506001600160681b031661255b85836159c3565b10156125a65760405162461bcd60e51b815260206004820152601a60248201527911195b1959d85d1bdc8818985b185b98d948195e18d95959195960321b6044820152606401610dab565b505b60208201516125b8338486613fa7565b336000908152600b602052604081205460ff161580156125e7575060145461010090046001600160401b031615155b156126e257600062093a80426125fd8286615b9c565b61260791906159c3565b6126119190615cc7565b60145490915061271090879061263690849061010090046001600160401b0316615c92565b6126409190615c92565b61264a9190615cc7565b6014549092506000906127109061267190600160481b90046001600160401b031685615c92565b61267b9190615cc7565b9050806015600082825461268f9190615b9c565b90915550506016546126df906001600160a01b03166126ae83866159c3565b6001600160a01b037f00000000000000000000000000000000000000000000000000000000000000001691906149a6565b50505b6126f0866126ae83886159c3565b6040805186815260208101839052428183015290516001600160a01b0388169133917f08b526d7537cea7e5a629eb0495b5932c78911fd0bdeb02b822d69a6e25792549181900360600190a350506001805550505050565b600161275862093a8060d1615c92565b61276291906159c3565b81565b3361276e612c8b565b6001600160a01b0316146127945760405162461bcd60e51b8152600401610dab906158bf565b600481905560405181815233907fde15bb8e73a1f43abe6021a8ad5a5d79caf815a4d74e6dbd7d88cd57f06fdd899060200161186e565b6001600160a01b038082166000908152600860209081526040808320815160c08101835281549095168086526001909101546001600160801b0381169386019390935265ffffffffffff600160801b8404811692860192909252600160b01b8304909116606085015261ffff600160e01b830481166080860152600160f01b90920490911660a0840152909190156128825780516128689061461c565b6128718461461c565b61287b9190615b9c565b9392505050565b61287b8361461c565b50919050565b3361289a612c8b565b6001600160a01b0316146128c05760405162461bcd60e51b8152600401610dab906158bf565b6128ca60006149d6565b565b336128d5612c8b565b6001600160a01b0316146128fb5760405162461bcd60e51b8152600401610dab906158bf565b60c0846001600160401b031611156129445760405162461bcd60e51b815260206004820152600c60248201526b08ccaca40e8dede40d0d2ced60a31b6044820152606401610dab565b612710836001600160401b0316111561298e5760405162461bcd60e51b815260206004820152600c60248201526b0c4e0e640e8dede40d0d2ced60a31b6044820152606401610dab565b601480546001600160401b03858116600160481b81810267ffffffffffffffff60481b198a8516610100818102928316610100600160881b031989161793909317909755601680546001600160a01b038b81166001600160a01b03198084168217909455601780548d8416958116861790915560408051888d048c16808252602082019e909e5268ffffffffffffffff0019909c1690961797909704909816938901849052606089019690965285166080880181905260a08801969096529290931660c0860181905260e08601929092529193909133917f3de6c016cd3debec574d13c9966e6c847e64ac424da0b1eb70d3c93b68ec0537910160405180910390a25050505050505050565b3360009081526018602052604090205460ff16612ad057333214612ad05760405162461bcd60e51b8152600401610dab90615b77565b60026001541415612af35760405162461bcd60e51b8152600401610dab9061598c565b60026001908155604080518082018252336000818152600760208181529482208054600f0b85529290915283529092015490820152612b3182613f37565b915060008160000151600f0b13612b5a5760405162461bcd60e51b8152600401610dab90615b2a565b42816020015111612b7d5760405162461bcd60e51b8152600401610dab90615b51565b80602001518211612bc95760405162461bcd60e51b815260206004820152601660248201527517db995dd55b9b1bd8dad51a5b59481d1bdbc81bdb1960521b6044820152606401610dab565b6001612bd962093a8060d1615c92565b612be391906159c3565b612bed9042615b9c565b821115612c365760405162461bcd60e51b81526020600482015260176024820152765f6e6577556e6c6f636b54696d6520746f6f206c6f6e6760481b6044820152606401610dab565b611c1e33600084846003600061417b565b600d8181548110612c5757600080fd5b6000918252602090912060039091020180546001820154600290920154600f82810b9450600160801b90920490910b919084565b6000546001600160a01b031690565b60138054610eff90615957565b600043821115612cec5760405162461bcd60e51b815260206004820152601060248201526f2130b2102fb13637b1b5a73ab6b132b960811b6044820152606401610dab565b600c546000612cfb8483614a26565b90506000600d8281548110612d1257612d12615ad4565b600091825260208083206040805160808101825260039094029091018054600f81810b8652600160801b909104900b92840192909252600182015490830152600201546060820152915083831015612e30576000600d612d73856001615b9c565b81548110612d8357612d83615ad4565b60009182526020918290206040805160808101825260039093029091018054600f81810b8552600160801b909104900b93830193909352600183015490820152600290910154606080830182905285015191925014612e2a5782606001518160600151612df091906159c3565b83604001518260400151612e0491906159c3565b6060850151612e13908a6159c3565b612e1d9190615c92565b612e279190615cc7565b91505b50612e7f565b43826060015114612e7f576060820151612e4a90436159c3565b6040830151612e5990426159c3565b6060840151612e6890896159c3565b612e729190615c92565b612e7c9190615cc7565b90505b612e9882828460400151612e939190615b9c565b61470e565b9695505050505050565b60026001541415612ec55760405162461bcd60e51b8152600401610dab9061598c565b6002600155600354600160a01b900460ff16612ef35760405162461bcd60e51b8152600401610dab90615bb4565b6001600160a01b03811660009081526009602052604090208054600160f81b900460ff16600114612f365760405162461bcd60e51b8152600401610dab906158f4565b60008060007f00000000000000000000000000000000000000000000000000000000000000006001600160a01b0316631959a002336040518263ffffffff1660e01b8152600401612f8791906157b2565b61012060405180830381865afa158015612fa5573d6000803e3d6000fd5b505050506040513d601f19601f82011682018060405250810190612fc99190615bdb565b505096509650505050509250428211612ff45760405162461bcd60e51b8152600401610dab90615b51565b3360009081526008602052604090206001810154600160e01b900461ffff16156130305760405162461bcd60e51b8152600401610dab90615c4f565b60018101805461ffff60e01b1916600160e11b17905560408051633a98ef3960e01b815290516000917f00000000000000000000000000000000000000000000000000000000000000006001600160a01b031691633a98ef39916004808201926020929091908290030181865afa1580156130af573d6000803e3d6000fd5b505050506040513d601f19601f820116820180604052508101906130d39190615c79565b905060007f00000000000000000000000000000000000000000000000000000000000000006001600160a01b031663722713f76040518163ffffffff1660e01b8152600401602060405180830381865afa158015613135573d6000803e3d6000fd5b505050506040513d601f19601f820116820180604052508101906131599190615c79565b905060006001858461316b858b615c92565b6131759190615cc7565b61317f91906159c3565b61318991906159c3565b600185810180546001600160b01b031916600160801b65ffffffffffff8b16026001600160801b031916176001600160801b0384161790556040805180820182526001600160a01b038d166000818152600760208181529482208054600f0b85529290915283529092015490820152909150816132185760405162461bcd60e51b8152600401610dab90615b05565b60008160000151600f0b1361323f5760405162461bcd60e51b8152600401610dab906159fc565b428160200151116132625760405162461bcd60e51b8152600401610dab90615a2a565b6132738a836000846000600161417b565b885482908a906000906132909084906001600160681b0316615a5a565b92506101000a8154816001600160681b0302191690836001600160681b031602179055508189600001600d8282829054906101000a90046001600160681b03166132da9190615a5a565b82546001600160681b039182166101009390930a92830291909202199091161790555060405162c2c90f60e11b815233600482015260248101839052604481018890526001600160a01b038b1690630185921e90606401600060405180830381600087803b15801561334b57600080fd5b505af115801561335f573d6000803e3d6000fd5b505060408051858152602081018b90526001600160a01b038e1693503392507f7a260b029728603ffc0679b0360160ac6e1daf21270ab94c6acdf3deabd0ef96910160405180910390a35050600180555050505050505050565b336133c2612c8b565b6001600160a01b0316146133e85760405162461bcd60e51b8152600401610dab906158bf565b600354600160a01b900460ff16156134385760405162461bcd60e51b8152602060048201526013602482015272105b1c9958591e481a5b9a5d1a585b1a5e9959606a1b6044820152606401610dab565b60007f00000000000000000000000000000000000000000000000000000000000000006001600160a01b0316632d19b9826040518163ffffffff1660e01b8152600401602060405180830381865afa158015613498573d6000803e3d6000fd5b505050506040513d601f19601f820116820180604052508101906134bc9190615cdb565b90506001600160a01b03811630146135025760405162461bcd60e51b8152602060048201526009602482015268426164205643616b6560b81b6044820152606401610dab565b506003805460ff60a01b1916600160a01b179055565b33613521612c8b565b6001600160a01b0316146135475760405162461bcd60e51b8152600401610dab906158bf565b6001600160a01b0381166135965760405162461bcd60e51b815260206004820152601660248201527543616e6e6f74206265207a65726f206164647265737360501b6044820152606401610dab565b600380546001600160a01b0319166001600160a01b0383169081179091556040517fd1879d19b7e07327f8e491d8c5e05a4048155b7ee8f97f61e2b2233ae0e3a88890600090a250565b6001600160a01b038082166000908152600860209081526040808320815160c08101835281549095168086526001909101546001600160801b0381169386019390935265ffffffffffff600160801b8404811692860192909252600160b01b8304909116606085015261ffff600160e01b830481166080860152600160f01b90920490911660a08401529091901561288b57805161287b9061461c565b3360009081526018602052604090205460ff166136b3573332146136b35760405162461bcd60e51b8152600401610dab90615b77565b600260015414156136d65760405162461bcd60e51b8152600401610dab9061598c565b6002600155611c1e8282614806565b336136ee612c8b565b6001600160a01b0316146137145760405162461bcd60e51b8152600401610dab906158bf565b60005b8281101561151857816019600086868581811061373657613736615ad4565b905060200201602081019061374b9190615677565b6001600160a01b031681526020810191909152604001600020805460ff191691151591909117905583838281811061378557613785615ad4565b905060200201602081019061379a9190615677565b6001600160a01b0316336001600160a01b03167f0c5e5180b1be108ebc3c1c5939cd6b59ca30067d07c5405f94304bf603c62142846040516137e0911515815260200190565b60405180910390a3806137f281615aea565b915050613717565b6040805180820190915260008082526020820181905261381b908280614ac4565b50565b33613827612c8b565b6001600160a01b03161461384d5760405162461bcd60e51b8152600401610dab906158bf565b6001600160a01b038316600090815260096020526040902082613871576000613874565b60015b81546001600160d01b0316600160f81b60ff929092169190910264ffffffffff60d01b191617600160d01b64ffffffffff841690810291909117825560408051851515815260208101929092526001600160a01b038616917f3fd4b992bc54a5edaa3b29f337c4048b314667d454123fbd81b327aaeea7df67910160405180910390a250505050565b600260015414156139205760405162461bcd60e51b8152600401610dab9061598c565b600260015560055460ff166139735760405162461bcd60e51b8152602060048201526019602482015278466f7262696420656d657267656e637920776974686472617760381b6044820152606401610dab565b3360009081526006602052604090205460ff16156139a35760405162461bcd60e51b8152600401610dab90615d18565b336000908152600660209081526040808320805460ff191660019081179091556007835281842082518084019093528054600f0b808452910154928201929092529112613a255760405162461bcd60e51b815260206004820152601060248201526f139bc81b1bd8dad95908185b5bdd5b9d60821b6044820152606401610dab565b6000613a378260000151600f0b613f51565b33600090815260076020908152604080832080546001600160801b0319168155600101839055600e9091528120919250613a719190615599565b336000818152600f6020526040812055613ab6907f00000000000000000000000000000000000000000000000000000000000000006001600160a01b031690836149a6565b60405181815233907f5fafa99d0643513820be26656b45130b01e1c03062e1266bf36f88cbd3bd96959060200160405180910390a2505060018055565b600061287b83836143a0565b33613b08612c8b565b6001600160a01b031614613b2e5760405162461bcd60e51b8152600401610dab906158bf565b6001600160a01b038116613b935760405162461bcd60e51b815260206004820152602660248201527f4f776e61626c653a206e6577206f776e657220697320746865207a65726f206160448201526564647265737360d01b6064820152608401610dab565b61381b816149d6565b60026001541415613bbf5760405162461bcd60e51b8152600401610dab9061598c565b600260015533600090815260096020908152604091829020825160808101845290546001600160681b038082168352600160681b820416928201839052600160d01b810464ffffffffff1693820193909352600160f81b90920460ff16606083015215613c7a5760405162461bcd60e51b8152602060048201526024808201527f496e73756666696369656e7420696e6a656374696f6e20666f722064656c656760448201526330ba37b960e11b6064820152608401610dab565b3360009081526007602090815260409182902082518084019093528054600f0b83526001015490820152601154613cf2578060200151421015613cf25760405162461bcd60e51b815260206004820152601060248201526f131bd8dac81b9bdd08195e1c1a5c995960821b6044820152606401610dab565b6001600160a01b038316613d04573392505b6000613d168260000151600f0b613f51565b9050613d23338383613fa7565b336000908152600a602052604090205460ff16613d6e57613d6e6001600160a01b037f00000000000000000000000000000000000000000000000000000000000000001685836149a6565b604080518281524260208201526001600160a01b0386169133917f55e21b0674b8095feb63d5336fb7b5b004d267585bfbb58005e8126a8ad7bc54910160405180910390a35050600180555050565b3360009081526019602052604090205460ff16613e125760405162461bcd60e51b81526020600482015260136024820152722120776c2072656469737472696275746f727360681b6044820152606401610dab565b60026001541415613e355760405162461bcd60e51b8152600401610dab9061598c565b6002600155601580546000909155601754613e7d906001600160a01b037f000000000000000000000000000000000000000000000000000000000000000081169116836149a6565b601754604080516001600160a01b0390921682526020820183905233917f73dad76107243dbd9d398020575b5e3ad26d50fe161c81088dc8592a394855b7910160405180910390a25060018055565b6040516001600160a01b03808516602483015283166044820152606481018290526115189085906323b872dd60e01b906084015b60408051601f198184030181529190526020810180516001600160e01b03166001600160e01b031990931692909217909152615272565b600062093a80613f478184615cc7565b6115e49190615c92565b600080821215613fa35760405162461bcd60e51b815260206004820181905260248201527f53616665436173743a2076616c7565206d75737420626520706f7369746976656044820152606401610dab565b5090565b6000613fb98360000151600f0b613f51565b905080821115613ffe5760405162461bcd60e51b815260206004820152601060248201526f416d6f756e7420746f6f206c6172676560801b6044820152606401610dab565b604080518082019091528351600f0b81526020808501519082015281831461402a57836020015161402d565b60005b602085015261404461403f84846159c3565b615344565b600f0b84526001600160a01b0385166000908152600760209081526040909120855181546001600160801b0319166001600160801b039091161781559085015160019091015560025461409784826159c3565b6002556140a5868387614ac4565b6003546001600160a01b0316156141365760035482516020840151604051630f28a72960e31b81526001600160a01b038a81166004830152600f9390930b6024820152604481019190915260648101879052911690637945394890608401600060405180830381600087803b15801561411d57600080fd5b505af1158015614131573d6000803e3d6000fd5b505050505b6002546040805183815260208101929092527f5e2aa66efd74cce82b21852e317e5490d9ecc9e6bb953ae24d90851258cc2f5c910160405180910390a1505050505050565b6002546141888682615b9c565b600255604080518082019091528451600f0b8152602080860151908201526141af87615344565b81516141bb9190615d4b565b600f0b815285156141ce57602081018690525b6001600160a01b0388166000908152600760209081526040909120825181546001600160801b0319166001600160801b039091161781559082015160019091015561421a888683614ac4565b8615801590614227575082155b15614261576142616001600160a01b037f00000000000000000000000000000000000000000000000000000000000000001633308a613ecc565b6003546001600160a01b0316156143085760035485516020870151604051636e85ee4760e01b81526001600160a01b038c81166004830152602482018c9052604482018b9052600f9390930b6064820152608481019190915260a4810187905285151560c4820152911690636e85ee479060e401600060405180830381600087803b1580156142ef57600080fd5b505af1158015614303573d6000803e3d6000fd5b505050505b602080820151604080518a81529283018790524290830152906001600160a01b038a16907f7162984403f6c73c8639375d45a9187dfd04602231bd8e587c415718b5f7e5f99060600160405180910390a36002546040805184815260208101929092527f5e2aa66efd74cce82b21852e317e5490d9ecc9e6bb953ae24d90851258cc2f5c910160405180910390a15050505050505050565b6000806143ad84846153c1565b9050806143be5760009150506115e4565b6001600160a01b0384166000908152600e602052604081208054839081106143e8576143e8615ad4565b600091825260208083206040805160808101825260039094029091018054600f81810b8652600160801b909104900b92840192909252600182015490830152600201546060820152600c54909250906144418683614a26565b90506000600d828154811061445857614458615ad4565b600091825260208083206040805160808101825260039094029091018054600f81810b8652600160801b909104900b9284019290925260018201549083015260020154606082015291508084841015614546576000600d6144ba866001615b9c565b815481106144ca576144ca615ad4565b60009182526020918290206040805160808101825260039093029091018054600f81810b8552600160801b909104900b93830193909352600183015490820152600290910154606080830182905286015191925061452891906159c3565b92508360400151816040015161453e91906159c3565b91505061456a565b606083015161455590436159c3565b915082604001514261456791906159c3565b90505b604083015182156145a7578284606001518b61458691906159c3565b6145909084615c92565b61459a9190615cc7565b6145a49082615b9c565b90505b6145ba87604001518261403f91906159c3565b87602001516145c99190615d9c565b875188906145d8908390615e30565b600f90810b90915288516000910b121590506145ff576000985050505050505050506115e4565b865161460d90600f0b613f51565b9b9a5050505050505050505050565b6001600160a01b0381166000908152600f6020526040812054806146435750600092915050565b6001600160a01b0383166000908152600e6020526040812080548390811061466d5761466d615ad4565b60009182526020918290206040805160808101825260039093029091018054600f81810b8552600160801b909104900b938301939093526001830154908201819052600290920154606082015291506146ca9061403f90426159c3565b81602001516146d99190615d9c565b81516146e59190615e30565b600f0b808252600013156146f857600081525b805161470690600f0b613f51565b949350505050565b60008083905060006147238560400151613f37565b905060005b60ff8110156147d95761473e62093a8083615b9c565b915060008583111561475257859250614766565b50600082815260106020526040902054600f0b5b61477984604001518461403f91906159c3565b84602001516147889190615d9c565b84516147949190615e30565b600f0b8452828614156147a757506147d9565b8084602001516147b79190615d4b565b600f0b60208501525060408301829052806147d181615aea565b915050614728565b5060008260000151600f0b12156147ef57600082525b81516147fd90600f0b613f51565b95945050505050565b3360009081526006602052604090205460ff16156148365760405162461bcd60e51b8152600401610dab90615d18565b61483f81613f37565b3360009081526007602090815260409182902082518084019093528054600f0b83526001015490820152909150826148895760405162461bcd60e51b8152600401610dab90615b05565b8051600f0b156148cc5760405162461bcd60e51b815260206004820152600e60248201526d105b1c9958591e481b1bd8dad95960921b6044820152606401610dab565b4282116149115760405162461bcd60e51b815260206004820152601360248201527217dd5b9b1bd8dad51a5b59481d1bdbc81bdb19606a1b6044820152606401610dab565b600161492162093a8060d1615c92565b61492b91906159c3565b6149359042615b9c565b82111561497b5760405162461bcd60e51b81526020600482015260146024820152735f756e6c6f636b54696d6520746f6f206c6f6e6760601b6044820152606401610dab565b336000818152600a60205260409020546149a1919085908590859060019060ff1661417b565b505050565b6040516001600160a01b0383166024820152604481018290526149a190849063a9059cbb60e01b90606401613f00565b600080546001600160a01b038381166001600160a01b0319831681178455604051919092169283917f8be0079c531659141344cd1fd0a4f28419497f9722a3daafe3b4186f6b6457e09190a35050565b60008082815b6080811015614aba57818310614a4157614aba565b60006002614a4f8486615b9c565b614a5a906001615b9c565b614a649190615cc7565b905086600d8281548110614a7a57614a7a615ad4565b90600052602060002090600302016002015411614a9957809350614aa7565b614aa46001826159c3565b92505b5080614ab281615aea565b915050614a2c565b5090949350505050565b604080516080808201835260008083526020808401829052838501829052606080850183905285519384018652828452908301829052938201819052928101839052600c549192909181906001600160a01b03881615614d6457428760200151118015614b38575060008760000151600f0b135b15614b9957614b5a6001614b5062093a8060d1615c92565b61403f91906159c3565b8751614b669190615e80565b600f0b602080870191909152870151614b849061403f9042906159c3565b8560200151614b939190615d9c565b600f0b85525b428660200151118015614bb3575060008660000151600f0b135b15614c0a57614bcb6001614b5062093a8060d1615c92565b8651614bd79190615e80565b600f0b602080860191909152860151614bf59061403f9042906159c3565b8460200151614c049190615d9c565b600f0b84525b6001600160a01b0388166000908152600f602052604090205480614c8e576001600160a01b0389166000908152600e60209081526040808320805460018181018355918552938390208a51938b01516001600160801b03908116600160801b0294169390931760039094029092019283558801519082015560608701516002909101555b614c99816001615b9c565b6001600160a01b038a166000818152600f6020818152604080842095909555428a86019081524360608c01908152948452600e82528584208054600181810183559186528386208d518e8601516001600160801b03908116600160801b0291161760039092020190815591519082015593516002909401939093558b8301518252601083529290205490890151910b945015614d6257876020015187602001511415614d4757839250614d62565b602080880151600090815260109091526040902054600f0b92505b505b604080516080810182526000808252602082015242918101919091524360608201528115614ded57600d8281548110614d9f57614d9f615ad4565b60009182526020918290206040805160808101825260039093029091018054600f81810b8552600160801b909104900b93830193909352600183015490820152600290910154606082015290505b604080820180518251608081018452600080825260208201819052835194820194909452606080860151908201529151909290421115614e64576040840151614e3690426159c3565b6060850151614e4590436159c3565b614e5790670de0b6b3a7640000615c92565b614e619190615cc7565b90505b6000614e6f84613f37565b905060005b60ff81101561505557614e8a62093a8083615b9c565b9150600042831115614e9e57429250614eb2565b50600082815260106020526040902054600f0b5b6000614ec161403f88866159c3565b8860200151614ed09190615d9c565b8851909150614ee0908290615e30565b600f0b88526020880151614ef5908390615d4b565b600f90810b60208a015288516000910b1215614f1057600088525b60008860200151600f0b1215614f2857600060208901525b60408089018590528601519396508693670de0b6b3a764000090614f4c90866159c3565b614f569087615c92565b614f609190615cc7565b8660600151614f6f9190615b9c565b6060890152614f7f896001615b9c565b985042841415614f96575050436060870152615055565b600d8054600181018255600091909152885160208a01516001600160801b03908116600160801b0291161760039091027fd7b6990105719101dabeb77144f2a3385c8033acd3af97e9423a695e81ad1eb581019190915560408901517fd7b6990105719101dabeb77144f2a3385c8033acd3af97e9423a695e81ad1eb682015560608901517fd7b6990105719101dabeb77144f2a3385c8033acd3af97e9423a695e81ad1eb7909101555050808061504d90615aea565b915050614e74565b50600c8690556001600160a01b038d16156150e2578960200151896020015186602001516150839190615d4b565b61508d9190615e30565b600f0b60208601528951895186516150a59190615d4b565b6150af9190615e30565b600f90810b865260208601516000910b12156150cd57600060208601525b60008560000151600f0b12156150e257600085525b600d8054600181018255600091909152855160208701516001600160801b03908116600160801b0291161760039091027fd7b6990105719101dabeb77144f2a3385c8033acd3af97e9423a695e81ad1eb581019190915560408601517fd7b6990105719101dabeb77144f2a3385c8033acd3af97e9423a695e81ad1eb682015560608601517fd7b6990105719101dabeb77144f2a3385c8033acd3af97e9423a695e81ad1eb7909101556001600160a01b038d161561526357428c6020015111156152085760208a01516151b69089615d4b565b97508b602001518b6020015114156151da5760208901516151d79089615e30565b97505b60208c810151600090815260109091526040902080546001600160801b0319166001600160801b038a161790555b428b602001511115615263578b602001518b6020015111156152635760208901516152339088615e30565b60208c810151600090815260109091526040902080546001600160801b0319166001600160801b03831617905596505b50505050505050505050505050565b60006152c7826040518060400160405280602081526020017f5361666545524332303a206c6f772d6c6576656c2063616c6c206661696c6564815250856001600160a01b03166154859092919063ffffffff16565b8051909150156149a157808060200190518101906152e59190615ebe565b6149a15760405162461bcd60e51b815260206004820152602a60248201527f5361666545524332303a204552433230206f7065726174696f6e20646964206e6044820152691bdd081cdd58d8d9595960b21b6064820152608401610dab565b600060016001607f1b03198212801590615365575060016001607f1b038213155b613fa35760405162461bcd60e51b815260206004820152602760248201527f53616665436173743a2076616c756520646f65736e27742066697420696e20316044820152663238206269747360c81b6064820152608401610dab565b6001600160a01b0382166000908152600f60205260408120548190815b6080811015614aba578183106153f357614aba565b600060026154018486615b9c565b61540c906001615b9c565b6154169190615cc7565b6001600160a01b0388166000908152600e60205260409020805491925087918390811061544557615445615ad4565b9060005260206000209060030201600201541161546457809350615472565b61546f6001826159c3565b92505b508061547d81615aea565b9150506153de565b60606147068484600085856001600160a01b0385163b6154e75760405162461bcd60e51b815260206004820152601d60248201527f416464726573733a2063616c6c20746f206e6f6e2d636f6e74726163740000006044820152606401610dab565b600080866001600160a01b031685876040516155039190615edb565b60006040518083038185875af1925050503d8060008114615540576040519150601f19603f3d011682016040523d82523d6000602084013e615545565b606091505b5091509150615555828286615560565b979650505050505050565b6060831561556f57508161287b565b82511561557f5782518084602001fd5b8160405162461bcd60e51b8152600401610dab9190615644565b508054600082556003029060005260206000209081019061381b91905b80821115613fa35760008082556001820181905560028201556003016155b6565b6001600160a01b038116811461381b57600080fd5b600080604083850312156155ff57600080fd5b823561560a816155d7565b946020939093013593505050565b60005b8381101561563357818101518382015260200161561b565b838111156115185750506000910152565b6020815260008251806020840152615663816040850160208701615618565b601f01601f19169190910160400192915050565b60006020828403121561568957600080fd5b813561287b816155d7565b6000806000606084860312156156a957600080fd5b83356156b4816155d7565b95602085013595506040909401359392505050565b801515811461381b57600080fd5b600080604083850312156156ea57600080fd5b82356156f5816155d7565b91506020830135615705816156c9565b809150509250929050565b60008060006040848603121561572557600080fd5b83356001600160401b038082111561573c57600080fd5b818601915086601f83011261575057600080fd5b81358181111561575f57600080fd5b8760208260051b850101111561577457600080fd5b6020928301955093505084013561578a816156c9565b809150509250925092565b6000602082840312156157a757600080fd5b813561287b816156c9565b6001600160a01b0391909116815260200190565b600080604083850312156157d957600080fd5b50508035926020909101359150565b6000602082840312156157fa57600080fd5b5035919050565b80356001600160401b038116811461581857600080fd5b919050565b6000806000806080858703121561583357600080fd5b61583c85615801565b935061584a60208601615801565b9250604085013561585a816155d7565b9150606085013561586a816155d7565b939692955090935050565b60008060006060848603121561588a57600080fd5b8335615895816155d7565b925060208401356158a5816156c9565b9150604084013564ffffffffff8116811461578a57600080fd5b6020808252818101527f4f776e61626c653a2063616c6c6572206973206e6f7420746865206f776e6572604082015260600190565b6020808252600b908201526a10903232b632b3b0ba37b960a91b604082015260600190565b634e487b7160e01b600052601160045260246000fd5b60006001600160681b038381169083168181101561594f5761594f615919565b039392505050565b600181811c9082168061596b57607f821691505b6020821081141561288b57634e487b7160e01b600052602260045260246000fd5b6020808252601f908201527f5265656e7472616e637947756172643a207265656e7472616e742063616c6c00604082015260600190565b6000828210156159d5576159d5615919565b500390565b602080825260089082015267546f6f206c61746560c01b604082015260600190565b6020808252601490820152732737903637b1b59037b7103232b632b3b0ba37b960611b604082015260600190565b60208082526016908201527511195b1959d85d1bdc881b1bd8dac8195e1c1a5c995960521b604082015260600190565b60006001600160681b03828116848216808303821115615a7c57615a7c615919565b01949350505050565b6020808252600b908201526a084818d85ad9481c1bdbdb60aa1b604082015260600190565b60208082526010908201526f3130b2102fb13637b1b5a73ab6b132b960811b604082015260600190565b634e487b7160e01b600052603260045260246000fd5b6000600019821415615afe57615afe615919565b5060010190565b6020808252600b908201526a1098590817d85b5bdd5b9d60aa1b604082015260600190565b6020808252600d908201526c139bc81b1bd8dac8199bdd5b99609a1b604082015260600190565b6020808252600c908201526b131bd8dac8195e1c1a5c995960a21b604082015260600190565b6020808252600b908201526a0848195bd8481bdc881ddb60aa1b604082015260600190565b60008219821115615baf57615baf615919565b500190565b6020808252600d908201526c08481a5b9a5d1a585b1a5e9959609a1b604082015260600190565b60008060008060008060008060006101208a8c031215615bfa57600080fd5b8951985060208a0151975060408a0151965060608a0151955060808a0151945060a08a0151935060c08a0151925060e08a0151615c36816156c9565b809250506101008a015190509295985092959850929598565b60208082526010908201526f105b1c9958591e481b5a59dc985d195960821b604082015260600190565b600060208284031215615c8b57600080fd5b5051919050565b6000816000190483118215151615615cac57615cac615919565b500290565b634e487b7160e01b600052601260045260246000fd5b600082615cd657615cd6615cb1565b500490565b600060208284031215615ced57600080fd5b815161287b816155d7565b602080825260069082015265119bdc989a5960d21b604082015260600190565b602080825260199082015278416c726561647920656d657267656e6379576974686472617760381b604082015260600190565b6000600f82810b9084900b828212801560016001607f1b0384900383131615615d7657615d76615919565b60016001607f1b03198390038212811615615d9357615d93615919565b50019392505050565b6000600f82810b9084900b60016001607f1b0383821384841380821684840486111615615dcb57615dcb615919565b60016001607f1b03196000851282811687830587121615615dee57615dee615919565b60008712925085820587128484161615615e0a57615e0a615919565b85850587128184161615615e2057615e20615919565b5050509290910295945050505050565b6000600f82810b9084900b828112801560016001607f1b0319830184121615615e5b57615e5b615919565b60016001607f1b0382018313811615615e7657615e76615919565b5090039392505050565b600081600f0b83600f0b80615e9757615e97615cb1565b60016001607f1b0319821460001982141615615eb557615eb5615919565b90059392505050565b600060208284031215615ed057600080fd5b815161287b816156c9565b60008251615eed818460208701615618565b919091019291505056fea2646970667358221220e35cd770ee0e4f72faeb42d8640c928cb02dbdbdb70506e995053e46bf31075d64736f6c634300080a0033",
  "linkReferences": {},
  "deployedLinkReferences": {}
}