{
  "_format": "hh-sol-artifact-1",
  "contractName": "Delegator",
  "sourceName": "contracts/test/Delegator.sol",
  "abi": [
    {
      "inputs": [
        {
          "internalType": "contract IVECake",
          "name": "_VECake",
          "type": "address"
        },
        {
          "internalType": "contract IERC20",
          "name": "_token",
          "type": "address"
        }
      ],
      "stateMutability": "nonpayable",
      "type": "constructor"
    },
    {
      "anonymous": false,
      "inputs": [
        {
          "indexed": true,
          "internalType": "address",
          "name": "owner",
          "type": "address"
        },
        {
          "indexed": true,
          "internalType": "address",
          "name": "spender",
          "type": "address"
        },
        {
          "indexed": false,
          "internalType": "uint256",
          "name": "value",
          "type": "uint256"
        }
      ],
      "name": "Approval",
      "type": "event"
    },
    {
      "anonymous": false,
      "inputs": [
        {
          "indexed": true,
          "internalType": "address",
          "name": "from",
          "type": "address"
        },
        {
          "indexed": true,
          "internalType": "address",
          "name": "to",
          "type": "address"
        },
        {
          "indexed": false,
          "internalType": "uint256",
          "name": "value",
          "type": "uint256"
        }
      ],
      "name": "Transfer",
      "type": "event"
    },
    {
      "inputs": [],
      "name": "VECake",
      "outputs": [
        {
          "internalType": "contract IVECake",
          "name": "",
          "type": "address"
        }
      ],
      "stateMutability": "view",
      "type": "function"
    },
    {
      "inputs": [
        {
          "internalType": "address",
          "name": "owner",
          "type": "address"
        },
        {
          "internalType": "address",
          "name": "spender",
          "type": "address"
        }
      ],
      "name": "allowance",
      "outputs": [
        {
          "internalType": "uint256",
          "name": "",
          "type": "uint256"
        }
      ],
      "stateMutability": "view",
      "type": "function"
    },
    {
      "inputs": [
        {
          "internalType": "address",
          "name": "spender",
          "type": "address"
        },
        {
          "internalType": "uint256",
          "name": "amount",
          "type": "uint256"
        }
      ],
      "name": "approve",
      "outputs": [
        {
          "internalType": "bool",
          "name": "",
          "type": "bool"
        }
      ],
      "stateMutability": "nonpayable",
      "type": "function"
    },
    {
      "inputs": [
        {
          "internalType": "address",
          "name": "account",
          "type": "address"
        }
      ],
      "name": "balanceOf",
      "outputs": [
        {
          "internalType": "uint256",
          "name": "",
          "type": "uint256"
        }
      ],
      "stateMutability": "view",
      "type": "function"
    },
    {
      "inputs": [
        {
          "internalType": "uint256",
          "name": "_amount",
          "type": "uint256"
        },
        {
          "internalType": "uint256",
          "name": "_unlockTime",
          "type": "uint256"
        }
      ],
      "name": "createLock",
      "outputs": [],
      "stateMutability": "nonpayable",
      "type": "function"
    },
    {
      "inputs": [],
      "name": "decimals",
      "outputs": [
        {
          "internalType": "uint8",
          "name": "",
          "type": "uint8"
        }
      ],
      "stateMutability": "view",
      "type": "function"
    },
    {
      "inputs": [
        {
          "internalType": "address",
          "name": "spender",
          "type": "address"
        },
        {
          "internalType": "uint256",
          "name": "subtractedValue",
          "type": "uint256"
        }
      ],
      "name": "decreaseAllowance",
      "outputs": [
        {
          "internalType": "bool",
          "name": "",
          "type": "bool"
        }
      ],
      "stateMutability": "nonpayable",
      "type": "function"
    },
    {
      "inputs": [
        {
          "internalType": "address",
          "name": "user",
          "type": "address"
        },
        {
          "internalType": "uint256",
          "name": "amount",
          "type": "uint256"
        },
        {
          "internalType": "uint256",
          "name": "lockEndTime",
          "type": "uint256"
        }
      ],
      "name": "delegate",
      "outputs": [],
      "stateMutability": "nonpayable",
      "type": "function"
    },
    {
      "inputs": [
        {
          "internalType": "address",
          "name": "_to",
          "type": "address"
        },
        {
          "internalType": "uint256",
          "name": "_amount",
          "type": "uint256"
        }
      ],
      "name": "earlyWithdraw",
      "outputs": [],
      "stateMutability": "nonpayable",
      "type": "function"
    },
    {
      "inputs": [],
      "name": "emergencyWithdraw",
      "outputs": [],
      "stateMutability": "nonpayable",
      "type": "function"
    },
    {
      "inputs": [
        {
          "internalType": "address",
          "name": "spender",
          "type": "address"
        },
        {
          "internalType": "uint256",
          "name": "addedValue",
          "type": "uint256"
        }
      ],
      "name": "increaseAllowance",
      "outputs": [
        {
          "internalType": "bool",
          "name": "",
          "type": "bool"
        }
      ],
      "stateMutability": "nonpayable",
      "type": "function"
    },
    {
      "inputs": [
        {
          "internalType": "uint256",
          "name": "_amount",
          "type": "uint256"
        }
      ],
      "name": "increaseLockAmount",
      "outputs": [],
      "stateMutability": "nonpayable",
      "type": "function"
    },
    {
      "inputs": [
        {
          "internalType": "uint256",
          "name": "_newUnlockTime",
          "type": "uint256"
        }
      ],
      "name": "increaseUnlockTime",
      "outputs": [],
      "stateMutability": "nonpayable",
      "type": "function"
    },
    {
      "inputs": [],
      "name": "name",
      "outputs": [
        {
          "internalType": "string",
          "name": "",
          "type": "string"
        }
      ],
      "stateMutability": "view",
      "type": "function"
    },
    {
      "inputs": [
        {
          "internalType": "contract IRevenueSharingPool",
          "name": "_pool",
          "type": "address"
        },
        {
          "internalType": "address",
          "name": "_recipient",
          "type": "address"
        }
      ],
      "name": "setRecipient",
      "outputs": [],
      "stateMutability": "nonpayable",
      "type": "function"
    },
    {
      "inputs": [],
      "name": "symbol",
      "outputs": [
        {
          "internalType": "string",
          "name": "",
          "type": "string"
        }
      ],
      "stateMutability": "view",
      "type": "function"
    },
    {
      "inputs": [],
      "name": "token",
      "outputs": [
        {
          "internalType": "contract IERC20",
          "name": "",
          "type": "address"
        }
      ],
      "stateMutability": "view",
      "type": "function"
    },
    {
      "inputs": [],
      "name": "totalSupply",
      "outputs": [
        {
          "internalType": "uint256",
          "name": "",
          "type": "uint256"
        }
      ],
      "stateMutability": "view",
      "type": "function"
    },
    {
      "inputs": [
        {
          "internalType": "address",
          "name": "to",
          "type": "address"
        },
        {
          "internalType": "uint256",
          "name": "amount",
          "type": "uint256"
        }
      ],
      "name": "transfer",
      "outputs": [
        {
          "internalType": "bool",
          "name": "",
          "type": "bool"
        }
      ],
      "stateMutability": "nonpayable",
      "type": "function"
    },
    {
      "inputs": [
        {
          "internalType": "address",
          "name": "from",
          "type": "address"
        },
        {
          "internalType": "address",
          "name": "to",
          "type": "address"
        },
        {
          "internalType": "uint256",
          "name": "amount",
          "type": "uint256"
        }
      ],
      "name": "transferFrom",
      "outputs": [
        {
          "internalType": "bool",
          "name": "",
          "type": "bool"
        }
      ],
      "stateMutability": "nonpayable",
      "type": "function"
    },
    {
      "inputs": [
        {
          "internalType": "address",
          "name": "_to",
          "type": "address"
        }
      ],
      "name": "withdrawAll",
      "outputs": [],
      "stateMutability": "nonpayable",
      "type": "function"
    }
  ],
  "bytecode": "0x60c06040523480156200001157600080fd5b5060405162001fb338038062001fb3833981016040819052620000349162000574565b6040518060400160405280601681526020017f564543616b652044656c656761746f7220546f6b656e000000000000000000008152506040518060400160405280600381526020016215911560ea1b81525081600390805190602001906200009e929190620004b5565b508051620000b4906004906020840190620004b5565b5050506001600160a01b0382811660a05281166080819052620000e79083600019620000ef602090811b620009eb17901c565b5050620006b4565b8015806200016d5750604051636eb1769f60e11b81523060048201526001600160a01b03838116602483015284169063dd62ed3e90604401602060405180830381865afa15801562000145573d6000803e3d6000fd5b505050506040513d601f19601f820116820180604052508101906200016b9190620005b3565b155b620001e55760405162461bcd60e51b815260206004820152603660248201527f5361666545524332303a20617070726f76652066726f6d206e6f6e2d7a65726f60448201527f20746f206e6f6e2d7a65726f20616c6c6f77616e63650000000000000000000060648201526084015b60405180910390fd5b604080516001600160a01b038416602482015260448082018490528251808303909101815260649091019091526020810180516001600160e01b0390811663095ea7b360e01b179091526200023d9185916200024216565b505050565b60006200029e826040518060400160405280602081526020017f5361666545524332303a206c6f772d6c6576656c2063616c6c206661696c6564815250856001600160a01b03166200032060201b62000beb179092919060201c565b8051909150156200023d5780806020019051810190620002bf9190620005cd565b6200023d5760405162461bcd60e51b815260206004820152602a60248201527f5361666545524332303a204552433230206f7065726174696f6e20646964206e6044820152691bdd081cdd58d8d9595960b21b6064820152608401620001dc565b60606200033184846000856200033b565b90505b9392505050565b6060824710156200039e5760405162461bcd60e51b815260206004820152602660248201527f416464726573733a20696e73756666696369656e742062616c616e636520666f6044820152651c8818d85b1b60d21b6064820152608401620001dc565b6001600160a01b0385163b620003f75760405162461bcd60e51b815260206004820152601d60248201527f416464726573733a2063616c6c20746f206e6f6e2d636f6e74726163740000006044820152606401620001dc565b600080866001600160a01b0316858760405162000415919062000624565b60006040518083038185875af1925050503d806000811462000454576040519150601f19603f3d011682016040523d82523d6000602084013e62000459565b606091505b5090925090506200046c82828662000477565b979650505050505050565b606083156200048857508162000334565b825115620004995782518084602001fd5b8160405162461bcd60e51b8152600401620001dc919062000642565b828054620004c39062000677565b90600052602060002090601f016020900481019282620004e7576000855562000532565b82601f106200050257805160ff191683800117855562000532565b8280016001018555821562000532579182015b828111156200053257825182559160200191906001019062000515565b506200054092915062000544565b5090565b5b8082111562000540576000815560010162000545565b6001600160a01b03811681146200057157600080fd5b50565b600080604083850312156200058857600080fd5b825162000595816200055b565b6020840151909250620005a8816200055b565b809150509250929050565b600060208284031215620005c657600080fd5b5051919050565b600060208284031215620005e057600080fd5b815180151581146200033457600080fd5b60005b838110156200060e578181015183820152602001620005f4565b838111156200061e576000848401525b50505050565b6000825162000638818460208701620005f1565b9190910192915050565b602081526000825180602084015262000663816040850160208701620005f1565b601f01601f19169190910160400192915050565b600181811c908216806200068c57607f821691505b60208210811415620006ae57634e487b7160e01b600052602260045260246000fd5b50919050565b60805160a0516118a162000712600039600081816102310152818161054c0152818161060d0152818161069d015281816108b1015281816108f701526109bc01526000818161038e015281816104f5015261085301526118a16000f3fe608060405234801561001057600080fd5b50600436106101775760003560e01c806370a08231116100d8578063a9059cbb1161008c578063dd62ed3e11610066578063dd62ed3e14610330578063fa09e63014610376578063fc0c546a1461038957600080fd5b8063a9059cbb14610302578063b52c05fe14610315578063db2e21bc1461032857600080fd5b80638bc8407a116100bd5780638bc8407a146102d457806395d89b41146102e7578063a457c2d7146102ef57600080fd5b806370a082311461028b5780637c616fe6146102c157600080fd5b8063313ce5671161012f578063403f444711610114578063403f44471461021957806362534e791461022c5780636574deb71461027857600080fd5b8063313ce567146101f7578063395093511461020657600080fd5b8063095ea7b311610160578063095ea7b3146101af57806318160ddd146101d257806323b872dd146101e457600080fd5b80630185921e1461017c57806306fdde0314610191575b600080fd5b61018f61018a3660046115d1565b6103b0565b005b6101996103bf565b6040516101a69190611632565b60405180910390f35b6101c26101bd366004611683565b610451565b60405190151581526020016101a6565b6002545b6040519081526020016101a6565b6101c26101f23660046116af565b610469565b604051601281526020016101a6565b6101c2610214366004611683565b61048f565b61018f6102273660046116f0565b6104db565b6102537f000000000000000000000000000000000000000000000000000000000000000081565b60405173ffffffffffffffffffffffffffffffffffffffff90911681526020016101a6565b61018f610286366004611683565b6105c1565b6101d6610299366004611709565b73ffffffffffffffffffffffffffffffffffffffff1660009081526020819052604090205490565b61018f6102cf3660046116f0565b61066e565b61018f6102e2366004611726565b6106e1565b61019961073b565b6101c26102fd366004611683565b61074a565b6101c2610310366004611683565b61082b565b61018f61032336600461175f565b610839565b61018f6108f5565b6101d661033e366004611726565b73ffffffffffffffffffffffffffffffffffffffff918216600090815260016020908152604080832093909416825291909152205490565b61018f610384366004611709565b610977565b6102537f000000000000000000000000000000000000000000000000000000000000000081565b6103ba8383610c02565b505050565b6060600380546103ce90611781565b80601f01602080910402602001604051908101604052809291908181526020018280546103fa90611781565b80156104475780601f1061041c57610100808354040283529160200191610447565b820191906000526020600020905b81548152906001019060200180831161042a57829003601f168201915b5050505050905090565b60003361045f818585610d22565b5060019392505050565b600033610477858285610ed5565b610482858585610fa6565b60019150505b9392505050565b33600081815260016020908152604080832073ffffffffffffffffffffffffffffffffffffffff8716845290915281205490919061045f90829086906104d69087906117d5565b610d22565b61051d73ffffffffffffffffffffffffffffffffffffffff7f000000000000000000000000000000000000000000000000000000000000000016333084611259565b6040517f403f4447000000000000000000000000000000000000000000000000000000008152600481018290527f000000000000000000000000000000000000000000000000000000000000000073ffffffffffffffffffffffffffffffffffffffff169063403f4447906024015b600060405180830381600087803b1580156105a657600080fd5b505af11580156105ba573d6000803e3d6000fd5b5050505050565b6040517f6574deb700000000000000000000000000000000000000000000000000000000815273ffffffffffffffffffffffffffffffffffffffff8381166004830152602482018390527f00000000000000000000000000000000000000000000000000000000000000001690636574deb7906044015b600060405180830381600087803b15801561065257600080fd5b505af1158015610666573d6000803e3d6000fd5b505050505050565b6040517f7c616fe6000000000000000000000000000000000000000000000000000000008152600481018290527f000000000000000000000000000000000000000000000000000000000000000073ffffffffffffffffffffffffffffffffffffffff1690637c616fe69060240161058c565b6040517f8bc8407a00000000000000000000000000000000000000000000000000000000815230600482015273ffffffffffffffffffffffffffffffffffffffff8281166024830152831690638bc8407a90604401610638565b6060600480546103ce90611781565b33600081815260016020908152604080832073ffffffffffffffffffffffffffffffffffffffff8716845290915281205490919083811015610813576040517f08c379a000000000000000000000000000000000000000000000000000000000815260206004820152602560248201527f45524332303a2064656372656173656420616c6c6f77616e63652062656c6f7760448201527f207a65726f00000000000000000000000000000000000000000000000000000060648201526084015b60405180910390fd5b6108208286868403610d22565b506001949350505050565b60003361045f818585610fa6565b61087b73ffffffffffffffffffffffffffffffffffffffff7f000000000000000000000000000000000000000000000000000000000000000016333085611259565b6040517fb52c05fe00000000000000000000000000000000000000000000000000000000815260048101839052602481018290527f000000000000000000000000000000000000000000000000000000000000000073ffffffffffffffffffffffffffffffffffffffff169063b52c05fe90604401610638565b7f000000000000000000000000000000000000000000000000000000000000000073ffffffffffffffffffffffffffffffffffffffff1663db2e21bc6040518163ffffffff1660e01b8152600401600060405180830381600087803b15801561095d57600080fd5b505af1158015610971573d6000803e3d6000fd5b50505050565b6040517ffa09e63000000000000000000000000000000000000000000000000000000000815273ffffffffffffffffffffffffffffffffffffffff82811660048301527f0000000000000000000000000000000000000000000000000000000000000000169063fa09e6309060240161058c565b801580610a8b57506040517fdd62ed3e00000000000000000000000000000000000000000000000000000000815230600482015273ffffffffffffffffffffffffffffffffffffffff838116602483015284169063dd62ed3e90604401602060405180830381865afa158015610a65573d6000803e3d6000fd5b505050506040513d601f19601f82011682018060405250810190610a899190611814565b155b610b17576040517f08c379a000000000000000000000000000000000000000000000000000000000815260206004820152603660248201527f5361666545524332303a20617070726f76652066726f6d206e6f6e2d7a65726f60448201527f20746f206e6f6e2d7a65726f20616c6c6f77616e636500000000000000000000606482015260840161080a565b60405173ffffffffffffffffffffffffffffffffffffffff83166024820152604481018290526103ba9084907f095ea7b300000000000000000000000000000000000000000000000000000000906064015b604080517fffffffffffffffffffffffffffffffffffffffffffffffffffffffffffffffe08184030181529190526020810180517bffffffffffffffffffffffffffffffffffffffffffffffffffffffff167fffffffff00000000000000000000000000000000000000000000000000000000909316929092179091526112b7565b6060610bfa84846000856113c3565b949350505050565b73ffffffffffffffffffffffffffffffffffffffff8216610c7f576040517f08c379a000000000000000000000000000000000000000000000000000000000815260206004820152601f60248201527f45524332303a206d696e7420746f20746865207a65726f206164647265737300604482015260640161080a565b8060026000828254610c9191906117d5565b909155505073ffffffffffffffffffffffffffffffffffffffff821660009081526020819052604081208054839290610ccb9084906117d5565b909155505060405181815273ffffffffffffffffffffffffffffffffffffffff8316906000907fddf252ad1be2c89b69c2b068fc378daa952ba7f163c4a11628f55a4df523b3ef9060200160405180910390a35050565b73ffffffffffffffffffffffffffffffffffffffff8316610dc4576040517f08c379a0000000000000000000000000000000000000000000000000000000008152602060048201526024808201527f45524332303a20617070726f76652066726f6d20746865207a65726f2061646460448201527f7265737300000000000000000000000000000000000000000000000000000000606482015260840161080a565b73ffffffffffffffffffffffffffffffffffffffff8216610e67576040517f08c379a000000000000000000000000000000000000000000000000000000000815260206004820152602260248201527f45524332303a20617070726f766520746f20746865207a65726f20616464726560448201527f7373000000000000000000000000000000000000000000000000000000000000606482015260840161080a565b73ffffffffffffffffffffffffffffffffffffffff83811660008181526001602090815260408083209487168084529482529182902085905590518481527f8c5be1e5ebec7d5bd14f71427d1e84f3dd0314c0f7b2291e5b200ac8c7c3b925910160405180910390a3505050565b73ffffffffffffffffffffffffffffffffffffffff8381166000908152600160209081526040808320938616835292905220547fffffffffffffffffffffffffffffffffffffffffffffffffffffffffffffffff81146109715781811015610f99576040517f08c379a000000000000000000000000000000000000000000000000000000000815260206004820152601d60248201527f45524332303a20696e73756666696369656e7420616c6c6f77616e6365000000604482015260640161080a565b6109718484848403610d22565b73ffffffffffffffffffffffffffffffffffffffff8316611049576040517f08c379a000000000000000000000000000000000000000000000000000000000815260206004820152602560248201527f45524332303a207472616e736665722066726f6d20746865207a65726f20616460448201527f6472657373000000000000000000000000000000000000000000000000000000606482015260840161080a565b73ffffffffffffffffffffffffffffffffffffffff82166110ec576040517f08c379a000000000000000000000000000000000000000000000000000000000815260206004820152602360248201527f45524332303a207472616e7366657220746f20746865207a65726f206164647260448201527f6573730000000000000000000000000000000000000000000000000000000000606482015260840161080a565b73ffffffffffffffffffffffffffffffffffffffff8316600090815260208190526040902054818110156111a2576040517f08c379a000000000000000000000000000000000000000000000000000000000815260206004820152602660248201527f45524332303a207472616e7366657220616d6f756e742065786365656473206260448201527f616c616e63650000000000000000000000000000000000000000000000000000606482015260840161080a565b73ffffffffffffffffffffffffffffffffffffffff8085166000908152602081905260408082208585039055918516815290812080548492906111e69084906117d5565b925050819055508273ffffffffffffffffffffffffffffffffffffffff168473ffffffffffffffffffffffffffffffffffffffff167fddf252ad1be2c89b69c2b068fc378daa952ba7f163c4a11628f55a4df523b3ef8460405161124c91815260200190565b60405180910390a3610971565b60405173ffffffffffffffffffffffffffffffffffffffff808516602483015283166044820152606481018290526109719085907f23b872dd0000000000000000000000000000000000000000000000000000000090608401610b69565b6000611319826040518060400160405280602081526020017f5361666545524332303a206c6f772d6c6576656c2063616c6c206661696c65648152508573ffffffffffffffffffffffffffffffffffffffff16610beb9092919063ffffffff16565b8051909150156103ba5780806020019051810190611337919061182d565b6103ba576040517f08c379a000000000000000000000000000000000000000000000000000000000815260206004820152602a60248201527f5361666545524332303a204552433230206f7065726174696f6e20646964206e60448201527f6f74207375636365656400000000000000000000000000000000000000000000606482015260840161080a565b606082471015611455576040517f08c379a000000000000000000000000000000000000000000000000000000000815260206004820152602660248201527f416464726573733a20696e73756666696369656e742062616c616e636520666f60448201527f722063616c6c0000000000000000000000000000000000000000000000000000606482015260840161080a565b73ffffffffffffffffffffffffffffffffffffffff85163b6114d3576040517f08c379a000000000000000000000000000000000000000000000000000000000815260206004820152601d60248201527f416464726573733a2063616c6c20746f206e6f6e2d636f6e7472616374000000604482015260640161080a565b6000808673ffffffffffffffffffffffffffffffffffffffff1685876040516114fc919061184f565b60006040518083038185875af1925050503d8060008114611539576040519150601f19603f3d011682016040523d82523d6000602084013e61153e565b606091505b509150915061154e828286611559565b979650505050505050565b60608315611568575081610488565b8251156115785782518084602001fd5b816040517f08c379a000000000000000000000000000000000000000000000000000000000815260040161080a9190611632565b73ffffffffffffffffffffffffffffffffffffffff811681146115ce57600080fd5b50565b6000806000606084860312156115e657600080fd5b83356115f1816115ac565b95602085013595506040909401359392505050565b60005b83811015611621578181015183820152602001611609565b838111156109715750506000910152565b6020815260008251806020840152611651816040850160208701611606565b601f017fffffffffffffffffffffffffffffffffffffffffffffffffffffffffffffffe0169190910160400192915050565b6000806040838503121561169657600080fd5b82356116a1816115ac565b946020939093013593505050565b6000806000606084860312156116c457600080fd5b83356116cf816115ac565b925060208401356116df816115ac565b929592945050506040919091013590565b60006020828403121561170257600080fd5b5035919050565b60006020828403121561171b57600080fd5b8135610488816115ac565b6000806040838503121561173957600080fd5b8235611744816115ac565b91506020830135611754816115ac565b809150509250929050565b6000806040838503121561177257600080fd5b50508035926020909101359150565b600181811c9082168061179557607f821691505b602082108114156117cf577f4e487b7100000000000000000000000000000000000000000000000000000000600052602260045260246000fd5b50919050565b6000821982111561180f577f4e487b7100000000000000000000000000000000000000000000000000000000600052601160045260246000fd5b500190565b60006020828403121561182657600080fd5b5051919050565b60006020828403121561183f57600080fd5b8151801515811461048857600080fd5b60008251611861818460208701611606565b919091019291505056fea26469706673582212204fe46389bdd124a6ca2fb8c65c74de23a5f6e64dfbfcf352ab57af3e4445d34364736f6c634300080a0033",
  "linkReferences": {},
  "deployedLinkReferences": {}
}