{
  "_format": "hh-sol-artifact-1",
  "contractName": "MasterChef",
  "sourceName": "contracts/test/MasterChef.sol",
  "abi": [
    {
      "inputs": [
        {
          "internalType": "contract CakeToken",
          "name": "_cake",
          "type": "address"
        },
        {
          "internalType": "contract SyrupBar",
          "name": "_syrup",
          "type": "address"
        },
        {
          "internalType": "address",
          "name": "_devaddr",
          "type": "address"
        },
        {
          "internalType": "uint256",
          "name": "_cakePerBlock",
          "type": "uint256"
        },
        {
          "internalType": "uint256",
          "name": "_startBlock",
          "type": "uint256"
        }
      ],
      "stateMutability": "nonpayable",
      "type": "constructor"
    },
    {
      "anonymous": false,
      "inputs": [
        {
          "indexed": true,
          "internalType": "address",
          "name": "user",
          "type": "address"
        },
        {
          "indexed": true,
          "internalType": "uint256",
          "name": "pid",
          "type": "uint256"
        },
        {
          "indexed": false,
          "internalType": "uint256",
          "name": "amount",
          "type": "uint256"
        }
      ],
      "name": "Deposit",
      "type": "event"
    },
    {
      "anonymous": false,
      "inputs": [
        {
          "indexed": true,
          "internalType": "address",
          "name": "user",
          "type": "address"
        },
        {
          "indexed": true,
          "internalType": "uint256",
          "name": "pid",
          "type": "uint256"
        },
        {
          "indexed": false,
          "internalType": "uint256",
          "name": "amount",
          "type": "uint256"
        }
      ],
      "name": "EmergencyWithdraw",
      "type": "event"
    },
    {
      "anonymous": false,
      "inputs": [
        {
          "indexed": true,
          "internalType": "address",
          "name": "previousOwner",
          "type": "address"
        },
        {
          "indexed": true,
          "internalType": "address",
          "name": "newOwner",
          "type": "address"
        }
      ],
      "name": "OwnershipTransferred",
      "type": "event"
    },
    {
      "anonymous": false,
      "inputs": [
        {
          "indexed": true,
          "internalType": "address",
          "name": "user",
          "type": "address"
        },
        {
          "indexed": true,
          "internalType": "uint256",
          "name": "pid",
          "type": "uint256"
        },
        {
          "indexed": false,
          "internalType": "uint256",
          "name": "amount",
          "type": "uint256"
        }
      ],
      "name": "Withdraw",
      "type": "event"
    },
    {
      "inputs": [],
      "name": "BONUS_MULTIPLIER",
      "outputs": [
        {
          "internalType": "uint256",
          "name": "",
          "type": "uint256"
        }
      ],
      "stateMutability": "view",
      "type": "function"
    },
    {
      "inputs": [
        {
          "internalType": "uint256",
          "name": "_allocPoint",
          "type": "uint256"
        },
        {
          "internalType": "contract IBEP20",
          "name": "_lpToken",
          "type": "address"
        },
        {
          "internalType": "bool",
          "name": "_withUpdate",
          "type": "bool"
        }
      ],
      "name": "add",
      "outputs": [],
      "stateMutability": "nonpayable",
      "type": "function"
    },
    {
      "inputs": [],
      "name": "cake",
      "outputs": [
        {
          "internalType": "contract CakeToken",
          "name": "",
          "type": "address"
        }
      ],
      "stateMutability": "view",
      "type": "function"
    },
    {
      "inputs": [],
      "name": "cakePerBlock",
      "outputs": [
        {
          "internalType": "uint256",
          "name": "",
          "type": "uint256"
        }
      ],
      "stateMutability": "view",
      "type": "function"
    },
    {
      "inputs": [
        {
          "internalType": "uint256",
          "name": "_pid",
          "type": "uint256"
        },
        {
          "internalType": "uint256",
          "name": "_amount",
          "type": "uint256"
        }
      ],
      "name": "deposit",
      "outputs": [],
      "stateMutability": "nonpayable",
      "type": "function"
    },
    {
      "inputs": [
        {
          "internalType": "address",
          "name": "_devaddr",
          "type": "address"
        }
      ],
      "name": "dev",
      "outputs": [],
      "stateMutability": "nonpayable",
      "type": "function"
    },
    {
      "inputs": [],
      "name": "devaddr",
      "outputs": [
        {
          "internalType": "address",
          "name": "",
          "type": "address"
        }
      ],
      "stateMutability": "view",
      "type": "function"
    },
    {
      "inputs": [
        {
          "internalType": "uint256",
          "name": "_pid",
          "type": "uint256"
        }
      ],
      "name": "emergencyWithdraw",
      "outputs": [],
      "stateMutability": "nonpayable",
      "type": "function"
    },
    {
      "inputs": [
        {
          "internalType": "uint256",
          "name": "_amount",
          "type": "uint256"
        }
      ],
      "name": "enterStaking",
      "outputs": [],
      "stateMutability": "nonpayable",
      "type": "function"
    },
    {
      "inputs": [
        {
          "internalType": "uint256",
          "name": "_from",
          "type": "uint256"
        },
        {
          "internalType": "uint256",
          "name": "_to",
          "type": "uint256"
        }
      ],
      "name": "getMultiplier",
      "outputs": [
        {
          "internalType": "uint256",
          "name": "",
          "type": "uint256"
        }
      ],
      "stateMutability": "view",
      "type": "function"
    },
    {
      "inputs": [
        {
          "internalType": "uint256",
          "name": "_amount",
          "type": "uint256"
        }
      ],
      "name": "leaveStaking",
      "outputs": [],
      "stateMutability": "nonpayable",
      "type": "function"
    },
    {
      "inputs": [],
      "name": "massUpdatePools",
      "outputs": [],
      "stateMutability": "nonpayable",
      "type": "function"
    },
    {
      "inputs": [
        {
          "internalType": "uint256",
          "name": "_pid",
          "type": "uint256"
        }
      ],
      "name": "migrate",
      "outputs": [],
      "stateMutability": "nonpayable",
      "type": "function"
    },
    {
      "inputs": [],
      "name": "migrator",
      "outputs": [
        {
          "internalType": "contract IMigratorChef",
          "name": "",
          "type": "address"
        }
      ],
      "stateMutability": "view",
      "type": "function"
    },
    {
      "inputs": [],
      "name": "owner",
      "outputs": [
        {
          "internalType": "address",
          "name": "",
          "type": "address"
        }
      ],
      "stateMutability": "view",
      "type": "function"
    },
    {
      "inputs": [
        {
          "internalType": "uint256",
          "name": "_pid",
          "type": "uint256"
        },
        {
          "internalType": "address",
          "name": "_user",
          "type": "address"
        }
      ],
      "name": "pendingCake",
      "outputs": [
        {
          "internalType": "uint256",
          "name": "",
          "type": "uint256"
        }
      ],
      "stateMutability": "view",
      "type": "function"
    },
    {
      "inputs": [
        {
          "internalType": "uint256",
          "name": "",
          "type": "uint256"
        }
      ],
      "name": "poolInfo",
      "outputs": [
        {
          "internalType": "contract IBEP20",
          "name": "lpToken",
          "type": "address"
        },
        {
          "internalType": "uint256",
          "name": "allocPoint",
          "type": "uint256"
        },
        {
          "internalType": "uint256",
          "name": "lastRewardBlock",
          "type": "uint256"
        },
        {
          "internalType": "uint256",
          "name": "accCakePerShare",
          "type": "uint256"
        }
      ],
      "stateMutability": "view",
      "type": "function"
    },
    {
      "inputs": [],
      "name": "poolLength",
      "outputs": [
        {
          "internalType": "uint256",
          "name": "",
          "type": "uint256"
        }
      ],
      "stateMutability": "view",
      "type": "function"
    },
    {
      "inputs": [],
      "name": "renounceOwnership",
      "outputs": [],
      "stateMutability": "nonpayable",
      "type": "function"
    },
    {
      "inputs": [
        {
          "internalType": "uint256",
          "name": "_pid",
          "type": "uint256"
        },
        {
          "internalType": "uint256",
          "name": "_allocPoint",
          "type": "uint256"
        },
        {
          "internalType": "bool",
          "name": "_withUpdate",
          "type": "bool"
        }
      ],
      "name": "set",
      "outputs": [],
      "stateMutability": "nonpayable",
      "type": "function"
    },
    {
      "inputs": [
        {
          "internalType": "contract IMigratorChef",
          "name": "_migrator",
          "type": "address"
        }
      ],
      "name": "setMigrator",
      "outputs": [],
      "stateMutability": "nonpayable",
      "type": "function"
    },
    {
      "inputs": [],
      "name": "startBlock",
      "outputs": [
        {
          "internalType": "uint256",
          "name": "",
          "type": "uint256"
        }
      ],
      "stateMutability": "view",
      "type": "function"
    },
    {
      "inputs": [],
      "name": "syrup",
      "outputs": [
        {
          "internalType": "contract SyrupBar",
          "name": "",
          "type": "address"
        }
      ],
      "stateMutability": "view",
      "type": "function"
    },
    {
      "inputs": [],
      "name": "totalAllocPoint",
      "outputs": [
        {
          "internalType": "uint256",
          "name": "",
          "type": "uint256"
        }
      ],
      "stateMutability": "view",
      "type": "function"
    },
    {
      "inputs": [
        {
          "internalType": "address",
          "name": "newOwner",
          "type": "address"
        }
      ],
      "name": "transferOwnership",
      "outputs": [],
      "stateMutability": "nonpayable",
      "type": "function"
    },
    {
      "inputs": [
        {
          "internalType": "uint256",
          "name": "multiplierNumber",
          "type": "uint256"
        }
      ],
      "name": "updateMultiplier",
      "outputs": [],
      "stateMutability": "nonpayable",
      "type": "function"
    },
    {
      "inputs": [
        {
          "internalType": "uint256",
          "name": "_pid",
          "type": "uint256"
        }
      ],
      "name": "updatePool",
      "outputs": [],
      "stateMutability": "nonpayable",
      "type": "function"
    },
    {
      "inputs": [
        {
          "internalType": "uint256",
          "name": "",
          "type": "uint256"
        },
        {
          "internalType": "address",
          "name": "",
          "type": "address"
        }
      ],
      "name": "userInfo",
      "outputs": [
        {
          "internalType": "uint256",
          "name": "amount",
          "type": "uint256"
        },
        {
          "internalType": "uint256",
          "name": "rewardDebt",
          "type": "uint256"
        }
      ],
      "stateMutability": "view",
      "type": "function"
    },
    {
      "inputs": [
        {
          "internalType": "uint256",
          "name": "_pid",
          "type": "uint256"
        },
        {
          "internalType": "uint256",
          "name": "_amount",
          "type": "uint256"
        }
      ],
      "name": "withdraw",
      "outputs": [],
      "stateMutability": "nonpayable",
      "type": "function"
    }
  ],
  "bytecode": "0x60806040526001600555600060095534801561001a57600080fd5b5060405162002b0a38038062002b0a833981810160405260a081101561003f57600080fd5b5080516020820151604083015160608401516080909401519293919290919060006100686101e2565b600080546001600160a01b0319166001600160a01b0383169081178255604051929350917f8be0079c531659141344cd1fd0a4f28419497f9722a3daafe3b4186f6b6457e0908290a350600180546001600160a01b03199081166001600160a01b03978816908117835560028054831697891697909717909655600380548216958816959095179094556004928355600a829055604080516080810182529586526103e86020870181815291870193845260006060880181815260078054958601815590915296517fa66cc928b5edb82af9bd49922954155ab7b0942694bea4ce44661d9a8736c688939095029283018054909616949097169390931790935590517fa66cc928b5edb82af9bd49922954155ab7b0942694bea4ce44661d9a8736c689830155517fa66cc928b5edb82af9bd49922954155ab7b0942694bea4ce44661d9a8736c68a82015590517fa66cc928b5edb82af9bd49922954155ab7b0942694bea4ce44661d9a8736c68b909101556009556101e6565b3390565b61291480620001f66000396000f3fe608060405234801561001057600080fd5b50600436106101cf5760003560e01c80635ffe6146116101045780638d88a90e116100a2578063d49e77cd11610071578063d49e77cd1461050c578063dce1748414610514578063e2bbb1581461051c578063f2fde38b1461053f576101cf565b80638d88a90e1461045c5780638da5cb5b1461048f5780638dbb1e3a1461049757806393f1a40b146104ba576101cf565b8063715018a6116100de578063715018a6146104135780637cd07e471461041b57806386a952c41461044c5780638aa2855014610454576101cf565b80635ffe6146146103c3578063630b5ba1146103e057806364482f79146103e8576101cf565b806323cf311811610171578063454b06081161014b578063454b06081461036457806348cd4cb11461038157806351eb05a6146103895780635312ea8e146103a6576101cf565b806323cf3118146102f157806341441d3b14610324578063441a3e7014610341576101cf565b80631175a1dd116101ad5780631175a1dd146102155780631526fe271461024e57806317caf6f1146102a85780631eaaa045146102b0576101cf565b80630755e0b6146101d4578063081e3eda146101ee5780631058d281146101f6575b600080fd5b6101dc610572565b60408051918252519081900360200190f35b6101dc610578565b6102136004803603602081101561020c57600080fd5b503561057e565b005b6101dc6004803603604081101561022b57600080fd5b508035906020013573ffffffffffffffffffffffffffffffffffffffff166107ba565b61026b6004803603602081101561026457600080fd5b503561094a565b6040805173ffffffffffffffffffffffffffffffffffffffff90951685526020850193909352838301919091526060830152519081900360800190f35b6101dc610998565b610213600480360360608110156102c657600080fd5b5080359073ffffffffffffffffffffffffffffffffffffffff6020820135169060400135151561099e565b6102136004803603602081101561030757600080fd5b503573ffffffffffffffffffffffffffffffffffffffff16610b99565b6102136004803603602081101561033a57600080fd5b5035610c88565b6102136004803603604081101561035757600080fd5b5080359060200135610e4f565b6102136004803603602081101561037a57600080fd5b5035611040565b6101dc61139b565b6102136004803603602081101561039f57600080fd5b50356113a1565b610213600480360360208110156103bc57600080fd5b503561162d565b610213600480360360208110156103d957600080fd5b50356116d5565b610213611782565b610213600480360360608110156103fe57600080fd5b508035906020810135906040013515156117a5565b6102136118d2565b6104236119e9565b6040805173ffffffffffffffffffffffffffffffffffffffff9092168252519081900360200190f35b610423611a05565b6101dc611a21565b6102136004803603602081101561047257600080fd5b503573ffffffffffffffffffffffffffffffffffffffff16611a27565b610423611af4565b6101dc600480360360408110156104ad57600080fd5b5080359060200135611b10565b6104f3600480360360408110156104d057600080fd5b508035906020013573ffffffffffffffffffffffffffffffffffffffff16611b2b565b6040805192835260208301919091528051918290030190f35b610423611b4f565b610423611b6b565b6102136004803603604081101561053257600080fd5b5080359060200135611b87565b6102136004803603602081101561055557600080fd5b503573ffffffffffffffffffffffffffffffffffffffff16611d12565b60045481565b60075490565b6000600760008154811061058e57fe5b600091825260208083203384527f5eff886ea0ce6ca488a3d6e336d6c0f75f46d19b42c06ce5ee98e42c96d256c7909152604090922080546004909202909201925083111561063e57604080517f08c379a000000000000000000000000000000000000000000000000000000000815260206004820152601260248201527f77697468647261773a206e6f7420676f6f640000000000000000000000000000604482015290519081900360640190fd5b61064860006113a1565b6000610682826001015461067c64e8d4a5100061067687600301548760000154611eb390919063ffffffff16565b90611f26565b90611fa7565b9050801561069457610694338261201e565b83156106cb5781546106a69085611fa7565b825582546106cb9073ffffffffffffffffffffffffffffffffffffffff1633866120b5565b600383015482546106e69164e8d4a510009161067691611eb3565b6001830155600254604080517f9dc29fac00000000000000000000000000000000000000000000000000000000815233600482015260248101879052905173ffffffffffffffffffffffffffffffffffffffff90921691639dc29fac9160448082019260009290919082900301818387803b15801561076457600080fd5b505af1158015610778573d6000803e3d6000fd5b5050604080518781529051600093503392507ff279e6a1f5e320cca91135676d9cb6e44ca8a08c0b88342bcdb1144f6511b5689181900360200190a350505050565b600080600784815481106107ca57fe5b6000918252602080832087845260088252604080852073ffffffffffffffffffffffffffffffffffffffff898116875290845281862060049586029093016003810154815484517f70a082310000000000000000000000000000000000000000000000000000000081523098810198909852935191985093969395939492909116926370a08231926024808301939192829003018186803b15801561086e57600080fd5b505afa158015610882573d6000803e3d6000fd5b505050506040513d602081101561089857600080fd5b50516002850154909150431180156108af57508015155b156109155760006108c4856002015443611b10565b905060006108f160095461067688600101546108eb60045487611eb390919063ffffffff16565b90611eb3565b9050610910610909846106768464e8d4a51000611eb3565b8590612147565b935050505b61093d836001015461067c64e8d4a51000610676868860000154611eb390919063ffffffff16565b9450505050505b92915050565b6007818154811061095757fe5b6000918252602090912060049091020180546001820154600283015460039093015473ffffffffffffffffffffffffffffffffffffffff9092169350919084565b60095481565b6109a66121bb565b73ffffffffffffffffffffffffffffffffffffffff166109c4611af4565b73ffffffffffffffffffffffffffffffffffffffff1614610a4657604080517f08c379a000000000000000000000000000000000000000000000000000000000815260206004820181905260248201527f4f776e61626c653a2063616c6c6572206973206e6f7420746865206f776e6572604482015290519081900360640190fd5b8015610a5457610a54611782565b6000600a544311610a6757600a54610a69565b435b600954909150610a799085612147565b6009556040805160808101825273ffffffffffffffffffffffffffffffffffffffff85811682526020820187815292820184815260006060840181815260078054600181018255925293517fa66cc928b5edb82af9bd49922954155ab7b0942694bea4ce44661d9a8736c688600490920291820180547fffffffffffffffffffffffff000000000000000000000000000000000000000016919094161790925592517fa66cc928b5edb82af9bd49922954155ab7b0942694bea4ce44661d9a8736c68982015591517fa66cc928b5edb82af9bd49922954155ab7b0942694bea4ce44661d9a8736c68a830155517fa66cc928b5edb82af9bd49922954155ab7b0942694bea4ce44661d9a8736c68b90910155610b936121bf565b50505050565b610ba16121bb565b73ffffffffffffffffffffffffffffffffffffffff16610bbf611af4565b73ffffffffffffffffffffffffffffffffffffffff1614610c4157604080517f08c379a000000000000000000000000000000000000000000000000000000000815260206004820181905260248201527f4f776e61626c653a2063616c6c6572206973206e6f7420746865206f776e6572604482015290519081900360640190fd5b600680547fffffffffffffffffffffffff00000000000000000000000000000000000000001673ffffffffffffffffffffffffffffffffffffffff92909216919091179055565b60006007600081548110610c9857fe5b600091825260208083203384527f5eff886ea0ce6ca488a3d6e336d6c0f75f46d19b42c06ce5ee98e42c96d256c790915260408320600490920201925090610cdf906113a1565b805415610d28576000610d14826001015461067c64e8d4a5100061067687600301548760000154611eb390919063ffffffff16565b90508015610d2657610d26338261201e565b505b8215610d61578154610d529073ffffffffffffffffffffffffffffffffffffffff16333086612284565b8054610d5e9084612147565b81555b60038201548154610d7c9164e8d4a510009161067691611eb3565b6001820155600254604080517f40c10f1900000000000000000000000000000000000000000000000000000000815233600482015260248101869052905173ffffffffffffffffffffffffffffffffffffffff909216916340c10f199160448082019260009290919082900301818387803b158015610dfa57600080fd5b505af1158015610e0e573d6000803e3d6000fd5b5050604080518681529051600093503392507f90890809c654f11d6e72a28fa60149770a0d11ec6c92319d6ceb2bb0a4ea1a159181900360200190a3505050565b81610ebb57604080517f08c379a000000000000000000000000000000000000000000000000000000000815260206004820152601a60248201527f77697468647261772043414b4520627920756e7374616b696e67000000000000604482015290519081900360640190fd5b600060078381548110610eca57fe5b600091825260208083208684526008825260408085203386529092529220805460049092029092019250831115610f6257604080517f08c379a000000000000000000000000000000000000000000000000000000000815260206004820152601260248201527f77697468647261773a206e6f7420676f6f640000000000000000000000000000604482015290519081900360640190fd5b610f6b846113a1565b6000610f99826001015461067c64e8d4a5100061067687600301548760000154611eb390919063ffffffff16565b90508015610fab57610fab338261201e565b8315610fe2578154610fbd9085611fa7565b82558254610fe29073ffffffffffffffffffffffffffffffffffffffff1633866120b5565b60038301548254610ffd9164e8d4a510009161067691611eb3565b6001830155604080518581529051869133917ff279e6a1f5e320cca91135676d9cb6e44ca8a08c0b88342bcdb1144f6511b5689181900360200190a35050505050565b60065473ffffffffffffffffffffffffffffffffffffffff166110c457604080517f08c379a000000000000000000000000000000000000000000000000000000000815260206004820152601460248201527f6d6967726174653a206e6f206d69677261746f72000000000000000000000000604482015290519081900360640190fd5b6000600782815481106110d357fe5b600091825260208083206004928302018054604080517f70a0823100000000000000000000000000000000000000000000000000000000815230958101959095525191955073ffffffffffffffffffffffffffffffffffffffff16939284926370a0823192602480840193829003018186803b15801561115257600080fd5b505afa158015611166573d6000803e3d6000fd5b505050506040513d602081101561117c57600080fd5b50516006549091506111a89073ffffffffffffffffffffffffffffffffffffffff848116911683612319565b600654604080517fce5494bb00000000000000000000000000000000000000000000000000000000815273ffffffffffffffffffffffffffffffffffffffff85811660048301529151600093929092169163ce5494bb9160248082019260209290919082900301818787803b15801561122057600080fd5b505af1158015611234573d6000803e3d6000fd5b505050506040513d602081101561124a57600080fd5b5051604080517f70a08231000000000000000000000000000000000000000000000000000000008152306004820152905191925073ffffffffffffffffffffffffffffffffffffffff8316916370a0823191602480820192602092909190829003018186803b1580156112bc57600080fd5b505afa1580156112d0573d6000803e3d6000fd5b505050506040513d60208110156112e657600080fd5b5051821461135557604080517f08c379a000000000000000000000000000000000000000000000000000000000815260206004820152600c60248201527f6d6967726174653a206261640000000000000000000000000000000000000000604482015290519081900360640190fd5b83547fffffffffffffffffffffffff00000000000000000000000000000000000000001673ffffffffffffffffffffffffffffffffffffffff9190911617909255505050565b600a5481565b6000600782815481106113b057fe5b90600052602060002090600402019050806002015443116113d1575061162a565b8054604080517f70a08231000000000000000000000000000000000000000000000000000000008152306004820152905160009273ffffffffffffffffffffffffffffffffffffffff16916370a08231916024808301926020929190829003018186803b15801561144157600080fd5b505afa158015611455573d6000803e3d6000fd5b505050506040513d602081101561146b57600080fd5b505190508061148157504360029091015561162a565b6000611491836002015443611b10565b905060006114b860095461067686600101546108eb60045487611eb390919063ffffffff16565b60015460035491925073ffffffffffffffffffffffffffffffffffffffff908116916340c10f1991166114ec84600a611f26565b6040518363ffffffff1660e01b8152600401808373ffffffffffffffffffffffffffffffffffffffff16815260200182815260200192505050600060405180830381600087803b15801561153f57600080fd5b505af1158015611553573d6000803e3d6000fd5b5050600154600254604080517f40c10f1900000000000000000000000000000000000000000000000000000000815273ffffffffffffffffffffffffffffffffffffffff92831660048201526024810187905290519190921693506340c10f199250604480830192600092919082900301818387803b1580156115d557600080fd5b505af11580156115e9573d6000803e3d6000fd5b5050505061161761160c8461067664e8d4a5100085611eb390919063ffffffff16565b600386015490612147565b6003850155505043600290920191909155505b50565b60006007828154811061163c57fe5b6000918252602080832085845260088252604080852033808752935290932080546004909302909301805490945061168e9273ffffffffffffffffffffffffffffffffffffffff9190911691906120b5565b80546040805191825251849133917fbb757047c2b5f3974fe26b7c10f732e7bce710b0952a71082702781e62ae05959181900360200190a360008082556001909101555050565b6116dd6121bb565b73ffffffffffffffffffffffffffffffffffffffff166116fb611af4565b73ffffffffffffffffffffffffffffffffffffffff161461177d57604080517f08c379a000000000000000000000000000000000000000000000000000000000815260206004820181905260248201527f4f776e61626c653a2063616c6c6572206973206e6f7420746865206f776e6572604482015290519081900360640190fd5b600555565b60075460005b818110156117a157611799816113a1565b600101611788565b5050565b6117ad6121bb565b73ffffffffffffffffffffffffffffffffffffffff166117cb611af4565b73ffffffffffffffffffffffffffffffffffffffff161461184d57604080517f08c379a000000000000000000000000000000000000000000000000000000000815260206004820181905260248201527f4f776e61626c653a2063616c6c6572206973206e6f7420746865206f776e6572604482015290519081900360640190fd5b801561185b5761185b611782565b60006007848154811061186a57fe5b9060005260206000209060040201600101549050826007858154811061188c57fe5b906000526020600020906004020160010181905550828114610b93576118c7836118c183600954611fa790919063ffffffff16565b90612147565b600955610b936121bf565b6118da6121bb565b73ffffffffffffffffffffffffffffffffffffffff166118f8611af4565b73ffffffffffffffffffffffffffffffffffffffff161461197a57604080517f08c379a000000000000000000000000000000000000000000000000000000000815260206004820181905260248201527f4f776e61626c653a2063616c6c6572206973206e6f7420746865206f776e6572604482015290519081900360640190fd5b6000805460405173ffffffffffffffffffffffffffffffffffffffff909116907f8be0079c531659141344cd1fd0a4f28419497f9722a3daafe3b4186f6b6457e0908390a3600080547fffffffffffffffffffffffff0000000000000000000000000000000000000000169055565b60065473ffffffffffffffffffffffffffffffffffffffff1681565b60025473ffffffffffffffffffffffffffffffffffffffff1681565b60055481565b60035473ffffffffffffffffffffffffffffffffffffffff163314611aad57604080517f08c379a000000000000000000000000000000000000000000000000000000000815260206004820152600960248201527f6465763a207775743f0000000000000000000000000000000000000000000000604482015290519081900360640190fd5b600380547fffffffffffffffffffffffff00000000000000000000000000000000000000001673ffffffffffffffffffffffffffffffffffffffff92909216919091179055565b60005473ffffffffffffffffffffffffffffffffffffffff1690565b600554600090611b24906108eb8486611fa7565b9392505050565b60086020908152600092835260408084209091529082529020805460019091015482565b60035473ffffffffffffffffffffffffffffffffffffffff1681565b60015473ffffffffffffffffffffffffffffffffffffffff1681565b81611bf357604080517f08c379a000000000000000000000000000000000000000000000000000000000815260206004820152601760248201527f6465706f7369742043414b45206279207374616b696e67000000000000000000604482015290519081900360640190fd5b600060078381548110611c0257fe5b60009182526020808320868452600882526040808520338652909252922060049091029091019150611c33846113a1565b805415611c7c576000611c68826001015461067c64e8d4a5100061067687600301548760000154611eb390919063ffffffff16565b90508015611c7a57611c7a338261201e565b505b8215611cb5578154611ca69073ffffffffffffffffffffffffffffffffffffffff16333086612284565b8054611cb29084612147565b81555b60038201548154611cd09164e8d4a510009161067691611eb3565b6001820155604080518481529051859133917f90890809c654f11d6e72a28fa60149770a0d11ec6c92319d6ceb2bb0a4ea1a159181900360200190a350505050565b611d1a6121bb565b73ffffffffffffffffffffffffffffffffffffffff16611d38611af4565b73ffffffffffffffffffffffffffffffffffffffff1614611dba57604080517f08c379a000000000000000000000000000000000000000000000000000000000815260206004820181905260248201527f4f776e61626c653a2063616c6c6572206973206e6f7420746865206f776e6572604482015290519081900360640190fd5b73ffffffffffffffffffffffffffffffffffffffff8116611e26576040517f08c379a000000000000000000000000000000000000000000000000000000000815260040180806020018281038252602681526020018061283c6026913960400191505060405180910390fd5b6000805460405173ffffffffffffffffffffffffffffffffffffffff808516939216917f8be0079c531659141344cd1fd0a4f28419497f9722a3daafe3b4186f6b6457e091a3600080547fffffffffffffffffffffffff00000000000000000000000000000000000000001673ffffffffffffffffffffffffffffffffffffffff92909216919091179055565b600082611ec257506000610944565b82820282848281611ecf57fe5b0414611b24576040517f08c379a00000000000000000000000000000000000000000000000000000000081526004018080602001828103825260218152602001806128886021913960400191505060405180910390fd5b6000808211611f9657604080517f08c379a000000000000000000000000000000000000000000000000000000000815260206004820152601a60248201527f536166654d6174683a206469766973696f6e206279207a65726f000000000000604482015290519081900360640190fd5b818381611f9f57fe5b049392505050565b60008282111561201857604080517f08c379a000000000000000000000000000000000000000000000000000000000815260206004820152601e60248201527f536166654d6174683a207375627472616374696f6e206f766572666c6f770000604482015290519081900360640190fd5b50900390565b600254604080517fa2e6ddcc00000000000000000000000000000000000000000000000000000000815273ffffffffffffffffffffffffffffffffffffffff8581166004830152602482018590529151919092169163a2e6ddcc91604480830192600092919082900301818387803b15801561209957600080fd5b505af11580156120ad573d6000803e3d6000fd5b505050505050565b6040805173ffffffffffffffffffffffffffffffffffffffff8416602482015260448082018490528251808303909101815260649091019091526020810180517bffffffffffffffffffffffffffffffffffffffffffffffffffffffff167fa9059cbb000000000000000000000000000000000000000000000000000000001790526121429084906124a3565b505050565b600082820183811015611b2457604080517f08c379a000000000000000000000000000000000000000000000000000000000815260206004820152601b60248201527f536166654d6174683a206164646974696f6e206f766572666c6f770000000000604482015290519081900360640190fd5b3390565b600754600060015b8281101561220a57612200600782815481106121df57fe5b9060005260206000209060040201600101548361214790919063ffffffff16565b91506001016121c7565b5080156117a15761221c816003611f26565b9050612256816118c1600760008154811061223357fe5b906000526020600020906004020160010154600954611fa790919063ffffffff16565b60098190555080600760008154811061226b57fe5b9060005260206000209060040201600101819055505050565b6040805173ffffffffffffffffffffffffffffffffffffffff80861660248301528416604482015260648082018490528251808303909101815260849091019091526020810180517bffffffffffffffffffffffffffffffffffffffffffffffffffffffff167f23b872dd00000000000000000000000000000000000000000000000000000000179052610b939085906124a3565b8015806123c55750604080517fdd62ed3e00000000000000000000000000000000000000000000000000000000815230600482015273ffffffffffffffffffffffffffffffffffffffff848116602483015291519185169163dd62ed3e91604480820192602092909190829003018186803b15801561239757600080fd5b505afa1580156123ab573d6000803e3d6000fd5b505050506040513d60208110156123c157600080fd5b5051155b61241a576040517f08c379a00000000000000000000000000000000000000000000000000000000081526004018080602001828103825260368152602001806128a96036913960400191505060405180910390fd5b6040805173ffffffffffffffffffffffffffffffffffffffff8416602482015260448082018490528251808303909101815260649091019091526020810180517bffffffffffffffffffffffffffffffffffffffffffffffffffffffff167f095ea7b3000000000000000000000000000000000000000000000000000000001790526121429084905b6060612505826040518060400160405280602081526020017f5361666542455032303a206c6f772d6c6576656c2063616c6c206661696c65648152508573ffffffffffffffffffffffffffffffffffffffff1661257b9092919063ffffffff16565b8051909150156121425780806020019051602081101561252457600080fd5b5051612142576040517f08c379a000000000000000000000000000000000000000000000000000000000815260040180806020018281038252602a815260200180612812602a913960400191505060405180910390fd5b606061258a8484600085612592565b949350505050565b6060824710156125ed576040517f08c379a00000000000000000000000000000000000000000000000000000000081526004018080602001828103825260268152602001806128626026913960400191505060405180910390fd5b6125f68561274d565b61266157604080517f08c379a000000000000000000000000000000000000000000000000000000000815260206004820152601d60248201527f416464726573733a2063616c6c20746f206e6f6e2d636f6e7472616374000000604482015290519081900360640190fd5b600060608673ffffffffffffffffffffffffffffffffffffffff1685876040518082805190602001908083835b602083106126cb57805182527fffffffffffffffffffffffffffffffffffffffffffffffffffffffffffffffe0909201916020918201910161268e565b6001836020036101000a03801982511681845116808217855250505050505090500191505060006040518083038185875af1925050503d806000811461272d576040519150601f19603f3d011682016040523d82523d6000602084013e612732565b606091505b5091509150612742828286612753565b979650505050505050565b3b151590565b60608315612762575081611b24565b8251156127725782518084602001fd5b816040517f08c379a00000000000000000000000000000000000000000000000000000000081526004018080602001828103825283818151815260200191508051906020019080838360005b838110156127d65781810151838201526020016127be565b50505050905090810190601f1680156128035780820380516001836020036101000a031916815260200191505b509250505060405180910390fdfe5361666542455032303a204245503230206f7065726174696f6e20646964206e6f7420737563636565644f776e61626c653a206e6577206f776e657220697320746865207a65726f2061646472657373416464726573733a20696e73756666696369656e742062616c616e636520666f722063616c6c536166654d6174683a206d756c7469706c69636174696f6e206f766572666c6f775361666542455032303a20617070726f76652066726f6d206e6f6e2d7a65726f20746f206e6f6e2d7a65726f20616c6c6f77616e6365a26469706673582212204a998361f0f5665374d8aaeb4227a26c5a52a806a0be4997372508cb9e5e1e7c64736f6c634300060c0033",
  "linkReferences": {},
  "deployedLinkReferences": {}
}