{
  "_format": "hh-sol-artifact-1",
  "contractName": "ProxyForCakePoolFactory",
  "sourceName": "contracts/ProxyForCakePoolFactory.sol",
  "abi": [
    {
      "inputs": [],
      "stateMutability": "nonpayable",
      "type": "constructor"
    },
    {
      "anonymous": false,
      "inputs": [
        {
          "indexed": true,
          "internalType": "address",
          "name": "proxy",
          "type": "address"
        },
        {
          "indexed": true,
          "internalType": "address",
          "name": "user",
          "type": "address"
        }
      ],
      "name": "NewProxy",
      "type": "event"
    },
    {
      "anonymous": false,
      "inputs": [
        {
          "indexed": true,
          "internalType": "address",
          "name": "previousOwner",
          "type": "address"
        },
        {
          "indexed": true,
          "internalType": "address",
          "name": "newOwner",
          "type": "address"
        }
      ],
      "name": "OwnershipTransferred",
      "type": "event"
    },
    {
      "inputs": [],
      "name": "VECake",
      "outputs": [
        {
          "internalType": "address",
          "name": "",
          "type": "address"
        }
      ],
      "stateMutability": "view",
      "type": "function"
    },
    {
      "inputs": [
        {
          "internalType": "address",
          "name": "_user",
          "type": "address"
        }
      ],
      "name": "deploy",
      "outputs": [
        {
          "internalType": "address",
          "name": "proxy",
          "type": "address"
        }
      ],
      "stateMutability": "nonpayable",
      "type": "function"
    },
    {
      "inputs": [],
      "name": "initialization",
      "outputs": [
        {
          "internalType": "bool",
          "name": "",
          "type": "bool"
        }
      ],
      "stateMutability": "view",
      "type": "function"
    },
    {
      "inputs": [
        {
          "internalType": "address",
          "name": "_VECake",
          "type": "address"
        }
      ],
      "name": "initialize",
      "outputs": [],
      "stateMutability": "nonpayable",
      "type": "function"
    },
    {
      "inputs": [],
      "name": "owner",
      "outputs": [
        {
          "internalType": "address",
          "name": "",
          "type": "address"
        }
      ],
      "stateMutability": "view",
      "type": "function"
    },
    {
      "inputs": [],
      "name": "parameters",
      "outputs": [
        {
          "internalType": "address",
          "name": "VECake",
          "type": "address"
        },
        {
          "internalType": "address",
          "name": "user",
          "type": "address"
        }
      ],
      "stateMutability": "view",
      "type": "function"
    },
    {
      "inputs": [],
      "name": "renounceOwnership",
      "outputs": [],
      "stateMutability": "nonpayable",
      "type": "function"
    },
    {
      "inputs": [
        {
          "internalType": "address",
          "name": "newOwner",
          "type": "address"
        }
      ],
      "name": "transferOwnership",
      "outputs": [],
      "stateMutability": "nonpayable",
      "type": "function"
    }
  ],
  "bytecode": "0x608060405234801561001057600080fd5b5061001a3361001f565b61006f565b600080546001600160a01b038381166001600160a01b0319831681178455604051919092169283917f8be0079c531659141344cd1fd0a4f28419497f9722a3daafe3b4186f6b6457e09190a35050565b610c108061007e6000396000f3fe608060405234801561001057600080fd5b50600436106100885760003560e01c80638da5cb5b1161005b5780638da5cb5b14610148578063c172085e14610166578063c4d66de81461019b578063f2fde38b146101ae57600080fd5b80634c96a3891461008d57806362534e79146100ca578063715018a6146100ea57806389035730146100f4575b600080fd5b6100a061009b3660046106b5565b6101c1565b60405173ffffffffffffffffffffffffffffffffffffffff90911681526020015b60405180910390f35b6003546100a09073ffffffffffffffffffffffffffffffffffffffff1681565b6100f2610392565b005b60015460025461011b9173ffffffffffffffffffffffffffffffffffffffff908116911682565b6040805173ffffffffffffffffffffffffffffffffffffffff9384168152929091166020830152016100c1565b60005473ffffffffffffffffffffffffffffffffffffffff166100a0565b60035461018b9074010000000000000000000000000000000000000000900460ff1681565b60405190151581526020016100c1565b6100f26101a93660046106b5565b61041f565b6100f26101bc3660046106b5565b610503565b60035460009073ffffffffffffffffffffffffffffffffffffffff16331461024a576040517f08c379a000000000000000000000000000000000000000000000000000000000815260206004820152600a60248201527f4e6f7420564543616b650000000000000000000000000000000000000000000060448201526064015b60405180910390fd5b60408051808201825260035473ffffffffffffffffffffffffffffffffffffffff9081168083529085166020928301819052600180547fffffffffffffffffffffffff00000000000000000000000000000000000000009081168417909155600280549091168217905583519283019190915291810191909152426060820152608001604051602081830303815290604052805190602001206040516102ef906106a8565b8190604051809103906000f590508015801561030f573d6000803e3d6000fd5b50600180547fffffffffffffffffffffffff000000000000000000000000000000000000000090811690915560028054909116905560405190915073ffffffffffffffffffffffffffffffffffffffff83811691908316907fa94ca626c15b5acbc6f820b88b794bce0d7a9198f2ed3e248aa0a362e2bdd60b90600090a3919050565b60005473ffffffffffffffffffffffffffffffffffffffff163314610413576040517f08c379a000000000000000000000000000000000000000000000000000000000815260206004820181905260248201527f4f776e61626c653a2063616c6c6572206973206e6f7420746865206f776e65726044820152606401610241565b61041d6000610633565b565b60035474010000000000000000000000000000000000000000900460ff16156104a4576040517f08c379a000000000000000000000000000000000000000000000000000000000815260206004820152601360248201527f416c726561647920696e697469616c697a6564000000000000000000000000006044820152606401610241565b6003805473ffffffffffffffffffffffffffffffffffffffff9092167fffffffffffffffffffffff0000000000000000000000000000000000000000009092169190911774010000000000000000000000000000000000000000179055565b60005473ffffffffffffffffffffffffffffffffffffffff163314610584576040517f08c379a000000000000000000000000000000000000000000000000000000000815260206004820181905260248201527f4f776e61626c653a2063616c6c6572206973206e6f7420746865206f776e65726044820152606401610241565b73ffffffffffffffffffffffffffffffffffffffff8116610627576040517f08c379a000000000000000000000000000000000000000000000000000000000815260206004820152602660248201527f4f776e61626c653a206e6577206f776e657220697320746865207a65726f206160448201527f64647265737300000000000000000000000000000000000000000000000000006064820152608401610241565b61063081610633565b50565b6000805473ffffffffffffffffffffffffffffffffffffffff8381167fffffffffffffffffffffffff0000000000000000000000000000000000000000831681178455604051919092169283917f8be0079c531659141344cd1fd0a4f28419497f9722a3daafe3b4186f6b6457e09190a35050565b6104e8806106f383390190565b6000602082840312156106c757600080fd5b813573ffffffffffffffffffffffffffffffffffffffff811681146106eb57600080fd5b939250505056fe60c060405234801561001057600080fd5b50600080336001600160a01b031663890357306040518163ffffffff1660e01b81526004016040805180830381865afa158015610051573d6000803e3d6000fd5b505050506040513d601f19601f8201168201806040525081019061007591906100ab565b6001600160a01b039182166080521660a052506100de9050565b80516001600160a01b03811681146100a657600080fd5b919050565b600080604083850312156100be57600080fd5b6100c78361008f565b91506100d56020840161008f565b90509250929050565b60805160a0516103cc61011c6000396000605601526000818160bb0152818160fd015281816101bf0152818161024c015261030101526103cc6000f3fe608060405234801561001057600080fd5b506004361061004c5760003560e01c806305a1192b14610051578063399f3a4f146100a157806362534e79146100b6578063853828b6146100dd575b600080fd5b6100787f000000000000000000000000000000000000000000000000000000000000000081565b60405173ffffffffffffffffffffffffffffffffffffffff909116815260200160405180910390f35b6100b46100af366004610374565b6100e5565b005b6100787f000000000000000000000000000000000000000000000000000000000000000081565b6100b4610234565b3373ffffffffffffffffffffffffffffffffffffffff7f00000000000000000000000000000000000000000000000000000000000000001614610189576040517f08c379a000000000000000000000000000000000000000000000000000000000815260206004820152600a60248201527f4e6f7420564543616b650000000000000000000000000000000000000000000060448201526064015b60405180910390fd5b6040517f399f3a4f00000000000000000000000000000000000000000000000000000000815260048101839052602481018290527f000000000000000000000000000000000000000000000000000000000000000073ffffffffffffffffffffffffffffffffffffffff169063399f3a4f90604401600060405180830381600087803b15801561021857600080fd5b505af115801561022c573d6000803e3d6000fd5b505050505050565b3373ffffffffffffffffffffffffffffffffffffffff7f000000000000000000000000000000000000000000000000000000000000000016146102d3576040517f08c379a000000000000000000000000000000000000000000000000000000000815260206004820152600a60248201527f4e6f7420564543616b65000000000000000000000000000000000000000000006044820152606401610180565b6040517ffa09e6300000000000000000000000000000000000000000000000000000000081523060048201527f000000000000000000000000000000000000000000000000000000000000000073ffffffffffffffffffffffffffffffffffffffff169063fa09e63090602401600060405180830381600087803b15801561035a57600080fd5b505af115801561036e573d6000803e3d6000fd5b50505050565b6000806040838503121561038757600080fd5b5050803592602090910135915056fea26469706673582212201cdfd20073bab94f4cd09fd17babc94971d2402071f6a1620ff7f93144cbac8b64736f6c634300080a0033a2646970667358221220517aa35980d2a494b6e838dc941dea196956d68517cc88a8363cb31705e197dc64736f6c634300080a0033",
  "linkReferences": {},
  "deployedLinkReferences": {}
}