{
  "_format": "hh-sol-artifact-1",
  "contractName": "RevenueSharingPoolFactory",
  "sourceName": "contracts/RevenueSharingPoolFactory.sol",
  "abi": [
    {
      "inputs": [
        {
          "internalType": "address",
          "name": "_VECake",
          "type": "address"
        }
      ],
      "stateMutability": "nonpayable",
      "type": "constructor"
    },
    {
      "anonymous": false,
      "inputs": [
        {
          "indexed": true,
          "internalType": "address",
          "name": "pool",
          "type": "address"
        },
        {
          "indexed": true,
          "internalType": "address",
          "name": "rewardToken",
          "type": "address"
        },
        {
          "indexed": false,
          "internalType": "uint256",
          "name": "startTime",
          "type": "uint256"
        },
        {
          "indexed": false,
          "internalType": "uint256",
          "name": "poolsIndex",
          "type": "uint256"
        }
      ],
      "name": "NewRevenueSharingPool",
      "type": "event"
    },
    {
      "anonymous": false,
      "inputs": [
        {
          "indexed": true,
          "internalType": "address",
          "name": "previousOwner",
          "type": "address"
        },
        {
          "indexed": true,
          "internalType": "address",
          "name": "newOwner",
          "type": "address"
        }
      ],
      "name": "OwnershipTransferred",
      "type": "event"
    },
    {
      "inputs": [],
      "name": "MAX_STARTTIME_DURATION",
      "outputs": [
        {
          "internalType": "uint256",
          "name": "",
          "type": "uint256"
        }
      ],
      "stateMutability": "view",
      "type": "function"
    },
    {
      "inputs": [],
      "name": "VECake",
      "outputs": [
        {
          "internalType": "address",
          "name": "",
          "type": "address"
        }
      ],
      "stateMutability": "view",
      "type": "function"
    },
    {
      "inputs": [
        {
          "internalType": "uint256",
          "name": "_startTime",
          "type": "uint256"
        },
        {
          "internalType": "address",
          "name": "_rewardToken",
          "type": "address"
        },
        {
          "internalType": "address",
          "name": "_emergencyReturn",
          "type": "address"
        }
      ],
      "name": "deploy",
      "outputs": [
        {
          "internalType": "address",
          "name": "pool",
          "type": "address"
        }
      ],
      "stateMutability": "nonpayable",
      "type": "function"
    },
    {
      "inputs": [],
      "name": "owner",
      "outputs": [
        {
          "internalType": "address",
          "name": "",
          "type": "address"
        }
      ],
      "stateMutability": "view",
      "type": "function"
    },
    {
      "inputs": [],
      "name": "parameters",
      "outputs": [
        {
          "internalType": "address",
          "name": "VECake",
          "type": "address"
        },
        {
          "internalType": "uint256",
          "name": "startTime",
          "type": "uint256"
        },
        {
          "internalType": "address",
          "name": "rewardToken",
          "type": "address"
        },
        {
          "internalType": "address",
          "name": "emergencyReturn",
          "type": "address"
        },
        {
          "internalType": "address",
          "name": "owner",
          "type": "address"
        }
      ],
      "stateMutability": "view",
      "type": "function"
    },
    {
      "inputs": [],
      "name": "poolLength",
      "outputs": [
        {
          "internalType": "uint256",
          "name": "",
          "type": "uint256"
        }
      ],
      "stateMutability": "view",
      "type": "function"
    },
    {
      "inputs": [
        {
          "internalType": "uint256",
          "name": "",
          "type": "uint256"
        }
      ],
      "name": "pools",
      "outputs": [
        {
          "internalType": "address",
          "name": "",
          "type": "address"
        }
      ],
      "stateMutability": "view",
      "type": "function"
    },
    {
      "inputs": [],
      "name": "renounceOwnership",
      "outputs": [],
      "stateMutability": "nonpayable",
      "type": "function"
    },
    {
      "inputs": [
        {
          "internalType": "address",
          "name": "newOwner",
          "type": "address"
        }
      ],
      "name": "transferOwnership",
      "outputs": [],
      "stateMutability": "nonpayable",
      "type": "function"
    }
  ],
  "bytecode": "0x608060405234801561001057600080fd5b5060405161465738038061465783398101604081905261002f916100ad565b6100383361005d565b600680546001600160a01b0319166001600160a01b03929092169190911790556100dd565b600080546001600160a01b038381166001600160a01b0319831681178455604051919092169283917f8be0079c531659141344cd1fd0a4f28419497f9722a3daafe3b4186f6b6457e09190a35050565b6000602082840312156100bf57600080fd5b81516001600160a01b03811681146100d657600080fd5b9392505050565b61456b806100ec6000396000f3fe608060405234801561001057600080fd5b50600436106100a35760003560e01c806389035730116100765780639442fd621161005b5780639442fd62146101b9578063ac4afa38146101cc578063f2fde38b1461020257600080fd5b8063890357301461011d5780638da5cb5b1461019b57600080fd5b8063081e3eda146100a857806362534e79146100c4578063715018a6146101095780637434c73c14610113575b600080fd5b6100b160075481565b6040519081526020015b60405180910390f35b6006546100e49073ffffffffffffffffffffffffffffffffffffffff1681565b60405173ffffffffffffffffffffffffffffffffffffffff90911681526020016100bb565b610111610215565b005b6100b16224ea0081565b6001546002546003546004546005546101549473ffffffffffffffffffffffffffffffffffffffff90811694938116928116911685565b6040805173ffffffffffffffffffffffffffffffffffffffff968716815260208101959095529285169284019290925283166060830152909116608082015260a0016100bb565b60005473ffffffffffffffffffffffffffffffffffffffff166100e4565b6100e46101c736600461076c565b6102a7565b6100e46101da3660046107a8565b60086020526000908152604090205473ffffffffffffffffffffffffffffffffffffffff1681565b6101116102103660046107c1565b610591565b60005473ffffffffffffffffffffffffffffffffffffffff16331461029b576040517f08c379a000000000000000000000000000000000000000000000000000000000815260206004820181905260248201527f4f776e61626c653a2063616c6c6572206973206e6f7420746865206f776e657260448201526064015b60405180910390fd5b6102a560006106c1565b565b6000805473ffffffffffffffffffffffffffffffffffffffff163314610329576040517f08c379a000000000000000000000000000000000000000000000000000000000815260206004820181905260248201527f4f776e61626c653a2063616c6c6572206973206e6f7420746865206f776e65726044820152606401610292565b6103366224ea0042610812565b84111561039f576040517f08c379a000000000000000000000000000000000000000000000000000000000815260206004820152601160248201527f496e76616c696420737461727454696d650000000000000000000000000000006044820152606401610292565b6040805160a0808201835260065473ffffffffffffffffffffffffffffffffffffffff90811680845260208085018a90528883168587018190529288166060808701829052336080978801819052600180547fffffffffffffffffffffffff0000000000000000000000000000000000000000908116909617905560028d9055600380548616871790556004805486168417905560058054909516179093558651808301949094528387015290820189905242828501528451808303909401845291019283905281519101209061047590610736565b8190604051809103906000f5905080158015610495573d6000803e3d6000fd5b50600180547fffffffffffffffffffffffff000000000000000000000000000000000000000090811690915560006002819055600380548316905560048054831690556005805490921690915560078054929350906104f38361082a565b90915550506007805460009081526008602090815260409182902080547fffffffffffffffffffffffff00000000000000000000000000000000000000001673ffffffffffffffffffffffffffffffffffffffff8681169182179092559354835189815292830152861692917f63ed8263a7e646147254557c1caa689153b829ae2eb99f74878c84f12897c8c0910160405180910390a39392505050565b60005473ffffffffffffffffffffffffffffffffffffffff163314610612576040517f08c379a000000000000000000000000000000000000000000000000000000000815260206004820181905260248201527f4f776e61626c653a2063616c6c6572206973206e6f7420746865206f776e65726044820152606401610292565b73ffffffffffffffffffffffffffffffffffffffff81166106b5576040517f08c379a000000000000000000000000000000000000000000000000000000000815260206004820152602660248201527f4f776e61626c653a206e6577206f776e657220697320746865207a65726f206160448201527f64647265737300000000000000000000000000000000000000000000000000006064820152608401610292565b6106be816106c1565b50565b6000805473ffffffffffffffffffffffffffffffffffffffff8381167fffffffffffffffffffffffff0000000000000000000000000000000000000000831681178455604051919092169283917f8be0079c531659141344cd1fd0a4f28419497f9722a3daafe3b4186f6b6457e09190a35050565b613cd28061086483390190565b803573ffffffffffffffffffffffffffffffffffffffff8116811461076757600080fd5b919050565b60008060006060848603121561078157600080fd5b8335925061079160208501610743565b915061079f60408501610743565b90509250925092565b6000602082840312156107ba57600080fd5b5035919050565b6000602082840312156107d357600080fd5b6107dc82610743565b9392505050565b7f4e487b7100000000000000000000000000000000000000000000000000000000600052601160045260246000fd5b60008219821115610825576108256107e3565b500190565b60007fffffffffffffffffffffffffffffffffffffffffffffffffffffffffffffffff82141561085c5761085c6107e3565b506001019056fe60806040523480156200001157600080fd5b506200001d3362000124565b600180819055506000806000806000336001600160a01b031663890357306040518163ffffffff1660e01b815260040160a060405180830381865afa1580156200006b573d6000803e3d6000fd5b505050506040513d601f19601f82011682018060405250810190620000919190620001b5565b945094509450945094506000620000ae856200017460201b60201c565b600281905560068190556003819055600980546001600160a01b038088166001600160a01b031992831617909255600880548a84169216919091179055600f8054918616620100000262010000600160b01b03199092169190911790559050620001188262000124565b5050505050506200026d565b600080546001600160a01b038381166001600160a01b0319831681178455604051919092169283917f8be0079c531659141344cd1fd0a4f28419497f9722a3daafe3b4186f6b6457e09190a35050565b600062093a806200018681846200021c565b6200019291906200023f565b92915050565b80516001600160a01b0381168114620001b057600080fd5b919050565b600080600080600060a08688031215620001ce57600080fd5b620001d98662000198565b945060208601519350620001f06040870162000198565b9250620002006060870162000198565b9150620002106080870162000198565b90509295509295909350565b6000826200023a57634e487b7160e01b600052601260045260246000fd5b500490565b60008160001904831182151516156200026857634e487b7160e01b600052601160045260246000fd5b500290565b613a55806200027d6000396000f3fe608060405234801561001057600080fd5b50600436106102ad5760003560e01c806388eec93e1161017b578063b3651eea116100d8578063efca2eed1161008c578063f4359ce511610071578063f4359ce5146105dc578063f59dfdfb146105e6578063f7c618c1146105f957600080fd5b8063efca2eed146105c0578063f2fde38b146105c957600080fd5b8063cce277c5116100bd578063cce277c514610591578063e1ebb9f0146105a4578063ec5570d0146105ad57600080fd5b8063b3651eea14610553578063bee5dc321461058957600080fd5b8063981b24d01161012f578063a2ab2a4611610114578063a2ab2a461461052d578063a31254d114610536578063a5420e981461054957600080fd5b8063981b24d0146104fa578063a262f5f81461051a57600080fd5b80638bc8407a116101605780638bc8407a146104b75780638da5cb5b146104ca5780638fe8a101146104e857600080fd5b806388eec93e14610474578063899519be1461049757600080fd5b80635a4b8c1d11610229578063786479cd116101dd5780638147b0dd116101c25780638147b0dd14610435578063862a9f2f1461045857806386f17a361461046157600080fd5b8063786479cd146104025780637e686e011461042257600080fd5b806362534e791161020e57806362534e79146103c757806362812a39146103e7578063715018a6146103fa57600080fd5b80635a4b8c1d1461037357806361ac407d146103be57600080fd5b80631fe063bd116102805780633758716111610265578063375871611461034557806341c0e1b5146103585780634ee2cd7e1461036057600080fd5b80631fe063bd1461031d578063326a94071461033d57600080fd5b806303df738d146102b2578063097cd232146102d85780630cc672e4146102ed5780631e83409a1461030a575b600080fd5b6102c56102c036600461339b565b610619565b6040519081526020015b60405180910390f35b6102eb6102e63660046133c7565b610706565b005b600f546102fa9060ff1681565b60405190151581526020016102cf565b6102c56103183660046133e9565b61079a565b6102c561032b3660046133e9565b60046020526000908152604090205481565b6102eb610895565b6102eb610353366004613414565b610915565b6102eb6109fb565b6102c561036e36600461339b565b610b93565b600f546103999062010000900473ffffffffffffffffffffffffffffffffffffffff1681565b60405173ffffffffffffffffffffffffffffffffffffffff90911681526020016102cf565b6102c560025481565b6008546103999073ffffffffffffffffffffffffffffffffffffffff1681565b6103996103f53660046133e9565b610c8e565b6102eb610dd9565b6102c56104103660046133e9565b60056020526000908152604090205481565b6102fa61043036600461347d565b610e66565b6102fa6104433660046133e9565b60106020526000908152604090205460ff1681565b6102c5600a5481565b6102eb61046f3660046134bf565b611233565b6102fa6104823660046133e9565b600e6020526000908152604090205460ff1681565b6102c56104a5366004613516565b60076020526000908152604090205481565b6102eb6104c536600461352f565b6113e5565b60005473ffffffffffffffffffffffffffffffffffffffff16610399565b600f546102fa90610100900460ff1681565b6102c5610508366004613516565b600c6020526000908152604090205481565b6102c56105283660046133e9565b61160c565b6102c560035481565b6102c56105443660046133e9565b6116fc565b6102c56201518081565b6103996105613660046133e9565b600d6020526000908152604090205473ffffffffffffffffffffffffffffffffffffffff1681565b6102eb611891565b6102eb61059f366004613516565b6119cd565b6102c560065481565b6102c56105bb36600461339b565b611a5b565b6102c5600b5481565b6102eb6105d73660046133e9565b611a6e565b6102c562093a8081565b6102fa6105f4366004613516565b611b9b565b6009546103999073ffffffffffffffffffffffffffffffffffffffff1681565b6008546040517f1959a00200000000000000000000000000000000000000000000000000000000815273ffffffffffffffffffffffffffffffffffffffff84811660048301526000928392911690631959a0029060240160c060405180830381865afa15801561068d573d6000803e3d6000fd5b505050506040513d601f19601f820116820180604052508101906106b19190613595565b50505050509050600073ffffffffffffffffffffffffffffffffffffffff168173ffffffffffffffffffffffffffffffffffffffff16146106fe576106f68184611d11565b915050610700565b505b92915050565b60005473ffffffffffffffffffffffffffffffffffffffff16331461078c576040517f08c379a000000000000000000000000000000000000000000000000000000000815260206004820181905260248201527f4f776e61626c653a2063616c6c6572206973206e6f7420746865206f776e657260448201526064015b60405180910390fd5b6107968282611ed1565b5050565b600060026001541415610809576040517f08c379a000000000000000000000000000000000000000000000000000000000815260206004820152601f60248201527f5265656e7472616e637947756172643a207265656e7472616e742063616c6c006044820152606401610783565b6002600155600f54610100900460ff1615610880576040517f08c379a000000000000000000000000000000000000000000000000000000000815260206004820152600660248201527f6b696c6c656400000000000000000000000000000000000000000000000000006044820152606401610783565b61088b826000611f61565b6001805592915050565b60026001541415610902576040517f08c379a000000000000000000000000000000000000000000000000000000000815260206004820152601f60248201527f5265656e7472616e637947756172643a207265656e7472616e742063616c6c006044820152606401610783565b600260015561090f612114565b60018055565b60005473ffffffffffffffffffffffffffffffffffffffff163314610996576040517f08c379a000000000000000000000000000000000000000000000000000000000815260206004820181905260248201527f4f776e61626c653a2063616c6c6572206973206e6f7420746865206f776e65726044820152606401610783565b600f80547fffffffffffffffffffffffffffffffffffffffffffffffffffffffffffffff00168215159081179091556040519081527f3248d3607ebf8e63cb453d48ee2eac13a94abe9606149e791b3527de6c1b18239060200160405180910390a150565b60005473ffffffffffffffffffffffffffffffffffffffff163314610a7c576040517f08c379a000000000000000000000000000000000000000000000000000000000815260206004820181905260248201527f4f776e61626c653a2063616c6c6572206973206e6f7420746865206f776e65726044820152606401610783565b600f80547fffffffffffffffffffffffffffffffffffffffffffffffffffffffffffff00ff1661010017908190556009546040517f70a08231000000000000000000000000000000000000000000000000000000008152306004820152610b689273ffffffffffffffffffffffffffffffffffffffff6201000090910481169216906370a0823190602401602060405180830381865afa158015610b24573d6000803e3d6000fd5b505050506040513d601f19601f82011682018060405250810190610b489190613623565b60095473ffffffffffffffffffffffffffffffffffffffff169190612311565b6040517f0f8eeedbc400fd6686703559f58d1e6143fdaed533f19a86c93d67a2fe4fb33190600090a1565b6008546040517f1959a00200000000000000000000000000000000000000000000000000000000815273ffffffffffffffffffffffffffffffffffffffff84811660048301526000928392911690631959a0029060240160c060405180830381865afa158015610c07573d6000803e3d6000fd5b505050506040513d601f19601f82011682018060405250810190610c2b9190613595565b50505050509050600073ffffffffffffffffffffffffffffffffffffffff168173ffffffffffffffffffffffffffffffffffffffff1614610c8457610c708184611d11565b610c7a8585611d11565b6106f6919061366b565b6106f68484611d11565b6008546040517fc0dd84bd00000000000000000000000000000000000000000000000000000000815273ffffffffffffffffffffffffffffffffffffffff8084166004830152839260009291169063c0dd84bd90602401602060405180830381865afa158015610d02573d6000803e3d6000fd5b505050506040513d601f19601f82011682018060405250810190610d269190613683565b90508015610da0578273ffffffffffffffffffffffffffffffffffffffff166305a1192b6040518163ffffffff1660e01b8152600401602060405180830381865afa158015610d79573d6000803e3d6000fd5b505050506040513d601f19601f82011682018060405250810190610d9d91906136a0565b91505b73ffffffffffffffffffffffffffffffffffffffff8083166000908152600d6020526040902054168015610dd2578092505b5050919050565b60005473ffffffffffffffffffffffffffffffffffffffff163314610e5a576040517f08c379a000000000000000000000000000000000000000000000000000000000815260206004820181905260248201527f4f776e61626c653a2063616c6c6572206973206e6f7420746865206f776e65726044820152606401610783565b610e6460006123ea565b565b600060026001541415610ed5576040517f08c379a000000000000000000000000000000000000000000000000000000000815260206004820152601f60248201527f5265656e7472616e637947756172643a207265656e7472616e742063616c6c006044820152606401610783565b6002600155600f54610100900460ff1615610f4c576040517f08c379a000000000000000000000000000000000000000000000000000000000815260206004820152600660248201527f6b696c6c656400000000000000000000000000000000000000000000000000006044820152606401610783565b6014821115610fb7576040517f08c379a000000000000000000000000000000000000000000000000000000000815260206004820152600e60248201527f216f7665722032302075736572730000000000000000000000000000000000006044820152606401610783565b6003544210610fc857610fc8612114565b600654600f5460ff168015610fe85750610fe5620151808261366b565b42115b15610ff857610ff561245f565b50425b611001816126c5565b90506000805b8481101561120c576000868683818110611023576110236136bd565b905060200201602081019061103891906133e9565b905073ffffffffffffffffffffffffffffffffffffffff81166110b7576040517f08c379a000000000000000000000000000000000000000000000000000000000815260206004820152600860248201527f62616420757365720000000000000000000000000000000000000000000000006044820152606401610783565b60006110c282610c8e565b905060006110d18383886126df565b6008546040517f1959a00200000000000000000000000000000000000000000000000000000000815273ffffffffffffffffffffffffffffffffffffffff868116600483015292935060009290911690631959a0029060240160c060405180830381865afa158015611147573d6000803e3d6000fd5b505050506040513d601f19601f8201168201806040525081019061116b9190613595565b50505050509050600073ffffffffffffffffffffffffffffffffffffffff168173ffffffffffffffffffffffffffffffffffffffff16146111be576111b18184896126df565b6111bb908361366b565b91505b81156111f5576009546111e89073ffffffffffffffffffffffffffffffffffffffff168484612311565b6111f2828761366b565b95505b505050508080611204906136ec565b915050611007565b5080156112255780600a546112219190613725565b600a555b505060018080559392505050565b60005473ffffffffffffffffffffffffffffffffffffffff1633146112b4576040517f08c379a000000000000000000000000000000000000000000000000000000000815260206004820181905260248201527f4f776e61626c653a2063616c6c6572206973206e6f7420746865206f776e65726044820152606401610783565b60005b828110156113df5781601060008686858181106112d6576112d66136bd565b90506020020160208101906112eb91906133e9565b73ffffffffffffffffffffffffffffffffffffffff168152602081019190915260400160002080547fffffffffffffffffffffffffffffffffffffffffffffffffffffffffffffff0016911515919091179055838382818110611350576113506136bd565b905060200201602081019061136591906133e9565b73ffffffffffffffffffffffffffffffffffffffff163373ffffffffffffffffffffffffffffffffffffffff167f4623145569be6765dcff916cbe3a00bd0d2706802c4111e09d24e8e038661490846040516113c5911515815260200190565b60405180910390a3806113d7816136ec565b9150506112b7565b50505050565b6000823b1515801561141d575073ffffffffffffffffffffffffffffffffffffffff83166000908152600e602052604090205460ff16155b15611426575060015b60005473ffffffffffffffffffffffffffffffffffffffff90811690841633148061146e575081801561146e57503373ffffffffffffffffffffffffffffffffffffffff8216145b6114d4576040517f08c379a000000000000000000000000000000000000000000000000000000000815260206004820152601160248201527f5065726d697373696f6e2064656e6965640000000000000000000000000000006044820152606401610783565b3373ffffffffffffffffffffffffffffffffffffffff821614801590611520575073ffffffffffffffffffffffffffffffffffffffff84166000908152600e602052604090205460ff16155b156115745773ffffffffffffffffffffffffffffffffffffffff84166000908152600e6020526040902080547fffffffffffffffffffffffffffffffffffffffffffffffffffffffffffffff001660011790555b73ffffffffffffffffffffffffffffffffffffffff8481166000818152600d602090815260409182902080548886167fffffffffffffffffffffffff0000000000000000000000000000000000000000821681179092559251338152929094169392849290917f41174a535d9c86cb1bf669d347dcb44c01505b053b2a2ea186a69887859352ae910160405180910390a45050505050565b60006002600154141561167b576040517f08c379a000000000000000000000000000000000000000000000000000000000815260206004820152601f60248201527f5265656e7472616e637947756172643a207265656e7472616e742063616c6c006044820152606401610783565b6002600155600f54610100900460ff16156116f2576040517f08c379a000000000000000000000000000000000000000000000000000000000815260206004820152600660248201527f6b696c6c656400000000000000000000000000000000000000000000000000006044820152606401610783565b61088b3383611f61565b60006002600154141561176b576040517f08c379a000000000000000000000000000000000000000000000000000000000815260206004820152601f60248201527f5265656e7472616e637947756172643a207265656e7472616e742063616c6c006044820152606401610783565b6002600155600f54610100900460ff16156117e2576040517f08c379a000000000000000000000000000000000000000000000000000000000815260206004820152600660248201527f6b696c6c656400000000000000000000000000000000000000000000000000006044820152606401610783565b60035442106117f3576117f3612114565b600654600f5460ff1680156118135750611810620151808261366b565b42115b156118235761182061245f565b50425b61182c816126c5565b9050600061183984610c8e565b905060006118488583856126df565b905080156118855780600a5461185e9190613725565b600a556009546118859073ffffffffffffffffffffffffffffffffffffffff168383612311565b60018055949350505050565b600260015414156118fe576040517f08c379a000000000000000000000000000000000000000000000000000000000815260206004820152601f60248201527f5265656e7472616e637947756172643a207265656e7472616e742063616c6c006044820152606401610783565b600260015560005473ffffffffffffffffffffffffffffffffffffffff1633148061193857503360009081526010602052604090205460ff165b8061195f5750600f5460ff16801561195f57506201518060065461195c919061366b565b42115b6119c5576040517f08c379a000000000000000000000000000000000000000000000000000000000815260206004820152600660248201527f21616c6c6f7700000000000000000000000000000000000000000000000000006044820152606401610783565b61090f61245f565b60005473ffffffffffffffffffffffffffffffffffffffff163314611a4e576040517f08c379a000000000000000000000000000000000000000000000000000000000815260206004820181905260248201527f4f776e61626c653a2063616c6c6572206973206e6f7420746865206f776e65726044820152606401610783565b611a584282611ed1565b50565b6000611a678383611d11565b9392505050565b60005473ffffffffffffffffffffffffffffffffffffffff163314611aef576040517f08c379a000000000000000000000000000000000000000000000000000000000815260206004820181905260248201527f4f776e61626c653a2063616c6c6572206973206e6f7420746865206f776e65726044820152606401610783565b73ffffffffffffffffffffffffffffffffffffffff8116611b92576040517f08c379a000000000000000000000000000000000000000000000000000000000815260206004820152602660248201527f4f776e61626c653a206e6577206f776e657220697320746865207a65726f206160448201527f64647265737300000000000000000000000000000000000000000000000000006064820152608401610783565b611a58816123ea565b600060026001541415611c0a576040517f08c379a000000000000000000000000000000000000000000000000000000000815260206004820152601f60248201527f5265656e7472616e637947756172643a207265656e7472616e742063616c6c006044820152606401610783565b6002600155600f54610100900460ff1615611c81576040517f08c379a000000000000000000000000000000000000000000000000000000000815260206004820152600660248201527f6b696c6c656400000000000000000000000000000000000000000000000000006044820152606401610783565b600954611ca69073ffffffffffffffffffffffffffffffffffffffff16333085612be2565b600f5460ff168015611cc7575062015180600654611cc4919061366b565b42115b15611cd457611cd461245f565b6040518281527faee7b00ca0359ab0727fb54b350e15a1ed46fb12dc0d04ca9bb5f4e7c313249a9060200160405180910390a15050600180805590565b6008546040517f81fc83bb00000000000000000000000000000000000000000000000000000000815273ffffffffffffffffffffffffffffffffffffffff848116600483015260009283929116906381fc83bb90602401602060405180830381865afa158015611d85573d6000803e3d6000fd5b505050506040513d601f19601f82011682018060405250810190611da99190613623565b905080611dba576000915050610700565b6000611dc7858584612c40565b6008546040517f34d901a400000000000000000000000000000000000000000000000000000000815273ffffffffffffffffffffffffffffffffffffffff888116600483015260248201849052929350600092909116906334d901a490604401608060405180830381865afa158015611e44573d6000803e3d6000fd5b505050506040513d601f19601f82011682018060405250810190611e68919061374e565b90506000611e84826040015187611e7f9190613725565b612d62565b8260200151611e9391906137e7565b8251611e9f919061389d565b9050600081600f0b1215611eba576000945050505050610700565b611ec681600f0b612e34565b979650505050505050565b600954611ef69073ffffffffffffffffffffffffffffffffffffffff16333084612be2565b80600a6000828254611f08919061366b565b9250508190555080600b6000828254611f21919061366b565b9091555060009050611f32836126c5565b905081600760008381526020019081526020016000206000828254611f57919061366b565b9091555050505050565b60006003544210611f7457611f74612114565b600654600f5460ff168015611f945750611f91620151808261366b565b42115b15611fa457611fa161245f565b50425b611fad816126c5565b905073ffffffffffffffffffffffffffffffffffffffff8316611fd657611fd384610c8e565b92505b6000611fe38585846126df565b6008546040517f1959a00200000000000000000000000000000000000000000000000000000000815273ffffffffffffffffffffffffffffffffffffffff888116600483015292935060009290911690631959a0029060240160c060405180830381865afa158015612059573d6000803e3d6000fd5b505050506040513d601f19601f8201168201806040525081019061207d9190613595565b50505050509050600073ffffffffffffffffffffffffffffffffffffffff168173ffffffffffffffffffffffffffffffffffffffff16146120d0576120c38186856126df565b6120cd908361366b565b91505b811561210b5781600a546120e49190613725565b600a5560095461210b9073ffffffffffffffffffffffffffffffffffffffff168684612311565b50949350505050565b6003546000612122426126c5565b9050600860009054906101000a900473ffffffffffffffffffffffffffffffffffffffff1673ffffffffffffffffffffffffffffffffffffffff1663c2c4c5c16040518163ffffffff1660e01b8152600401600060405180830381600087803b15801561218e57600080fd5b505af11580156121a2573d6000803e3d6000fd5b5050505060005b603481101561230a57818311156121bf5761230a565b60006121ca84612ea0565b6008546040517f8ad4c4470000000000000000000000000000000000000000000000000000000081526004810183905291925060009173ffffffffffffffffffffffffffffffffffffffff90911690638ad4c44790602401608060405180830381865afa15801561223f573d6000803e3d6000fd5b505050506040513d601f19601f82011682018060405250810190612263919061374e565b90506000816040015186111561228957612286826040015187611e7f9190613725565b90505b600081836020015161229b91906137e7565b83516122a7919061389d565b9050600081600f0b12156122c9576000878152600c60205260408120556122e5565b6122d581600f0b612e34565b6000888152600c60205260409020555b505050506122f662093a808461366b565b925080612302816136ec565b9150506121a9565b5050600355565b60405173ffffffffffffffffffffffffffffffffffffffff83166024820152604481018290526123e59084907fa9059cbb00000000000000000000000000000000000000000000000000000000906064015b604080517fffffffffffffffffffffffffffffffffffffffffffffffffffffffffffffffe08184030181529190526020810180517bffffffffffffffffffffffffffffffffffffffffffffffffffffffff167fffffffff0000000000000000000000000000000000000000000000000000000090931692909217909152613051565b505050565b6000805473ffffffffffffffffffffffffffffffffffffffff8381167fffffffffffffffffffffffff0000000000000000000000000000000000000000831681178455604051919092169283917f8be0079c531659141344cd1fd0a4f28419497f9722a3daafe3b4186f6b6457e09190a35050565b6009546040517f70a0823100000000000000000000000000000000000000000000000000000000815230600482015260009173ffffffffffffffffffffffffffffffffffffffff16906370a0823190602401602060405180830381865afa1580156124ce573d6000803e3d6000fd5b505050506040513d601f19601f820116820180604052508101906124f29190613623565b90506000600a54826125049190613725565b905081600a8190555080600b600082825461251f919061366b565b909155505060065460006125338242613725565b90506000612540836126c5565b4260065590506000805b60348110156126835761256062093a808461366b565b9150814210156125e2578315801561257757508442145b156125aa5760008381526007602052604090205461259690879061366b565b600084815260076020526040902055612683565b836125b58642613725565b6125bf908861390e565b6125c9919061394b565b600084815260076020526040902054612596919061366b565b831580156125ef57508482145b156126225760008381526007602052604090205461260e90879061366b565b60008481526007602052604090205561266a565b8361262d8684613725565b612637908861390e565b612641919061394b565b60008481526007602052604090205461265a919061366b565b6000848152600760205260409020555b819450819250808061267b906136ec565b91505061254a565b5060408051428152602081018790527fce749457b74e10f393f2c6b1ce4261b78791376db5a3f501477a809f03f500d6910160405180910390a1505050505050565b600062093a806126d5818461394b565b610700919061390e565b6008546040517f81fc83bb00000000000000000000000000000000000000000000000000000000815273ffffffffffffffffffffffffffffffffffffffff858116600483015260009283928392839216906381fc83bb90602401602060405180830381865afa158015612756573d6000803e3d6000fd5b505050506040513d601f19601f8201168201806040525081019061277a9190613623565b60025490915081612792576000945050505050611a67565b73ffffffffffffffffffffffffffffffffffffffff8816600090815260046020526040902054806127cf576127c8898385612c40565b94506127f8565b73ffffffffffffffffffffffffffffffffffffffff891660009081526005602052604090205494505b8461280257600194505b6008546040517f34d901a400000000000000000000000000000000000000000000000000000000815273ffffffffffffffffffffffffffffffffffffffff8b811660048301526024820188905260009216906334d901a490604401608060405180830381865afa15801561287a573d6000803e3d6000fd5b505050506040513d601f19601f8201168201806040525081019061289e919061374e565b9050816128e05762093a8080600162093a8084604001516128bf919061366b565b6128c99190613725565b6128d3919061394b565b6128dd919061390e565b91505b8782106128f65760009650505050505050611a67565b82821015612902578291505b6040805160808101825260008082526020820181905291810182905260608101829052905b6034811015612b425789841061293c57612b42565b826040015184101580156129505750858811155b15612a775761296088600161366b565b975060405180608001604052808460000151600f0b81526020018460200151600f0b81526020018460400151815260200184606001518152509150858811156129d55760405180608001604052806000600f0b81526020016000600f0b81526020016000815260200160008152509250612b30565b6008546040517f34d901a400000000000000000000000000000000000000000000000000000000815273ffffffffffffffffffffffffffffffffffffffff8e81166004830152602482018b9052909116906334d901a490604401608060405180830381865afa158015612a4c573d6000803e3d6000fd5b505050506040513d601f19601f82011682018060405250810190612a70919061374e565b9250612b30565b6000612a8c836040015186611e7f9190613725565b90506000612ac1612ab9856020015184612aa691906137e7565b8651612ab2919061389d565b600061315d565b600f0b612e34565b905080158015612ad05750878a115b15612adc575050612b42565b8015612b1e576000868152600c6020908152604080832054600790925290912054612b07908361390e565b612b11919061394b565b612b1b908a61366b565b98505b612b2b62093a808761366b565b955050505b80612b3a816136ec565b915050612927565b50612b5785612b5260018a613725565b61317a565b73ffffffffffffffffffffffffffffffffffffffff8c81166000818152600560209081526040808320869055600482529182902088905581518b8152908101859052908101899052929950908c16917fd795915374024be1f03204e052bd584b33bb85c9128ede9c54adbe0bbdc220959060600160405180910390a350939998505050505050505050565b60405173ffffffffffffffffffffffffffffffffffffffff808516602483015283166044820152606481018290526113df9085907f23b872dd0000000000000000000000000000000000000000000000000000000090608401612363565b60008082815b6080811015612d5757818310612c5b57612d57565b60006002612c69848661366b565b612c7490600161366b565b612c7e919061394b565b6008546040517f34d901a400000000000000000000000000000000000000000000000000000000815273ffffffffffffffffffffffffffffffffffffffff8b8116600483015260248201849052929350600092909116906334d901a490604401608060405180830381865afa158015612cfb573d6000803e3d6000fd5b505050506040513d601f19601f82011682018060405250810190612d1f919061374e565b905087816040015111612d3457819450612d42565b612d3f600183613725565b93505b50508080612d4f906136ec565b915050612c46565b509095945050505050565b60007fffffffffffffffffffffffffffffffff800000000000000000000000000000008212801590612da457506f7fffffffffffffffffffffffffffffff8213155b612e30576040517f08c379a000000000000000000000000000000000000000000000000000000000815260206004820152602760248201527f53616665436173743a2076616c756520646f65736e27742066697420696e203160448201527f32382062697473000000000000000000000000000000000000000000000000006064820152608401610783565b5090565b600080821215612e30576040517f08c379a000000000000000000000000000000000000000000000000000000000815260206004820181905260248201527f53616665436173743a2076616c7565206d75737420626520706f7369746976656044820152606401610783565b600080600090506000600860009054906101000a900473ffffffffffffffffffffffffffffffffffffffff1673ffffffffffffffffffffffffffffffffffffffff1663900cf0cf6040518163ffffffff1660e01b8152600401602060405180830381865afa158015612f16573d6000803e3d6000fd5b505050506040513d601f19601f82011682018060405250810190612f3a9190613623565b905060005b608081101561304857818310612f5457613048565b60006002612f62848661366b565b612f6d90600161366b565b612f77919061394b565b6008546040517f8ad4c4470000000000000000000000000000000000000000000000000000000081526004810183905291925060009173ffffffffffffffffffffffffffffffffffffffff90911690638ad4c44790602401608060405180830381865afa158015612fec573d6000803e3d6000fd5b505050506040513d601f19601f82011682018060405250810190613010919061374e565b90508681604001511161302557819450613033565b613030600183613725565b93505b50508080613040906136ec565b915050612f3f565b50909392505050565b60006130b3826040518060400160405280602081526020017f5361666545524332303a206c6f772d6c6576656c2063616c6c206661696c65648152508573ffffffffffffffffffffffffffffffffffffffff166131899092919063ffffffff16565b8051909150156123e557808060200190518101906130d19190613683565b6123e5576040517f08c379a000000000000000000000000000000000000000000000000000000000815260206004820152602a60248201527f5361666545524332303a204552433230206f7065726174696f6e20646964206e60448201527f6f742073756363656564000000000000000000000000000000000000000000006064820152608401610783565b600081600f0b83600f0b12156131735781611a67565b5090919050565b60008183106131735781611a67565b606061319884846000856131a0565b949350505050565b606082471015613232576040517f08c379a000000000000000000000000000000000000000000000000000000000815260206004820152602660248201527f416464726573733a20696e73756666696369656e742062616c616e636520666f60448201527f722063616c6c00000000000000000000000000000000000000000000000000006064820152608401610783565b73ffffffffffffffffffffffffffffffffffffffff85163b6132b0576040517f08c379a000000000000000000000000000000000000000000000000000000000815260206004820152601d60248201527f416464726573733a2063616c6c20746f206e6f6e2d636f6e74726163740000006044820152606401610783565b6000808673ffffffffffffffffffffffffffffffffffffffff1685876040516132d991906139b2565b60006040518083038185875af1925050503d8060008114613316576040519150601f19603f3d011682016040523d82523d6000602084013e61331b565b606091505b5091509150611ec682828660608315613335575081611a67565b8251156133455782518084602001fd5b816040517f08c379a000000000000000000000000000000000000000000000000000000000815260040161078391906139ce565b73ffffffffffffffffffffffffffffffffffffffff81168114611a5857600080fd5b600080604083850312156133ae57600080fd5b82356133b981613379565b946020939093013593505050565b600080604083850312156133da57600080fd5b50508035926020909101359150565b6000602082840312156133fb57600080fd5b8135611a6781613379565b8015158114611a5857600080fd5b60006020828403121561342657600080fd5b8135611a6781613406565b60008083601f84011261344357600080fd5b50813567ffffffffffffffff81111561345b57600080fd5b6020830191508360208260051b850101111561347657600080fd5b9250929050565b6000806020838503121561349057600080fd5b823567ffffffffffffffff8111156134a757600080fd5b6134b385828601613431565b90969095509350505050565b6000806000604084860312156134d457600080fd5b833567ffffffffffffffff8111156134eb57600080fd5b6134f786828701613431565b909450925050602084013561350b81613406565b809150509250925092565b60006020828403121561352857600080fd5b5035919050565b6000806040838503121561354257600080fd5b823561354d81613379565b9150602083013561355d81613379565b809150509250929050565b805165ffffffffffff8116811461357e57600080fd5b919050565b805161ffff8116811461357e57600080fd5b60008060008060008060c087890312156135ae57600080fd5b86516135b981613379565b60208801519096506fffffffffffffffffffffffffffffffff811681146135df57600080fd5b94506135ed60408801613568565b93506135fb60608801613568565b925061360960808801613583565b915061361760a08801613583565b90509295509295509295565b60006020828403121561363557600080fd5b5051919050565b7f4e487b7100000000000000000000000000000000000000000000000000000000600052601160045260246000fd5b6000821982111561367e5761367e61363c565b500190565b60006020828403121561369557600080fd5b8151611a6781613406565b6000602082840312156136b257600080fd5b8151611a6781613379565b7f4e487b7100000000000000000000000000000000000000000000000000000000600052603260045260246000fd5b60007fffffffffffffffffffffffffffffffffffffffffffffffffffffffffffffffff82141561371e5761371e61363c565b5060010190565b6000828210156137375761373761363c565b500390565b8051600f81900b811461357e57600080fd5b60006080828403121561376057600080fd5b6040516080810181811067ffffffffffffffff821117156137aa577f4e487b7100000000000000000000000000000000000000000000000000000000600052604160045260246000fd5b6040526137b68361373c565b81526137c46020840161373c565b602082015260408301516040820152606083015160608201528091505092915050565b600081600f0b83600f0b6f7fffffffffffffffffffffffffffffff6000821360008413838304851182821616156138205761382061363c565b7fffffffffffffffffffffffffffffffff80000000000000000000000000000000600085128682058612818416161561385b5761385b61363c565b600087129250858205871284841616156138775761387761363c565b8585058712818416161561388d5761388d61363c565b5050509290910295945050505050565b600081600f0b83600f0b60008112817fffffffffffffffffffffffffffffffff80000000000000000000000000000000018312811516156138e0576138e061363c565b816f7fffffffffffffffffffffffffffffff0183138116156139045761390461363c565b5090039392505050565b6000817fffffffffffffffffffffffffffffffffffffffffffffffffffffffffffffffff04831182151516156139465761394661363c565b500290565b600082613981577f4e487b7100000000000000000000000000000000000000000000000000000000600052601260045260246000fd5b500490565b60005b838110156139a1578181015183820152602001613989565b838111156113df5750506000910152565b600082516139c4818460208701613986565b9190910192915050565b60208152600082518060208401526139ed816040850160208701613986565b601f017fffffffffffffffffffffffffffffffffffffffffffffffffffffffffffffffe016919091016040019291505056fea26469706673582212208398aeb741d2790aa53ca956c623532d7e3d78c06fa237aa5a43112284c5635964736f6c634300080a0033a26469706673582212202ecd84ba32fd07985418c34ab6d74f4e479fd4bce5bed7c8f603b26ee468264664736f6c634300080a0033",
  "linkReferences": {},
  "deployedLinkReferences": {}
}